:020000041000EA
:10000000002008205D0100101301001015010010F0
:100010001101001011010010110100101101001058
:100020001101001011010010110100101701001042
:10003000110100101101001019010010B50300207A
:100040001D0100101D0100101D0100101D010010F8
:100050001D0100101D0100101D0100101D010010E8
:100060001D0100101D0100101D0100101D010010D8
:100070001D0100101D0100101D0100101D010010C8
:100080001D0100101D0100101D0100101D010010B8
:100090001D0100101D0100101D0100101D010010A8
:1000A0001D0100101D0100101D0100101D01001098
:1000B0001D0100101D0100101D0100101D01001088
:1000C0001D0100101D0100101D0100101D01001078
:1000D0001D0100101D0100101D0100101D01001068
:1000E0001D0100101D0100101D0100101D01001058
:1000F0001D0100101D0100101D0100101D01001048
:100100001D0100101D0100101D0100101D01001037
:1001100000BE00BE00BE00BE00BE00BEEFF3058004
:10012000103800BEF2EB8871D80A0310F40A0310ED
:10013000A801001090A31AE7D3DEFFFF42012110AF
:10014000FF010000D4410300793512AB4FF00000ED
:100150002049086006C881F3088810474FF05040D6
:10016000006810B14FF00000F2E70FA40ECC002998
:1001700002D000F015F8F9E71749184A002000E00E
:1001800001C19142FCD1002080F30A8814498847BC
:10019000144988471449884700BEFDE701C901C2D8
:1001A0009A42FBD3704700BFF40A031010010020ED
:1001B000283900200C43031000000820000008200C
:1001C0000C4303100010082000100820000000005D
:1001D0007047000008ED00E0283900208C6F0020F7
:1001E000F14E02103D020010E94E0210F8B500BFBA
:1001F000064B0749C91A891048BF0131491003D07D
:10020000044B0BB101481847704700BF2839002044
:10021000283900200000000008B5054B1BB1054936
:100220000548AFF30080BDE80840FFF7E1BF00BF1D
:1002300000000000445100205074021008B502F084
:1002400081FF002008BD00BF08B5884700200021BD
:1002500008BD00BF044B0C2293F83B314340C3F36D
:10026000000343EC4020704774610020002382B0FB
:10027000009310EE183010EE18C010EE180010EEBB
:10028000181010EE1820CCF3803CC3F3403343EA3F
:100290004C03C0F3C03043EA8003C1F3004143EA9A
:1002A000C103C2F3404243EA02138DF800300098C4
:1002B00002B07047C0680022836E18470D4B01469C
:1002C00093F8E82010EE183010EE1800C0F38040CC
:1002D000C3F3C04343EA400303F0030322F00300E7
:1002E0000343534018464A68127A134363F30000ED
:1002F000704700BF746100201423C0F3000242EC79
:1003000040301623C0F3400040EC4030704700BF3F
:10031000094B93F8D60010EE183010EE1820C2F3F7
:100320008052C3F3005343EA420303F0030320F077
:1003300003021343584070477461002072B603688B
:100340001943016062B67047034672B600681A68C6
:1003500022EA0101196062B6704700BF034672B617
:100360000068196062B67047014B1868704700BF9B
:10037000B44800202DE9F0470026884691462F4CCE
:100380002F4D237F43F001032377EF68AB7AA7F16A
:10039000010CBCFA8CFC627F95F800E04FEA5C1C13
:1003A0006361EB696CF3041226714946204684F8B8
:1003B00005E0A760236162770136C0470C2E05F186
:1003C0002005E2D102231F4D1F4FDFF884A0A38335
:1003D0000EE0272B0CBF524600226B694946C4E948
:1003E000032316480136C047232E05F11C050BD008
:1003F000EB68287A29786A68252B2671606161711B
:10040000A260E6D13A46E8E7104B1D680023E3609E
:100410008DB1EB68267163612B782F8A63716B68ED
:100420006A6949460548A360A7832261C047AD6950
:100430000136002DEDD1BDE8F08700BF883E0020D9
:100440006C290020E826002050740210045200207D
:10045000547402100D4B1B6813B970479B69A3B10C
:1004600093F800C08445F9D110B45C688C4208D080
:100470009B693BB193F800C08445F9D15C688C421C
:10048000F6D15A615DF8044B704770470452002062
:10049000F8B50446002840D02A4B9FED2B7AD3EDC7
:1004A0003D7AF4EEC77AF1EE10FA37DC9FED277A49
:1004B000F4EEC77AF1EE10FA40DDC0250C260520D7
:1004C0001FF0EAFE224AB0FBF6F32249204617F05D
:1004D000AFFF30B3002101201F4A204B62621D4A4A
:1004E000D7681689D3F8842082EA07421C4F6FF33D
:1004F0000F02C7F884209967C3F88010C3F88410EE
:10050000C3F88860DD679867A17A204611F0010181
:1005100018BF104917F03AFC0120F8BD102501263C
:10052000CDE7E36893F820305B0604D5014600224E
:100530002046636A98470B4B6362E5E74FF44875C2
:100540003226BCE7746100200000FA4400004843F2
:100550005C620020806300202109001000800A40B6
:1005600000900A40CD08001070B504461C2024F00D
:100570005DFCA8B184460546002620686168A26833
:10058000E368ACE80F00084A206961691368ACE8C9
:100590000300AE612BB11A469B69002BFBD195611C
:1005A00070BD156070BD00BF0452002000B58BB057
:1005B000684625F0C5FE044B0448C01A079BC01AC4
:1005C0000BB05DF804FB00BF8C6F0020000008201A
:1005D000064C08B50648D4F8C0309847002164207E
:1005E000E36B98470021084620F0CAFF103C00202A
:1005F0005C74021020F014BF2DE9F84F01252A4C3D
:100600004FF000088146AA4604F5217B02E01C3425
:100610005C452CD0E368242BF9D163680B2BF6D012
:10062000207A1FF047FF0428F1D0207A20F004F848
:100630002378207A062B33D0C02B31D0A0F1200CA8
:10064000C0F1200105FA0CFC25FA01F147464346AA
:1006500005FA00F64CEA010242EC24606368012BC3
:10066000D5D104211C341FF007FF5C45D2D199F885
:1006700000300E4AA3F11703B3FA83F30C4C5B0965
:1006800048464FF00001D2F808212370904710EE41
:10069000103003F4786320EE10302078BDE8F88F36
:1006A0004AEC4000CAE700BFE8260020103C0020CA
:1006B000716F002010B5536882B0012B14468DF87D
:1006C000071012D0107803F001F9012103460DF153
:1006D000070208461EF0A8FC58B19DF8070060709C
:1006E000FF3818BF012002B010BD927843699A42CA
:1006F00005D06078FF3818BF012002B010BD836AB2
:10070000002BF6D09DF807006070E9E788B170B55E
:10071000054600244FF00003E2B262F3070362F3E0
:100720000F2363F30F0630460134A847052CF1D19F
:1007300070BD7047002110B5044611201FF0C0FFA6
:100740000121104A104B10681A68814022EA010208
:100750001A60D3F8702122F48072C3F8702184B13A
:1007600010EE103003F4786320EE10300020074ABA
:10077000074B08491B68907009681268043341F8F8
:10078000232010BDA067002000003050EC2A00207C
:10079000986700208467002000B170470149024833
:1007A00011F026BB887402109074021038B51B4CEF
:1007B00000214FF01F00D4F88C309847184B194A8D
:1007C0001968236A1848A2FB03230268B2EB131FBF
:1007D0000FD01C09154B164D1A6801EB410304603C
:1007E00002F01F0205EBC303081D45F82040C3F8C3
:1007F000D82001230E4A8B401068034208D11168AB
:100800000B431360D2F8703143F48073C2F8703137
:100810000121BDE8384011201FF052BF103C0020DC
:10082000A06700201F85EB5100520020A467002024
:10083000000030502DE9F0410D4684B010B304465D
:1008400031B320F053FC064620F0EAFD0B46024689
:100850004FF47A704FF0FF3C6FF00047E4FB002349
:10086000944577EB03014FF00001154C3CBF624605
:100870003B46304601950094029120F03BFC04B0C9
:10088000BDE8F0810029FAD004B0BDE8F041084786
:100890004FF47A720B4E02FB04F4B76AB36ADB1BA7
:1008A000A342ECD2DFF82080D8F8585026F094FD0F
:1008B000A847B36ADB1B9C42F6D804B0BDE8F081C0
:1008C0004902001000000B40E83A0020C36811F014
:1008D00001000CD193F8202060F3861283F82020C9
:1008E00012F0040218D0122340EC4030704712225C
:1008F000C1F3400141EC402093F82010490758BF54
:1009000013224FF0010141EC402093F8202042F0E7
:10091000400283F820207047132342EC4030704798
:1009200038B50446C06807EE902A90F82030CAB265
:100930005D0719D5920731D490F8203023F0400399
:1009400080F8203013F0040322D1132143EC40102F
:100950002A4AC368D2F884201B04294953406FF304
:100960000F03C1F8843038BDD507E5D51222C1F395
:10097000400141EC4020F5EE407AF1EE10FA01D151
:100980001A0712D413234FF0010242EC403020E04A
:1009900012234FF0000141EC4030D9E7F5EE407AE8
:1009A000F1EE10FA10D11B070ED590F8203023F08D
:1009B000400380F8203013F004031BD012234FF0C3
:1009C000000242EC403038BD12234FF0010242ECED
:1009D000403090F8203017EE901A43F04003856EB7
:1009E00080F820300022A84701462046BDE8384064
:1009F00026F0CEBC132243EC402038BD00800A40D4
:100A000000900A402DE9F0416A4D82B00646084642
:100A10000F462C7802F02CFF0190002E45D0664B3B
:100A200093F85A31DB0740D50026FFB26A68013CD3
:100A30004FEA441802EB441357B9FEB100220F21CC
:100A4000987A1FF075FD002CF0D102B0BDE8F0815E
:100A500012F8080002F06EFE6B68C0B24344DA6818
:100A6000B2F5007F0CBF9DF804209DF8052000EA38
:100A70000206003E18BF0126002EDFD11A89C2F3FC
:100A80004412102A73D8DFE802F0938C85727E72CC
:100A9000727277727272727272726D0000220F211E
:100AA000987A1FF045FD002CCFD06B68013C03EB1A
:100AB0004413002EF2D01A89C2F34412102A2AD805
:100AC00001A151F822F000BF9D0A00100D0B00108B
:100AD000550B0010170B0010450B0010170B0010E2
:100AE000170B0010170B0010350B0010170B001020
:100AF000170B0010170B0010170B0010170B00102E
:100B0000170B0010170B0010250B001001220821F5
:100B1000987A1FF00DFD002C97D06B68013C03EB19
:100B20004413C8E70122987A11461FF001FD002CFA
:100B3000F3D18AE701220221987A1FF0F9FC002CF8
:100B4000EBD182E701220C21987A1FF0F1FC002CF6
:100B5000E3D17AE701220421987A1FF0E9FC002C06
:100B6000DBD172E70122987A11461FF0E1FC0026E2
:100B7000002C7FF45BAF68E701220221987A1FF016
:100B8000D7FC0026F4E701220C21987A1FF0D0FC54
:100B90000026EDE701220421987A1FF0C9FC002607
:100BA000E6E701220821987A1FF0C2FC0026DFE761
:100BB000002643E7E84F00207461002010B5038948
:100BC000044603F47871802982B01CD010EE1820FE
:100BD000403918BF0121807AC240607A82EA9002CF
:100BE00002F001028A420ED0C3F34413102B41D805
:100BF000DFE803F0525558405B40404042404040DF
:100C0000404040404A00E268B2F5806F05D0B2F53E
:100C1000801F4DD0B2F5007FE6D10023009310EE87
:100C2000183010EE18C010EE180010EE181010EE6C
:100C30001820CCF3803CC3F3403343EA4C03C0F3A9
:100C4000C03043EA8003C1F3004143EAC103C2F369
:100C5000404243EA021303F01F038DF8003000986E
:100C600026F082FBC0B230B3144B00981B6E98473D
:100C70002389B9E702B010BD01220221A07A02B097
:100C8000BDE810401FF054BC01221146A07A02B00A
:100C9000BDE810401FF04CBC00220F21EEE70122FE
:100CA0000821EBE701220421E8E701220C21E5E716
:100CB000204601F03BFE238996E700BF103C002050
:100CC00010290AD8DFE801F00A0F140919090909E7
:100CD0001E090909090909092300704700220F218B
:100CE000807A1FF025BC01220821807A1FF020BCE9
:100CF00001220421807A1FF01BBC01220C21807A82
:100D00001FF016BC01220221807A1FF011BC0122C3
:100D1000807A11461FF00CBCC94B1B78002B00F0E9
:100D2000F3812DE9F04FCB07804683B000F1ED81D0
:100D3000C44CD8ED507A94ED087ADFEDC33AF8EE62
:100D4000475AB0EE006ADFEDC14A37EE866AB2EE6E
:100D5000045A85EEA37A77EEE47AD8ED516A9FEDD6
:100D6000BC4A27EE067A67EE857ABAFE477AFCEE31
:100D7000E77AF4EEC46A17EE903ABCEEC77AF1EE69
:100D800010FAB449B44A81ED027A537040F2B2814C
:100D900076EEE46A66EE856AFCEEE67ACDED007AE0
:100DA0009DF8003098F83811022001F0010113700D
:100DB0001FF0AEFB98F83911072001F001011FF078
:100DC000A7FB98F838110320C1F340011FF0A0FBE6
:100DD00098F839110820C1F340011FF099FB98F8E9
:100DE00038110420C1F380011FF092FB98F83911EB
:100DF0000920C1F380011FF08BFB98F83811052002
:100E0000C1F3C0011FF084FB98F839110A20C1F327
:100E1000C0011FF07DFB98F838110620C1F30011C6
:100E20001FF076FB98F839110B20C1F300111FF069
:100E30006FFBD4F88830012098470022DFF8289211
:100E40000C264C4611461046844B1FF095FB0021A2
:100E500015201FF035FC98F85B3198F85CA1804FA5
:100E60008AEA030ACAF340130093CAF300130193FA
:100E700094F86A011FF0E0FB94F86031013E3D2BCD
:100E800025D81E2B2DD91F3B1E2B2AD8DFE813F0A7
:100E9000A800A800A8002900290098009800980040
:100EA0002900290082008200820029002900FE001A
:100EB000FE0029002301230129000E010E01290053
:100EC0002900290029002900290029002100C32B1D
:100ED00007D109EB4612138923F47E7343F04803CC
:100EE00013817501D4F86C3113F4C06F0BD009EB8A
:100EF00005035A7A12F0040F0CBF012102211A894E
:100F000061F349121A814D442B7A94F86A0103F077
:100F10001803082B0DBF01210021012200221FF020
:100F2000D3FA697A94F86A01C1F380011FF0E0FAFC
:100F3000D4F86C311F4200F0DF8094F86A010F2171
:100F40001FF06EFB203C002E92D1464E17253446F2
:100F500002E01C3C002D63D0D4F87432013D242BF8
:100F6000F7D194F868328A3B072BF2D801A252F8E5
:100F700023F000BF7F1000106D100010530F001001
:100F8000530F0010530F0010530F00102F100010BC
:100F9000FB0F001098F85C2109EB4610018942F321
:100FA000800202F0030282F0010221F48361CAF39D
:100FB00080039B0243EAC2030B430381750191E75F
:100FC00098F85C2109EB4610018942F3400202F0D7
:100FD000030282F0010221F48361CAF34003E8E7CF
:100FE00098F85C2109EB4610018902F001020132F8
:100FF00021F483610AF00103DBE7C5EBC50398F830
:10100000D62006EB8303597C1C3C62F382015974A1
:1010100094F88C02C1F380011FF07AFA002D9BD165
:101020000121152003B0BDE8F04F1FF049BB98F82F
:10103000D620C5EBC50306EB8303C2F34002E2E70B
:10104000716F0020103C002000247449CDCC4C3E30
:10105000CDCC4C3F88670020EC2A0020FD02002008
:1010600000061000E82600206C29002098F8E820EF
:10107000C5EBC50306EB8303C2F34002C3E7C5EB30
:10108000C50398F8E82006EB8303BCE798F85C21D9
:1010900009EB4610018942F3C00202F0030282F01C
:1010A000010221F48361CAF3C00382E798F85C313E
:1010B00009EB4610018943F3401303F00303009A40
:1010C00083F0010321F48361920242EAC3030B43DC
:1010D0000381750106E798F85C3109EB4610018938
:1010E00043F3001303F00303019A83F0010321F497
:1010F0008361E9E7022355E6298904F5B070C1F35D
:101100004411FFF7DDFD18E77047094C012194F900
:10111000000016F0EDFDFFF7BBF916F011FE94F993
:10112000003098427FF404AE16F0BCFC00E600BF2D
:10113000F02A00202DE9F04F2DED028B4FF0E02337
:101140000022032540F2E731A64CA748A3B0606017
:10115000A648A74EA060A748A74FE060A748206117
:1011600059619A61A64904921D61A64B0520A163AD
:1011700023621FF091F84FF07E51E1614FF48061DE
:10118000A14BA162A3FB00139B0C07EE903AB2EEB9
:10119000047AF8EEE76A63629C4BC6EE877A636373
:1011A0009B4B9C4AE3639C4BC2ED007AC4F8083128
:1011B0009A4BC4F884309A4BC4F88830994BC4F8E1
:1011C0008C30994BC4F89430984BC4F89830984BB5
:1011D000C4F8AC30974BA365974BE365974B6367B7
:1011E000974BA367974BE366974BC4F8D831974B5F
:1011F000C4F8D431964B2364964B6364964BA36436
:10120000964BC4F8CC31964BC4F89431954BC4F846
:10121000983100F0D1FD01F043F818F0D3FE4FF4FF
:1012200080539149C4F8A831904BC4F8C411C4F854
:10123000C83184F8A05102F047FE8D498D4816F060
:10124000CFFB1F231E931993C4F8043294F80A327B
:10125000894A23F0030343F0030384F80A3294F825
:10126000F83192F800C023F06F0343F06F03834D11
:10127000D2F8048084F8F831049A814B3070294602
:10128000E646934692461046CDE9062CD3F80490E4
:101290001E78ADF85C20A4F80822ADF878200592FD
:1012A0000FE013F4C06F07D0B9F1000F00F008820F
:1012B0004FF0010B0136F6B201300C2801F120018C
:1012C00038D005EB40131A794FEA401C22F019027E
:1012D00042F009021A711A7A22F0190242F0090248
:1012E0001A728B7A47F82310CB68B3F5801FD8D1D8
:1012F0000EF13F0AAC440EF10102B8F1000F00F00C
:10130000DB8181F80BE081F800A0BCF804300130EB
:1013100023F478735B045B0C43F4034343F0E00372
:101320000C284FF0010A5FFA82FEACF8043001F19C
:101330002001C6D1DDE9062CBBF1000F01D0504BD6
:101340001E70059B13B14E4BC3F80490BAF1000F09
:1013500000F09C82484B83F800E0049B13B1464B9D
:10136000C3F80480474B4FF00009D3F804A0CDF830
:1013700048E0D6461978444BDFF814815B68424850
:101380000493D8F834300578059398F832303F4FFD
:101390000D93D8F828309246069398F826300E46DA
:1013A0000E93D8F81C303846079398F81A30AC469C
:1013B0000F93D8F81030CB46089398F80E30724649
:1013C0001093D8F80430CDE913150A9398F8023039
:1013D000CDF824901193CDF830904B46CDF82C9059
:1013E0005DE000BF103C0020A4740210AC74021039
:1013F000F02A0020B4740210184F0020C0740210AC
:10140000F90500108096980083DE1B43AD0500109F
:101410003508001034520020190D0010AD070010DF
:101420003507001055020010750200201101002040
:101430000D070010050A00106D020010F9020010DF
:1014400011030010A9010020F50500106903001028
:101450003D030010490300105D03001075030010E8
:101460006905001055040010C1230010DD23001091
:10147000247B021048DA0210C04500206C290020AD
:10148000E84F0020E0450020D8450020E826002055
:10149000F42A00200133172B00F11C002AD0C3EBE3
:1014A000C30107EB810191F810E04EF0020E81F8C4
:1014B00010E041684FEAC30E092900F005810B29AD
:1014C000E8D1002A00F047814FF00109AEEB030E8E
:1014D00007EB8E0E9EF81110013341F008018EF8D3
:1014E0001110172BA6F156014E440170F6B200F10F
:1014F0001C00D4D11346DDE913155246DDF848E04F
:101500009A46B9F1000F00F0BF81B04B1E70099BE5
:1015100013B1AE4BC3F804A00C9B23B1159B88F804
:101520003120C8F83830BBF1000F00F0AB81A84B78
:1015300083F800C00B9B13B1A54B049A5A605EEA76
:101540000C0C05D0A249A34801F012FA9F4B1E785B
:10155000002E40F0128201F04BFD9F4D05F13C073B
:10156000D5F80360012E00F0FE806E78FF2E00F0AB
:1015700053812B78FF2B15D0012100232A460846E2
:101580001DF052FD0646002800F0778115F8011C79
:101590008C2900F064818F2900F06181002230469F
:1015A0001DF0B4FD0C35BD42DAD18C4A8C4B8D4810
:1015B0001A661AF047FC00218B4823F0B7FE034659
:1015C0008A4D8B4988482B6023F0CCFE00221D9267
:1015D000884A894B92ED008A4FF4402218604FEA06
:1015E000C01E431D1C924EEA033E4FF480324FF45E
:1015F000F8338446CDE91A231AAE1EAF96E80F00E1
:1016000087E80F002D68CDF87CE097E80F0086E8AA
:101610000F00334662462946734823F073FFDFED1F
:10162000777A78EE277ABCEEE77A17EE103A9BB21B
:10163000002B00F0258107EE103AB8EE477ADFED77
:10164000706A77EEC77A67EEA67AFCEEE77ACDEDA0
:10165000047A9DF81020120242EA034205EB45038A
:10166000DB0003F1A04303F54013C3F8C8201120A9
:1016700064491FF047F8002111201FF061FA4FF074
:10168000000805230225CDE901385F4A5F4960481B
:1016900018AB009523F08AFF002840F0F9800CF089
:1016A00097FC2068A0F10A00B0FA80F0400923B04E
:1016B000BDEC028BBDE8F08F01238846049320E641
:1016C000012389460593F3E50499002947D0C168B1
:1016D000059DACF16E0EA94280F800E090F808E09C
:1016E0000DD10D9DAE450AD10121E24615900C9118
:1016F0000CF1010C4FF0010B5FFA8CFCCAE6069D61
:10170000A94207D10E9DAE4504D188F825C0C8F87E
:101710002C00EDE7079DA94207D10F9DAE4504D1EE
:1017200088F819C0C8F82000E2E7089DA94207D14F
:10173000109DAE4504D188F80DC0C8F81400D7E755
:101740000A9DA942D4D111998E45D1D188F801C002
:10175000C8F80800CCE7012102460991B4E601214E
:1017600004900B91B3E76B1E00934FF4A032314607
:101770003046284B1DF080FD00283FF413AF0023B6
:101780002A46314630461DF04FFCC5F807000028B8
:101790003FF408AF002215F8011C1DF0B7FC3146DC
:1017A000304600232A461DF03FFC0646002864D040
:1017B00015F8011C8C2900F0FB808F2900F0F880BF
:1017C000304600221DF0A2FCECE600BFE045002000
:1017D000D8450020C0450020F52A002099070010B8
:1017E000E83A0020D826002000003050A0670020F2
:1017F000A4DA021034520020A46700200000003B4D
:1018000000008043B1010020986700208467002019
:101810008CDA0210B506001001216B1E00934FF404
:1018200080420846694B1DF027FD00283FF4BAAE00
:10183000012100232A4608461DF0F6FB80460028B9
:1018400000F0B48015F8011C8C2900F09D808F29D0
:1018500000F09A80404600221DF058FCA2E668780D
:101860001EF0EAFE01236878834040EE1430042124
:101870001EF002FE15F8011C90E6FF232B7091E686
:101880001A46E9E6AC4655E60E4640E6E64664E50D
:101890004F4BDDF860B093ED008A4E4BCDF874806D
:1018A000D3F800904C4B4FEACB1CD3F800A04FF478
:1018B00040231C9309F12F4303F560034FEA1358AB
:1018C0000BF106034FF480324CEA033C4FF4F8333B
:1018D000CDE91A2396E80F0087E80F00DFF80CE146
:1018E00008F10608CDF87CC097E80F005FFA88F889
:1018F00086E80F00CDF874E02846414601351EF019
:10190000BBFD072DF8D10123022251460093484622
:10191000052323F0B1FD33465A465146484623F08D
:10192000F1FDDFED2E7A78EE277ABCEEE77A17EE3E
:10193000103A9BB233B307EE103AB8EE477ADFEDB8
:10194000286A77EEC77A67EEA67AFCEEE77ACDEDE5
:10195000047A9DF81020120242EA03430AEB4A027D
:1019600009EBC202C2F8C8300123D9F8002003FAFB
:101970000AF31343C9F8003091E61A491A4801F0F6
:10198000A9F9E8E51A46E7E768781EF055FE012355
:101990006878834040EE143004211EF06DFD40460F
:1019A000002215F8011C1DF0B1FBFBE52E70F9E5D6
:1019B00068781EF041FE01236878834040EE1430C1
:1019C00004211EF059FD15F8011CF9E6B5060010BA
:1019D0003452002084670020986700200000003BFC
:1019E00000008043E0450020C84500200200500070
:1019F000054B1A685B6890B29A4299B238BF00F5FD
:101A00008060401A80B2704738570020074B1A6830
:101A10005B6890B29A4299B238BF00F58060401A74
:101A200080B2C0F57F70033080B270473857002015
:101A3000074A53681168994206D0591CC1F309013D
:101A40001344D87A516070474FF0FF30704700BFA1
:101A5000385700202021034A034B91631A685A60CB
:101A6000704700BF00300740486B0020084A82B032
:101A70009369D90605D41368DBB201939369DB0639
:101A8000F9D50022034B19685A72596002B07047A9
:101A90000000074038570020F8B5104B06469A6BF7
:101AA000910605D49A69920616D520220C4B9A63AA
:101AB0000C4D0D4F2C680134C4F3080403E0D7F833
:101AC000F431984738B16B68A342F8D02B682C608A
:101AD0001D442E720120F8BD1860FBE7000007408E
:101AE00000200740486B0020103C0020084B1A687B
:101AF0005B6890B299B29A42064B38BF00F500700D
:101B00009B69401AC3F3C00380B2184480B2704787
:101B1000486B002000000740502210B1024B9A632E
:101B20007047024B9A63704700300740002007401F
:101B3000014B1B68184700BF442B00200346024A94
:101B4000106803B113607047442B002008B50346AA
:101B500003F00C0213F0030F14BF07210821082A19
:101B600014BF012202220348C3F3021321F0ECFB4D
:101B7000012008BD0000074008B50146024821F0D9
:101B800095FB012008BD00BF000007400146014849
:101B900017F06ABF38570020F8B5224D2F6C17F0A8
:101BA000500F0AD0204E05E02C683368E4B220467E
:101BB000984718B3AB69DB06F6D5BA060AD51B4AB7
:101BC00018495368886984060CD5536051681368B6
:101BD000994220D0F8BD287AC4F3080308608869C8
:101BE0008006F2D41068D518984203F10104F2D1AE
:101BF0005360516813689942ECD10CE00C4A1368A9
:101C000051680133C3F30903994208D01168136086
:101C10000A44D472CEE72022064B9A63F8BD012312
:101C20005372C7E700000740442B0020486B002098
:101C300038570020003007401F4A517809B1002072
:101C4000704792F802C070B504461CF0010030D015
:101C50001CF0020FCCF340062CD14CF0020C174DB7
:101C60000221304682F802C01EF006FC022101204B
:101C70001EF002FC2146284621F096FA286B104CF3
:101C800000F440400122334608212063284621F019
:101C90005BFB0121284621F08FFB212009491EF022
:101CA00031FD212001211EF00BFD5022064B07487B
:101CB0009A6370BD084670BD3C2B002000000740B1
:101CC00000100740991B001000200740B8DA0210EE
:101CD0002DE9F843074617F8016B1EB3DFF858806B
:101CE000DFF85890D8F838309A0606D4D8F818306B
:101CF0009B0619D520220E4B9A630E4D2C68013499
:101D0000C4F3080403E0D9F8F431984730B16B68A4
:101D10009C42F8D02B682C601D442E7217F8016B82
:101D2000002EDFD1BDE8F883C8F80060F6E700BFF9
:101D300000200740486B002000000740103C0020B6
:101D400081B32DE9F04706464B1E9BB20133DFF805
:101D50006080DFF860A0C718D8F8383016F8019B0B
:101D60009A0606D4D8F818309B0618D520220E4BB8
:101D70009A630E4D2C680134C4F3080403E0DAF8CA
:101D8000F431984738B16B689C42F8D02B682C60CE
:101D90001D4485F80890BE42DED1BDE8F087C8F842
:101DA0000090F8E7704700BF00200740486B002014
:101DB00000000740103C002010B5074C0748D4F83D
:101DC000943198470648D4F894319847BDE81040BC
:101DD000044817F02BBE00BF103C002024DB02108B
:101DE0000CDB0210302B0020054B5A681B6891B2A7
:101DF00098B29A4288BF00F58060401A80B270475E
:101E0000445B0020064B5A681B6890B29A4299B214
:101E100094BF00F2FF3000F1FF30401A80B27047EB
:101E2000445B0020014B1A685A607047445B0020F5
:101E30001820064B19681A6819445A601A68C87243
:101E40000132C2F309021A60704700BF445B0020F0
:101E5000074A53681168994206D0591CC1F3090119
:101E60001344D87A516070474FF0FF30704700BF7D
:101E7000445B0020014B1B68184700BF482B002023
:101E80000346024A106803B113607047482B0020D4
:101E900008B51F201EF02AFC4FF47A70002108BDFF
:101EA0000146014817F0E0BD445B0020002020F00F
:101EB000C1BB00BF08B50021074825F09DFA00B955
:101EC00008BD4FF0FF3000211FF0ECFDBDE80840D9
:101ED000014825F059BA00BF686E00202DE9F8438B
:101EE00080460F461FF054FD48B900200021294BC1
:101EF000C3E90001BDE8F843274825F045BA1FF0C3
:101F00004FFD05460028F0D1002FF3DDDFF8849067
:101F1000224E13E02246002020F040FC002104461F
:101F20004FF0FF301FF0BEFD002020F0EFFB1FF050
:101F300077FAC9E900012544AF42DBDD002020F03B
:101F40004DFC7C1B8442A8BF044608EB0501002C15
:101F5000E0D121464FF0FF301FF0A4FD204620F0D5
:101F6000D5FB1FF015FD0028C4D01FF019FD002877
:101F7000C0D120F033FC0028DED11FF051FAD9F88F
:101F80000030D9F804209B1942F1000283428A41B3
:101F9000D2D2AFE7203E0020686E002020A10700CB
:101FA00008B50E4B18701FF03BFA4FF0FF3E6FF074
:101FB000004C0B4A821841F1000396457CEB03016B
:101FC0003CBF72466346074825F0FAF918B1012173
:101FD0000248FFF783FF012008BD00BF6C470020C7
:101FE00040420F00686E0020474B2DE9F047474CF8
:101FF0001B68984723780BB1BDE8F0870123237055
:102000001FF0C6FC18B900232370BDE8F0871FF04D
:10201000C7FC0028F7D120F023FB06460028F2D0A9
:102020003B4D69682A688BB2914294BF03F2FF3737
:1020300003F1FF3790B23F1ABFB21FF0A9FC00288E
:10204000E1D01FF0ADFC0028DDD120F009FB002815
:10205000D9D01FF0E5F94FF0FF3E6FF0004C2D4A4C
:10206000821841F1000396457CEB03013CBF7246A8
:102070006346294825F0A4F90028C4D01FF088FC45
:1020800040B900214FF0FF301FF00CFD224825F031
:102090007BF9B8E71FF084FC80460028F1D120F0DE
:1020A000DFFA0028EDD0142E3246A8BF14221B4EB2
:1020B000BA42A8BF3A463146404620F0DDFA07460C
:1020C000154825F061F9002F9DD09CDDB1464FF0F9
:1020D00001083E44124F06E02A682B60AB1883F8D3
:1020E0000BA0B1458FD019F801AB3B68504698471B
:1020F0000028F6D12B686A680133C3F309039342C1
:10210000EAD185F80980ECE760510020816F00205A
:10211000445B002040420F00686E0020F46A0020FB
:10212000482B00202DE9F0411F4D204E05F10C07F2
:10213000AF602B6833B1002020F050FB0A282B68D9
:1021400004D84BBB0120AF60BDE8F081984228BFA6
:102150001846D5F8088004461FF062F902464FF091
:10216000FF3E6FF0004C921941F1000396457CEB65
:1021700003013CBF724663460D4825F021F918B1B2
:1021800021464046FFF7AAFE2B68AA681B1B224483
:102190002B60AA60002BD5D0064BD3F8F4319847BA
:1021A0000028C6D12860CEE7506D002040420F00C5
:1021B000686E0020103C002038B5114B04461B68A7
:1021C0000D4613B1FFF7AEFF98B11FF029F94FF09C
:1021D000FF3E6FF0004C0B4A821841F10003964518
:1021E0007CEB03013CBF72466346074825F0E8F8E4
:1021F00000B938BD29462046BDE83840FFF76EBE1D
:10220000506D002040420F00686E00200378002BC4
:1022100039D070B5044624F0B5FE1E4E054633682D
:10222000C218FF2A16D802462146B06824F034FEB0
:102230003368B2682B442A443360B260254415F8F1
:10224000012C0A2A02D0726893421BD9BDE8704063
:10225000FFF768BF13B1FFF765FF98B11FF0E0F813
:102260004FF0FF3C6FF000460B4A821841F100032B
:10227000944576EB03013CBF62463346074825F0A0
:102280009FF808B970BD70472046A9B2BDE87040FC
:10229000FFF724BE506D002040420F00686E002002
:1022A000002130B5084685B020F05AFC1F201B499C
:1022B0001EF028FA01211F201EF002FA18481EF015
:1022C000DDFC1EF013FF04461FF0AAF84FF0FF3E9E
:1022D0006FF0004C10F57A7241F1000396457CEBEB
:1022E00003014FF001054FF0000120460D4CCDE9F0
:1022F00001153CBF7246634600941EF0FBFEEC21C4
:10230000094A0A48546D0A4B04600A4C0A4803F112
:102310000C059D605465596005B030BDB51E0010B8
:10232000686E0020911E0010E83A002060510020E5
:10233000506D0020E91F00103CDB02100048704780
:10234000F0DB021000487047A4DB021038B540B93A
:1023500040F209424FF44173164D16486A802B80B3
:1023600038BD042804461ED803281ED0124B114D38
:1023700053F8241028460023013903E0132B20F8DA
:10238000022F0BD011F8012F0133DBB2002AF5D157
:102390005B0043F4407307482B80E1E74FF44A7336
:1023A00004482B80DCE7002038BD1021034822F0D0
:1023B000FBFEDBE77448002090DB02106061002028
:1023C00008B5044B0449D3F8A42124F065FD01208D
:1023D00008BD00BF103C002000801F1038B5144D10
:1023E0001449D5F8A421044623F0B4FF08B901200C
:1023F00038BD72B64FF480514FF4FC1024F0D8FF72
:10240000D5F8A4214FF4FC10D3B2120A002B18BF48
:1024100001322146120224F097FF62B60549204698
:10242000D5F8A42123F096FFB0FA80F0400938BD1A
:10243000103C002000801F100C4BDA7803799A4280
:102440000FD910EE18200A49C3EBC303096801EB4A
:1024500083031B7A22FA03F3DB0704D54FF07E5087
:102460007047044870470020704700BF9C48002018
:10247000D0450020000080BF0B4B1A7803799A42A8
:102480000DD910EE18200949096801EB43139B7A16
:1024900022FA03F3DB0704D54FF07E50704704485F
:1024A00070470020704700BF9C480020B8450020BE
:1024B000000080BF354B364A10B5DA62002832D1B1
:1024C000344A12788A422DD9334A197114684FEA76
:1024D000411C04EB41114A7A4868C2F3801282F031
:1024E00001029201B1F808E042F004029861C0F3E1
:1024F000072020F0440002F0440202435A76CA68E2
:10250000A3F81CE014F80CC09A608A7A0C69C869B8
:102510005A612249224AC3E90340C3E9081283F8F9
:1025200005C01A4810BD01282DD11A4AD2788A4216
:1025300029D91C4AC1EBC10C1468197104EB8C0138
:102540000A8A9A830A8A9A61120A22F044004A7C13
:10255000C2F3801282F00102920142F0040202F002
:10256000440202435A7614F82C00CA6858714C6829
:1025700048699C600C7A0C49DA600C4AC3E904048F
:10258000C3E90812CDE7002010BD00BF283E00209F
:10259000FD2800109C480020B8450020252600108A
:1025A00079240010D0450020B125001039240010F6
:1025B0002DE9F041194F037997F803C0634508D31B
:1025C000174E3368187860452CBF00200120BDE805
:1025D000F081134E04463068C3EBC30300EB830362
:1025E00090465A7C0D460978C2F38000884205D196
:1025F000B8F1000F0BD197F803C0E2E761F3820254
:10260000187A5A741DF084FFB8F1000FF3D02946F0
:1026100020461DF08BFB97F803C0D2E79C480020B2
:10262000D0450020F8B5224F164697F800C0027931
:10263000624503D28B780D46032B04D162452CBF33
:1026400000200120F8BD47F6E73104461948012B68
:10265000006803F0030300EB421228784FEAC3033B
:1026600043EA8023687843EAC033108901EA000115
:10267000114803EA000343EA010313810DBF01215E
:1026800000210122002260691DF01EFF2978606987
:102690001DF02EFF3EB9227997F800C062452CBF8D
:1026A00000200120F8BD294620461DF0C9FAF2E7B6
:1026B0009C480020B84500201884FFFF4F4B2DE9AF
:1026C000F0471B78834239D94D4B1D6805EB401507
:1026D00000297CD007EE902AB3EE047A67EE877A61
:1026E000FAFE677AFCEEE77A17EE904A4B1E012B52
:1026F00004F1010427D90E1F18BF012610EE18306F
:10270000AA7AD34003F00103B34269D0B4B13D4F7C
:10271000DFF8F8800AE098F800307BB910EE183046
:10272000AA7AD34003F00103B34259D00DF066FA00
:1027300000213220FB6B9847013CECD14FF0FF3475
:102740002046BDE8F087012914BF02230B46AA8862
:1027500018BF194613EA5213F0D00127002395F849
:102760000AC0294E07FA0CFCD6E90089284628EA57
:102770000C02C6E90023FEF7A3FAD6E90023A87AE3
:102780008740174234D1BCB11E4FDFF880800BE088
:1027900098F8003083B9D6E9009A0121A87A01FAA5
:1027A00000F313EA090F23D10DF028FA002132209B
:1027B000FB6B9847013CEBD14FF0FF342989284649
:1027C000C1F34411FEF77CFA2046BDE8F08710EE15
:1027D0001840AB7ADC4004F001042046BDE8F087E5
:1027E00010EE1840D44004F001042046BDE8F08704
:1027F00010EE1840C44004F00104DFE79C480020BC
:10280000B8450020103C0020E03A0020F83E0020AF
:10281000064BDB78834208D9054BC0EBC0001B6830
:1028200003EB80031B7A41EC403070479C4800204A
:10283000D045002048B90C4B1B788B4212D90B4B6A
:102840001B6803EB4113DA61704701280AD1064B7C
:10285000DB788B4206D9064BC1EBC1011B6803EB49
:1028600081035A61704700BF9C480020B845002092
:10287000D045002070B51E4C82B02478844220D907
:102880001C4C256805EB4015B5F804C01CF47874A1
:1028900014D0CCF3441C32EA0C0C16D00024164E93
:1028A000336D984700212846FEF70AFA00222B894B
:1028B000AA6123F478732B81F36C9847204602B009
:1028C00070BD0024204602B070BD7BB12889E9723A
:1028D00062F34910288111462846AB610192FEF748
:1028E000EFF9019A0124002AE8D1D8E71C46D6E77F
:1028F0009C480020B8450020103C0020037FDB07E7
:1029000006D5084A037912685B010120D15470474B
:10291000054A03791268C3EBC303012002F82310B0
:10292000704700BFB8450020D0450020012170B499
:102930000E4E90F80AC0D6E900452B4601FA0CF17C
:1029400041EA04028469C6E9002364B110EE18105C
:10295000437A21FA0CF181EA9301C07A234670BCD4
:1029600001F00101184770BC704700BFE03A002039
:1029700030B587B0EC4690F800E00C4A40680C4D4A
:1029800010600C4B4A6885F800E01A600A4C0B781E
:10299000EB700FCCACE80F0094E803008CE8030068
:1029A00068461CF0DDFE07B030BD00BFB845002012
:1029B0009C480020D045002004DC0210064B1B6818
:1029C00043B106490279C978914203D903EB8203E6
:1029D0001868704702487047FC520020B04500203C
:1029E000000080BF037F9A0705D5044A0379126867
:1029F0005B01D154037FC3F340007047BC45002006
:102A00009FED4D7AD1ED007AF4EEC77AF1EE10FA2F
:102A10002DE9F84F0C460546D0F80C9009DC9FEDE7
:102A2000477AF4EEC77AF1EE10FA12DDC0260C27D1
:102A300001E01026012705201DF02EFC4946B0FBC1
:102A4000F7F220461DF04EF8074630B93846BDE88B
:102A5000F88F4FF448763227EDE76869B9F80480BB
:102A60001DF0EAFD01236869834040EE1430042123
:102A70001DF002FD6B69D9F8082058081F2B8ABF8A
:102A800000F0030000F00700083013F0010308BF56
:102A90004FF6FF7A1FFA82FB4FEA800200EB8001BB
:102AA00002444FF00000DFF8A0C04FEA81018C44DF
:102AB000DCF800E01CBFDFF894A04FEA0B4B94F861
:102AC00018908EEA0B0E0CF5805C0EEA0A0ECCF81C
:102AD00000E0920083F0010C09EA030301F1804158
:102AE00002F1804209EA0C09DB0002F5282201F517
:102AF000282143EA8903086043F001039060D06015
:102B0000C2F810800E4A4E600B602B79D2789A4240
:102B10009CD90C4AC3EBC3031268617E02EB8302AB
:102B2000537C81F0010060F3041361F34513537487
:102B30003846BDE8F88F00BF0000FA440000484363
:102B4000B0450020D44500200C800A400000FFFF63
:102B50000A4B40B91878884205D9094B1B6803EB2A
:102B60004113DA617047DB788B4206D9054BC1EB24
:102B7000C1011B6803EB81035A617047B045002017
:102B8000BC450020D445002038B50546244B0C46F2
:102B900030220021184623F00BFC012D3DD1214AA3
:102BA000D278A24239D903461F4AC4EBC40C156837
:102BB000047105EB8C010A8A8283C2F3403080F0F5
:102BC0000100C2F3072260F304125A77587F9A8BF0
:102BD000C0F380109A6180F00100C2F3072260F315
:102BE00086125A7615F82C004A6958714C680F48BD
:102BF0009C600C7A1A614A7C5C6112F0300FD862DA
:102C000009D00B4A0C7E0B480B491268C3E9080136
:102C100002EB4412DA60024838BD002038BD00BF24
:102C2000583E0020B0450020D4450020E529001082
:102C3000F4520020012A0010BD29001070B51F4D6C
:102C40000446EB78834234D91D4A1E4B10681A683B
:102C5000C4EBC4039E0002EB830330B1925D02F12A
:102C60008042AA3A00EB820001601E7A187E164B61
:102C70001B6803EB40101CF0ABFF73081F2E8ABFCC
:102C800003F0030303F007030833104A03EB830345
:102C90009B001A44F30758BF4FF6FF76116880B2C5
:102CA00044BF0B4E00044140314002F58052EB78A6
:102CB00011609C422CBF0020012070BDB045002057
:102CC000FC520020D4450020F45200200C800A4021
:102CD0000000FFFF2DE9F043344B8DB00393344BDC
:102CE000002404930346334A1F785B68324D334E09
:102CF00013604B682F70DFF8D89033600B7868460C
:102D0000CDE900590294EB701CF084FB002849D0F7
:102D1000EF78002F46D02A4BD6F8008007930A930D
:102D20004346284ACDE908440592274AC7EBC70124
:102D300006940B94C2F8489108EB81015A7C1C332D
:102D4000D00648BF01348B42F8D12021204622F022
:102D50007FF8DFF880900421C9F80000204622F0B7
:102D600077F80021194B0C46186001E0D6F8008076
:102D7000C4EBC40308EB83035A7CD2060FD5D9F801
:102D8000002001F1010852B119760120E1B2FFF7EC
:102D9000FBFE05A90022FFF733FE4146EF78013420
:102DA000A742E3D80DB0BDE8F08300BF512B00105F
:102DB000892B0010BC450020B0450020D4450020E0
:102DC0000000C84200409C45103C0020FC520020FE
:102DD0003D2C0010F4520020704700BF00207047C7
:102DE000024A034BD2F8C0001B681847103C002071
:102DF000E83A0020074B70B51B6804460D4698471B
:102E0000054B1B6F23B129462046BDE8704018478B
:102E100070BD00BFF44A0020E83A0020024B93F84E
:102E2000FA0100F002007047103C00202DE9F84341
:102E3000384D2B68E3B1384B384E93F8AB30C3B103
:102E4000336D98472C68F36C002C61D000272F60FD
:102E50009847DFF8D880D8F80030E568D4E9012039
:102E6000E7606760002B4CD0904715B12C46F2E725
:102E70002A4ED6F8D4319847294B80461A688242A8
:102E80002AD0284D284A2C681768BC4224D01860E4
:102E900037B1D7E901309847FF68002FF9D12C6886
:102EA000D4B10027DFF884902368A3EB0803002B3C
:102EB00012DC336D98472B68A34218D073B9F36CBA
:102EC0009847D4E90130D9F800206760E7608AB1FB
:102ED00098472C68002CE7D1BDE8F8831A46DB68D8
:102EE000002BECD0A342F9D1E368D360E7E7E368B5
:102EF0002B60E4E7C9F8004098472C68002CD3D138
:102F0000EAE7C8F800409047002DB2D02C46A2E76F
:102F10009847AEE7144F0020F83E0020103C0020F8
:102F2000984F0020385100202C680020944F00203A
:102F300008B511F003FD0022014BC3F8202108BDA4
:102F4000E83A002030B5154B8BB093F800E0EC4622
:102F50006FEA0E0E124C5FFA8EFE83F800E00FCC83
:102F6000ACE80F0094E80F00ACE8070070468CF85E
:102F700000300BF02FF80446684624F003F8214691
:102F8000684423F0FFFD0346064A00211288684684
:102F90001A800EF0DDFE0BB030BD00BF4C2B0020C0
:102FA00034750210547502104AB1064A92F8552140
:102FB000920704D5044A1846D2F814311847002065
:102FC000704700BF74610020103C0020074B93F84D
:102FD0005221D20604D58269D3F8D4118A4200D195
:102FE0007047C3F8D42112F001BE00BF7461002005
:102FF000704700BF0D4808B5417A11F002010CD0AE
:103000000B4B01211B6C443098470A4B00219A8AD4
:103010000948BDE8084024F0B3B9064B9A8A02B9C2
:1030200008BD0648BDE8084024F0AAB9F83E0020D3
:10303000103C002074610020F52F0010413000107A
:10304000054B00215B7A9B07044B4CBF04480548A5
:103050009A8A24F095B900BFF83E002074610020E0
:10306000F52F00104130001070B50446E30707D477
:10307000194B1B68002B2BD02046BDE87040184729
:10308000164D174E2B6D98473368B3B10021154884
:1030900003E0DA68194682B113465A688242F8D1D1
:1030A0009A68002AF5D1DA6899B1CA6000220E49FF
:1030B0005A600868DA6000B90B60EB6C9847C82268
:1030C0000021084824F05CF9034B1B68002BD3D186
:1030D00070BD3260EAE700BF6C510020103C002058
:1030E00038510020E12D0010944F002070B5124E91
:1030F0000D46336D0446984710490B68A3B1002074
:1031000003E0DA6818467AB113465A68A242F8D149
:103110009A68AA42F5D1DA6860B1C2600022084913
:103120005A600868DA6018B1F36CBDE8704018475F
:103130000B60F9E70A60F1E7103C002038510020ED
:10314000944F00202DE9F04FC54D83B0DFF8848304
:10315000CC220021284623F02BF94FF420720021C5
:10316000C04823F025F94FF492720021404623F025
:103170001FF9BD4BBD4CC8F81431BD4BBD4AC8F852
:103180006030BD4BBD4FC8F86830BD4B0021C8F85A
:103190007C30BC4BC8F81821C8F88030BA4B4FF4CB
:1031A0000472C8F88430B94B2046C8E91577C8F8CE
:1031B000D03023F0FDF80A234FF480622360B44B33
:1031C000B44EC4F89C314FF08043C4F8A421B24AF5
:1031D000E361C4E914624FF6FF730122A4F80232DE
:1031E000134684F80A22AD4AAD492267AD4A2166EA
:1031F000C4F89C20AC4A85F8A930C4F8F421AB4A45
:10320000E664C4F8242107F0D7FF00F05DFE13F058
:10321000FFFF11F093FBFDF78DFFA54F00263B78D4
:1032200060F300033B7000F095FE13F0FBFF94F891
:10323000F821397802F06003A3F16003B3FA83F355
:1032400042F060025B0984F8F821DB00C2F340021F
:1032500043EA021321F0180103F018030B43FF2B7C
:103260003B700CBF01233346C5E92E66C5E93066C5
:10327000C5F8B46085F8AC6085F8AA300FD18D4BE5
:10328000D4F80821C4F808318B4B8C481A60A36B22
:1032900098473B7885F8AA6060F341033B70874EFE
:1032A0000DF1060196F8DC0014F0E2FD81460028DD
:1032B00000F08D8196F8DD000DF1070114F0D8FDC6
:1032C00018B996F8DC3086F8DD309DF9060014F068
:1032D000E9FB3B78814660F382033B70002800F0F5
:1032E0006E81002014F03AFEC36A2BB1006BB0F17E
:1032F000000918BF4FF001093B7869F382033B7066
:1033000094F8F93113F0020305D196F8D02163F354
:10331000410286F8D0213B78FF2B06D010230021F4
:10332000674885F8A83024F053F80121D4F88C3090
:1033300096F83C01984715F055F8636F4FF0000080
:103340009847D4F8F0310BB15E48984795F8A8300B
:10335000626E103B18BF012385F8AB30002A00F0E5
:10336000E78096F8C331DF0700F1E280B28A002AD5
:1033700040F0E88094F8F93113F0060F40F0EC804B
:1033800094F8B63003F00C03042B06D14E4BD4F85E
:1033900000211A604D4BC4F80031D8F8B030002B32
:1033A00000F023814FF000094FF0640A4FF0640BE6
:1033B00011F0C4FAEB7823B196F9C231002B80F2F8
:1033C000B1804C220021264822F0F2FF6FF0010369
:1033D0000020C5E904ABEB6414F0B4FD002840F014
:1033E000E480B38A697A003B18BF012396F8602114
:1033F00063F341016972D10705D56B7FC2F34002C7
:1034000062F3C3036B770BF02DFAD4F8D4309847EE
:1034100096F85201C0F3400001F06CF896F85A019A
:10342000A36D4FF0000100F0010098470BF0CCFABB
:1034300016F034FE07F084FE18F0E0FC0BF012FFEB
:103440002049234818F024FFD4F8903013B100210C
:103450000846984794F8FA319B0740F1A3803BE077
:10346000F83E002044680020B5F50010103C002014
:10347000D92D0010310C0020F9BE01102D2E0010A6
:1034800091D2011099D2011065650110CD2F001065
:10349000312F001001E80010DD2D00103510002044
:1034A00055060020110D0020419A01101D2E00101C
:1034B0004C2B0020F52D0010F44A002074610020F0
:1034C000452F0010AC3F00206C51002069300010E7
:1034D000444A0020E83A0020D8F80030D4F8C4006C
:1034E000984796F95131002B53DA94F9F931002BB2
:1034F00007DA95F8AC30002B0CBF8020872023F032
:1035000073FF0CF0F7FB074698B385F8A99011F00C
:1035100015FAEB78002B3FF454AF96F9C231002B2B
:10352000FFF64FAFA8220021384822F041FF4DE7B7
:1035300094F80532002B48D1354BB28A6366002AD5
:103540003FF418AF0021334823F01AFF94F8F93103
:1035500013F0060F3FF414AFC3F38002C3F340032C
:1035600043EA420140F28A2001F0030113F050FCCB
:1035700006E7D4F8D031FBB1984785F8A970074623
:1035800000287FF415AF00F0D1FC384603B0BDE849
:10359000F08F23F021FFB0F5807FA6D1012015F038
:1035A00065FBA2E719F00CFD96E7002014F0D6FCAD
:1035B00064224368DA6014E785F8A930F8E614F06D
:1035C000DBFC14F06FFA814696E6134BB5E714F076
:1035D000B7FB494614F08CFBA8B190F90020437862
:1035E0008DF8062086F8DC3064E694F8FB31D807C5
:1035F0007FF5D8AED4F81431002B3FF4D3AE074B8F
:10360000C8F8B030CEE602460B23E9E7F83E0020CA
:10361000ED030020F52F00100D040020A92F00104D
:10362000F8B50E4F3B6893B100250D4E3268DC684B
:10363000D3E90110DD605D6022B188473C6034B1A0
:103640002346F3E7336088473C60002CF8D1054BF4
:1036500093F8AB3003B9FEE7F8BD00BF5C51002022
:10366000944F0020F83E0020F8B5134FC6B2BB6F50
:1036700004460D469847C0B2B04209D020467B6F41
:10368000984706B12DB9BDE8F840202018F0C4BE17
:10369000F8BD07EE905A9FED097AF8EE677AC7EE0B
:1036A000877A074B17EE900A99780AF04FFEBDE82B
:1036B000F840202018F0B0BE103C002000007A44F2
:1036C000F83E002038B5044623F086FE022801D1DA
:1036D000012038BD0CF0F8FD0028FAD0114B1A7803
:1036E000002AF5D15D78002DF2D10F4B20465B6F9B
:1036F000E4B298471CB10D4BB3F8D8301BB9202069
:1037000018F08AFEE4E707EE903A9FED097AF8EEAA
:10371000677AC7EE877A294617EE900A0AF016FEF6
:10372000EDE700BFF83E0020103C0020746100204F
:1037300000007A440346A3F10F024FF000007A2AFA
:103740003FD8DFE802F0484B4E51543E3E3E484BD6
:103750004E3E3E3E3E3E484848483E4B4B4B4B3E1D
:103760004E4E4E4E3E5151515454543E3E3E3E3EBE
:103770003E3E3E3E3E3E3E3E3E3E3E3E3E3E3E3E69
:103780003E3E3E3E3E3E3E3E3E3E3E3E3E3E3E3E59
:103790003E3E3E3E3E3E3E3E3E3E3E3E3E3E3E3E49
:1037A0003E3E3E3E3E3E3E3E3E3E3E3E3E3E3E3E39
:1037B0003E3E3E3E3E3E573E3E3E3E3E3E3E3E5AF4
:1037C0005D0083F08002072A98BF0120A3F18003E7
:1037D00098BF984070474FF0010070474FF00200CB
:1037E00070474FF0040070474FF0080070474FF0EB
:1037F000100070474FF01F0070474FF003007047F4
:103800004FF01800704700BF124A92F80832FBB917
:10381000114892F8051290F8C40192F8072221EAA3
:10382000000101F01F0100B522EA000281F01F0E25
:1038300002F01F026EF3070382F01F0C61F30F23E7
:1038400006486CF3174362F31F6303605DF804FBE3
:10385000704700BF103C002074610020FC4A00202B
:10386000024B82B0186802B0704700BFFC4A0020CB
:10387000144B93F8083213B1134B186870471A466B
:10388000114910B591F800C08C7891F803E049789F
:10389000C0B244EA0C0C4EEA01016CF3070360F37A
:1038A000070261F30F2360F30F2264F3174360F301
:1038B00017426EF31F6360F31F6282B003EA0200D7
:1038C00002B010BD103C0020FC4A002001460E4B07
:1038D000A3F5C16C93F808268A4206D063450CD044
:1038E00093F80026083B8A42F8D16345D3F80C06CA
:1038F00005D0083B0028EDD0704704487047034BC3
:10390000002808BF184670471CDC021058750210CA
:103910000D289DBF012303FA00F080B200207047FC
:1039200084464FF6FF7000294ED061441CF8013BDD
:10393000434003F0010202EB820002EB403282EAD4
:10394000530202F0010303EB830003EB4033C2F3A5
:103950004E025A4002F0010303EB830003EB4033B5
:10396000C2F34E025A4002F0010303EB830003EB63
:103970004033C2F34E025A4002F0010303EB8300CE
:1039800003EB4033C2F34E025A4002F0010303EB53
:10399000830003EB4033C2F34E025A4002F00103AE
:1039A00003EB830003EB4033C2F34E025A4002F0B4
:1039B000010303EB830003EB4033C2F34E02534099
:1039C0008C4598B2B2D17047704700BF014B1B685D
:1039D000185C70474051002010B410B901220A4B06
:1039E0005A700A4A0A4C1378246843B9B0FA80F333
:1039F00014F800C05B098C4518BF43F00103215443
:103A00005DF8044B1370704758630020786F0020F6
:103A1000405100202DE9F047DFF8E8E00546BEF808
:103A2000B0C10F4616469846BCF1000F04D0BEF850
:103A3000B24164448C4250D3B8F1000F43D1002E00
:103A40003ED040462D4C711E052922684BD97B1C67
:103A50001344EB1A022BAE4645D902EB070C26F0B5
:103A600003014FEA960901EB0C035CF8044B634534
:103A70004EF8044BF9D18E42A6EB010407EB01038B
:103A800005EB010C0DD0D15C012C05F8291008D0F4
:103A900013445978022C8CF8011002D09B788CF8D2
:103AA0000230B8F1000F0BD03744D3195978D35DE9
:103AB00043EA0123181AB0FA80F04009BDE8F08704
:103AC0000120BDE8F0870D4C314620683844FFF7EF
:103AD00027FF002EB7D12268E7E7094C246AA446E5
:103AE000BDE8F04760477B1E29446C1E134413F861
:103AF000015F04F8015FA142F9D1D2E740510020F3
:103B000008520020103C00202DE9F04FDFF80C9205
:103B10000646B9F8B0418A461746984683B02CB19C
:103B2000B9F8B2512C448442C0F0A080B8F1000F23
:103B30007AD17549434681F80080002F00F0A180BA
:103B4000D4460AEB0702354600244FF0010A6F48BD
:103B500006F1FF3ED0F800B06D48CDE9003BDE44F1
:103B60001CF8013B0DB980F801A044B9B5FA85F401
:103B70009EF801B064099B4518BF44F001049445C8
:103B80000EF8013F05F10105EAD1DDE9003BE2460F
:103B90000C70B8F1000F1BD0F219DDB208D1012270
:103BA0004270002C79D00BF8015BC3F307230CE0C3
:103BB000002C7ED00137BF190BF80250C3F3072346
:103BC00018BFBB4401D1012444708BF800300C7045
:103BD0004378FBB101230B704E4B1B7803B30122DA
:103BE000B9F8B0310270002B47D14B4C03E0CBB297
:103BF00034F82320A2B1B24203F10101F7D104EB62
:103C0000830292789B00042A0AD8DFE802F0760942
:103C10006A617300D9F8AC315345DBD0002CDBD19D
:103C2000012003B0BDE8F08F39465046FFF778FE1B
:103C3000002335490B700346002F81D1334AC5B2AA
:103C4000D2F800B036B31BF80620C0F30723AA420F
:103C50002F4832460BEB060433D10132B3D09344E4
:103C60009BF80040E41A18BF0124AEE7294CE46930
:103C7000A44603B0BDE8F04F6047B34226D80271B6
:103C8000CEE723484378002BA4D1D9F8AC319A452C
:103C9000C6D19FE701221E4842709BF80020C3F363
:103CA0000723AA422CD001228BF800500124934410
:103CB0008BE71BF80270C3F30723AF420BEB020440
:103CC000CBD0013225703FF47EAFEFE700238CE7C5
:103CD00001221C44E378417902FA03F30B43437158
:103CE0009EE701221C44E378C18802FA03F30B43E8
:103CF000C38095E70123C37092E7012383708FE7A8
:103D000001240BF1010B60E7786F00204051002087
:103D100058630020085200202CE20210103C0020C2
:103D20002DE9F047634FFC69002C00F09D80624D47
:103D30006B7843B10023614A184611680122A047FD
:103D400080F001006870AB785BB15C4A00231168B9
:103D500001204FF4F372FC690131A04780F00100AB
:103D6000A870EB7863B1554A0023116840F2B73070
:103D70004822FC6901F2B731A04780F00100E870E9
:103D800095F805C0BCF1000F29D002244FF00109BD
:103D90002346DFF82881013B2CFA03F2D10717D51F
:103DA00009FA03FE6FEA0E0E5842D8F8001000F030
:103DB000480000F226300EEA0C0C00234822FE696F
:103DC000014485F805C05FFA8EFAB04700286BD130
:103DD000012C04D0012495F805C02346DBE7EB88CD
:103DE0002BB34FF442790C24DFF8D08000E0EB884D
:103DF000E340DA070ED5D8F8001000231622484613
:103E0000FE694944B04728B10122EB88A24023EA69
:103E10000203EB80013C631CA9F11609E7D12B7961
:103E20003BB9EB88C3B101232B70BDE8F0872B7938
:103E300093B1234BB3F8B221002A33D01F49B3F812
:103E4000B00109680023FC690144A047EB8880F0B9
:103E500001002871002BE6D1AB78002BE3D1AB88B1
:103E6000002BE0D1EB78DFE7BB6A002BDDD0134DF0
:103E700004242868984730B9013C0AD0BB6A2868F6
:103E800098470028F8D000220B4BC3E90022BDE878
:103E9000F08702210B480DF05BFF0022064BC3E9BF
:103EA0000022F4E72A71BCE76B790AEA030E85F871
:103EB00005E08DE7085200205863002040510020A3
:103EC000103C0020987E0210F8B5144B144ED3F825
:103ED000A84133689C4211D8124B134F1C682046EE
:103EE00020F0A4FF0546386020B12246FF2134604F
:103EF00022F05EFA281E18BF0120F8BDB4F5805FDD
:103F000028BF4FF48054084F064D38682C600028B5
:103F1000E5D020F0B3FF2C68E1E700BF103C0020A3
:103F2000502B0020542B00204051002010B5074C8E
:103F3000206848B1064B1B7813B1FFF7F1FE2068EB
:103F4000BDE8104020F09ABF10BD00BF40510020D6
:103F5000586300202DE9F041454C464DD4F8A4317A
:103F60002F68013B43F003030133C4F8A431002F51
:103F70006DD0414E04F5D07EB446BEE80F00ACE8EB
:103F80000F00BEE80F00ACE80F009EE8070096F8AF
:103F900000808CE80700B8F1030F5ED0B8F1000F85
:103FA00032D10423354AC4E97188C4F8B421344AB3
:103FB00084F8A031C4F8B821324AC4F8BC21324A8E
:103FC000C4F8C021314B187812F078FB3378032BFA
:103FD00048D0F76947B10023B4F8B22118462968E0
:103FE00002F58062B8473378002B34D0284B072085
:103FF0009B68984728680022264B801AC3E9002254
:1040000018BF0120BDE8F0810023B4F8B221384682
:104010001946376A02F58062B847307804220023D7
:104020001649C4E97133C4F8B411154984F8A021C4
:10403000C4F8B8111349C4F8BC111349C4F8C0112D
:104040000028BFD028680378172BBBD1D3E71249CB
:10405000124823F0BDF92868CDE73846736A9847BF
:104060003078DBE7B36A286898473378BCE700BF4D
:10407000103C00204051002008520020CD39001093
:10408000D9390010093B0010153A001094FE0210B7
:10409000E83A002058630020B07E0210AD1D0110E8
:1040A000024B1B780BB1FFF73BBE704758630020F3
:1040B000044890F8A031042B0CBF034800F5D070E1
:1040C000704700BF103C002008520020F8B504697A
:1040D0002DED028B08EE101AE16B002942D000266C
:1040E0006425027D214B22F02002646802755A7F0C
:1040F0001F4F42F0800287ED1B8A02765A7F80EDC7
:10410000008A42F0040286605A77027E42F004027E
:1041100002765A7F42F001025A77037E43F0010390
:1041200003760120E5608847D0ED007A28EE278AE3
:10413000B5EE408AF1EE10FA10D00E4B9FED0E7ADC
:10414000D3ED1D7A67EE877AF4EEC87ABDEC028B68
:10415000F1EE10FA4CBF2B203046F8BD2920BDEC03
:10416000028BF8BD1420BDEC028BF8BDF83E002098
:10417000D4490020746100206666663F00B50E4A8F
:1041800092F8933002F1940C013303F0030303EB34
:1041900083010CEB810C02F1E80E82F89330BEE84B
:1041A0000F00ACE80F00DEF80030CCF800305DF80E
:1041B00004EB18F04DB800BFD44900200C4B9A69AD
:1041C0000AB1DB69184770B40A4E0446B4460A4B7C
:1041D000D3F8105128686968AA68EB68ACE80F004A
:1041E00028696969ACE803003046B46170BC704767
:1041F000E83A0020246B0020D449002038B50C2078
:1042000020F014FE68B10446074B084D93E8070000
:104210002B6884E807002BB11A469B68002BFBD162
:10422000946038BD2C6038BDC04900208851002002
:10423000472370B500F13604E4B23B2C104D204604
:1042400028BF3B202B8009F0C5FE0646284622F0F9
:1042500099FE3146284422F095FC3B2C01D80848B1
:1042600070BD0346074AA4F13B0012881A8009F08A
:10427000B1FE0146284622F0E9F8014870BD00BFB2
:104280007047002070C60210004870476C2B002059
:10429000204BF7EE007AD3ED096AF4EE676A93EDEE
:1042A000087AF1EE10FAB4EE677A93ED077AF7EE3A
:1042B000007A14BF01200020F1EE10FAB4EE677A04
:1042C00093ED067AF7EE007A4FEA400018BF40F00F
:1042D0000100F1EE10FAB4EE677A93ED057AF7EE8D
:1042E000007A4FEA40001CBF40F00100C0B2F1EE7E
:1042F00010FAB4EE677A4FEA4000C0B218BF40F03F
:104300000100F1EE10FA4FEA4000C0B218BF40F0D1
:1043100001007047582B002010B50446F9B140F257
:104320000113174AB2F84C21934318D016F08AFDB6
:10433000002814DB134B00EB8000204403EB8000CB
:1043400003EB8402D0ED257AD2ED026A92ED3F7A3A
:1043500077EEA67A77EE877A17EE900A10BD094BB2
:1043600003EB8401D1ED027AD1ED3A6A91ED3F7A07
:1043700077EEA67A77EE877A17EE900A10BD00BF27
:1043800074610020D449002010B582B0019250B36E
:10439000022803D0484BD87102B010BD07EE902A16
:1043A000464BF8EEE77A03EB4113D3ED0C6A87EE48
:1043B000A67A434C404B01F13E02A46903EB820212
:1043C00092ED016A82ED017A2CB9D3F8102102EB4B
:1043D000810282ED007AB4EE476AF1EE10FA14BF62
:1043E0000122002243E0364B9B69002B4BD1324B1C
:1043F0000022D3ED435AF5EE405AD3F8101193ED55
:10440000426AD3ED416A93ED407AD3ED3F7AC3F827
:104410000C210A61C3F80821CA60C3F804218A602C
:10442000C3F800214A60C3F8FC200A60F1EE10FADC
:10443000B5EE406A14BF01220022F1EE10FAF5EE4B
:10444000406A18BF42F00102F1EE10FAB5EE407A70
:1044500018BF42F00102F1EE10FAF5EE407A18BFF3
:1044600042F00102F1EE10FA18BF42F00102D871D9
:10447000002A91D04FF4806017F0CEFF02B0BDE863
:10448000104017F0E5BE0C4B0022D3ED435A93EDDC
:10449000426AD3ED416A93ED407AD3ED3F7AF5EE6F
:1044A000405AC3F80C21C3F80821C3F80421C3F80B
:1044B0000021C3F8FC20B9E7D44900207461002032
:1044C000E83A002071B1012905D1022200230270CF
:1044D00043708170704701220223002102704370F3
:1044E000817070470A460123022102704370817077
:1044F000704700BF2DE9F043A14F8BB097F8A9405A
:10450000002C00F0A1809F4D9F4C00214FF48A7237
:10451000284621F04DFF94F852319C4ED90640F1C7
:10452000DA80F369D4F8D4019847C5F8100100285F
:1045300000F0D180B369002B00F0D680944B1C684A
:104540002CB12046A46820F099FC002CF9D17A7F88
:10455000904B002085F834206B6613F0FFFC8E4BE7
:10456000F7EE007AD3ED096AF4EE676A93ED087A04
:10457000F1EE10FAB4EE677A93ED077AF7EE007A6F
:1045800014BF01220022F1EE10FAB4EE677A93ED27
:10459000067AF7EE007A4FEA420218BF42F00102B3
:1045A000F1EE10FAB4EE677A4FEA42021CBF42F015
:1045B0000102D2B2F1EE10FA93ED057A286362D0CF
:1045C000B4EE677AF1EE10FA00F0CE804FF07E5133
:1045D000002259621962D96199615961C3E90022C7
:1045E000C3E902221A6185F83620022017F014FF71
:1045F0006A49287F12F02EF810B90720B36898474F
:1046000097F8A930002B5BD05F4B93F851319B0793
:1046100040F18980B46C6CB10023142269465F4874
:10462000CDE90033CDE90233049321F093FE002855
:104630006CD0A04719F086FE336B002B48D0514850
:104640000BB0BDE8F04318474E4DE8220646214620
:10465000284695F81C9095F8078021F0A9FE504B4C
:10466000D5F81001D3F81C318269C5F888200BB148
:10467000214698472EB1454E85F81C9085F8078055
:104680005CE7424E5AE7B4EE677AF1EE10FA4FEA71
:104690008202D2B29AD10021C3ED097AC3ED087A21
:1046A000C3ED077AC3ED067AC3ED057AC3E90011BD
:1046B000C3E90211196185F83610002A98D094E7F1
:1046C000B46C002CB5D119F03DFE336B002BB6D184
:1046D0000BB0BDE8F083F36900209847B369C5F8D3
:1046E0001001002B7FF42AAF036043608360C36036
:1046F00003614361836194F85231DA067FF51EAF9E
:10470000D4F8D421D5F810319A6117E705A9C1E989
:104710000100C1E9030005901422224821F01AFE8D
:10472000002887D085E70B201E4911F093FF60B960
:104730000720B3689847B46C002C3FF47BAF97F820
:10474000A930002B7FF468AF73E7142495F99330F8
:10475000DFF850C003FB0454BCE80F0094340FC4CE
:10476000DCF800302360E6E70022C3ED097AC3EDF0
:10477000087AC3ED077AC3ED067AC3ED057A2DE713
:10478000F83E0020D449002074610020E83A00205F
:1047900088510020F8490020582B0020DC490020D7
:1047A000103C0020BC4A002000487047F849002017
:1047B000002208B5054BC3E900229A6013F012FEEF
:1047C000BDE80840102017F027BE00BFF8490020C0
:1047D00008B5054A054B82F821005B6F9847BDE894
:1047E0000840202017F018BED4490020103C0020BB
:1047F00040B110B504462046A46820F03FFB002CD1
:10480000F9D110BD704700BFB0B10C4B10B5D3F853
:10481000C430044603B19847237823B92046BDE845
:10482000104020F02BBB204600210DF091FA2046CD
:10483000BDE8104020F022BB704700BFE83A0020DE
:10484000014B1868704700BFE048002038B50446A7
:1048500020B3184B187808BB5B78F3B9164D94F861
:10486000210084F8403095F821302A88984222802F
:1048700004D0124BB3F8D810FEF7F6FE0C22104904
:1048800004F1240021F066FD50B1482221460A4877
:1048900022F002FB01206B6CAB6638BD002038BDF6
:1048A000064BE26AB3F8E03094F82410286B13F05A
:1048B000EBFCEAE7F83E0020D449002074610020B8
:1048C000F84900202DE9F04F037817465A1E1F2A99
:1048D0000446884683B004D814F8013F581E1F28A8
:1048E000FAD93B2B53D02F2B3DD0002B68D0A246BA
:1048F0000026651C202B09D9292B05F1FF391BD077
:104900003B2B14D0282B0CD0002E33D015F8013BB4
:10491000002BEFD1002320468AF8003003B0BDE819
:10492000F08F2E4615F8013B002BE3D1F2E7002E65
:10493000ECD189F80060EDE77EB13F4B93F8913000
:104940005BB905F8013C3D4B93F8FA315B0724D481
:10495000002F4BD03B68002B34D015F8013B0026CC
:10496000002BC7D1D6E7364B1B7ADA060FD4637813
:104970000134BAE7A3F16102192A98BF03F05F037B
:104980000AF8013B15F8013B002BB3D1C2E7002325
:104990002046237003B0BDE8F08F3378002BDCD0C5
:1049A00017B13B68002BD8D1DFF89CB0DBF8C830DA
:1049B000002BD2D030469847002688F80000A5E7A3
:1049C000A246A7E7DFF880B0DBF8C03023B130465D
:1049D000984738600028C0D104223046194921F098
:1049E000D1FD38B13378002BE0D1B6E73378002B16
:1049F000B3D0D9E7A9EB0602A2F103094846019218
:104A000020F014FA019A38600028EBD03379202B7B
:104A10000FD1731D194613F801CBBCF1200FF9D04B
:104A200006F101099144A9EB01094A4622F034FA42
:104A300093E7311DF9E700BFD4490020103C002066
:104A4000F83E0020D07E0210E83A002000212DE937
:104A5000F04FDFF8B4922DED088BD9F80431A54E54
:104A60005B1A18BF012396F88D20B3B093EA0204B5
:104A70001A918DF867101AAA0DF1670118BF86F810
:104A80008D30FFF71FFF9DF8677080469FB905784E
:104A9000252D16D0CDB91A9C64B1974BD3F8C430EC
:104AA0000BB1204698472378002B40F0BA86204669
:104AB00020F0E4F92F46384633B0BDEC088BBDE852
:104AC000F08F4278002A00F0B2808C4CF022002156
:104AD000204621F06DFC4822864904F1080022F0AE
:104AE000DBF9002298F80010736E24291046154651
:104AF00006928DF81C200A93ADF8142000F0DE8297
:104B0000414601221B9200221D9291F800B01F9293
:104B1000BBF1000F01F0F483BBF1400F68D9BBF18A
:104B20005A0F00F28486BBF14F0F65D1744A1BAB5C
:104B300019461C9240461DAA049309F019FB03462E
:104B400009908DF86700002841F09587DDED1C7A0B
:104B5000F4EE677AF1EE10FAB0EE677A81F18983AC
:104B6000824608900B90FCEEE76AF8EE665A9FEDDD
:104B7000656A77EEE57A67EE867AF8FE677ACDEDBC
:104B80001D6ABCEEE78ABBF1470F63D0BBF14D0F46
:104B900040F011822278412A00F0D0801D986328CD
:104BA00040F287810022DFF850B11F92DBF8F82035
:104BB000002A00F09D8018EE103A80B2002B00F021
:104BC000CC8200EB80001FFA83FB00EB80000BEB34
:104BD000800080B290478246002800F089801D9AAC
:104BE00002EB820202EB82020BEB820292B2BBE288
:104BF000BBF1240F40F01B861BAB194640461CAA94
:104C0000049309F00DFB002801F0628200239A460C
:104C100008EE103A089309930B93DDED1C7AF4EE3D
:104C2000677AF1EE10FAB0EE677A9CD7ABE70270C4
:104C300096F88D20002A00F07482002C40F0F98252
:104C400096F88C20002A41F0288239231D468DF8E1
:104C5000673020E700221F921D9A412A58D8412A26
:104C600046D8DFE812F0940294029402940283037F
:104C700094024500750375034500F60245004500A2
:104C80004500450045004500EC02EC02EC024703FC
:104C90004703450045004500450045004500F60234
:104CA0004500F60245004500250445004500450045
:104CB0004500E8034500E003450045006103450069
:104CC0004500450045004500610355035503450077
:104CD00083038A028A028A028A028A028A024500C1
:104CE0002A044500450045000F044C2A00F0E083EB
:104CF0001427E0E6D4490020E83A0020E4480020E8
:104D00000000C07F0000C842103C00200000C07FAF
:104D1000592A40F2DC81A2F15A010929E8D8A2F10E
:104D20005C01072904F2FA81DFE811F0B0025902B0
:104D30005902AE024C024C026402640294F8D9207B
:104D4000930601F1C88184ED1C7A42F0200284F8B8
:104D5000D9201B9A511C1B9118F802B0BBF1000F0F
:104D600000F06C85BBF1400F2AD8BBF1240F40F056
:104D70005E85404604991CAA09F052FA00286DD1BC
:104D8000BAF1020F41F0A4815FED207AB0EE677AAC
:104D9000CDED1C7A18EE103A002B40F03F85BDEEA9
:104DA000C77AD4F8D82084ED307A12F0010308EEE7
:104DB000103A41F0908101210A43C4F8D820C8E795
:104DC000BBF15A0F00F23385BBF14F0F5ED1B64AEB
:104DD00040461C9204991DAA09F0CAF98DF8670093
:104DE000002841F07E81DDED1C7AF4EE677AF1EE69
:104DF00010FA1E900FD6BCEEE77AB8EE476ADFEDE8
:104E0000AB6A77EEC67A67EEA67AF8FE677A8DED22
:104E10001D7ABCEEE78A18EE103A002B40F0FE84B3
:104E20009DF8792042F080028DF879201D9A1E9914
:104E3000C4F8C820D4F8D82012EA010308EE103ACA
:104E400041F049819A480142B6D0DDED1C7AF5EE79
:104E5000C07AF1EE10FAAFD504272CE69DED1C7A4E
:104E6000B4EE477AF1EE10FA94D6FCEEC77AB8EEBB
:104E7000678ADFED8E6A37EE488A28EE268AB8FE0A
:104E8000488ACDED1D7ABCEEC88A83E74046049976
:104E90001CAA09F0C5F900287FF4BFAEBAF1020FD1
:104EA00041F01681DFED837AB0EE677ACDED1C7AA2
:104EB00069E618EE103A002B40F0B0848DED1F8AA1
:104EC000632800F24281DFE810F0F801F801F801F0
:104ED0009502950295028C047502750275024001D7
:104EE00040014001400140014001400140014001BA
:104EF00040014001400140014001400140014001AA
:104F0000400140014001F8014001400140014001E1
:104F10004001400140014001400140014001400189
:104F2000400140014001400140016A006A006A00FE
:104F30006A0040016A0040014001640040014001F4
:104F40004001F801A10461026102610261027E0474
:104F50000003000340015A025A025A025A02400159
:104F60004001400140014001400140014001400139
:104F70004001400140014001400140014001400129
:104F80004001400140014001400140014001400119
:104F90006E04494A92F8602153077FF5A9AE4FF09D
:104FA000000A4FF480126070154208BF2A4340F097
:104FB00037821546CDE60022ABF1240B1E92BBF1E1
:104FC000360F3FF695AE01A252F82BF0954D00102A
:104FD000F14C0010F14C0010F14C0010F14C00109D
:104FE000F14C0010F14C0010F14C0010F14C00108D
:104FF000F14C0010F14C0010F14C0010F14C00107D
:10500000F14C0010F14C0010F14C0010F14C00106C
:10501000F14C0010F14C0010F14C0010F14C00105C
:10502000F14C0010F14C0010F14C0010F14C00104C
:10503000F14C0010F14C0010F14C0010F14C00103C
:10504000275500100D550010FB540010E5540010BA
:10505000E9560010CF560010F14C00109556001084
:10506000795600105D560010415600100B56001086
:10507000F14C0010EF550010174E0010155700109E
:10508000FF5600102B570010D75500107D5500100B
:1050900069550010555500104155001089570010F2
:1050A0005F570010415700100000C07F0000C84249
:1050B00080CA18000000C07F746100200120A27225
:1050C00008F1030104222081ADF814001AE5482AF2
:1050D0007FF60EAE4FF0010CC349A2F149000CFA65
:1050E00000F00140002940F08B80502A7FF4FDAD94
:1050F0009DF87C1041F002018DF87C102281002285
:1051000084F83F20022218EE103A002B40F08683EC
:1051100015EA020308EE103A40F082819A461543E0
:1051200017E696F88C20DFF8C8B282F0010286F804
:105130008C20DBF8EC2012B196F88C00904798F8A0
:105140000050002D3FF4A7ACBFE4DFF8A4B2DBF8B9
:10515000F820002A3FF4CCAD80B290478246002868
:105160003FF4C6ADBDF8742062809DF87E2042F009
:1051700020028DF87E201F9A16E7A2F136013B2A05
:1051800084F8241001F01A804FF40062BBE7089BFA
:10519000002B41F086829DF87C10052A41F0020127
:1051A0008DF87C1041F07C8018EE103A1BB10A2B70
:1051B0007FF49EAD33222281002284F83F20022218
:1051C0000892A5E78949097E02297FF491AD603AEA
:1051D00082F0010284F851204FF4005293E7C2F1AB
:1051E0005E02A2729DF87C2042F020028DF87C20A5
:1051F000202288E7623A84F83D204FF4007282E76B
:10520000089B002B41F04D8291B23288059B521AC7
:1052100018BF012262F34103059302239DF87C200D
:1052200084F83FC01A438DF87C2021811A460893E8
:1052300069E70122DFF8B8B186F88C2079E7113AE6
:10524000A2739DF87C2042F004028DF87C20042299
:1052500059E718EE103A002B41F03F80089B002BD5
:1052600041F01F829DF87C101C2A41F00101227040
:105270008DF87C1041F002840123089318EE103A57
:105280001A442270012243E70222AAE718EE103ADC
:10529000002B41F00980089B002B41F00282012382
:1052A0009DF87C20089342F001028DF87C2018EED6
:1052B000102A5C32227001222AE7002800F02D8794
:1052C000012840F0218799F80022910641F13880A9
:1052D000D9F86C20904780F02002C2F34012002AD7
:1052E00000F06B8201224FF0000A84F828204FF46E
:1052F000004259E6A2F11402B2FA82F25209E272B5
:105300009DF87C2042F040028DF87C204022FAE695
:10531000A2F13302B2FA82F20423520984F83E2049
:1053200008934FF48062EEE6312A00F09C8718EE75
:10533000103A002B40F0A387DFF8B4B0DBF8182058
:10534000002A3FF4D5AC0122E2734FF48072DFE60D
:105350002649097E02297FF4CBACA2F10702B2FAFA
:1053600082F2520962734FF48042CCE622709DF8BB
:105370007C2042F001028DF87C200122C3E684F8F3
:10538000EC002A464FF0000A1546E2E419F04AFF05
:1053900080077FF5ADAC0121084619F003FE002817
:1053A0003FF4A6AC9DF874304FF0000A4FF4803201
:1053B0000993F9E5059B082843F48073059300F0F1
:1053C0009C86092800F0908699F80A2292077FF5BA
:1053D0008FAC94F829204FF0000A42F0020284F8C2
:1053E00029204FF40022DFE501370100746100201D
:1053F000E83A0020A0F10401421FB1FA81F118BF80
:105400000122490942EA410294F850104FF0000A83
:1054100021F003010A4384F850204FF48022C3E5B1
:105420001527FFF748BB9DF87C2042F080028DF8DD
:105430007C20802267E6D9F81021002A3FF458AC7E
:1054400018EE103AA3F114011E293FF651ACCB4AD5
:10545000CA40D2077FF54CACC94AA2FB0312D2085E
:105460008A321D92089B002B41F01B8192B222814F
:10547000002284F83F209DF87C2042F002028DF843
:105480007C209CE6412218EE103A22709DF87C2088
:1054900042F001028DF87C20002B7FF429ACDFF86C
:1054A000E4B2DBF81C21002A3FF422AC01222FE6F3
:1054B00018EE103A002BD5D01AE418EE103A002B53
:1054C0007FF416AC4FF4805222E619F0ABFE42078F
:1054D0007FF50EAC0121002019F064FD00287FF457
:1054E00061AF05E4D4F8D82084ED157A110600F1F7
:1054F000F285DDED1C7A8021A9E4D4F8D82084ED72
:10550000217A130700F1E785082155E4079BD4F8B9
:10551000D82043F01003510784ED297A079300F156
:10552000DA85042148E4079BD4F8D82043F0080327
:105530000793930784ED287A00F1CD8502213BE49F
:10554000D4F8D82084ED247A130200F1C4854FF4F6
:10555000000131E4D4F8D82084ED237A510200F11F
:10556000BA854FF4800127E4D4F8D82084ED227A5C
:10557000930200F1B0854FF400111DE418EE103ACB
:10558000002B40F04B81DFF8FCB11D98DBF81820B0
:10559000002A00F0A385DBF81C209047B0FA80F0C9
:1055A0004009002841F07D86DDED1C7AF4EE677A33
:1055B000F1EE10FA6CBF4FF0FF321D9AC4F8D02004
:1055C000D4F8D82012F4801308EE103A40F0838506
:1055D0004FF480113BE4D4F8D82084ED207A1103F5
:1055E00000F17985DDED1C7A4FF400212FE4BDEE4A
:1055F000C77AD4F8D82084ED317A510400F16B8554
:10560000DDED1C7A4FF4804121E418EE103A002BB6
:1056100040F00481B4EE477AF1EE10FA6CBFFF223D
:105620009DF8742084F8D420D4F8D82012F4805344
:1056300008EE103A40F04F854FF48051FFF7BCBBA5
:10564000069BD4F8D82043F004030693530684ED58
:105650001A7A00F140854021FFF7AEBB069BD4F8D3
:10566000D82043F00203910684ED197A069300F1E5
:1056700032852021FFF7A0BB069BD4F8D82043F049
:1056800001030693D30684ED187A00F124851021D6
:10569000FFF792BB18EE103A002B40F0BF80B4EE3B
:1056A000477AF1EE10FA6CBF4FF0FF321D9AC4F842
:1056B000CC20D4F8D82012F4006308EE103A40F061
:1056C0000A85DDED1C7A4FF40061FFF7C0BBD4F80A
:1056D000D82084ED177A910500F1FD84DDED1C7A68
:1056E0004FF40071FFF7B3BBD4F8D82084ED167ADD
:1056F000D30500F1F0844FF48071FFF75DBBD4F85F
:10570000D82084ED1E7A910300F1E5844FF4003136
:10571000FFF752BBD4F8D82084ED1D7AD30300F1F3
:10572000DA844FF48031FFF747BBD4F8D82084EDFA
:105730001F7A530300F1CF844FF48021FFF73CBB65
:10574000079BD4F8D82043F00403510184ED277A55
:10575000079300F1C0844FF08061FFF72DBB079BDA
:10576000D4F8D82043F002030793930184ED267AFE
:1057700000F1B1844FF00071FFF71EBB010410402F
:10578000CDCCCCCCE83A0020079BD4F8D82043F00D
:105790000103D10184ED257A079300F19C844FF039
:1057A0008071FFF709BB6322DFF88CB084F82820F2
:1057B000DBF82021002A3FF49BAA4FF0000A4FF4A7
:1057C0000042FFF7F1BB19F02DFD01077FF590AA0C
:1057D0000021012019F0E6FB014600287FF4E2AD2C
:1057E0007AE6D9F8242190478246002840F049847F
:1057F000104A127F042A3FF4C4ADD9F8E020002AF1
:105800003FF476AA4FF40032FFF7CEBB01234FF0EE
:10581000000A4FF400320B93FFF7C6BB1727FFF7C0
:105820004AB9002120460CF093FAFFF740B901274E
:10583000FFF741B974610020E83A00209DF87C3000
:10584000DB0703D52378412B00F040859DF81C2011
:10585000002A00F03F85089B002B00F08D8496F80D
:1058600090301BB1089B022B00F0898494F8D9304A
:105870005B0605D5B64BD4F8C410994200F3728587
:10588000C5F3074818F02001049200F0D88361881E
:10589000002900F0D483DFF8CCB2AE48DBF8FC106E
:1058A000D4F8D8A088470D901D90002840F0F686C7
:1058B000D4F8D8108AEA010AA7491AEA010107D0E8
:1058C000080E049A40EA8101C9B222EA0103079353
:1058D0001AF4007F18BF0021069BCAF3021223EAC4
:1058E0000203CAF3072216BF94ED179A9FED9B9A05
:1058F000E1651106069305D50022D4F8C830C4F836
:10590000C8200D931AF4002F18BF0021CAF30742D4
:1059100016BF94ED208A9FED918AC4F8801012F092
:10592000100200F0C1860022D4F8D030C4F8D02094
:105930000F93BDF8142002F0010312F001010C9343
:1059400000F0858394F8D920920740F15B85E17AD5
:1059500094F8D82039B1D4ED177A9FED817A67EEAB
:10596000877AC4ED177AD1073AD594F8DA2012076E
:1059700000F15E83AB07EAB20BD52189212900F043
:10598000578340F24B10814200F052834C2900F0C3
:105990004F83910603D5A27A022A00F04983C5F30A
:1059A0000723AA04049308F0040100F1418318F0CE
:1059B000100F0A4603D06078332800F03983002A9C
:1059C00000F0AD83D4F8C020531CC0F2CE84002A6E
:1059D00000F3CB8494F8D82022F0010284F8D82078
:1059E000A27A022A00F09F83C5F30723AA04049336
:1059F00000F1A8830A9B002B00F013850A9B94F802
:105A0000DA105A780B0784F8512040F1AB83012A51
:105A100000F05B86012312930B9B94F8DA20002B95
:105A200000F0B583920742F17884A06F08F072FC11
:105A300000283FF4F3AEDFF82CB1D4ED1E7ADBF88A
:105A40001820002A00F0A587FDEEE77ADBF81C207D
:105A500017EE900A9047B0FA80F04009002841F014
:105A60002084D4ED1E7AFCEEE77AC4ED347A94F803
:105A7000DA1060F3410184F8DA1018F0010F3ED01B
:105A8000099B002B3BD0422B01F0878501F2C48398
:105A9000A3F13E02D2B2032A31D894F8DA20D0071B
:105AA00042F13B84D4ED1D8AF5EEC08AF1EE10FA86
:105AB0003FF5D2A90121084619F074FAFCEEE88AF4
:105AC00018EE903A834280F05084D4ED1D7AFCEEBB
:105AD000E77A012217EE901A099B84F8DC203E2B0E
