:020000041000EA
:10000000002008205D0100101301001015010010F0
:100010001101001011010010110100101101001058
:100020001101001011010010110100101701001042
:10003000110100101101001019010010950300209A
:100040001D0100101D0100101D0100101D010010F8
:100050001D0100101D0100101D0100101D010010E8
:100060001D0100101D0100101D0100101D010010D8
:100070001D0100101D0100101D0100101D010010C8
:100080001D0100101D0100101D0100101D010010B8
:100090001D0100101D0100101D0100101D010010A8
:1000A0001D0100101D0100101D0100101D01001098
:1000B0001D0100101D0100101D0100101D01001088
:1000C0001D0100101D0100101D0100101D01001078
:1000D0001D0100101D0100101D0100101D01001068
:1000E0001D0100101D0100101D0100101D01001058
:1000F0001D0100101D0100101D0100101D01001048
:100100001D0100101D0100101D0100101D01001037
:1001100000BE00BE00BE00BE00BE00BEEFF3058004
:10012000103800BEF2EB8871B0FF0210CCFF021055
:10013000A801001090A31AE7D3DEFFFF42012110AF
:10014000FF01000094350300793512AB4FF0000039
:100150002049086006C881F3088810474FF05040D6
:10016000006810B14FF00000F2E70FA40ECC002998
:1001700002D000F015F8F9E71749184A002000E00E
:1001800001C19142FCD1002080F30A8814498847BC
:10019000144988471449884700BEFDE701C901C2D8
:1001A0009A42FBD3704700BFCCFF02101001002021
:1001B00010380020CC360310000008200000082072
:1001C000CC360310001008200010082000000000AA
:1001D0007047000008ED00E010380020A46D0020FA
:1001E000214502103D02001019450210F8B500BF6C
:1001F000064B0749C91A891048BF0131491003D07D
:10020000044B0BB101481847704700BF103800205D
:10021000103800200000000008B5054B1BB105494F
:100220000548AFF30080BDE80840FFF7E1BF00BF1D
:1002300000000000C84F0020806A021008B503F0DB
:10024000CFF9002008BD00BF08B588470020002175
:1002500008BD00BF044B0A2293F81B314340C3F38F
:10026000000343EC40207047E05F0020002382B091
:10027000009310EE183010EE180010EE181010EE6B
:100280001820C0F30030C3F3C02343EA4003C1F396
:10029000403143EA8103C2F3803243EAC2038DF85E
:1002A0000030009802B07047C0680022836E184783
:1002B0000D4B014693F8C82010EE183010EE1800D0
:1002C000C0F3C060C3F3806343EA400303F0030359
:1002D00022F003000343534018464A68127A13433E
:1002E00063F30000704700BFE05F00201023C0F3FD
:1002F000000242EC40301123C0F3400040EC40309B
:10030000704700BF094B93F8B60010EE183010EE9E
:100310001820C2F34042C3F3004343EA420303F010
:10032000030320F00302134358407047E05F0020AE
:1003300072B603681943016062B67047034672B62D
:1003400000681A6822EA0101196062B6704700BFAE
:10035000034672B60068196062B67047014B1868B0
:10036000704700BF684700202DE9F0470025884608
:1003700091462F4C2F4E237F43F001032377F768DC
:10038000B37AA7F1010CBCFA8CFC627F96F800E00E
:100390004FEA5C1C6361F3696CF3041225714946F2
:1003A000204684F805E0A760236162770135C047E5
:1003B0000A2D06F12006E2D102231F4E1F4FDFF85F
:1003C00084A0A3830EE0272B0CBF52460022736942
:1003D0004946C4E9032316480135C0471D2D06F1DF
:1003E0001C060BD0F368307A31787268252B2571A2
:1003F00060616171A260E6D13A46E8E7104B1E6881
:100400000023E3608EB1F368257163613378378A26
:1004100063717368726949460548A360A7832261C6
:10042000C047B6690135002EEDD1BDE8F08700BFA9
:10043000703D00209C28002088260020806A021041
:100440007C500020846A02100D4B1B6813B9704762
:100450009B69A3B193F800C08445F9D110B45C68DE
:100460008C4208D09B693BB193F800C08445F9D118
:100470005C688C42F6D15A615DF8044B7047704756
:100480007C500020F8B50446002843D02C4B9FED4B
:100490002D7AD3ED357AF4EEC77AF1EE10FA3ADC24
:1004A0009FED297AF4EEC77AF1EE10FA43DDC0250C
:1004B0000C2605201FF006FA244AB0FBF6F3244967
:1004C000204617F05BFB48B300210120214A224B54
:1004D00062621F4AD7681689D3F8982082EA0742D9
:1004E0001E4F6FF30F02C7F89820C3F88C10C3F8A3
:1004F0009410C3F89810C3F89C60C3F89050C3F8E8
:100500008C00A17A204611F0010118BF104916F0A5
:10051000E3FF0120F8BD10250126CAE7E36893F840
:1005200020305B0604D5014600222046636A9847C6
:100530000B4B6362E5E74FF448753226B9E700BF1D
:10054000E05F00200000FA4400004843A86000205B
:10055000CC6100201D09001000800A4000900A4074
:10056000C908001070B504461C2023F077FFA8B11D
:1005700084460546002620686168A268E368ACE806
:100580000F00084A206961691368ACE80300AE6196
:100590002BB11A469B69002BFBD1956170BD15608C
:1005A00070BD00BF7C50002000B58BB0684625F0C0
:1005B000DFF9044B0448C01A079BC01A0BB05DF862
:1005C00004FB00BFA46D002000000820064C08B505
:1005D0000648D4F8C030984700216420E36B984760
:1005E0000021084620F0E4FAF83A00208C6A021054
:1005F00020F02EBA2DE9F84F01252A4C4FF00008C3
:100600008146AA4604F5057B02E01C345C452CD0EB
:10061000E368242BF9D163680B2BF6D0207A1FF006
:100620005FFA0428F1D0207A1FF01CFB2378207A8F
:10063000062B33D0C02B31D0A0F1200CC0F120010B
:1006400005FA0CFC25FA01F14746434605FA00F687
:100650004CEA010242EC24606368012BD5D10421ED
:100660001C341FF01FFA5C45D2D199F800300E4AB5
:10067000A3F11703B3FA83F30C4C5B0948464FF020
:100680000001D2F808212370904710EE103003F4D7
:10069000707320EE10302078BDE8F88F4AEC4000EF
:1006A000CAE700BF88260020F83A0020896D0020A4
:1006B00010B5536882B0012B14468DF8071012D084
:1006C000107803F04BFB012103460DF107020846A9
:1006D0001DF0C0FF58B19DF807006070FF3818BFCB
:1006E000012002B010BD927843699A4205D060782B
:1006F000FF3818BF012002B010BD836A002BF6D06E
:100700009DF807006070E9E788B170B505460024E0
:100710004FF00003E2B262F3070362F30F2363F3C7
:100720000F0630460134A847042CF1D170BD704744
:10073000002110B5044611201FF0D8FA0121104AFB
:10074000104B10681A68814022EA01021A60D3F83F
:10075000702122F48072C3F8702184B110EE103041
:1007600003F4707320EE10300020074A074B08494D
:100770001B68907009681268043341F8232010BD8B
:10078000C465002000003050DC290020BC6500203A
:10079000A865002000B170470149024810F0C4BFAD
:1007A000B86A0210C06A021038B51B4C00214FF025
:1007B0000F00D4F88C309847184B194A1968236AEF
:1007C0001848A2FB03230268B2EB131F0FD01C09C9
:1007D000154B164D1A6801EB4103046002F01F022D
:1007E00005EBC303081D45F82040C3F8D8200123BA
:1007F0000E4A8B401068034208D111680B43136006
:10080000D2F8703143F48073C2F870310121BDE831
:10081000384011201FF06ABAF83A0020C465002061
:100820001F85EB5178500020C86500200000305033
:100830002DE9F0410D4684B010B3044631B31FF0EA
:100840006DFF064620F004F90B4602464FF47A701D
:100850004FF0FF3C6FF00047E4FB0023944577EB3B
:1008600003014FF00001154C3CBF62463B46304649
:100870000195009402911FF055FF04B0BDE8F0818E
:100880000029FAD004B0BDE8F04108474FF47A726D
:100890000B4E02FB04F4B76AB36ADB1BA342ECD233
:1008A000DFF82080D8F8585026F0B2F8A847B36A8D
:1008B000DB1B9C42F6D804B0BDE8F0814902001071
:1008C00000000B40D0390020C36811F001000CD1AA
:1008D00093F8202060F3861283F8202012F004029F
:1008E00018D01B2340EC403070471B22C1F340015D
:1008F00041EC402093F82010490758BF1A224FF0CE
:10090000010141EC402093F8202042F0400283F89E
:10091000202070471A2342EC4030704738B5044617
:10092000C06807EE902A90F82030CAB25D0719D54A
:10093000920731D490F8203023F0400380F8203023
:1009400013F0040322D11A2143EC40102A4AC36851
:10095000D2F898201B04294953406FF30F03C1F8C4
:10096000983038BDD507E5D51B22C1F3400141ECD5
:100970004020F5EE407AF1EE10FA01D11A0712D4B8
:100980001A234FF0010242EC403020E01B234FF0CD
:10099000000141EC4030D9E7F5EE407AF1EE10FA73
:1009A00010D11B070ED590F8203023F0400380F8BB
:1009B000203013F004031BD01B234FF0000242EC45
:1009C000403038BD1B234FF0010242EC403090F81C
:1009D000203017EE901A43F04003856E80F82030E7
:1009E0000022A84701462046BDE8384025F0E8BF70
:1009F0001A2243EC402038BD00800A4000900A4093
:100A00002DE9F0416A4D82B0064608460F462C7823
:100A100003F076F90190002E45D0664B93F83A31F9
:100A2000DB0740D50026FFB26A68013C4FEA441854
:100A300002EB441357B9FEB100220F21987A1FF040
:100A40008DF8002CF0D102B0BDE8F08112F808005A
:100A500003F0BEF86B68C0B24344DA68B2F5007FB9
:100A60000CBF9DF804209DF8052000EA0206003E18
:100A700018BF0126002EDFD11A89C2F34412102AB2
:100A800073D8DFE802F0938C85727E72727277728F
:100A90007272727272726D0000220F21987A1FF0CA
:100AA0005DF8002CCFD06B68013C03EB4413002EA3
:100AB000F2D01A89C2F34412102A2AD801A151F89F
:100AC00022F000BF990A0010090B0010510B001012
:100AD000130B0010410B0010130B0010130B001030
:100AE000130B0010310B0010130B0010130B001030
:100AF000130B0010130B0010130B0010130B00103E
:100B0000130B0010210B001001220821987A1FF00E
:100B100025F8002C97D06B68013C03EB4413C8E721
:100B20000122987A11461FF019F8002CF3D18AE7B8
:100B300001220221987A1FF011F8002CEBD182E7F4
:100B400001220C21987A1FF009F8002CE3D17AE7F2
:100B500001220421987A1FF001F8002CDBD172E702
:100B60000122987A11461EF0F9FF0026002C7FF42E
:100B70005BAF68E701220221987A1EF0EFFF0026A2
:100B8000F4E701220C21987A1EF0E8FF0026EDE739
:100B900001220421987A1EF0E1FF0026E6E70122F7
:100BA0000821987A1EF0DAFF0026DFE7002643E7E7
:100BB0006C4E0020E05F002010B50389044603F46A
:100BC0007871802982B01CD010EE1820403918BFEF
:100BD0000121807AC240607A82EA900202F001022A
:100BE0008A420ED0C3F34413102B3BD8DFE803F046
:100BF0004C4F523A553A3A3A3C3A3A3A3A3A3A3AF9
:100C00004400E268B2F5806F05D0B2F5801F47D08E
:100C1000B2F5007FE6D10023009310EE183010EEFD
:100C2000180010EE181010EE1820C0F30030C3F3B7
:100C3000C02343EA4003C1F3403143EA8103C2F3D6
:100C4000803243EAC20303F00F038DF800300098AE
:100C500025F0A2FEC0B230B3144B00981B6E98472B
:100C60002389BFE702B010BD01220221A07A02B0A1
:100C7000BDE810401EF072BF01221146A07A02B0FA
:100C8000BDE810401EF06ABF00220F21EEE70122EE
:100C90000821EBE701220421E8E701220C21E5E726
:100CA000204602F091F823899CE700BFF83A002023
:100CB00010290AD8DFE801F00A0F140919090909F7
:100CC0001E090909090909092300704700220F219B
:100CD000807A1EF043BF01220821807A1EF03EBFB9
:100CE00001220421807A1EF039BF01220C21807A72
:100CF0001EF034BF01220221807A1EF02FBF012294
:100D0000807A11461EF02ABFC44B1B78002B00F0DE
:100D1000C8802DE9F04FCB07804683B000F1DF811A
:100D2000BF4CD8ED487A94ED087ADFEDBE3AF8EE84
:100D3000475AB0EE006ADFEDBC4A37EE866AB2EE83
:100D4000045A85EEA37A77EEE47AD8ED496A9FEDEE
:100D5000B74A27EE067A67EE857ABAFE477AFCEE46
:100D6000E77AF4EEC46A17EE903ABCEEC77AF1EE79
:100D700010FAAF49AF4A81ED027A537040F2A58173
:100D800076EEE46A66EE856AFCEEE67ACDED007AF0
:100D90009DF8003098F81811022001F0010113703D
:100DA0001EF0CCFE98F81911062001F001011EF08A
:100DB000C5FE98F818110320C1F340011EF0BEFED5
:100DC00098F819110720C1F340011EF0B7FE98F8FA
:100DD00018110420C1F380011EF0B0FE98F819111B
:100DE0000820C1F380011EF0A9FE98F81811052013
:100DF000C1F3C0011EF0A2FE98F819110920C1F339
:100E0000C0011EF09BFED4F88830012098470022D4
:100E1000DFF830920A264C4611461046864B1EF0EB
:100E2000C1FE002115201EF061FF98F83B3198F8B3
:100E30003CA1824F8AEA030ACAF340130093CAF323
:100E40000013019394F82A011EF00CFF94F820314E
:100E5000013E3D2B26D81E2B2ED91F3B1E2B2BD8F7
:100E6000DFE813F0F200F200F2002A002A00CB00C3
:100E7000CB00CB002A002A00B500B500B5002A003F
:100E80002A00FF00FF002A00240124012A000F018C
:100E90000F012A002A002A002A002A002A002A001C
:100EA00022007047C32B07D109EB4612138923F4A4
:100EB0007E7343F0480313817501D4F82C3113F489
:100EC000C06F0BD009EB05035A7A12F0040F0CBF68
:100ED000012102211A8961F349121A814D442B7AAA
:100EE00094F82A0103F01803082B0DBF01210021FB
:100EF000012200221EF0FEFD697A94F82A01C1F356
:100F000080011EF00BFED4F82C311F4200F0DF8070
:100F100094F82A010F211EF099FE203C002E91D159
:100F2000474E1325344601E01C3C85B3D4F8043207
:100F3000013D242BF8D194F8F8318A3B072BF3D8E4
:100F400001A252F823F000BFC10F0010AF0F001034
:100F5000290F0010290F0010290F0010290F001071
:100F60009D0F0010690F0010C5EBC50398F8B6205F
:100F700006EB8303597C1C3C62F38201597494F89C
:100F80001C02C1F380011EF0D9FD002DCED101213C
:100F9000152003B0BDE8F04F1EF0A8BE98F8B620AB
:100FA000C5EBC50306EB8303C2F34002E2E798F802
:100FB000C820C5EBC50306EB8303C2F34002D9E7A3
:100FC000C5EBC50398F8C82006EB8303D2E798F871
:100FD0003C2109EB4610018942F3800202F0030232
:100FE00082F0010221F48361CAF380039B0243EA89
:100FF000C2030B43038175015FE798F83C2109EBBD
:101000004610018942F3400202F0030282F001021D
:1010100021F48361CAF34003E8E700BF896D002033
:10102000F83A002000247449CDCC4C3ECDCC4C3F46
:10103000AC650020DC290020E90200200006100039
:10104000882600209C28002098F83C2109EB4610B7
:10105000018902F00102013221F483610AF00103E7
:10106000C4E798F83C2109EB4610018942F3C0021D
:1010700002F0030282F0010221F48361CAF3C0038B
:10108000B4E798F83C3109EB4610018943F340136B
:1010900003F00303009A83F0010321F483619202B9
:1010A00042EAC3030B430381750106E798F83C311C
:1010B00009EB4610018943F3001303F00303019A7F
:1010C00083F0010321F48361E9E7022362E62989C1
:1010D00004F59070C1F34411FFF7EAFD18E7094CDD
:1010E000012194F9000016F0A9F9FFF7CBF916F0E9
:1010F000CDF994F9003098427FF412AE16F078F8EA
:101100000EE600BFE02900202DE9F04F2DED028B07
:101110004FF0E0230024032540F2E732DFF8F4B378
:10112000D649A1B0CBF80410D5490520CBF808105A
:10113000D449D54ECBF80C105A619C611D61D34B3C
:10114000D34ACBF83830D34BCBF81020CBF8203033
:101150001EF0B8FB4FF48062CF4BCBF82820A3FBE6
:1011600000239B0C07EE903AB2EE047AF8EEE76AA1
:10117000CBF82430C94B4FF07E52CBF83430C84BFB
:10118000C6EE877ACBF83C30C64BCBF81C20CBF8A8
:101190000831C54BC54ACBF88430C54BC2ED007A47
:1011A000CBF88830C34BDFF87083CBF88C30C24B60
:1011B000CBF89430C14BCBF89830C14BCBF8AC3066
:1011C000C04BCBF85830C04BCBF85C30BF4BCBF8A2
:1011D0007430BF4BCBF87830BE4BCBF86C30BE4B85
:1011E000CBF8D831BD4BCBF8D431BD4BCBF8403028
:1011F000BC4BCBF84430BC4BCBF84830BB4BCBF8A6
:10120000CC31BB4BCBF89431BA4BCBF8983101F0D1
:1012100021F801F093FA18F06DFA4FF48053B64AB2
:10122000CBF8A831B54BCBF8C421CBF8C8318BF83B
:10123000A05103F091F8B249B24815F077FF0F21A1
:10124000B14BB24D1A79DF6822F0190242F009025F
:101250001A711A7A287022F0190242F009021A72E1
:101260009BF80A22B7F5801F22F0030242F0030226
:101270008BF80A229BF8F8211C9122F06F0242F0B1
:101280006F028BF8F8219A7A179146F82230A04A1B
:10129000CBF804125568107898F80020D8F804109C
:1012A000ADF85440ABF80842ADF87040069200F03B
:1012B0004E8417F4C06740F00083BC46BE460597D5
:1012C00093F8249093F82AA029F0190949F0090904
:1012D00083F8249093F8289029F0190949F0090916
:1012E00083F82890DFF8349246F82A90D3F82CA09F
:1012F000BAF5801F00F066841AF4C06F07D0002D85
:1013000004BF4FF0010C4D4601270130C0B293F8E5
:10131000449093F84AA029F0190949F0090983F883
:10132000449093F8489029F0190949F0090983F885
:101330004890DFF8EC9146F82A90D3F84CA0BAF523
:10134000801F00F021841AF4C06F07D0002D04BF65
:101350004FF0010C4D4601270130C0B293F8649064
:1013600093F86AA029F0190949F0090983F86490F3
:1013700093F8689029F0190949F0090983F86890F1
:10138000DFF8A09146F82A90D3F86CA0BAF5801F38
:1013900000F08F841AF4C06F07D0002D04BF4FF007
:1013A000010C4D4601270130C0B293F8849093F8A8
:1013B0008AA029F0190949F0090983F8849093F863
:1013C000889029F0190949F0090983F88890DFF815
:1013D000589146F82A90D3F88CA0BAF5801F00F0F7
:1013E0004A841AF4C06F07D0002D04BF4FF0010CDF
:1013F0004D4601270130C0B293F8A49093F8AAA0FB
:1014000029F0190949F0090983F8A49093F8A890E4
:1014100029F0190949F0090983F8A890DFF80C911F
:1014200046F82A90D3F8ACA0BAF5801F00F00584E6
:101430001AF4C06F07D0002D04BF4FF0010C4D46C9
:1014400001270130C0B293F8C49093F8CAA029F0E4
:10145000190949F0090983F8C49093F8C89029F054
:10146000190949F0090983F8C890DFF8C49046F8D3
:101470002A90D3F8CCA0BAF5801F5BE0D46A0210A2
:10148000DC6A0210E46A0210A04D0020F50500108D
:10149000F06A02108096980083DE1B43A9050010B5
:1014A00031080010090D0010A9070010AC500020F1
:1014B00031070010550200106102002011010020C8
:1014C00009070010010A00106D020010ED02001063
:1014D0000503001095010020F10500105D030010C8
:1014E000310300103D030010510300106903001088
:1014F00065050010490400105D28001079280010CF
:10150000FC700210E0CF02109C280020E02900208F
:101510006C4E0020F83A002088440020BC280020AF
:10152000DC280020FC2800201C2900203C29002069
:101530005C29002000F064831AF4C06F07D0002DEE
:1015400004BF4FF0010C4D4601270130C0B293F8A3
:10155000E49093F8EAA029F0190949F0090983F801
:10156000E49093F8E89029F0190949F0090983F803
:10157000E890DFF8F09346F82A90D3F8ECA0BAF59B
:10158000801F00F0C7821AF4C06F07D0002D04BF7F
:101590004FF0010C4D4601270130C0B293F8049181
:1015A00093F80AA129F0190949F0090983F804916F
:1015B00093F8089129F0190949F0090983F808916D
:1015C000DFF8A49346F82A90D3F80CA1BAF5801F4F
:1015D00000F083821AF4C06F07D0002D04BF4FF0D3
:1015E000010C4D4601270130C0B293F8249193F8C5
:1015F0002AA129F0190949F0090983F8249193F8DF
:10160000289129F0190949F0090983F82891DFF890
:101610005C9346F82A90D3F82C61B6F5801F00F051
:10162000348216F4C06F00F0E8830130002D00F022
:101630000884C0B2B74B1870BCF1000F01D0B54B95
:101640005D60BEF1000F03D00692069B88F8003063
:10165000059B0BB1C8F804104FF0000CAE4FAF4B18
:10166000DFF80C831878D3F804907B6B98F800208F
:10167000059397F83230AA4D0D93BB6A1446079331
:1016800097F8263029460E93FB6906460893BB7EE1
:10169000E2460F933B69CDE912020A93BB7BD8F86F
:1016A00004E010937B68CDF824C00B93BB78CDF891
:1016B00030C01193634604E00133132B01F11C0188
:1016C00025D0C3EBC30205EB8202107C40F0020080
:1016D00010744A68D800092A00F0FB800B2AEBD16D
:1016E000BEF1000F00F061814FF0010CC01A05EB54
:1016F0008000427C013342F008024274132BA4F1B3
:10170000560264440A70E4B201F11C01D9D1DDE94A
:101710001202BCF1000F02D0224688F80040099B5B
:101720000BB1C8F804E0BAF1000F02D030467B4B91
:101730001E700C9B13B1794BC3F80490069B0343B6
:10174000DBB22BB17549774801F060FB98F80020B7
:10175000002A40F0CC8201F099FE734C04F13C0663
:10176000D4F80350012D00F028816578FF2D00F09A
:1017700056812378FF2B15D00121002322460846ED
:101780001CF068FF0546002800F07A8114F8011C5F
:101790008C2900F067818F2900F06481002228469F
:1017A0001CF0CAFF0C34B442DAD1604A604B614885
:1017B0001A6619F075FE00215F4823F0CFF8034642
:1017C0005E4C5F495C48236023F0E4F800221B92E2
:1017D0005C4A5D4B92ED008A4FF4402218604FEA5C
:1017E000C01C431D1A924CEA033C4FF480324FF464
:1017F000F8330746CDE9182326681CAD18AC94E8E9
:101800000F0085E80F00CDF874C095E80F0084E85C
:101810000F0023463A463146474823F08BF9DFED67
:101820004B7A78EE277ABCEEE77A17EE103A9BB245
:10183000002B00F0288107EE103AB8EE477ADFED72
:10184000446A77EEC77A67EEA67AFCEEE77ACDEDCA
:10185000057A9DF81420120242EA03424FF0040870
:1018600006EB460302270026DB0003F1A04303F545
:101870004013C3F8C820112036491EF059FA002140
:1018800011201EF073FCCDE90186334A33493448F8
:10189000009716AB23F0A2F9002840F035820CF037
:1018A00079F8DBF80000A0F10A00B0FA80F04009F6
:1018B00021B0BDEC028BBDE8F08F002D00F0C68298
:1018C000A4464FF0000E01300127C0B2CDF814E05D
:1018D000F6E4B9F1000F6CD0A6F16E00CA6808708A
:1018E000059891F808A082420AD10D98824507D147
:1018F00087F83160B96301364FF0010AF6B2DBE6D2
:101900000798824236D10E98824533D187F82560F8
:10191000F962F0E76C4E0020E4290020A04400208A
:101920008826002088440020E52900209507001023
:10193000D03900207826002000003050C4650020F7
:101940003CD00210AC500020C86500200000003BD5
:10195000000080439D010020BC650020A865002098
:1019600024D002107C2900209C290020BC290020C2
:10197000A84400200898824205D10F98824502D1E0
:101980007E763962B7E70A98824205D1109882457F
:1019900002D17E737961AEE70B988242ABD1119A86
:1019A000924504BF7E70B960A5E701228E46099278
:1019B0009AE6012289460C928EE7631E00934FF44B
:1019C000A03229462846CC4B1CF06CFF00283FF47F
:1019D000E9AE00232246294628461CF03BFEC4F807
:1019E000070000283FF4DEAE002214F8011C1CF0B2
:1019F000A3FE29462846002322461CF02BFE05465E
:101A000000283DD014F8011C8C2900F023828F2976
:101A100000F02082284600221CF08EFEC2E6012142
:101A2000631E00934FF480420846B34B1CF03AFF0C
:101A300000283FF4B7AE01210023224608461CF0DF
:101A400009FE0746002800F0F68114F8011C8C29D5
:101A500000F0DF818F2900F0DC81384600221CF085
:101A60006BFE9FE660781EF0FDF8012360788340EE
:101A700040EE143004211EF015F814F8011C8DE618
:101A8000FF2323708EE61A46E6E60029059C08BF70
:101A90000124B3F8246183F82B2146F07F4646F4F5
:101AA0007F0646F4034646F0E006A3F8246102F1FF
:101AB000010602F13F0283F82021F3B208BF494634
:101AC00005940693002F00F09C818C4B1870BCF19C
:101AD000000F3FF4BAAD5D60B7E500294FF0010E8D
:101AE000059C04BF01244946B3F8049183F80B21F7
:101AF00049F07F4949F47F0949F4034949F0E00975
:101B0000A3F8049102F13F097244059483F800910F
:101B1000D2B26AE500294FF0010E059C04BF0124F2
:101B20004946B3F8E49083F8EB2049F07F4949F443
:101B30007F0949F4034949F0E009A3F8E49002F170
:101B40003F097244059483F8E090D2B226E500295B
:101B500000F0738105949A88069C42F07F4242F41B
:101B60007F0242F4034242F0E0029A8022460027BC
:101B700004F13F0C013283F800C04FF0010EBC4667
:101B8000DC72D2B2FFF79CBB00294FF0010E059C1E
:101B900004BF01244946B3F8449083F84B2049F030
:101BA0007F4949F47F0949F4034949F0E009A3F862
:101BB000449002F13F097244059483F84090D2B2F8
:101BC000FFF7CCBB00294FF0010E059C04BF012498
:101BD0004946B3F8249083F82B2049F07F4949F413
:101BE0007F0949F4034949F0E009A3F8249002F180
:101BF0003F097244059483F82090D2B2FFF787BB67
:101C000000294FF0010E059C04BF01244946B3F89A
:101C1000C49083F8CB2049F07F4949F47F0949F407
:101C2000034949F0E009A3F8C49002F13F09724466
:101C3000059483F8C090D2B289E400294FF0010ED8
:101C4000059C04BF01244946B3F8A49083F8AB2057
:101C500049F07F4949F47F0949F4034949F0E00913
:101C6000A3F8A49002F13F097244059483F8A09070
:101C7000D2B2FFF7E8BB00294FF0010E059C04BF6C
:101C800001244946B3F8849083F88B2049F07F49BA
:101C900049F47F0949F4034949F0E009A3F8849025
:101CA00002F13F097244059483F88090D2B2FFF7A5
:101CB000A3BB00294FF0010E059C04BF0124494637
:101CC000B3F8649083F86B2049F07F4949F47F09A9
:101CD00049F4034949F0E009A3F8649002F13F098F
:101CE0007244059483F86090D2B2FFF75EBB04495A
:101CF000044801F03DFA2EE5B10600106C4E0020BC
:101D0000A844002090440020594B169A93ED008A75
:101D1000584B1B96D3F80090574B4FEAC21CD3F890
:101D200000A04FF440231A9309F12F4303F56003F9
:101D30001E0D931D4CEA033C05924FF4F8334FF40B
:101D40008032CDE9182394E80F0085E80F000636AD
:101D5000DFF834E1CDF874C0F6B295E80F0084E8FE
:101D60000F0031463846CDF86CE01DF09BFE314641
:101D700003201DF097FE314640461DF093FE31468C
:101D800005201DF08FFE01233A4651460093484638
:101D9000434622F089FE2346059A5146484622F0E2
:101DA000C9FEDFED367A78EE277ABCEEE77A17EED9
:101DB000103A9AB25AB307EE102AB8EE477ADFED1E
:101DC000306A77EEC77A67EEA67AFCEEE77ACDED59
:101DD000057A9DF814301B0243EA02430AEB4A02DB
:101DE00009EBC202C2F8C8300123D9F8002003FA77
:101DF0000AF31343C9F8003051E5002F7FF41AAC01
:101E00001AE4BCF1000F3FF420AC1E4B63E613460E
:101E1000E2E760781DF026FF01236078834040EE02
:101E2000143004211DF03EFE3846002214F8011C37
:101E30001CF082FCB6E42570B4E401221946059238
:101E400089E6104B4D461870FFF7F9BB4FF0010CB7
:101E50001D4636E560781DF005FF0123607883405C
:101E600040EE143004211DF01DFE14F8011CD1E5D4
:101E7000AC500020A8650020BC6500200000003B9D
:101E8000000080436C4E002002004000054B1A68A1
:101E90005B6890B29A4299B238BF00F58060401AF0
:101EA00080B27047A4550020074B1A685B6890B257
:101EB0009A4299B238BF00F58060401A80B2C0F5EE
:101EC0007F70033080B27047A4550020074A5368E2
:101ED0001168994206D0591CC1F309011344D87AFC
:101EE000516070474FF0FF30704700BFA45500208D
:101EF0002021034A034B91631A685A60704700BF60
:101F00000030074060690020084A82B09369D90612
:101F100005D41368DBB201939369DB06F9D500227F
:101F2000034B19685A72596002B0704700000740AD
:101F3000A4550020F8B5104B06469A6B910605D4BF
:101F40009A69920616D520220C4B9A630C4D0D4FC0
:101F50002C680134C4F3080403E0D7F8F43198473F
:101F600038B16B68A342F8D02B682C601D442E72E8
:101F70000120F8BD1860FBE7000007400020074083
:101F800060690020F83A0020084B1A685B6890B23C
:101F900099B29A42064B38BF00F500709B69401A0F
:101FA000C3F3C00380B2184480B270476069002058
:101FB00000000740502210B1024B9A637047024B59
:101FC0009A6370470030074000200740014B1B68B0
:101FD000184700BF342A00200346024A106803B1A4
:101FE00013607047342A002008B5034603F00C0242
:101FF00013F0030F14BF07210821082A14BF012280
:1020000002220348C3F3021320F0B6FC012008BDEE
:102010000000074008B50146024820F05FFC01209F
:1020200008BD00BF000007400146014817F0B4B8E2
:10203000A4550020F8B5224D2F6C17F0500F0AD090
:10204000204E05E02C683368E4B22046984718B368
:10205000AB69DB06F6D5BA060AD51B4A18495368A0
:10206000886984060CD5536051681368994220D062
:10207000F8BD287AC4F30803086088698006F2D4A2
:102080001068D518984203F10104F2D153605168E9
:1020900013689942ECD10CE00C4A13685168013383
:1020A000C3F30903994208D0116813600A44D4723B
:1020B000CEE72022064B9A63F8BD01235372C7E78F
:1020C00000000740342A002060690020A455002049
:1020D000003007401F4A517809B10020704792F83C
:1020E00002C070B504461CF0010030D01CF0020F95
:1020F000CCF340062CD14CF0020C174D0221304697
:1021000082F802C01DF0CEFC022101201DF0CAFCA5
:102110002146284620F060FB286B104C00F440401C
:102120000122334608212063284620F025FC0121A6
:10213000284620F059FC212009491DF0F9FD2120F5
:1021400001211DF0D3FD5022064B07489A6370BD54
:10215000084670BD2C2A00200000074000100740F0
:10216000352000100020074050D002102DE9F84320
:10217000074617F8016B1EB3DFF85880DFF8589058
:10218000D8F838309A0606D4D8F818309B0619D5F6
:1021900020220E4B9A630E4D2C680134C4F30804C0
:1021A00003E0D9F8F431984730B16B689C42F8D01D
:1021B0002B682C601D442E7217F8016B002EDFD1A6
:1021C000BDE8F883C8F80060F6E700BF00200740CC
:1021D0006069002000000740F83A002081B32DE933
:1021E000F04706464B1E9BB20133DFF86080DFF8F4
:1021F00060A0C718D8F8383016F8019B9A0606D4A4
:10220000D8F818309B0618D520220E4B9A630E4D35
:102210002C680134C4F3080403E0DAF8F431984779
:1022200038B16B689C42F8D02B682C601D4485F84F
:102230000890BE42DED1BDE8F087C8F80090F8E70C
:10224000704700BF00200740606900200000074081
:10225000F83A002010B5074C0748D4F89431984755
:102260000648D4F894319847BDE81040044816F069
:1022700075BF00BFF83A0020BCD00210A4D00210F5
:10228000202A0020054B5A681B6891B298B29A42E6
:1022900088BF00F58060401A80B27047B0590020B6
:1022A000064B5A681B6890B29A4299B294BF00F2EA
:1022B000FF3000F1FF30401A80B27047B059002063
:1022C000014B1A685A607047B05900201820064B1D
:1022D00019681A6819445A601A68C8720132C2F340
:1022E00009021A60704700BFB0590020074A5368BE
:1022F0001168994206D0591CC1F309011344D87AD8
:10230000516070474FF0FF30704700BFB059002058
:10231000014B1B68184700BF382A00200346024AB9
:10232000106803B113607047382A002008B51F20D9
:102330001DF0F2FC4FF47A70002108BD01460148FF
:1023400016F02ABFB059002000201FF08BBC00BF40
:1023500008B50021074824F067FB00B908BD4FF01D
:10236000FF3000211EF0B6FEBDE80840014824F011
:1023700023BB00BF806C00202DE9F84380460F4648
:102380001EF01EFE48B900200021294BC3E90001C0
:10239000BDE8F843274824F00FBB1EF019FE0546A0
:1023A0000028F0D1002FF3DDDFF88490224E13E0F7
:1023B000224600201FF00AFD002104464FF0FF30A6
:1023C0001EF088FE00201FF0B9FC1EF041FBC9E999
:1023D00000012544AF42DBDD00201FF017FD7C1B10
:1023E0008442A8BF044608EB0501002CE0D1214639
:1023F0004FF0FF301EF06EFE20461FF09FFC1EF0D7
:10240000DFFD0028C4D01EF0E3FD0028C0D11FF07E
:10241000FDFC0028DED11EF01BFBD9F80030D9F8F6
:1024200004209B1942F1000283428A41D2D2AFE7D5
:10243000083D0020806C002020A1070008B50E4B4D
:1024400018701EF005FB4FF0FF3E6FF0004C0B4A7A
:10245000821841F1000396457CEB03013CBF7246B4
:102460006346074824F0C4FA18B101210248FFF777
:1024700083FF012008BD00BF2446002040420F001A
:10248000806C0020474B2DE9F047474C1B6898476C
:1024900023780BB1BDE8F087012323701EF090FD77
:1024A00018B900232370BDE8F0871EF091FD0028C5
:1024B000F7D11FF0EDFB06460028F2D03B4D6968CE
:1024C0002A688BB2914294BF03F2FF3703F1FF37C2
:1024D00090B23F1ABFB21EF073FD0028E1D01EF08B
:1024E00077FD0028DDD11FF0D3FB0028D9D01EF0E6
:1024F000AFFA4FF0FF3E6FF0004C2D4A821841F1C9
:10250000000396457CEB03013CBF724663462948B5
:1025100024F06EFA0028C4D01EF052FD40B900210C
:102520004FF0FF301EF0D6FD224824F045FAB8E700
:102530001EF04EFD80460028F1D11FF0A9FB0028B7
:10254000EDD0142E3246A8BF14221B4EBA42A8BFAB
:102550003A46314640461FF0A7FB0746154824F08F
:102560002BFA002F9DD09CDDB1464FF001083E4470
:10257000124F06E02A682B60AB1883F80BA0B14518
:102580008FD019F801AB3B68504698470028F6D128
:102590002B686A680133C3F309039342EAD185F8D3
:1025A0000980ECE7E44F0020996D0020B05900202D
:1025B00040420F00806C002014690020382A00205F
:1025C0002DE9F0411F4D204E05F10C07AF602B683F
:1025D00033B100201FF01AFC0A282B6804D84BBB2B
:1025E0000120AF60BDE8F081984228BF1846D5F8B9
:1025F000088004461EF02CFA02464FF0FF3E6FF0B2
:10260000004C921941F1000396457CEB03013CBF5D
:10261000724663460D4824F0EBF918B12146404656
:10262000FFF7AAFE2B68AA681B1B22442B60AA6036
:10263000002BD5D0064BD3F8F43198470028C6D1EB
:102640002860CEE7686B002040420F00806C0020BD
:10265000F83A002038B5114B04461B680D4613B1FB
:10266000FFF7AEFF98B11EF0F3F94FF0FF3E6FF0A9
:10267000004C0B4A821841F1000396457CEB0301A4
:102680003CBF72466346074824F0B2F900B938BD32
:1026900029462046BDE83840FFF76EBE686B002033
:1026A00040420F00806C00200378002B39D070B5B9
:1026B000044623F07FFF1E4E05463368C218FF2AEA
:1026C00016D802462146B06823F0FEFE3368B26891
:1026D0002B442A443360B260254415F8012C0A2AA1
:1026E00002D0726893421BD9BDE87040FFF768BF03
:1026F00013B1FFF765FF98B11EF0AAF94FF0FF3C48
:102700006FF000460B4A821841F10003944576EBC6
:1027100003013CBF62463346074824F069F908B913
:1027200070BD70472046A9B2BDE87040FFF724BED7
:10273000686B002040420F00806C0020002130B503
:10274000084685B01FF024FD1F201B491DF0F0FA3C
:1027500001211F201DF0CAFA18481DF0A5FD1DF02B
:10276000DDFF04461EF074F94FF0FF3E6FF0004CA1
:1027700010F57A7241F1000396457CEB03014FF0AE
:1027800001054FF0000120460D4CCDE901153CBF7D
:102790007246634600941DF0C5FFEC21094A0A48C1
:1027A000546D0A4B04600A4C0A4803F10C059D6005
:1027B0005465596005B030BD51230010806C002075
:1027C0002D230010D0390020E44F0020686B00203A
:1027D00085240010D4D002100048704788D1021020
:1027E000004870473CD1021038B540B940F2094268
:1027F0004FF44173164D16486A802B8038BD04286B
:1028000004461ED803281ED0124B114D53F8241035
:1028100028460023013903E0132B20F8022F0BD0A8
:1028200011F8012F0133DBB2002AF5D15B0043F42C
:10283000407307482B80E1E74FF44A7304482B802C
:10284000DCE7002038BD1021034821F0C5FFDBE79D
:102850002847002028D10210CC5F002008B5044B87
:102860000449D3F8A42123F02FFE012008BD00BFA6
:10287000F83A002000801F1038B5144D1449D5F8DF
:10288000A421044623F07EF808B9012038BD72B6B1
:102890004FF480514FF4FC1024F0A2F8D5F8A42195
:1028A0004FF4FC10D3B2120A002B18BF013221469C
:1028B000120224F061F862B605492046D5F8A42139
:1028C00023F060F8B0FA80F0400938BDF83A0020F3
:1028D00000801F100C4BDA7803799A420FD910EE62
:1028E00018200A49C3EBC303096801EB83031B7A71
:1028F00022FA03F3DB0704D54FF07E5070470448FB
:1029000070470020704700BF5047002098440020C7
:10291000000080BF0B4B1A7803799A420DD910EE54
:1029200018200949096801EB43139B7A22FA03F343
:10293000DB0704D54FF07E507047044870470020F5
:10294000704700BF5047002080440020000080BF37
:10295000354B364A10B5DA62002832D1344A127843
:102960008A422DD9334A197114684FEA411C04EB8D
:1029700041114A7A4868C2F3801282F00102920142
:10298000B1F808E042F004029861C0F3072020F09B
:10299000440002F0440202435A76CA68A3F81CE0DD
:1029A00014F80CC09A608A7A0C69C8695A61224985
:1029B000224AC3E90340C3E9081283F805C01A4854
:1029C00010BD01282DD11A4AD2788A4229D91C4A31
:1029D000C1EBC10C1468197104EB8C010A8A9A834B
:1029E0000A8A9A61120A22F044004A7CC2F38012D9
:1029F00082F00102920142F0040202F0440202431A
:102A00005A7614F82C00CA6858714C6848699C6062
:102A10000C7A0C49DA600C4AC3E90404C3E90812D1
:102A2000CDE7002010BD00BF103D0020992D001003
:102A30005047002080440020C12A001015290010B2
:102A4000984400204D2A0010D52800102DE9F041AF
:102A5000194F037997F803C0634508D3174E3368BD
:102A6000187860452CBF00200120BDE8F081134E8E
:102A700004463068C3EBC30300EB830390465A7CE3
:102A80000D460978C2F38000884205D1B8F1000FE5
:102A90000BD197F803C0E2E761F38202187A5A7407
:102AA0001DF04CF8B8F1000FF3D0294620461CF079
:102AB00053FC97F803C0D2E7504700209844002009
:102AC000F8B5224F164697F800C00279624503D246
:102AD0008B780D46032B04D162452CBF00200120CA
:102AE000F8BD47F6E73104461948012B006803F0AA
:102AF000030300EB421228784FEAC30343EA802322
:102B0000687843EAC033108901EA0001114803EAFA
:102B1000000343EA010313810DBF012100210122BB
:102B2000002260691CF0E6FF297860691CF0F6FF5E
:102B30003EB9227997F800C062452CBF00200120E1
:102B4000F8BD294620461CF091FBF2E750470020D3
:102B5000804400201884FFFF4F4B2DE9F0471B787D
:102B6000834239D94D4B1D6805EB401500297CD0B7
:102B700007EE902AB3EE047A67EE877AFAFE677A58
:102B8000FCEEE77A17EE904A4B1E012B04F101048C
:102B900027D90E1F18BF012610EE1830AA7AD3408D
:102BA00003F00103B34269D0B4B13D4FDFF8F880C0
:102BB0000AE098F800307BB910EE1830AA7AD340BA
:102BC00003F00103B34259D00CF0D0FC00213220B5
:102BD000FB6B9847013CECD14FF0FF342046BDE839
:102BE000F087012914BF02230B46AA8818BF194693
:102BF00013EA5213F0D00127002395F80AC0294E9A
:102C000007FA0CFCD6E90089284628EA0C02C6E936
:102C10000023FEF74DF8D6E90023A87A8740174233
:102C200034D1BCB11E4FDFF880800BE098F8003043
:102C300083B9D6E9009A0121A87A01FA00F313EAD0
:102C4000090F23D10CF092FC00213220FB6B984736
:102C5000013CEBD14FF0FF3429892846C1F34411E0
:102C6000FEF726F82046BDE8F08710EE1840AB7A54
:102C7000DC4004F001042046BDE8F08710EE184067
:102C8000D44004F001042046BDE8F08710EE18405F
:102C9000C44004F00104DFE75047002080440020D6
:102CA000F83A0020C8390020D83D0020064BDB78D8
:102CB000834208D9054BC0EBC0001B6803EB8003BF
:102CC0001B7A41EC40307047504700209844002068
:102CD00048B90C4B1B788B4212D90B4B1B6803EB8A
:102CE0004113DA61704701280AD1064BDB788B4229
:102CF00006D9064BC1EBC1011B6803EB81035A6186
:102D0000704700BF504700208044002098440020B6
:102D100070B51E4C82B02478844220D91C4C2568A2
:102D200005EB4015B5F804C01CF4787414D0CCF34E
:102D3000441C32EA0C0C16D00024164E336D984712
:102D400000212846FDF7B4FF00222B89AA6123F455
:102D500078732B81F36C9847204602B070BD002435
:102D6000204602B070BD7BB12889E97262F3491038
:102D7000288111462846AB610192FDF799FF019A1F
:102D80000124002AE8D1D8E71C46D6E750470020A6
:102D900080440020F83A0020037FDB0706D5084A6C
:102DA000037912685B010120D1547047054A037909
:102DB0001268C3EBC303012002F82310704700BF61
:102DC0008044002098440020012170B40E4E90F8F9
:102DD0000AC0D6E900452B4601FA0CF141EA04028B
:102DE0008469C6E9002364B110EE1810437A21FA11
:102DF0000CF181EA9301C07A234670BC01F0010115
:102E0000184770BC704700BFC839002030B587B084
:102E1000EC4690F800E00C4A40680C4D10600C4BFA
:102E20004A6885F800E01A600A4C0B78EB700FCC0A
:102E3000ACE80F0094E803008CE8030068461BF040
:102E4000A5FF07B030BD00BF8044002050470020E0
:102E5000984400209CD10210064B1B6843B10649E0
:102E60000279C978914203D903EB8203186870474D
:102E7000024870476851002078440020000080BF5D
:102E8000037F9A0705D5044A037912685B01D15480
:102E9000037FC3F340007047844400209FED4D7AC8
:102EA000D1ED007AF4EEC77AF1EE10FA2DE9F84F81
:102EB0000C460546D0F80C9009DC9FED477AF4EEFD
:102EC000C77AF1EE10FA12DDC0260C2701E01026B9
:102ED000012705201CF0F6FC4946B0FBF7F220461E
:102EE0001CF016F9074630B93846BDE8F88F4FF4A4
:102EF00048763227EDE76869B9F804801CF0B2FE25
:102F000001236869834040EE143004211CF0CAFD9F
:102F10006B69D9F8082058081F2B8ABF00F00300FE
:102F200000F00700083013F0010308BF4FF6FF7AE6
:102F30001FFA82FB4FEA800200EB800102444FF04F
:102F40000000DFF8A0C04FEA81018C44DCF800E00B
:102F50001CBFDFF894A04FEA0B4B94F818908EEA50
:102F60000B0E0CF5805C0EEA0A0ECCF800E0920025
:102F700083F0010C09EA030301F1804102F1804270
:102F800009EA0C09DB0002F5282201F5282143EAB1
:102F90008903086043F001039060D060C2F810809C
:102FA0000E4A4E600B602B79D2789A429CD90C4A1B
:102FB000C3EBC3031268617E02EB8302537C81F092
:102FC000010060F3041361F3451353743846BDE800
:102FD000F88F00BF0000FA44000048437844002006
:102FE0009C4400200C800A400000FFFF0A4B40B9BF
:102FF0001878884205D9094B1B6803EB4113DA6145
:103000007047DB788B4206D9054BC1EBC1011B68C9
:1030100003EB81035A617047784400208444002008
:103020009C44002038B50546244B0C463022002134
:10303000184622F0D5FC012D3DD1214AD278A2427A
:1030400039D903461F4AC4EBC40C1568047105EB5B
:103050008C010A8A8283C2F3403080F00100C2F3FF
:10306000072260F304125A77587F9A8BC0F38010BE
:103070009A6180F00100C2F3072260F386125A764B
:1030800015F82C004A6958714C680F489C600C7AFE
:103090001A614A7C5C6112F0300FD86209D00B4A89
:1030A0000C7E0B480B491268C3E9080102EB44127D
:1030B000DA60024838BD002038BD00BF403D002026
:1030C000784400209C440020812E00106051002094
:1030D0009D2E0010592E001070B51F4D0446EB7840
:1030E000834234D91D4A1E4B10681A68C4EBC403CE
:1030F0009E0002EB830330B1925D02F18042AA3A56
:1031000000EB820001601E7A187E164B1B6803EBF1
:1031100040101CF073F873081F2E8ABF03F00303DE
:1031200003F007030833104A03EB83039B001A44A0
:10313000F30758BF4FF6FF76116880B244BF0B4EBD
:1031400000044140314002F58052EB7811609C420E
:103150002CBF0020012070BD784400206851002061
:103160009C440020605100200C800A400000FFFFBA
:103170002DE9F043344B8DB00393344B002404937A
:103180000346334A1F785B68324D334E13604B68F9
:103190002F70DFF8D89033600B786846CDE900597E
:1031A0000294EB701BF04CFC002849D0EF78002F04
:1031B00046D02A4BD6F8008007930A934346284A04
:1031C000CDE908440592274AC7EBC70106940B9442
:1031D000C2F8489108EB81015A7C1C33D00648BFE5
:1031E00001348B42F8D12021204621F049F9DFF843
:1031F00080900421C9F80000204621F041F9002107
:10320000194B0C46186001E0D6F80080C4EBC403EB
:1032100008EB83035A7CD2060FD5D9F8002001F1C0
:10322000010852B119760120E1B2FFF7FBFE05A9B2
:103230000022FFF733FE4146EF780134A742E3D87E
:103240000DB0BDE8F08300BFED2F00102530001059
:1032500084440020784400209C4400200000C842A0
:1032600000409C45F83A002068510020D9300010F9
:1032700060510020704700BF00207047024A034B96
:10328000D2F8C0001B681847F83A0020D039002057
:10329000074B70B51B6804460D469847054B1B6FDE
:1032A00023B129462046BDE87040184770BD00BFD5
:1032B00080490020D0390020024B93F8FA0100F039
:1032C00002007047F83A00202DE9F843384D2B688A
:1032D000E3B1384B384E93F89730C3B1336D98470C
:1032E0002C68F36C002C61D000272F609847DFF822
:1032F000D880D8F80030E568D4E90120E76067603D
:10330000002B4CD0904715B12C46F2E72A4ED6F848
:10331000D4319847294B80461A6882422AD0284DDA
:10332000284A2C681768BC4224D0186037B1D7E906
:1033300001309847FF68002FF9D12C68D4B10027DD
:10334000DFF884902368A3EB0803002B12DC336DB5
:1033500098472B68A34218D073B9F36C9847D4E907
:103360000130D9F800206760E7608AB198472C687F
:10337000002CE7D1BDE8F8831A46DB68002BECD0BF
:10338000A342F9D1E368D360E7E7E3682B60E4E7A1
:10339000C9F8004098472C68002CD3D1EAE7C8F858
:1033A00000409047002DB2D02C46A2E79847AEE7E8
:1033B0009C4D0020D83D0020F83A0020204E0020EF
:1033C000BC4F0020506600201C4E002008B510F0B5
:1033D000E3FE0022014BC3F8202108BDD0390020B4
:1033E00030B5154B8BB093F800E0EC466FEA0E0E4B
:1033F000124C5FFA8EFE83F800E00FCCACE80F00B1
:1034000094E80F00ACE8070070468CF800300AF032
:10341000C3FA0446684623F0CDF82146684422F0FA
:10342000C9FE0346064A0021128868461A800EF03B
:103430002BF90BB030BD00BF3C2A0020646B02109A
:10344000846B02104AB1064A92F83521920704D5DE
:10345000044A1846D2F8143118470020704700BFBC
:10346000E05F0020F83A0020074B93F83221D206A3
:1034700004D54269D3F8B4118A4200D17047C3F829
:10348000B42111F0BDBF00BFE05F0020704700BF56
:103490000D4808B5417A11F002010CD00B4B012107
:1034A0001B6C403098470A4B00219A8A0948BDE8B6
:1034B000084023F07DBA064B9A8A02B908BD064837
:1034C000BDE8084023F074BAD83D0020F83A002047
:1034D000E05F002091340010DD340010054B002126
:1034E0005B7A9B07044B4CBF044805489A8A23F03B
:1034F0005FBA00BFD83D0020E05F0020913400108B
:10350000DD34001070B50446E30707D4194B1B687F
:10351000002B2BD02046BDE870401847164D174EA3
:103520002B6D98473368B3B10021154803E0DA6882
:10353000194682B113465A688242F8D19A68002A25
:10354000F5D1DA6899B1CA6000220E495A6008685C
:10355000DA6000B90B60EB6C9847C822002108487C
:1035600023F026FA034B1B68002BD3D170BD3260C9
:10357000EAE700BFF04F0020F83A0020BC4F0020DF
:103580007D3200101C4E002070B5124E0D46336D7A
:103590000446984710490B68A3B1002003E0DA689D
:1035A00018467AB113465A68A242F8D19A68AA42DC
:1035B000F5D1DA6860B1C260002208495A60086833
:1035C000DA6018B1F36CBDE8704018470B60F9E79A
:1035D0000A60F1E7F83A0020BC4F00201C4E0020A2
:1035E0002DE9F04FC54D83B0DFF88483B42200216C
:1035F000284622F0F5F94FF420720021C04822F04D
:10360000EFF94FF492720021404622F0E9F9BD4BE8
:10361000BD4CC8F81431BD4BBD4AC8F86030BD4B35
:10362000BD4FC8F86830BD4B0021C8F87C30BC4B9A
:10363000C8F81821C8F88030BA4B4FF40472C8F8A3
:103640008430B94B2046C8E91577C8F8D03022F04D
:10365000C7F90A234FF480622360B44BB44EC4F818
:103660009C314FF08043C4F8A421B24AE361C4E91D
:1036700014624FF6FF730122A4F80232134684F855
:103680000A22AD4AAD492267AD4A2166C4F89C20A2
:10369000AC4A85F89530C4F8F421AB4AE664C4F826
:1036A000242107F0BBFC00F057FE13F07DF910F069
:1036B00073FDFDF729FDA54F00263B7860F300035D
:1036C0003B7000F08FFE13F079F994F8F821397807
:1036D00002F06003A3F16003B3FA83F342F06002E7
:1036E0005B0984F8F821DB00C2F3400243EA0213CD
:1036F00021F0180103F018030B43FF2B3B700CBFA4
:1037000001233346C5E92966C5F8A06085F89860AD
:10371000C5F8AC6085F896300FD18D4BD4F80821F0
:10372000C4F808318B4B8C481A60A36B98473B78E0
:1037300085F8966060F341033B70874E0DF10601FA
:1037400096F8BC0013F03AFF8146002800F08D8106
:1037500096F8BD000DF1070113F030FF18B996F887
:10376000BC3086F8BD309DF9060013F041FD3B7872
:10377000814660F382033B70002800F06E810020D8
:1037800013F092FFC36A2BB1006BB0F1000918BFB0
:103790004FF001093B7869F382033B7094F8F931EB
:1037A00013F0020305D196F8B02163F3410286F8C5
:1037B000B0213B78FF2B06D010230021674885F805
:1037C000943023F021F90121D4F88C3096F81C01B3
:1037D000984714F0ADF9636F4FF000009847D4F8A4
:1037E000F0310BB15E48984795F89430626E103B0B
:1037F00018BF012385F89730002A00F0E78096F87B
:10380000A331DF0700F1E280B28A002A40F0E880AD
:1038100094F8F93113F0060F40F0EC8094F8B630CC
:1038200003F00C03042B06D14E4BD4F800211A6090
:103830004D4BC4F80031D8F8B030002B00F0238194
:103840004FF000094FF0640A4FF0640B10F0A4FC35
:10385000EB7823B196F9A231002B80F2B180482297
:103860000021264822F0BCF86FF001030020C5E9D2
:1038700004ABAB6413F00CFF002840F0E480B38A83
:10388000697A003B18BF012396F8402163F3410198
:103890006972D10705D56B7FC2F3400262F3C3039F
:1038A0006B770AF0B3FCD4F8D430984796F832011D
:1038B000C0F3400001F03CF896F83A01A36D4FF0D8
:1038C000000100F0010098470AF052FD15F07EFF5C
:1038D00007F06AFB17F0C0FD0BF07EF92049234882
:1038E00018F004F8D4F8903013B100210846984736
:1038F00094F8FA319B0740F1A3803BE0D83D0020CB
:103900006466002029EF0010F83A0020753200109C
:10391000110C002055B50110C9320010BDC80110AE
:10392000C5C80110055D011069340010CD330010C9
:10393000A9E1001079320010D50F002035060020D3
:10394000F10C002071910110B93200103C2A0020C6
:103950009132001080490020E05F0020E133001028
:10396000783E0020F04F002005350010EC48002084
:10397000D0390020D8F80030D4F8C400984796F920
:103980003131002B53DA94F9F931002B07DA95F82D
:103990009830002B0CBF8020872023F041F80BF0DB
:1039A00061FE074698B385F8959010F0F5FBEB782B
:1039B000002B3FF454AF96F9A231002BFFF64FAF26
:1039C00094220021384822F00BF84DE794F8053294
:1039D000002B48D1354BB28A6366002A3FF418AFFA
:1039E0000021334822F0E4FF94F8F93113F0060F78
:1039F0003FF414AFC3F38002C3F3400343EA420130
:103A000040F28A2001F0030112F0CEFD06E7D4F85F
:103A1000D031FBB1984785F89570074600287FF4B0
:103A200015AF00F0CBFC384603B0BDE8F08F22F0B4
:103A3000EFFFB0F5807FA6D1012014F0B7FCA2E71C
:103A400018F0D4FD96E7002013F02EFE64224368A0
:103A5000DA6014E785F89530F8E613F033FE13F0DA
:103A6000C7FB814696E6134BB5E713F00FFD4946B9
:103A700013F0E4FCA8B190F9002043788DF80620FB
:103A800086F8BC3064E694F8FB31D8077FF5D8AEF1
:103A9000D4F81431002B3FF4D3AE074BC8F8B03044
:103AA000CEE602460B23E9E7D83D0020CD030020F7
:103AB00091340010ED03002045340010F8B50E4F8E
:103AC0003B6893B100250D4E3268DC68D3E90110E4
:103AD000DD605D6022B188473C6034B12346F3E786
:103AE000336088473C60002CF8D1054B93F8973041
:103AF00003B9FEE7F8BD00BFE04F00201C4E0020D8
:103B0000D83D0020F8B5134FC6B2BB6F04460D4632
:103B10009847C0B2B04209D020467B6F984706B1A3
:103B20002DB9BDE8F840202017F09ABFF8BD07EE88
:103B3000905A9FED097AF8EE677AC7EE877A074BBD
:103B400017EE900A99780AF0E3F8BDE8F8402020D3
:103B500017F086BFF83A002000007A44D83D0020D4
:103B600038B5044622F054FF022801D1012038BDA7
:103B70000CF062F80028FAD0114B1A78002AF5D11F
:103B80005D78002DF2D10F4B20465B6FE4B2984771
:103B90001CB10D4BB3F8B8301BB9202017F060FFF3
:103BA000E4E707EE903A9FED097AF8EE677AC7EE00
:103BB000877A294617EE900A0AF0AAF8EDE700BFC7
:103BC000D83D0020F83A0020E05F002000007A4451
:103BD0000346A3F10F024FF000007A2A42D8DFE833
:103BE00002F04B4E513E414141414B4E514141410A
:103BF00041414B4B4B4B414E4E4E4E415151515119
:103C0000413E3E3E414141414141414141414141AD
:103C10004141414141414141414141414141414194
:103C20004141414141414141414141414141414184
:103C30004141414141414141414141414141414174
:103C40004141414141414141414141414141414164
:103C50004141544141414141414141573E004FF0B2
:103C60000800704783F08002072A98BF0120A3F163
:103C7000800398BF984070474FF0010070474FF0A5
:103C8000020070474FF0040070474FF00F0070477C
:103C90004FF00300704700BF124A92F80832FBB998
:103CA000114892F8051290F8A40192F8072221EA2F
:103CB000000101F00F0100B522EA000281F00F0EB1
:103CC00002F00F026EF3070382F00F0C61F30F2373
:103CD00006486CF3174362F31F6303605DF804FB4F
:103CE000704700BFF83A0020E05F002088490020BC
:103CF000024B82B0186802B0704700BF88490020AC
:103D0000144B93F8083213B1134B186870471A46D6
:103D1000114910B591F800C08C7891F803E049780A
:103D2000C0B244EA0C0C4EEA01016CF3070360F3E5
:103D3000070261F30F2360F30F2264F3174360F36C
:103D400017426EF31F6360F31F6282B003EA020042
:103D500002B010BDF83A00208849002001460E4B01
:103D6000A3F5B96C93F8C8258A4206D063450CD0F8
:103D700093F8C025083B8A42F8D16345D3F8CC05B7
:103D800005D0083B0028EDD0704704487047034B2E
:103D9000002808BF18467047B4D10210886B021083
:103DA0000D289DBF012303FA00F080B20020704768
:103DB00084464FF6FF7000294ED061441CF8013B49
:103DC000434003F0010202EB820002EB403282EA40
:103DD000530202F0010303EB830003EB4033C2F311
:103DE0004E025A4002F0010303EB830003EB403321
:103DF000C2F34E025A4002F0010303EB830003EBCF
:103E00004033C2F34E025A4002F0010303EB830039
:103E100003EB4033C2F34E025A4002F0010303EBBE
:103E2000830003EB4033C2F34E025A4002F0010319
:103E300003EB830003EB4033C2F34E025A4002F01F
:103E4000010303EB830003EB4033C2F34E02534004
:103E50008C4598B2B2D17047704700BF014B1B68C8
:103E6000185C7047C44F002010B410B901220A4BEF
:103E70005A700A4A0A4C1378246843B9B0FA80F39E
:103E800014F800C05B098C4518BF43F001032154AE
:103E90005DF8044B13707047A4610020906D002002
:103EA000C44F00202DE9F047DFF8E8E00546BEF8F2
:103EB000B0C10F4616469846BCF1000F04D0BEF8BC
:103EC000B24164448C4250D3B8F1000F43D1002E6C
:103ED0003ED040462D4C711E052922684BD97B1CD3
:103EE0001344EB1A022BAE4645D902EB070C26F021
:103EF00003014FEA960901EB0C035CF8044B6345A0
:103F00004EF8044BF9D18E42A6EB010407EB0103F6
:103F100005EB010C0DD0D15C012C05F8291008D05F
:103F200013445978022C8CF8011002D09B788CF83D
:103F30000230B8F1000F0BD03744D3195978D35D54
:103F400043EA0123181AB0FA80F04009BDE8F0876F
:103F50000120BDE8F0870D4C314620683844FFF75A
:103F600027FF002EB7D12268E7E7094C246AA44650
:103F7000BDE8F04760477B1E29446C1E134413F8CC
:103F8000015F04F8015FA142F9D1D2E7C44F0020DC
:103F900080500020F83A00202DE9F04FDFF80C9215
:103FA0000646B9F8B0418A461746984683B02CB108
:103FB000B9F8B2512C448442C0F0A080B8F1000F8F
:103FC0007AD17549434681F80080002F00F0A18026
:103FD000D4460AEB0702354600244FF0010A6F4829
:103FE00006F1FF3ED0F800B06D48CDE9003BDE445D
:103FF0001CF8013B0DB980F801A044B9B5FA85F46D
:104000009EF801B064099B4518BF44F00104944533
:104010000EF8013F05F10105EAD1DDE9003BE2467A
:104020000C70B8F1000F1BD0F219DDB208D10122DB
:104030004270002C79D00BF8015BC3F307230CE02E
:10404000002C7ED00137BF190BF80250C3F30723B1
:1040500018BFBB4401D1012444708BF800300C70B0
:104060004378FBB101230B704E4B1B7803B3012245
:10407000B9F8B0310270002B47D14B4C03E0CBB202
:1040800034F82320A2B1B24203F10101F7D104EBCD
:10409000830292789B00042A0AD8DFE802F07609AE
:1040A0006A617300D9F8AC315345DBD0002CDBD109
:1040B000012003B0BDE8F08F39465046FFF778FE87
:1040C000002335490B700346002F81D1334AC5B216
:1040D000D2F800B036B31BF80620C0F30723AA427B
:1040E0002F4832460BEB060433D10132B3D0934450
:1040F0009BF80040E41A18BF0124AEE7294CE4699C
:10410000A44603B0BDE8F04F6047B34226D8027121
:10411000CEE723484378002BA4D1D9F8AC319A4597
:10412000C6D19FE701221E4842709BF80020C3F3CE
:104130000723AA422CD001228BF80050012493447B
:104140008BE71BF80270C3F30723AF420BEB0204AB
:10415000CBD0013225703FF47EAFEFE700238CE730
:1041600001221C44E378417902FA03F30B434371C3
:104170009EE701221C44E378C18802FA03F30B4353
:10418000C38095E70123C37092E7012383708FE713
:1041900001240BF1010B60E7906D0020C44F00205B
:1041A000A46100208050002084D70210F83A00203B
:1041B0002DE9F047634FFC69002C00F09D80624DB3
:1041C0006B7843B10023614A184611680122A04769
:1041D00080F001006870AB785BB15C4A0023116825
:1041E00001204FF4E372FC690131A04780F0010027
:1041F000A870EB7863B1554A0023116840F2B730DC
:104200004822FC6901F2B731A04780F00100E87054
:1042100095F805C0BCF1000F29D002244FF0010928
:104220002346DFF82881013B2CFA03F2D10717D58A
:1042300009FA03FE6FEA0E0E5842D8F8001000F09B
:10424000480000F226300EEA0C0C00234822FE69DA
:10425000014485F805C05FFA8EFAB04700286BD19B
:10426000012C04D0012495F805C02346DBE7EB8838
:104270002BB34FF436790C24DFF8D08000E0EB88C4
:10428000E340DA070ED5D8F8001000231222484682
:10429000FE694944B04728B10122EB88A24023EAD5
:1042A0000203EB80013C631CA9F11209E7D12B79D1
:1042B0003BB9EB88C3B101232B70BDE8F0872B79A4
:1042C00093B1234BB3F8B221002A33D01F49B3F87E
:1042D000B00109680023FC690144A047EB8880F025
:1042E00001002871002BE6D1AB78002BE3D1AB881D
:1042F000002BE0D1EB78DFE7BB6A002BDDD0134D5C
:1043000004242868984730B9013C0AD0BB6A286861
:1043100098470028F8D000220B4BC3E90022BDE8E3
:10432000F08702210B480DF0AFF90022064BC3E9DC
:104330000022F4E72A71BCE76B790AEA030E85F8DC
:1043400005E08DE780500020A4610020C44F0020CC
:10435000F83A002070740210F8B5144B144ED3F8DC
:10436000A84133689C4211D8124B134F1C68204659
:1043700020F074F80546386020B12246FF213460F1
:1043800021F02EFB281E18BF0120F8BDB4F5805F78
:1043900028BF4FF48054084F064D38682C60002821
:1043A000E5D020F083F82C68E1E700BFF83A002060
:1043B000402A0020442A0020C44F002010B5074C9A
:1043C000206848B1064B1B7813B1FFF7F1FE206857
:1043D000BDE8104020F06AB810BD00BFC44F0020F7
:1043E000A46100202DE9F041454C464DD4F8A4319C
:1043F0002F68013B43F003030133C4F8A431002FBD
:104400006DD0414E04F5D07EB446BEE80F00ACE856
:104410000F00BEE80F00ACE80F009EE8070096F81A
:1044200000808CE80700B8F1030F5ED0B8F1000FF0
:1044300032D10423354AC4E97188C4F8B421344A1E
:1044400084F8A031C4F8B821324AC4F8BC21324AF9
:10445000C4F8C021314B187811F000FD3378032BDC
:1044600048D0F76947B10023B4F8B221184629684B
:1044700002F58062B8473378002B34D0284B0720F0
:104480009B68984728680022264B801AC3E90022BF
:1044900018BF0120BDE8F0810023B4F8B2213846EE
:1044A0001946376A02F58062B84730780422002343
:1044B0001649C4E97133C4F8B411154984F8A02130
:1044C000C4F8B8111349C4F8BC111349C4F8C01199
:1044D0000028BFD028680378172BBBD1D3E7124937
:1044E000124822F091FA2868CDE73846736A984757
:1044F0003078DBE7B36A286898473378BCE700BFB9
:10450000F83A0020C44F0020805000205D3E00108B
:10451000693E0010993F0010A53E00107CF3021088
:10452000D0390020A461002088740210E516011023
:10453000024B1B780BB1FFF73BBE7047A461002014
:10454000044890F8A031042B0CBF034800F5D0704C
:10455000704700BFF83A002080500020F8B5046989
:104560002DED028B08EE101AE16B002942D00026D7
:104570006425027D214B22F02002646802755A7F77
:104580001F4F42F0800287ED1A8A02765A7F80ED33
:10459000008A42F0040286605A77027E42F00402EA
:1045A00002765A7F42F001025A77037E43F00103FC
:1045B00003760120E5608847D0ED007A28EE278A4F
:1045C000B5EE408AF1EE10FA10D00E4B9FED0E7A48
:1045D000D3ED1D7A67EE877AF4EEC87ABDEC028BD4
:1045E000F1EE10FA4CBF2B203046F8BD2920BDEC6F
:1045F000028BF8BD1420BDEC028BF8BDD83D002025
:1046000080480020E05F00206666663F094991F817
:104610008B3001F18C0C013303F003030CEB031C12
:1046200001F1D00281F88B300FCA8CE80F0017F02F
:104630003DB900BF804800200C4B9A690AB1DB6984
:10464000184770B40A4E0446B4460A4BD3F8F050EB
:1046500028686968AA68EB68ACE80F002869CCF89C
:1046600000003046746170BC704700BFD039002034
:10467000406900208048002038B50C201FF0EEFE75
:1046800068B10446074B084D93E807002B6884E89F
:1046900007002BB11A469B68002BFBD1946038BDF4
:1046A0002C6038BD6C4800200C500020472370B5AA
:1046B00000F13604E4B23B2C104D204628BF3B20CD
:1046C0002B8009F069F90646284621F073FF314630
:1046D000284421F06FFD3B2C01D8084870BD0346EB
:1046E000074AA4F13B0012881A8009F055F90146E7
:1046F000284621F0C3F9014870BD00BF28460020BC
:1047000008BC021000487047582A0020194BF7EEE9
:10471000007AD3ED076AF4EE676A93ED067AF1EE5C
:1047200010FAB4EE677A93ED057AF7EE007A14BFCB
:1047300001200020F1EE10FAB4EE677A93ED047ACE
:10474000F7EE007A4FEA400018BF40F00100F1EEAA
:1047500010FAB4EE677A4FEA40001CBF40F0010047
:10476000C0B2F1EE10FA4FEA4000C0B218BF40F0FC
:1047700001007047482A002010B50446F1B140F20C
:104780000113164AB2F82C21934317D015F0FCFE02
:10479000002813DB124B04EB800003EB800003EBDB
:1047A0008402D0ED237AD2ED026A92ED387A77EE68
:1047B000A67A77EE877A17EE900A10BD084B03EBC6
:1047C0008401D1ED027AD1ED346A91ED387A77EE39
:1047D000A67A77EE877A17EE900A10BDE05F002088
:1047E0008048002010B582B0019250B3022803D057
:1047F000404BD87102B010BD07EE902A3E4BF8EE48
:10480000E77A03EB4113D3ED0C6A87EEA67A3B4CB3
:10481000384B01F13802A46903EB820292ED006A81
:1048200082ED007A2CB9D3F8F02002EB810282ED00
:10483000007AB4EE476AF1EE10FA14BF01220022AA
:1048400037E02E4B9B69002B3FD12A4B002293ED82
:104850003B6AB5EE406AD3F8F010D3ED3A6A93EDB7
:10486000397AD3ED387AC3F8EC20CA60C3F8E8206F
:104870008A60C3F8E4204A60C3F8E0200A60F1EEE1
:1048800010FAF5EE406A14BF01220022F1EE10FA90
:10489000B5EE407A18BF42F00102F1EE10FAF5EEE3
:1048A000407A18BF42F00102F1EE10FA18BF42F050
:1048B0000102D871002A9DD04FF4806017F0D0F823
:1048C00002B0BDE8104016F0F1BF0A4B002293ED94
:1048D0003B6AD3ED3A6A93ED397AD3ED387AB5EE87
:1048E000406AC3F8EC20C3F8E820C3F8E420C3F81A
:1048F000E020C4E780480020E05F0020D03900209D
:1049000071B1012905D10222002302704370817028
:1049100070470122022300210270437081707047AA
:104920000A4601230221027043708170704700BF64
:104930002DE9F043A04F89B097F89540002C00F086
:104940008C809E4D9E4C0021F422284621F048F890
:1049500094F832319B4ED90640F1C380F369D4F804
:10496000B4019847C5F8F000002800F0BA80B36998
:10497000002B00F0BF80944B1C682CB12046A4682B
:104980001FF094FD002CF9D17A7F904B002085F820
:1049900030202B6612F088FE8D4BF7EE007AD3EDB7
:1049A000076AF4EE676A93ED067AF1EE10FAB4EE58
:1049B000677A93ED057AF7EE007A14BF01220022A0
:1049C000F1EE10FAB4EE677A4FEA420218BF42F0F5
:1049D0000102F1EE10FA93ED047AE8625CD0B4EED5
:1049E000677AF1EE10FA00F0D6804FF07E51002287
:1049F0000020D96185F83200DA6099619A605961C6
:104A000019615A601A60022017F02AF87149287E4D
:104A100011F0F0F910B90720B368984797F895306E
:104A2000002B53D0664B93F831319B0773D5B36C91
:104A30004BB100226749CDE900220868CDE9022286
:104A4000002879D0984718F093FF336B002B45D09E
:104A50005A4809B0BDE8F0431847584DD0220646E1
:104A60002146284695F8189095F8078020F0B8FF61
:104A7000594BD5F8F000D3F81C314269C5F88020B5
:104A80000BB1214698472EB14E4E85F8189085F807
:104A9000078070E74B4E6EE7B4EE677AF1EE10FADE
:104AA0004FEA8202A1D100210020C3ED077AC3EDB5
:104AB000067AC3ED057AC3ED047A85F83200D96031
:104AC000996059601960002AA0D09CE7B36C002B54
:104AD000B8D118F04DFF336B002BB9D109B0BDE848
:104AE000F083F36900209847B369C5F8F000002B04
:104AF0007FF441AF036043608360C360036143613F
:104B000094F83231DA067FF536AFD4F8B421D5F80F
:104B1000F0305A612FE70B20304911F06BF980BB60
:104B20000720B3689847B36C002B8CD097F895207A
:104B3000002A7FF47EAF85E74C68944282D18C686E
:104B400094427FF47FAFCC6894427FF47BAF0A46F7
:104B5000CDE90400CDE9060052F8C80F00287FF423
:104B600071AF5068059A90427FF46CAFD1F8D000D5
:104B700090427FF467AFD1F8D41091427FF462AFD6
:104B800061E795F98B40154B05EB04148C340FCB82
:104B900084E80F00C7E700220021C3ED077AC3EDC8
:104BA000067AC3ED057AC3ED047A85F83210DA602F
:104BB0009A605A601A6026E7D83D0020804800209D
:104BC000E05F0020D03900200C500020A0480020D9
:104BD000482A002088480020F83A00205049002048
:104BE00000487047A0480020002208B5054BC3E9E3
:104BF00000229A6012F09CFFBDE80840102016F0D9
:104C00002FBF00BFA048002008B5054A054B5077CC
:104C10005B6F9847BDE80840202016F021BF00BF19
:104C200080480020F83A002040B110B504462046E4
:104C3000A4681FF03BFC002CF9D110BD704700BFE9
:104C4000B0B10C4B10B5D3F8C430044603B198474B
:104C5000237823B92046BDE810401FF027BC20462A
:104C600000210CF011FD2046BDE810401FF01EBCD5
:104C7000704700BFD0390020014B1868704700BF53
:104C80009447002038B5044610B3174B1878F8B98C
:104C90005B78E3B9154D607F84F83C306B7F2A88E0
:104CA0009842228004D0124BB3F8B810FEF72AFFC6
:104CB0000C22104904F1200020F064FE50B144227F
:104CC00021460A4821F000FC01202B6C6B6638BDA0
:104CD000002038BD064BA26AB3F8C03094F820100B
:104CE000E86A12F077FEEAE7D83D0020804800200D
:104CF000E05F0020A04800202DE9F04F0378174620
:104D00005A1E1F2A0446884683B004D814F8013F6F
:104D1000581E1F28FAD93B2B53D02F2B3DD0002BE8
:104D200068D0A2460026651C202B09D9292B05F145
:104D3000FF391BD03B2B14D0282B0CD0002E33D0A6
:104D400015F8013B002BEFD1002320468AF80030F4
:104D500003B0BDE8F08F2E4615F8013B002BE3D1E0
:104D6000F2E7002EECD189F80060EDE77EB13F4B11
:104D700093F889305BB905F8013C3D4B93F8FA3163
:104D80005B0724D4002F4BD03B68002B34D015F8A0
:104D9000013B0026002BC7D1D6E7364B1B7ADA063B
:104DA0000FD463780134BAE7A3F16102192A98BFDE
:104DB00003F05F030AF8013B15F8013B002BB3D168
:104DC000C2E700232046237003B0BDE8F08F33789C
:104DD000002BDCD017B13B68002BD8D1DFF89CB09A
:104DE000DBF8C830002BD2D030469847002688F830
:104DF0000000A5E7A246A7E7DFF880B0DBF8C030E7
:104E000023B13046984738600028C0D1042230468C
:104E1000194920F0CFFE38B13378002BE0D1B6E746
:104E20003378002BB3D0D9E7A9EB0602A2F103092E
:104E3000484601921FF012FB019A38600028EBD01F
:104E40003379202B0FD1731D194613F801CBBCF118
:104E5000200FF9D006F101099144A9EB01094A4656
:104E600021F032FB93E7311DF9E700BF80480020B5
:104E7000F83A0020D83D0020A8740210D039002054
:104E800000212DE9F04FDFF8B4922DED088BD9F811
:104E90000431A54F5B1A18BF012397F88520B1B0E4
:104EA00093EA020419918DF8631019AA0DF16301B8
:104EB00018BF87F88530FFF71FFF9DF863608046B5
:104EC0009EB90578252D16D0CDB9199C64B1974BA4
:104ED000D3F8C4300BB1204698472378002B40F01C
:104EE000BC8620461FF0E2FA2E46304631B0BDECBB
:104EF000088BBDE8F08F4278002A00F0B2808C4C1D
:104F0000E8220021204620F06BFD4422864904F16E
:104F1000080021F0D9FA002298F800103B6E2429ED
:104F20001046154606928DF820200A93ADF81420FD
:104F300000F0DE82414601221A9200221C9291F872
:104F400000B01E92BBF1000F01F0DE83BBF1400FF9
:104F500068D9BBF15A0F00F28686BBF14F0F65D1BD
:104F6000744A1AAB19461B9240461CAA049308F0D7
:104F7000E1FD034609908DF86300002841F0588751
:104F8000DDED1B7AF4EE677AF1EE10FAB0EE677A97
:104F900081F17383824607900B90FCEEE76AF8EE8E
:104FA000665A9FED656A77EEE57A67EE867AF8FED7
:104FB000677ACDED1C6ABCEEE78ABBF1470F63D080
:104FC000BBF14D0F40F011822278412A00F0D080D1
:104FD0001C98632840F287810022DFF850B11E92AE
:104FE000DBF8F820002A00F09D8018EE103A80B21D
:104FF000002B00F0CC8200EB80001FFA83FB00EB5B
:1050000080000BEB800080B290478246002800F0C1
:1050100089801C9A02EB820202EB82020BEB820275
:1050200092B2BBE2BBF1240F40F01D861AAB1946C9
:1050300040461BAA049308F0D5FD002801F04E82DB
:1050400000239A4608EE103A099307930B93DDED7F
:105050001B7AF4EE677AF1EE10FAB0EE677A9CD71D
:10506000ABE7027097F88520002A00F07482002CCC
:1050700040F0FA8297F88420002A41F01482392304
:105080001D468DF8633020E700221E921C9A412AAB
:1050900058D8412A46D8DFE812F0940294029402CC
:1050A0009402840394024500760376034500F702D8
:1050B000450045004500450045004500ED02ED0274
:1050C000ED02480348034500450045004500450002
:1050D0004500F7024500F70245004500270445005A
:1050E000450045004500EA034500E2034500450050
:1050F0006203450045004500450045006203560334
:105100005603450084038A028A028A028A028A02BE
:105110008A0245002C0445004500450011044C2A34
:1051200000F0E2831426E0E680480020D039002019
:10513000984700200000C07F0000C842F83A0020D5
:105140000000C07F592A40F2DC81A2F15A010929EE
:10515000E8D8A2F15C01072904F2B780DFE811F07A
:10516000B1025A025A02AF024D024D0265026502B7
:1051700094F8D120930601F1B48184ED1B7A42F0BA
:10518000200284F8D1201A9A511C1A9118F802B002
:10519000BBF1000F00F06E85BBF1400F2AD8BBF1C8
:1051A000240F40F06085404604991BAA08F01AFDC0
:1051B00000286DD1BAF1020F41F090815FED207AA5
:1051C000B0EE677ACDED1B7A18EE103A002B40F066
:1051D0004185BDEEC77AD4F8D01084ED2E7A11F057
:1051E000010308EE103A41F07C8101220A43C4F821
:1051F000D020C8E7BBF15A0F00F23585BBF14F0F45
:105200005ED1B64A40461B9204991CAA08F092FC53
:105210008DF86300002841F06A81DDED1B7AF4EE21
:10522000677AF1EE10FA1D900FD6BCEEE77AB8EE71
:10523000476ADFEDAB6A77EEC67A67EEA67AF8FECC
:10524000677A8DED1C7ABCEEE78A18EE103A002BD7
:1052500040F000859DF87520D4F8D01042F080020F
:105260008DF875201C9AC4F8C0201D9A11EA02031B
:1052700008EE103A41F035819A480242B6D0DDED91
:105280001B7AF5EEC07AF1EE10FAAFD504262CE6C3
:105290009DED1B7AB4EE477AF1EE10FA94D6FCEE4F
:1052A000C77AB8EE678ADFED8E6A37EE488A28EE55
:1052B000268AB8FE488ACDED1C7ABCEEC88A83E700
:1052C000404604991BAA08F08DFC00287FF4BFAE6D
:1052D000BAF1020F41F00281DFED837AB0EE677A16
:1052E000CDED1B7A69E618EE103A002B40F0B2843F
:1052F0008DED1E8A632800F24281DFE810F0F9018B
:10530000F901F9019702970297028E04760276025C
:10531000760240014001400140014001400140014E
:105320004001400140014001400140014001400175
:1053300040014001400140014001F90140014001AC
:105340004001400140014001400140014001400155
:1053500040014001400140014001400140016A001C
:105360006A006A006A0040016A004001400164006E
:10537000400140014001F901A3046202620262029D
:10538000620280040203020340015B025B025B02D3
:105390005B024001400140014001400140014001E9
:1053A00040014001400140014001400140014001F5
:1053B00040014001400140014001400140014001E5
:1053C000400140017004494A92F8402153077FF59B
:1053D000A9AE4FF0000A4FF480126070154208BF6A
:1053E0002A4340F039821546CDE60022ABF1240B6A
:1053F0001D92BBF1360F3FF695AE01A252F82BF08D
:10540000C9510010255100102551001025510010E0
:105410002551001025510010255100102551001074
:105420002551001025510010255100102551001064
:105430002551001025510010255100102551001054
:105440002551001025510010255100102551001044
:105450002551001025510010255100102551001034
:105460002551001025510010255100102551001024
:10547000255100105759001045590010335900109C
:105480001D5900101F5B0010055B00102551001016
:10549000C95A0010AD5A0010915A0010755A0010E8
:1054A0003D5A001025510010215A00104B52001097
:1054B0004B5B0010355B0010615B0010095A001057
:1054C000AD590010995900108559001071590010FC
:1054D000C15B0010955B0010775B00100000C07F7F
:1054E0000000C84280CA18000000C07FE05F0020B2
:1054F0000120A27208F1030104222081ADF81400FA
:105500001AE5482A7FF60EAE4FF0010CC449A2F10D
:1055100049000CFA00F00140002940F08C80502A2C
:105520007FF4FDAD9DF8781041F002018DF8781000
:105530002281002284F83B20022218EE103A002B30
:1055400040F0888315EA020308EE103A40F08481A7
:105550009A46154317E697F88420DFF8CCB282F01C
:10556000010287F88420DBF8EC2012B197F8840060
:10557000904798F80050002D3FF4A7ACBFE4DFF847
:10558000A8B2DBF8F820002A3FF4CCAD80B29047F7
:10559000824600283FF4C6ADBDF8702062809DF8B9
:1055A0007A2042F020028DF87A201E9A16E7A2F1A6
:1055B00036013B2A84F8201000F0F4874FF4006293
:1055C000BBE7079B002B41F04C829DF87810052A21
:1055D00041F002018DF8781041F0668018EE103A23
:1055E00023B10A2B08BF33227FF49CAD2281002215
:1055F00084F83B2002220792A4E78A49097E022907
:105600007FF490AD603A82F0010284F84D204FF4AF
:10561000005292E7C2F15E02A2729DF8782042F039
:1056200020028DF87820202287E7623A84F839201A
:105630004FF4007281E7079B002B41F0128291B278
:105640003A88059B521A18BF012262F34103059361
:1056500002239DF8782084F83BC01A438DF8782007
:1056600021811A46079368E70122DFF8BCB187F869
:10567000842078E7113AA2739DF8782042F0040262
:105680008DF87820042258E718EE103A002B41F0EC
:105690002880079B002B41F0E4819DF878101C2A9C
:1056A00041F0010122708DF8781041F0C48301238C
:1056B000079318EE103A1A442270012242E70222A0
:1056C000AAE718EE103A002B40F0F287079B002B58
:1056D00041F0C78101239DF87820079342F0010231
:1056E0008DF8782018EE102A5C322270012229E70A
:1056F000002800F01887012840F00C8799F8002254
:10570000910641F12380D9F86C20904780F0200267
:10571000C2F34012002A00F06C8201224FF0000A0E
:1057200084F824204FF4004258E6A2F11402B2FAA1
:1057300082F25209E2729DF8782042F040028DF820
:1057400078204022F9E6A2F13302B2FA82F2042371
:10575000520984F83A2007934FF48062EDE6312A2B
:1057600000F0858718EE103A002B40F08C87DFF8A8
:10577000B8B0DBF81820002A3FF4D4AC0122E27361
:105780004FF48072DEE62749097E02297FF4CAAC15
:10579000A2F10702B2FA82F2520962734FF4804218
:1057A000CBE622709DF8782042F001028DF8782037
:1057B0000122C2E684F8E4002A464FF0000A1546AA
:1057C000E1E419F045F880077FF5ACAC012108460B
:1057D00018F0FEFE00283FF4A5AC9DF870304FF0A5
:1057E000000A4FF480320993F8E5059B082843F43A
:1057F0008073059300F08786092800F07B8699F86E
:105800000A2292077FF58EAC94F825204FF0000A0B
:1058100042F0020284F825204FF40022DEE500BFAA
:1058200001370100E05F0020D0390020A0F1040121
:10583000421FB1FA81F118BF0122490942EA41022F
:1058400094F84C104FF0000A21F003010A4384F849
:105850004C204FF48022C1E51526FFF746BB9DF88A
:10586000782042F080028DF87820802265E6D9F811
:105870001021002A3FF456AC18EE103AA3F114019F
:105880001E293FF64FACCB4ACA40D2077FF54AAC3F
:10589000C94AA2FB0312D2088A321C92079B002B32
:1058A00041F0DF8092B22281002284F83B209DF8F3
:1058B000782042F002028DF878209BE6412218EE13
:1058C000103A22709DF8782042F001028DF878207D
:1058D000002B7FF427ACDFF8E4B2DBF81C21002AB0
:1058E0003FF420AC01222DE618EE103A002BD5D063
:1058F00018E418EE103A002B7FF414AC4FF48052E9
:1059000020E618F0A5FF42077FF50CAC012100202E
:1059100018F05EFE00287FF460AF03E4D4F8D010E6
:1059200084ED147A0A0600F1DC85DDED1B7A802215
:10593000A7E4D4F8D01084ED217A0B0700F1D185CB
:10594000082253E4D4F8D01084ED207A4A0700F1FD
:10595000C88504224AE4089BD4F8D01043F0080319
:1059600008938B0784ED287A00F1BB8502223DE481
:10597000D4F8D01084ED247A0B0200F1B2854FF4F4
:10598000000233E4D4F8D01084ED237A4A0200F107
:10599000A8854FF4800229E4D4F8D01084ED227A4F
:1059A0008B0200F19E854FF400121FE418EE103AAE
:1059B000002B40F04F81DFF804B21C98DBF8182070
:1059C000002A00F09185DBF81C209047B0FA80F0A7
:1059D0004009002841F03386DDED1B7AF4EE677A4A
:1059E000F1EE10FA68BF4FF0FF32D4F8D01078BF54
:1059F0001C9A11F4801308EE103AC4F8C82040F045
:105A000070854FF480123CE4D4F8D01084ED1F7AF6
:105A10000A0300F16685DDED1B7A4FF4002230E4C5
:105A2000BDEEC77AD4F8D01084ED2F7A4A0400F185
:105A30005885DDED1B7A4FF4804222E418EE103ACF
:105A4000002B40F00781B4EE477AF1EE10FA68BF00
:105A5000FF22D4F8D01078BF9DF8702011F4805345
:105A600008EE103A84F8CC2040F03B854FF4805289
:105A7000FFF7BCBB069BD4F8D01043F00403069399
:105A80004B0684ED197A00F12C854022FFF7AEBB5E
:105A9000069BD4F8D01043F002038A0684ED187AEE
:105AA000069300F11E852022FFF7A0BB069BD4F8C9
:105AB000D01043F001030693CB0684ED177A00F172
:105AC00010851022FFF792BB18EE103A002B40F021
:105AD000C180B4EE477AF1EE10FA68BF4FF0FF32A2
