:020000041000EA
:10000000002008205D0100101301001015010010F0
:100010001101001011010010110100101101001058
:100020001101001011010010110100101701001042
:10003000110100101101001019010010910300209E
:100040001D0100101D0100101D0100101D010010F8
:100050001D0100101D0100101D0100101D010010E8
:100060001D0100101D0100101D0100101D010010D8
:100070001D0100101D0100101D0100101D010010C8
:100080001D0100101D0100101D0100101D010010B8
:100090001D0100101D0100101D0100101D010010A8
:1000A0001D0100101D0100101D0100101D01001098
:1000B0001D0100101D0100101D0100101D01001088
:1000C0001D0100101D0100101D0100101D01001078
:1000D0001D0100101D0100101D0100101D01001068
:1000E0001D0100101D0100101D0100101D01001058
:1000F0001D0100101D0100101D0100101D01001048
:100100001D0100101D0100101D0100101D01001037
:1001100000BE00BE00BE00BE00BE00BEEFF3058004
:10012000103800BEF2EB887160DE02107CDE021037
:10013000A801001090A31AE7D3DEFFFF42012110AF
:10014000FF010000D4130300793512AB4FF000001B
:100150002049086006C881F3088810474FF05040D6
:10016000006810B14FF00000F2E70FA40ECC002998
:1001700002D000F015F8F9E71749184A002000E00E
:1001800001C19142FCD1002080F30A8814498847BC
:10019000144988471449884700BEFDE701C901C2D8
:1001A0009A42FBD3704700BF7CDE02101001002092
:1001B000A03700200C1503100000082000000820C4
:1001C0000C1503100010082000100820000000008B
:1001D0007047000008ED00E0A0370020686C0020A8
:1001E000B92602103D020010B1260210F8B500BF7A
:1001F000064B0749C91A891048BF0131491003D07D
:10020000044B0BB101481847704700BFA0370020CE
:10021000A03700200000000008B5054B1BB10549C0
:100220000548AFF30080BDE80840FFF7E1BF00BF1D
:1002300000000000F84E0020184C021008B503F032
:100240005FF9002008BD00BF08B5884700200021E5
:1002500008BD00BF044B082293F8FB304340C3F3B2
:10026000000343EC40207047F85E0020002382B07A
:10027000009310EE183010EE181010EE1820C1F395
:100280008021C3F3402343EA4103C2F3C02243EA7F
:1002900082038DF80030009802B07047C0680022D9
:1002A000836E18470D4B014693F8A82010EE1830C6
:1002B00010EE1800C0F38030C3F3403343EA40032C
:1002C00003F0030322F003000343534018464A6837
:1002D000127A134363F30000704700BFF85E0020FA
:1002E0001023C0F3000242EC40301123C0F3400061
:1002F00040EC4030704700BF094B93F8960010EE79
:10030000183010EE1820C2F34042C3F3004343EA12
:10031000420303F0030320F00302134358407047E5
:10032000F85E002072B603681943016062B6704738
:10033000034672B600681A6822EA0101196062B6C3
:10034000704700BF034672B60068196062B6704716
:10035000014B1868704700BFC84600202DE9F047E0
:100360000026884691462F4C2F4D237F43F00103F2
:100370002377EF68AB7AA7F1010CBCFA8CFC627FA3
:1003800095F800E04FEA5C1C6361EB696CF30412C2
:1003900026714946204684F805E0A760236162770C
:1003A0000136C047092E05F12005E2D102231F4D79
:1003B0001F4FDFF884A0A3830EE0272B0CBF52460B
:1003C00000226B694946C4E9032316480136C04739
:1003D0001D2E05F11C050BD0EB68287A29786A6878
:1003E000252B267160616171A260E6D13A46E8E78B
:1003F000104B1D680023E3608DB1EB6826716361CB
:100400002B782F8A63716B686A6949460548A36037
:10041000A7832261C047AD690136002DEDD1BDE84B
:10042000F08700BF003D002058280020282600202B
:10043000184C0210A04F00201C4C02100D4B1B68E2
:1004400013B970479B69A3B193F800C08445F9D1F3
:1004500010B45C688C4208D09B693BB193F800C033
:100460008445F9D15C688C42F6D15A615DF8044B41
:1004700070477047A04F0020F8B50446002843D0CD
:100480002C4B9FED2D7AD3ED2D7AF4EEC77AF1EE59
:1004900010FA3ADC9FED297AF4EEC77AF1EE10FA01
:1004A00043DDC0250C2605201DF014FC244AB0FBBA
:1004B000F6F32449204615F00BFE48B30021012035
:1004C000214A224B62621F4AD7681689D3F89820C6
:1004D00082EA07421E4F6FF30F02C7F89820C3F855
:1004E0008C10C3F89410C3F89810C3F89C60C3F83C
:1004F0009050C3F88C00A17A204611F0010118BF7A
:10050000104915F093FA0120F8BD10250126CAE71D
:10051000E36893F820305B0604D5014600222046AC
:10052000636A98470B4B6362E5E74FF448753226E0
:10053000B9E700BFF85E00200000FA44000048431D
:10054000A05F0020C46000201109001000800A4054
:1005500000900A40BD08001070B504461C2022F02F
:1005600049F8A8B184460546002620686168A2685B
:10057000E368ACE80F00084A206961691368ACE8D9
:100580000300AE612BB11A469B69002BFBD195612C
:1005900070BD156070BD00BFA04F002000B58BB0CE
:1005A000684623F0B1FA044B0448C01A079BC01AEE
:1005B0000BB05DF804FB00BF686C00200000082051
:1005C000064C08B50648D4F8C0309847002164208E
:1005D000E36B9847002108461EF0F2FC883A0020A1
:1005E000244C02101EF03CBC2DE9F84F01252A4C8A
:1005F0004FF000088146AA4604F50C7B02E01C344B
:100600005C452CD0E368242BF9D163680B2BF6D022
:10061000207A1DF06DFC0428F1D0207A1DF02AFD0F
:100620002378207A062B33D0C02B31D0A0F1200CB8
:10063000C0F1200105FA0CFC25FA01F147464346BA
:1006400005FA00F64CEA010242EC24606368012BD3
:10065000D5D104211C341DF02DFC5C45D2D199F874
:1006600000300E4AA3F11703B3FA83F30C4C5B0975
:1006700048464FF00001D2F808212370904710EE51
:10068000103003F0E00320EE10302078BDE8F88F42
:100690004AEC4000CAE700BF28260020883A002024
:1006A0004D6C002010B5536882B0012B14468DF8B4
:1006B000071012D0107803F0B3FA012103460DF1B0
:1006C000070208461CF0CEF958B19DF8070060708B
:1006D000FF3818BF012002B010BD927843699A42DA
:1006E00005D06078FF3818BF012002B010BD836AC2
:1006F000002BF6D09DF807006070E9E788B170B56F
:10070000054600244FF00003E2B262F3070362F3F0
:100710000F2363F30F0630460134A847032CF1D1B1
:1007200070BD7047002110B5044611201DF0E6FC95
:100730000121104A104B10681A68814022EA010218
:100740001A60D3F8702122F48072C3F8702184B14A
:1007500010EE103003F0E00320EE10300020074AC6
:10076000074B08491B68907009681268043341F808
:10077000232010BD94640020000030507829002010
:100780008C6400207864002000B170470149024861
:100790000FF0F6BB504C0210584C021038B51B4CF1
:1007A00000214FF00700D4F88C309847184B194AB5
:1007B0001968236A1848A2FB03230268B2EB131FCF
:1007C0000FD01C09154B164D1A6801EB410304604C
:1007D00002F01F0205EBC303081D45F82040C3F8D3
:1007E000D82001230E4A8B401068034208D11168BB
:1007F0000B431360D2F8703143F48073C2F8703148
:100800000121BDE8384011201DF078BC883A002055
:10081000946400201F85EB519C4F002098640020B9
:10082000000030502DE9F0410D4684B010B304466D
:1008300031B31EF07BF906461EF012FB0B46024652
:100840004FF47A704FF0FF3C6FF00047E4FB002359
:10085000944577EB03014FF00001154C3CBF624615
:100860003B4630460195009402911EF063F904B0B6
:10087000BDE8F0810029FAD004B0BDE8F041084796
:100880004FF47A720B4E02FB04F4B76AB36ADB1BB7
:10089000A342ECD2DFF82080D8F8585024F07CF93D
:1008A000A847B36ADB1B9C42F6D804B0BDE8F081D0
:1008B0004902001000000B4060390020C36811F0AD
:1008C00001000CD193F8202060F3861283F82020D9
:1008D00012F0040218D00E2340EC403070470E2274
:1008E000C1F3400141EC402093F82010490758BF64
:1008F0000D224FF0010141EC402093F8202042F0FE
:10090000400283F8202070470D2342EC40307047AE
:1009100038B50446C06807EE902A90F82030CAB275
:100920005D0719D5920731D490F8203023F04003A9
:1009300080F8203013F0040322D10D2143EC401045
:100940002A4AC368D2F898201B04294953406FF300
:100950000F03C1F8983038BDD507E5D50E22C1F395
:10096000400141EC4020F5EE407AF1EE10FA01D161
:100970001A0712D40D234FF0010242EC403020E060
:100980000E234FF0000141EC4030D9E7F5EE407AFC
:10099000F1EE10FA10D11B070ED590F8203023F09D
:1009A000400380F8203013F004031BD00E234FF0D7
:1009B000000242EC403038BD0E234FF0010242EC01
:1009C000403090F8203017EE901A43F04003856EC7
:1009D00080F820300022A84701462046BDE8384074
:1009E00024F0BAB80D2243EC402038BD00800A4004
:1009F00000900A402DE9F0416A4D82B00646084653
:100A00000F462C7803F0DEF80190002E45D0664B9F
:100A100093F81A31DB0740D50026FFB26A68013C23
:100A20004FEA441802EB441357B9FEB100220F21DC
:100A3000987A1DF09BFA002CF0D102B0BDE8F0814D
:100A400012F8080003F052F86B68C0B24344DA6849
:100A5000B2F5007F0CBF9DF804209DF8052000EA48
:100A60000206003E18BF0126002EDFD11A89C2F30C
:100A70004412102A73D8DFE802F0938C85727E72DC
:100A8000727277727272727272726D0000220F212E
:100A9000987A1DF06BFA002CCFD06B68013C03EB09
:100AA0004413002EF2D01A89C2F34412102A2AD815
:100AB00001A151F822F000BF8D0A0010FD0A0010BC
:100AC000450B0010070B0010350B0010070B001032
:100AD000070B0010070B0010250B0010070B001070
:100AE000070B0010070B0010070B0010070B00107E
:100AF000070B0010070B0010150B00100122082136
:100B0000987A1DF033FA002C97D06B68013C03EB08
:100B10004413C8E70122987A11461DF027FA002CE9
:100B2000F3D18AE701220221987A1DF01FFA002CE6
:100B3000EBD182E701220C21987A1DF017FA002CE4
:100B4000E3D17AE701220421987A1DF00FFA002CF4
:100B5000DBD172E70122987A11461DF007FA0026D0
:100B6000002C7FF45BAF68E701220221987A1DF028
:100B7000FDF90026F4E701220C21987A1DF0F6F920
:100B80000026EDE701220421987A1DF0EFF90026F6
:100B9000E6E701220821987A1DF0E8F90026DFE750
:100BA000002643E79C4D0020F85E002010B5038925
:100BB000044603F47871802982B01CD010EE18200E
:100BC000403918BF0121807AC240607A82EA9002DF
:100BD00002F001028A420ED0C3F34413102B35D821
:100BE000DFE803F046494C344F343434363434347F
:100BF000343434343E00E268B2F5806F05D0B2F58B
:100C0000801F41D0B2F5007FE6D10023009310EEA3
:100C1000183010EE181010EE1820C1F38021C3F325
:100C2000402343EA4103C2F3C02243EA820303F0B4
:100C300007038DF80030009823F07EFFC0B230B378
:100C4000144B00981B6E98472389C5E702B010BD6E
:100C500001220221A07A02B0BDE810401DF086B941
:100C600001221146A07A02B0BDE810401DF07EB905
:100C700000220F21EEE701220821EBE701220421E7
:100C8000E8E701220C21E5E7204602F02DF8238950
:100C9000A2E700BF883A002010290AD8DFE801F057
:100CA0000A0F1409190909091E090909090909097D
:100CB0002300704700220F21807A1DF057B90122CE
:100CC0000821807A1DF052B901220421807A1DF09A
:100CD0004DB901220C21807A1DF048B90122022170
:100CE000807A1DF043B90122807A11461DF03EB989
:100CF000BF4B1B78002B00F0B8802DE9F04FCB07DD
:100D0000804683B000F1C781BA4CD8ED407A94EDAB
:100D1000087ADFEDB93AF8EE475AB0EE006ADFED37
:100D2000B74A37EE866AB2EE045A85EEA37A77EEBA
:100D3000E47AD8ED416A9FEDB24A27EE067A67EE73
:100D4000857ABAFE477AFCEEE77AF4EEC46A17EECB
:100D5000903ABCEEC77AF1EE10FAAA49AA4A81EDA0
:100D6000027A537040F2958176EEE46A66EE856A07
:100D7000FCEEE67ACDED007A9DF8003098F8F81098
:100D8000022001F0010113701DF0E0F898F8F9104D
:100D9000052001F001011DF0D9F898F8F8100320A2
:100DA000C1F340011DF0D2F898F8F9100620C1F304
:100DB00040011DF0CBF898F8F8100420C1F3800131
:100DC0001DF0C4F898F8F9100720C1F380011DF058
:100DD000BDF8D4F888300120984700220926114632
:100DE00010468A4B1DF0E6F8002115201DF086F90B
:100DF00098F81B3198F81CA1854C8AEA030ACAF3BB
:100E000040130093834FCAF30013A4F58079019334
:100E1000A07A1DF02FF92378013E3D2B26D81E2BFA
:100E20002ED91F3B1E2B2BD8DFE813F0D500D500A1
:100E3000D5002A002A00C500C500C5002A002A00E6
:100E4000AF00AF00AF002A002A00F800F8002A0027
:100E50001D011D012A00080108012A002A002A009C
:100E60002A002A002A002A0022007047C32B07D13B
:100E700009EB4612138923F47E7343F04803138170
:100E80007501E36813F4C06F0BD009EB05035A7AC0
:100E900012F0040F0CBF012102211A8961F34912DB
:100EA0001A814D442B7AA07A03F01803082B0DBF4A
:100EB00001210021012200221DF024F8697AA07A84
:100EC000C1F380011DF032F8E3681F4200F0DA80C0
:100ED000A07A0F211DF0C2F8203C002E98D14E4E72
:100EE0001425344601E01C3C7DB3D4F82032013D8A
:100EF000242BF8D194F814328A3B072BF3D801A2A3
:100F000052F823F07D0F00106B0F0010E70E001059
:100F1000E70E0010E70E0010E70E0010590F00104A
:100F2000250F0010C5EBC50398F8962006EB830348
:100F3000597C1C3C62F38201597494F83802C1F365
:100F400080011DF003F8002DCFD10121152003B041
:100F5000BDE8F04F1DF0D2B898F89620C5EBC50358
:100F600006EB8303C2F34002E2E798F8A820C5EB42
:100F7000C50306EB8303C2F34002D9E7C5EBC50303
:100F800098F8A82006EB8303D2E798F81C2109EB18
:100F90004610018942F3800202F0030282F001024E
:100FA00021F48361CAF380039B0243EAC2030B432B
:100FB0000381750165E798F81C2109EB461001894A
:100FC00042F3400202F0030282F0010221F4836145
:100FD000CAF34003E8E798F81C2109EB46100189A1
:100FE00002F00102013221F483610AF00103DBE720
:100FF0004D6C0020883A002000247449CDCC4C3E32
:10100000CDCC4C3F7C64002078290020F1020020E8
:1010100058290020000610002826002098F81C21DE
:1010200009EB4610018942F3C00202F0030282F08C
:10103000010221F48361CAF3C003B5E798F81C31BB
:1010400009EB4610018943F3401303F00303009AB0
:1010500083F0010321F48361920242EAC3030B434C
:10106000038175010DE798F81C3109EB46100189E1
:1010700043F3001303F00303019A83F0010321F407
:101080008361E9E729892046C1F34411FFF704FE93
:101090001EE7022372E6094C012194F9000014F0C6
:1010A00077FCFFF7E9F914F09BFC94F900309842C3
:1010B0007FF42AAE14F046FB26E600BF7C29002010
:1010C0002DE9F04F2DED028B4FF0E0230024032596
:1010D00040F2E732DFF8F4B3D649A1B0CBF8041000
:1010E000D5490520CBF80810D449DFF8E4A3CBF8A4
:1010F0000C105A619C611D61D14BD24ACBF838303B
:10110000D14BCBF81020CBF820301CF0E3FD4FF48E
:101110008062CE4BCBF82820A3FB00239B0C07EE6C
:10112000903AB2EE047AF8EEE76ACBF82430C84B76
:101130004FF07E52CBF83430C64BC6EE877ACBF8F0
:101140003C30C54BCBF81C20CBF80831C34BC44A0C
:10115000CBF88430C34BC2ED007ACBF88830C24B59
:10116000CBF88C30C14BCBF89430C14BCBF89830D6
:10117000C04BCBF8AC30C04BCBF85830BF4BCBF8A2
:101180005C30BF4BCBF87430BE4BCBF87830BE4BE5
:10119000CBF86C30BD4BCBF8D831BD4BCBF8D4314C
:1011A000BC4BCBF84030BC4BCBF84430BB4BCBF8FE
:1011B0004830BB4BCBF8CC31BA4BCBF89431BA4B5F
:1011C000CBF8983100F0D6FF01F048FA16F014FD84
:1011D0004FF48053B54ACBF8A831B54BCBF8C421B6
:1011E000CBF8C8318BF8A05103F018F8B149B248D8
:1011F00014F046FA0721B14BB14D1A79287022F04C
:10120000190242F009021A711A7AAE4D22F019023F
:1012100042F009021A729BF80A22DF6822F00302E8
:1012200042F003028BF80A229BF8F821B7F5801FE1
:1012300022F06F0242F06F028BF8F8219A7A1C912B
:1012400045F82230A04A1791566810789AF8002085
:10125000CBF80412ADF85440DAF80410ABF80842A9
:10126000ADF87040069200F0098417F4C06740F0B2
:10127000D982BC46BE46059793F8248093F82A90FD
:1012800028F0190848F0090883F8248093F828808A
:1012900028F0190848F0090883F82880DFF834821C
:1012A00045F82980D3F82C90B9F5801F00F02084F0
:1012B00019F4C06F07D0002E04BF4FF0010C464652
:1012C00001270130C0B293F8448093F84A9028F087
:1012D000190848F0090883F8448093F8488028F0FA
:1012E000190848F0090883F84880DFF8EC8145F8D0
:1012F0002980D3F84C90B9F5801F00F0DC8319F4F5
:10130000C06F07D0002E04BF4FF0010C46460127E6
:101310000130C0B293F8648093F86A9028F01908FD
:1013200048F0090883F8648093F8688028F0190869
:1013300048F0090883F86880DFF8A08145F8298023
:10134000D3F86C90B9F5801F00F0488419F4C06F91
:1013500007D0002E04BF4FF0010C46460127013094
:10136000C0B293F8848093F88A9028F0190848F066
:10137000090883F8848093F8888028F0190848F0D9
:10138000090883F88880DFF8588145F82980D3F868
:101390008C90B9F5801F00F0038419F4C06F07D05A
:1013A000002E04BF4FF0010C464601270130C0B2A9
:1013B00093F8A48093F8AA9028F0190848F0090837
:1013C00083F8A48093F8A88028F0190848F0090849
:1013D00083F8A880DFF80C8145F82980D3F8AC9019
:1013E000B9F5801F00F0BF8319F4C06F07D0002E3D
:1013F00004BF4FF0010C464601270130C0B293F8FC
:10140000C48093F8CA9028F0190848F0090883F8B6
:10141000C48093F8C88028F0190848F0090883F8B8
:10142000C880DFF8C48045F82980D3F8CC90B9F59E
:10143000801F5BE06C4C0210744C02107C4C02105C
:10144000E9050010884C02108096980083DE1B434B
:101450009D05001025080010F10C00109D070010DC
:10146000D04F00202507001055020010690200200F
:1014700011010020FD060010F50900106D0200109A
:10148000E1020010F90200109D010020E5050010A6
:101490005103001025030010310300104503001014
:1014A0005D030010590500103D0400107D27001059
:1014B0009927001048520210B8AF02105828002097
:1014C0007C290020D44C00209C4D0020883A00202C
:1014D000F84300207828002098280020B828002011
:1014E000D8280020F82800201829002000F01E83AA
:1014F00019F4C06F07D0002E04BF4FF0010C464610
:1015000001270130C0B293F8E48093F8EA9028F004
:10151000190848F0090883F8E48093F8E88028F077
:10152000190848F0090883F8E880DFF8A48345F833
:101530002980D3F8EC90B9F5801F00F0828219F46D
:10154000C06F07D0002E04BF4FF0010C46460127A4
:101550000130C0B293F8048193F80A9128F0190879
:1015600048F0090883F8048193F8088128F01908E5
:1015700048F0090883F80881DFF8588345F8298086
:10158000D3F80C51B5F5801F00F0338215F4C06F0D
:1015900000F0C0830130002E00F0E083C0B2B84BF1
:1015A0001870BCF1000F01D0B54B5E60BEF1000FAA
:1015B00003D00692069B8AF80030059B0BB1CAF84F
:1015C00004104FF0000CAF4FAF4BDFF80C831878CE
:1015D000D3F804907B6B98F80020059397F832308D
:1015E000AA4D0D93BB6A1446079397F826302946F7
:1015F0000E93FB6906460893BB7EE2460F933B6958
:10160000CDE912020993BB7BD8F804E010937B6804
:10161000CDF828C00B93BB78CDF830C0119363464A
:1016200004E00133142B01F11C0125D0C3EBC302EC
:1016300005EB8202107C40F0020010744A68D8006A
:10164000092A00F0FB800B2AEBD1BEF1000F00F05D
:1016500060814FF0010CC01A05EB8000427C013321
:1016600042F008024274142BA4F1560264440A703A
:10167000E4B201F11C01D9D1DDE91202BCF1000F85
:1016800002D0224688F800400A9B0BB1C8F804E05B
:10169000BAF1000F02D030467B4B1E700C9B13B189
:1016A000794BC3F80490069B0343DBB22BB1764918
:1016B000774801F03BFB98F80020002A40F0258392
:1016C00001F074FE734C04F13C06D4F80350012D74
:1016D00000F027816578FF2D00F055812378FF2BDE
:1016E00015D001210023224608461BF0BBF9054610
:1016F000002800F0798114F8011C8C2900F0668123
:101700008F2900F06381002228461BF01DFA0C345B
:10171000B442DAD1604A614B61481A6618F0C8F8E1
:101720000021604821F0E6F903465F4C5F495D48BF
:10173000236021F0FBF900221B925D4A5D4B92ED84
:10174000008A4FF4402218604FEAC01C431D1A92D1
:101750004CEA033C4FF480324FF4F8330746CDE9AE
:10176000182326681CAD18AC94E80F0085E80F001C
:10177000CDF874C095E80F0084E80F0023463A4680
:101780003146484821F0A2FADFED4B7A78EE277A0D
:10179000BCEEE77A17EE103A9BB2002B00F02781DF
:1017A00007EE103AB8EE477ADFED446A77EEC77A73
:1017B00067EEA67AFCEEE77ACDED057A9DF8142067
:1017C000120242EA03424FF0030806EB46030227E7
:1017D0000026DB0003F1A04303F54013C3F8C82043
:1017E000112037491CF0ACFC002111201CF0C6FE72
:1017F000CDE90186334A34493448009716AB21F0CD
:10180000B9FA002840F00C820AF036FDDBF800003F
:10181000A0F10A00B0FA80F0400921B0BDEC028BC3
:10182000BDE8F08F002E00F09D82A4464FF0000E20
:1018300001300127C0B2CDF814E01DE5B9F1000F69
:101840006BD0A6F16E00CA680870059891F808A0E0
:1018500082420AD10D98824507D187F83160B96379
:1018600001364FF0010AF6B2DBE60798824235D125
:101870000E98824532D187F82560F962F0E700BF03
:101880009C4D0020802900201044002028260020A4
:10189000F8430020812900208907001060390020CA
:1018A00018260020000030509464002014B002106C
:1018B000D04F0020986400200000003B00008043CF
:1018C000A50100208C64002078640020FCAF021089
:1018D0003829002058290020184400200898824206
:1018E00005D10F98824502D17E763962B8E7099812
:1018F000824205D11098824502D17E737961AFE7AB
:101900000B988242ACD1119A924504BF7E70B960A7
:10191000A6E701228E460A929BE6012289460C9296
:101920008FE7631E00934FF4A03229462846BA4B36
:101930001BF0C0F900283FF4EAAE002322462946F6
:1019400028461BF08FF8C4F8070000283FF4DFAEEC
:10195000002214F8011C1BF0F7F829462846002342
:1019600022461BF07FF8054600283DD014F8011CE4
:101970008C2900F0FB818F2900F0F8812846002295
:101980001BF0E2F8C3E60121631E00934FF480428E
:101990000846A14B1BF08EF900283FF4B8AE012198
:1019A0000023224608461BF05DF80746002800F099
:1019B000CF8114F8011C8C2900F0B8818F2900F028
:1019C000B581384600221BF0BFF8A0E660781CF015
:1019D00051FB01236078834040EE143004211CF059
:1019E00069FA14F8011C8EE6FF2323708FE61A466D
:1019F000E7E60029059C08BF0124B3F8045183F8E9
:101A00000B2145F07F4545F47F0545F4034545F03E
:101A1000E005A3F8045102F1010502F13F0283F849
:101A20000021EBB208BF414605940693002F00F059
:101A300075817A4B1870BCF1000F3FF4BBAD5E604E
:101A4000B8E500294FF0010E059C04BF0124414672
:101A5000B3F8E48083F8EB2048F07F4848F47F082F
:101A600048F4034848F0E008A3F8E48002F13F0896
:101A70007244059483F8E080D2B26BE5002900F04F
:101A8000698105949A88069C42F07F4242F47F0265
:101A900042F4034242F0E0029A802246002704F119
:101AA0003F0C013283F800C04FF0010EBC46DC72DF
:101AB000D2B2FFF7E1BB00294FF0010E059C04BF35
:101AC00001244146B3F8448083F84B2048F07F4816
:101AD00048F47F0848F4034848F0E008A3F844803D
:101AE00002F13F087244059483F84080D2B211E4B9
:101AF00000294FF0010E059C04BF01244146B3F8B4
:101B0000248083F82B2048F07F4848F47F0848F46D
:101B1000034848F0E008A3F8248002F13F0872442B
:101B2000059483F82080D2B2FFF7CDBB00294FF097
:101B3000010E059C04BF01244146B3F8C48083F81C
:101B4000CB2048F07F4848F47F0848F4034848F029
:101B5000E008A3F8C48002F13F087244059483F8BA
:101B6000C080D2B2CFE400294FF0010E059C04BF23
:101B700001244146B3F8A48083F8AB2048F07F48A5
:101B800048F47F0848F4034848F0E008A3F8A4802C
:101B900002F13F087244059483F8A080D2B22EE48B
:101BA00000294FF0010E059C04BF01244146B3F803
:101BB000848083F88B2048F07F4848F47F0848F4FD
:101BC000034848F0E008A3F8848002F13F0872441B
:101BD000059483F88080D2B2FFF7EABB00294FF06A
:101BE000010E059C04BF01244146B3F8648083F8CC
:101BF0006B2048F07F4848F47F0848F4034848F0D9
:101C0000E008A3F8648002F13F087244059483F869
:101C10006080D2B2FFF7A5BBA50600109C4D002046
:101C2000594B169A93ED008A584B1B96D3F80090A7
:101C3000574B4FEAC21CD3F800A04FF440231A932D
:101C400009F12F4303F560031E0D931D4CEA033C7D
:101C500005924FF4F8334FF48032CDE9182394E81D
:101C60000F0085E80F000636DFF83CE1CDF874C0C0
:101C7000F6B295E80F0084E80F0031463846CDF8FB
:101C80006CE01CF017F9314640461CF013F9314660
:101C900004201CF00FF901233A46514600934846B0
:101CA000434620F0CDFF234651464846059A21F091
:101CB0000DF8DFED387A78EE277ABCEEE77A17EE8A
:101CC000103A9BB283B307EE103AB8EE477ADFEDD5
:101CD000326A77EEC77A67EEA67AFCEEE77ACDED48
:101CE000057A9DF81420120242EA03430AEB4A02E5
:101CF00009EBC202C2F8C8300123D9F8002003FA68
:101D00000AF31343C9F800307EE52449244801F062
:101D1000BFF9D5E4002F7FF442AC42E4BCF1000FE0
:101D20003FF448AC1F4B8AE61A46DDE760781CF0AA
:101D3000A1F901236078834040EE143004211CF0A7
:101D4000B9F83846002214F8011C1AF0FDFEDEE452
:101D50002570DCE401221946059293E6114B4646B4
:101D6000187021E44FF0010C1E465FE560781CF00E
:101D700081F901236078834040EE143004211CF087
:101D800099F814F8011CF9E5D04F00207864002080
:101D90008C6400200000003B0000804318440020B9
:101DA000004400209C4D002002003000054B1A68C2
:101DB0005B6890B29A4299B238BF00F58060401AD1
:101DC00080B27047BC540020074B1A685B6890B221
:101DD0009A4299B238BF00F58060401A80B2C0F5CF
:101DE0007F70033080B27047BC540020074A5368AC
:101DF0001168994206D0591CC1F309011344D87ADD
:101E0000516070474FF0FF30704700BFBC54002056
:101E10002021034A034B91631A685A60704700BF40
:101E20000030074024680020084A82B09369D90630
:101E300005D41368DBB201939369DB06F9D5002260
:101E4000034B19685A72596002B07047000007408E
:101E5000BC540020F8B5104B06469A6B910605D489
:101E60009A69920616D520220C4B9A630C4D0D4FA1
:101E70002C680134C4F3080403E0D7F8F431984720
:101E800038B16B68A342F8D02B682C601D442E72C9
:101E90000120F8BD1860FBE7000007400020074064
:101EA00024680020883A0020084B1A685B6890B2CA
:101EB00099B29A42064B38BF00F500709B69401AF0
:101EC000C3F3C00380B2184480B270472468002076
:101ED00000000740502210B1024B9A637047024B3A
:101EE0009A6370470030074000200740014B1B6891
:101EF000184700BFD02900200346024A106803B1EA
:101F000013607047D029002008B5034603F00C0287
:101F100013F0030F14BF07210821082A14BF012260
:101F200002220348C3F302131EF02EFF012008BD56
:101F30000000074008B5014602481EF0D7FE012008
:101F400008BD00BF000007400146014815F0A6BBD0
:101F5000BC540020F8B5224D2F6C17F0500F0AD05A
:101F6000204E05E02C683368E4B22046984718B349
:101F7000AB69DB06F6D5BA060AD51B4A1849536881
:101F8000886984060CD5536051681368994220D043
:101F9000F8BD287AC4F30803086088698006F2D483
:101FA0001068D518984203F10104F2D153605168CA
:101FB00013689942ECD10CE00C4A13685168013364
:101FC000C3F30903994208D0116813600A44D4721C
:101FD000CEE72022064B9A63F8BD01235372C7E770
:101FE00000000740D029002024680020BC540020B5
:101FF000003007401F4A517809B10020704792F81D
:1020000002C070B504461CF0010030D01CF0020F75
:10201000CCF340062CD14CF0020C174D0221304677
:1020200082F802C01BF046FF022101201BF042FF94
:10203000214628461EF0D8FD286B104C00F4404085
:10204000012233460821206328461EF09DFE01210F
:1020500028461EF0D1FE212009491CF071F82120EC
:1020600001211CF04BF85022064B07489A6370BDC3
:10207000084670BDC8290020000007400010074036
:10208000551F00100020074028B002102DE9F8432A
:10209000074617F8016B1EB3DFF85880DFF8589039
:1020A000D8F838309A0606D4D8F818309B0619D5D7
:1020B00020220E4B9A630E4D2C680134C4F30804A1
:1020C00003E0D9F8F431984730B16B689C42F8D0FE
:1020D0002B682C601D442E7217F8016B002EDFD187
:1020E000BDE8F883C8F80060F6E700BF00200740AD
:1020F0002468002000000740883A002081B32DE9C1
:10210000F04706464B1E9BB20133DFF86080DFF8D4
:1021100060A0C718D8F8383016F8019B9A0606D484
:10212000D8F818309B0618D520220E4B9A630E4D16
:102130002C680134C4F3080403E0DAF8F43198475A
:1021400038B16B689C42F8D02B682C601D4485F830
:102150000890BE42DED1BDE8F087C8F80090F8E7ED
:10216000704700BF0020074024680020000007409F
:10217000883A002010B5074C0748D4F894319847A6
:102180000648D4F894319847BDE81040044815F04B
:1021900067BA00BF883A002094B002107CB00210E9
:1021A000BC290020054B5A681B6891B298B29A422C
:1021B00088BF00F58060401A80B27047C858002080
:1021C000064B5A681B6890B29A4299B294BF00F2CB
:1021D000FF3000F1FF30401A80B27047C85800202D
:1021E000014B1A685A607047C85800201820064BE7
:1021F00019681A6819445A601A68C8720132C2F321
:1022000009021A60704700BFC8580020074A536887
:102210001168994206D0591CC1F309011344D87AB8
:10222000516070474FF0FF30704700BFC858002022
:10223000014B1B68184700BFD42900200346024AFF
:10224000106803B113607047D429002008B51F201F
:102250001BF06AFF4FF47A70002108BD0146014867
:1022600015F01CBAC858002000201DF003BF00BFA5
:1022700008B50021074822F09FFC00B908BD4FF0C7
:10228000FF3000211DF02EF9BDE80840014822F082
:102290005FBC00BF446B00202DE9F84380460F4629
:1022A0001DF096F848B900200021294BC3E9000130
:1022B000BDE8F843274822F04BBC1DF091F80546D5
:1022C0000028F0D1002FF3DDDFF88490224E13E0D8
:1022D000224600201DF082FF002104464FF0FF300F
:1022E0001DF000F900201DF031FF1CF0B9FDC9E917
:1022F00000012544AF42DBDD00201DF08FFF7C1B79
:102300008442A8BF044608EB0501002CE0D1214619
:102310004FF0FF301DF0E6F820461DF017FF1DF0CE
:1023200057F80028C4D01DF05BF80028C0D11DF07C
:1023300075FF0028DED11CF093FDD9F80030D9F8E4
:1023400004209B1942F1000283428A41D2D2AFE7B6
:10235000983C0020446B002020A1070008B50E4BDC
:1023600018701CF07DFD4FF0FF3E6FF0004C0B4AE3
:10237000821841F1000396457CEB03013CBF724695
:102380006346074822F0FCFB18B101210248FFF721
:1023900083FF012008BD00BF8845002040420F0098
:1023A000446B0020474B2DE9F047474C1B6898478A
:1023B00023780BB1BDE8F087012323701DF008F8E6
:1023C00018B900232370BDE8F0871DF009F8002834
:1023D000F7D11DF065FE06460028F2D03B4D696836
:1023E0002A688BB2914294BF03F2FF3703F1FF37A3
:1023F00090B23F1ABFB21CF0EBFF0028E1D01CF0F6
:10240000EFFF0028DDD11DF04BFE0028D9D01CF0D5
:1024100027FD4FF0FF3E6FF0004C2D4A821841F12E
:10242000000396457CEB03013CBF72466346294896
:1024300022F0A6FB0028C4D01CF0CAFF40B900213E
:102440004FF0FF301DF04EF8224822F081FBB8E734
:102450001CF0C6FF80460028F1D11DF021FE0028A7
:10246000EDD0142E3246A8BF14221B4EBA42A8BF8C
:102470003A46314640461DF01FFE0746154822F0F9
:1024800067FB002F9DD09CDDB1464FF001083E4414
:10249000124F06E02A682B60AB1883F80BA0B145F9
:1024A0008FD019F801AB3B68504698470028F6D109
:1024B0002B686A680133C3F309039342EAD185F8B4
:1024C0000980ECE7144F00205D6C0020C858002004
:1024D00040420F00446B0020E0670020D429002018
:1024E0002DE9F0411F4D204E05F10C07AF602B6820
:1024F00033B100201DF092FE0A282B6804D84BBB94
:102500000120AF60BDE8F081984228BF1846D5F899
:10251000088004461CF0A4FC02464FF0FF3E6FF01A
:10252000004C921941F1000396457CEB03013CBF3E
:10253000724663460D4822F023FB18B121464046FF
:10254000FFF7AAFE2B68AA681B1B22442B60AA6017
:10255000002BD5D0064BD3F8F43198470028C6D1CC
:102560002860CEE72C6A002040420F00446B002018
:10257000883A002038B5114B04461B680D4613B14C
:10258000FFF7AEFF98B11CF06BFC4FF0FF3E6FF011
:10259000004C0B4A821841F1000396457CEB030185
:1025A0003CBF72466346074822F0EAFA00B938BDDC
:1025B00029462046BDE83840FFF76EBE2C6A002051
:1025C00040420F00446B00200378002B39D070B5D7
:1025D000044622F0BBF81E4E05463368C218FF2A97
:1025E00016D802462146B06822F03AF83368B2683D
:1025F0002B442A443360B260254415F8012C0A2A82
:1026000002D0726893421BD9BDE87040FFF768BFE3
:1026100013B1FFF765FF98B11CF022FC4FF0FF3CAF
:102620006FF000460B4A821841F10003944576EBA7
:1026300003013CBF62463346074822F0A1FA08B9BD
:1026400070BD70472046A9B2BDE87040FFF724BEB8
:102650002C6A002040420F00446B0020002130B55E
:10266000084685B01DF09CFF1F201B491BF068FD2C
:1026700001211F201BF042FD18481CF01DF81CF022
:1026800055FA04461CF0ECFB4FF0FF3E6FF0004C97
:1026900010F57A7241F1000396457CEB03014FF08F
:1026A00001054FF0000120460D4CCDE901153CBF5E
:1026B0007246634600941CF03DFAEC21094A0A4830
:1026C000546D0A4B04600A4C0A4803F10C059D60E6
:1026D0005465596005B030BD71220010446B002074
:1026E0004D22001060390020144F00202C6A002079
:1026F000A5230010ACB002100048704760B1021072
:102700000048704714B1021038B540B940F2094290
:102710004FF44173164D16486A802B8038BD04284B
:1027200004461ED803281ED0124B114D53F8241016
:1027300028460023013903E0132B20F8022F0BD089
:1027400011F8012F0133DBB2002AF5D15B0043F40D
:10275000407307482B80E1E74FF44A7304482B800D
:10276000DCE7002038BD1021034820F001F9DBE749
:102770008846002000B10210E45E002008B5044B3A
:102780000449D3F8A42121F06BFF012008BD00BF4C
:10279000883A002000801F1038B5144D1449D5F830
:1027A000A421044621F0BAF908B9012038BD72B657
:1027B0004FF480514FF4FC1022F0DAF9D5F8A4213F
:1027C0004FF4FC10D3B2120A002B18BF013221467D
:1027D000120222F09DF962B605492046D5F8A421DF
:1027E00021F09CF9B0FA80F0400938BD883A002009
:1027F00000801F100C4BDA7803799A420FD910EE43
:1028000018200A49C3EBC303096801EB83031B7A51
:1028100022FA03F3DB0704D54FF07E5070470448DB
:1028200070470020704700BFB046002008440020D9
:10283000000080BF0B4B1A7803799A420DD910EE35
:1028400018200949096801EB43139B7A22FA03F324
:10285000DB0704D54FF07E507047044870470020D6
:10286000704700BFB0460020F0430020000080BF4A
:10287000354B364A10B5DA62002832D1344A127824
:102880008A422DD9334A197114684FEA411C04EB6E
:1028900041114A7A4868C2F3801282F00102920123
:1028A000B1F808E042F004029861C0F3072020F07C
:1028B000440002F0440202435A76CA68A3F81CE0BE
:1028C00014F80CC09A608A7A0C69C8695A61224966
:1028D000224AC3E90340C3E9081283F805C01A4835
:1028E00010BD01282DD11A4AD2788A4229D91C4A12
:1028F000C1EBC10C1468197104EB8C010A8A9A832C
:102900000A8A9A61120A22F044004A7CC2F38012B9
:1029100082F00102920142F0040202F044020243FA
:102920005A7614F82C00CA6858714C6848699C6043
:102930000C7A0C49DA600C4AC3E90404C3E90812B2
:10294000CDE7002010BD00BFA03C0020B92C001036
:10295000B0460020F0430020E12900103528001087
:10296000084400206D290010F52700102DE9F041E2
:10297000194F037997F803C0634508D3174E33689E
:10298000187860452CBF00200120BDE8F081134E6F
:1029900004463068C3EBC30300EB830390465A7CC4
:1029A0000D460978C2F38000884205D1B8F1000FC6
:1029B0000BD197F803C0E2E761F38202187A5A74E8
:1029C0001BF0C4FAB8F1000FF3D0294620461AF0E4
:1029D000CBFE97F803C0D2E7B046002008440020A1
:1029E000F8B5224F164697F800C00279624503D227
:1029F0008B780D46032B04D162452CBF00200120AB
:102A0000F8BD47F6E73104461948012B006803F08A
:102A1000030300EB421228784FEAC30343EA802302
:102A2000687843EAC033108901EA0001114803EADB
:102A3000000343EA010313810DBF0121002101229C
:102A4000002260691BF05EFA297860691BF06EFA5B
:102A50003EB9227997F800C062452CBF00200120C2
:102A6000F8BD294620461AF009FEF2E7B0460020DC
:102A7000F04300201884FFFF4F4B2DE9F0471B78EF
:102A8000834239D94D4B1D6805EB401500297CD098
:102A900007EE902AB3EE047A67EE877AFAFE677A39
:102AA000FCEEE77A17EE904A4B1E012B04F101046D
:102AB00027D90E1F18BF012610EE1830AA7AD3406E
:102AC00003F00103B34269D0B4B13D4FDFF8F880A1
:102AD0000AE098F800307BB910EE1830AA7AD3409B
:102AE00003F00103B34259D00BF0B0F900213220BA
:102AF000FB6B9847013CECD14FF0FF342046BDE81A
:102B0000F087012914BF02230B46AA8818BF194673
:102B100013EA5213F0D00127002395F80AC0294E7A
:102B200007FA0CFCD6E90089284628EA0C02C6E917
:102B30000023FEF7B1F8D6E90023A87A87401742B0
:102B400034D1BCB11E4FDFF880800BE098F8003024
:102B500083B9D6E9009A0121A87A01FA00F313EAB1
:102B6000090F23D10BF072F900213220FB6B98473B
:102B7000013CEBD14FF0FF3429892846C1F34411C1
:102B8000FEF78AF82046BDE8F08710EE1840AB7AD1
:102B9000DC4004F001042046BDE8F08710EE184048
:102BA000D44004F001042046BDE8F08710EE184040
:102BB000C44004F00104DFE7B0460020F0430020E9
:102BC000883A002058390020603D0020064BDB7811
:102BD000834208D9054BC0EBC0001B6803EB8003A0
:102BE0001B7A41EC40307047B0460020084400207A
:102BF00048B90C4B1B788B4212D90B4B1B6803EB6B
:102C00004113DA61704701280AD1064BDB788B4209
:102C100006D9064BC1EBC1011B6803EB81035A6166
:102C2000704700BFB0460020F04300200844002059
:102C300070B51E4C82B02478844220D91C4C256883
:102C400005EB4015B5F804C01CF4787414D0CCF32F
:102C5000441C32EA0C0C16D00024164E336D9847F3
:102C600000212846FEF718F800222B89AA6123F4D8
:102C700078732B81F36C9847204602B070BD002416
:102C8000204602B070BD7BB12889E97262F3491019
:102C9000288111462846AB610192FDF7FDFF019A9C
:102CA0000124002AE8D1D8E71C46D6E7B046002028
:102CB000F0430020883A0020037FDB0706D5084A4E
:102CC000037912685B010120D1547047054A0379EA
:102CD0001268C3EBC303012002F82310704700BF42
:102CE000F043002008440020012170B40E4E90F8FB
:102CF0000AC0D6E900452B4601FA0CF141EA04026C
:102D00008469C6E9002364B110EE1810437A21FAF1
:102D10000CF181EA9301C07A234670BC01F00101F5
:102D2000184770BC704700BF5839002030B587B0D5
:102D3000EC4690F800E00C4A40680C4D10600C4BDB
:102D40004A6885F800E01A600A4C0B78EB700FCCEB
:102D5000ACE80F0094E803008CE8030068461AF022
:102D60001DFA07B030BD00BFF0430020B046002080
:102D70000844002074B10210064B1B6843B1064999
:102D80000279C978914203D903EB8203186870472E
:102D90000248704780500020E8430020000080BFB8
:102DA000037F9A0705D5044A037912685B01D15461
:102DB000037FC3F340007047F44300209FED4D7A3A
:102DC000D1ED007AF4EEC77AF1EE10FA2DE9F84F62
:102DD0000C460546D0F80C9009DC9FED477AF4EEDE
:102DE000C77AF1EE10FA12DDC0260C2701E010269A
:102DF000012705201AF06EFF4946B0FBF7F2204686
:102E00001AF08EFB074630B93846BDE8F88F4FF40C
:102E100048763227EDE76869B9F804801BF02AF993
:102E200001236869834040EE143004211BF042F80E
:102E30006B69D9F8082058081F2B8ABF00F00300DF
:102E400000F00700083013F0010308BF4FF6FF7AC7
:102E50001FFA82FB4FEA800200EB800102444FF030
:102E60000000DFF8A0C04FEA81018C44DCF800E0EC
:102E70001CBFDFF894A04FEA0B4B94F818908EEA31
:102E80000B0E0CF5805C0EEA0A0ECCF800E0920006
:102E900083F0010C09EA030301F1804102F1804251
:102EA00009EA0C09DB0002F5282201F5282143EA92
:102EB0008903086043F001039060D060C2F810807D
:102EC0000E4A4E600B602B79D2789A429CD90C4AFC
:102ED000C3EBC3031268617E02EB8302537C81F073
:102EE000010060F3041361F3451353743846BDE8E1
:102EF000F88F00BF0000FA4400004843E843002078
:102F00000C4400200C800A400000FFFF0A4B40B92F
:102F10001878884205D9094B1B6803EB4113DA6125
:102F20007047DB788B4206D9054BC1EBC1011B68AA
:102F300003EB81035A617047E8430020F44300200B
:102F40000C44002038B50546244B0C4630220021A5
:102F5000184620F011FE012D3DD1214AD278A2421F
:102F600039D903461F4AC4EBC40C1568047105EB3C
:102F70008C010A8A8283C2F3403080F00100C2F3E0
:102F8000072260F304125A77587F9A8BC0F380109F
:102F90009A6180F00100C2F3072260F386125A762C
:102FA00015F82C004A6958714C680F489C600C7ADF
:102FB0001A614A7C5C6112F0300FD86209D00B4A6A
:102FC0000C7E0B480B491268C3E9080102EB44125E
:102FD000DA60024838BD002038BD00BFD03C002078
:102FE000E84300200C440020A12D00107850002060
:102FF000BD2D0010792D001070B51F4D0446EB78E3
:10300000834234D91D4A1E4B10681A68C4EBC403AE
:103010009E0002EB830330B1925D02F18042AA3A36
:1030200000EB820001601E7A187E164B1B6803EBD2
:1030300040101AF0EBFA73081F2E8ABF03F0030347
:1030400003F007030833104A03EB83039B001A4481
:10305000F30758BF4FF6FF76116880B244BF0B4E9E
:1030600000044140314002F58052EB7811609C42EF
:103070002CBF0020012070BDE843002080500020BC
:103080000C440020785000200C800A400000FFFF14
:103090002DE9F043344B8DB00393344B002404935B
:1030A0000346334A1F785B68324D334E13604B68DA
:1030B0002F70DFF8D89033600B786846CDE900595F
:1030C0000294EB7019F0C4FE002849D0EF78002F6D
:1030D00046D02A4BD6F8008007930A934346284AE5
:1030E000CDE908440592274AC7EBC70106940B9423
:1030F000C2F8489108EB81015A7C1C33D00648BFC6
:1031000001348B42F8D1202120461FF085FADFF8E8
:1031100080900421C9F8000020461FF07DFA0021AC
:10312000194B0C46186001E0D6F80080C4EBC403CC
:1031300008EB83035A7CD2060FD5D9F8002001F1A1
:10314000010852B119760120E1B2FFF7FBFE05A993
:103150000022FFF733FE4146EF780134A742E3D85F
:103160000DB0BDE8F08300BF0D2F0010452F0010FB
:10317000F4430020E84300200C4400200000C84233
:1031800000409C45883A002080500020F92F001014
:1031900078500020704700BF00207047024A034B60
:1031A000D2F8C0001B681847883A00206039002018
:1031B000074B70B51B6804460D469847054B1B6FBF
:1031C00023B129462046BDE87040184770BD00BFB6
:1031D000B848002060390020024B93F8FA0100F053
:1031E00002007047883A00202DE9F843384D2B68DB
:1031F000E3B1384B384E93F88330C3B1336D984701
:103200002C68F36C002C61D000272F609847DFF802
:10321000D880D8F80030E568D4E90120E76067601D
:10322000002B4CD0904715B12C46F2E72A4ED6F829
:10323000D4319847294B80461A6882422AD0284DBB
:10324000284A2C681768BC4224D0186037B1D7E9E7
:1032500001309847FF68002FF9D12C68D4B10027BE
:10326000DFF884902368A3EB0803002B12DC336D96
:1032700098472B68A34218D073B9F36C9847D4E9E8
:103280000130D9F800206760E7608AB198472C6860
:10329000002CE7D1BDE8F8831A46DB68002BECD0A0
:1032A000A342F9D1E368D360E7E7E3682B60E4E782
:1032B000C9F8004098472C68002CD3D1EAE7C8F839
:1032C00000409047002DB2D02C46A2E79847AEE7C9
:1032D000D04C0020603D0020883A0020544D002052
:1032E000EC4E002020650020504D002008B50FF066
:1032F00023FB0022014BC3F8202108BD60390020C8
:1033000030B5154B8BB093F800E0EC466FEA0E0E2B
:10331000124C5FFA8EFE83F800E00FCCACE80F0091
:1033200094E80F00ACE8070070468CF8003008F015
:10333000A5FF0446684621F009FA2146684421F0B9
:1033400005F80346064A0021128868461A800CF0E8
:10335000C7FD0BB030BD00BFD8290020FC4C0210C7
:103360001C4D02104AB1064A92F81521920704D565
:10337000044A1846D2F8143118470020704700BF9D
:10338000F85E0020883A0020074B93F81221D206FD
:1033900004D50269D3F894118A4200D17047C3F86A
:1033A000942110F051BB00BFF85E0020704700BFB1
:1033B0000D4808B5417A11F002010CD00B4B0121E8
:1033C0001B6C3C3098470A4B00219A8A0948BDE89B
:1033D000084021F0B9BB064B9A8A02B908BD0648DD
:1033E000BDE8084021F0B0BB603D0020883A0020D5
:1033F000F85E0020B1330010FD330010054B0021B2
:103400005B7A9B07044B4CBF044805489A8A21F01D
:103410009BBB00BF603D0020F85E0020B133001070
:10342000FD33001070B50446E30707D4194B1B6841
:10343000002B2BD02046BDE870401847164D174E84
:103440002B6D98473368B3B10021154803E0DA6863
:10345000194682B113465A688242F8D19A68002A06
:10346000F5D1DA6899B1CA6000220E495A6008683D
:10347000DA6000B90B60EB6C9847C822002108485D
:1034800021F062FB034B1B68002BD3D170BD32606F
:10349000EAE700BF204F0020883A0020EC4E0020D1
:1034A0009D310010504D002070B5124E0D46336D09
:1034B0000446984710490B68A3B1002003E0DA687E
:1034C00018467AB113465A68A242F8D19A68AA42BD
:1034D000F5D1DA6860B1C260002208495A60086814
:1034E000DA6018B1F36CBDE8704018470B60F9E77B
:1034F0000A60F1E7883A0020EC4E0020504D002091
:103500002DE9F04FC44D83B0DFF880839C22002169
:10351000284620F031FB4FF420720021BF4820F0F4
:103520002BFB4FF492720021404620F025FBBC4B50
:10353000BC4CC8F81431BC4BBC4AC8F86030BC4B1A
:10354000BC4FC8F86830BC4B0021C8F87C30BB4B7E
:10355000C8F81821C8F88030B94B4FF40472C8F885
:103560008430B84B2046C8E91577C8F8D03020F031
:1035700003FB0A234FF480622360B34BB34EC4F8BD
:103580009C314FF08043C4F8A421B14AE361C4E9FF
:1035900014624FF6FF730122A4F80232134684F836
:1035A0000A22AC4AAC492267AC4A2166C4F89C2086
:1035B000AB4A85F88130C4F8F421AA4AE664C4F81D
:1035C000242107F0B3F800F029FE11F0BBFC0FF046
:1035D000B3F9FDF775FDA44F00263B7860F30003B7
:1035E0003B7000F061FE11F0B7FC94F8F8213978D7
:1035F00002F06003A3F16003B3FA83F342F06002C8
:103600005B0984F8F821DB00C2F3400243EA0213AD
:1036100021F0180103F018030B43FF2B3B700CBF84
:1036200001233346C5E92466C5F88C6085F88460BB
:1036300085F882300FD18D4BD4F80821C4F80831B9
:103640008B4B8C481A60A36B98473B7885F8826057
:1036500060F341033B70874E0DF1060196F89C0024
:1036600012F056FA8146002800F08D8196F89D00F0
:103670000DF1070112F04CFA18B996F89C3086F853
:103680009D309DF9060012F05DF83B78814660F3AD
:1036900082033B70002800F06E81002012F0AEFA29
:1036A000C36A2BB1006BB0F1000918BF4FF00109DC
:1036B0003B7869F382033B7094F8F93113F002030D
:1036C00005D196F8902163F3410286F890213B786A
:1036D000FF2B06D010230021674885F8803021F0A9
:1036E00057FA0121D4F88C3096F8FC00984712F074
:1036F000C9FC636F4FF000009847D4F8F0310BB16C
:103700005E48984795F88030626E103B18BF0123E1
:1037100085F88330002A00F0E78096F88331DF07D0
:1037200000F1E280B28A002A40F0E88094F8F93192
:1037300013F0060F40F0EC8094F8B63003F00C0361
:10374000042B06D14E4BD4F800211A604D4BC4F81F
:103750000031D8F8B030002B00F023814FF0000981
:103760004FF0640A4FF0640B0FF0E6F8EB7823B1EA
:1037700096F98231002B80F2B18044220021264844
:1037800020F0FAF96FF001030020C5E904AB6B6487
:1037900012F028FA002840F0E480B38A697A003BEE
:1037A00018BF012396F8202163F341016972D10704
:1037B00005D56B7FC2F3400262F3C3036B7709F058
:1037C000A1F9D4F8D430984796F81201C0F340001C
:1037D00000F0F2FF96F81A01A36D4FF0000100F01F
:1037E0000100984709F040FA14F072FA06F06AFFF7
:1037F00016F03AF809F064FE2049234816F07EFAE4
:10380000D4F8903013B100210846984794F8FA3163
:103810009B0740F1A3803BE0603D00203065002025
:1038200009D80010883A002095310010ED0B0020D7
:1038300065990110E9310010B5AC0110BDAC011063
:10384000F142011089330010ED320010A1CA0010BE
:1038500099310010710F002031060020CD0C00209E
:1038600075760110D9310010D8290020B13100102F
:10387000B8480020F85E002001330010EC3D002025
:10388000204F0020253400104048002060390020DF
:10389000D8F80030D4F8C400984796F91131002BBD
:1038A00053DA94F9F931002B07DA95F88430002BBC
:1038B0000CBF8020872021F07BF90AF043FB0746EC
:1038C00098B385F881900FF037F8EB78002B3FF430
:1038D00054AF96F98231002BFFF64FAF80220021C2
:1038E000384820F049F94DE794F80532002B48D1CB
:1038F000354BB28A6366002A3FF418AF0021334883
:1039000021F022F994F8F93113F0060F3FF414AFC7
:10391000C3F38002C3F3400343EA420140F28A202A
:1039200001F0030111F00EF906E7D4F8D031FBB134
:10393000984785F88170074600287FF415AF00F09E
:103940009FFC384603B0BDE8F08F21F025F9B0F5B3
:10395000807FA6D1012012F0BDFFA2E717F042F848
:1039600096E7002012F04AF964224368DA6014E70F
:1039700085F88130F8E612F04FF911F0E3FE814648
:1039800096E6134BB5E712F02BF8494612F000F813
:10399000A8B190F9002043788DF8062086F89C3075
:1039A00064E694F8FB31D8077FF5D8AED4F814312B
:1039B000002B3FF4D3AE074BC8F8B030CEE602463A
:1039C0000B23E9E7603D0020C9030020B13300105C
:1039D000E903002065330010F8B50E4F3B6893B142
:1039E00000250D4E3268DC68D3E90110DD605D60B2
:1039F00022B188473C6034B12346F3E733608847FF
:103A00003C60002CF8D1054B93F8833003B9FEE7F6
:103A1000F8BD00BF104F0020504D0020603D002039
:103A2000F8B5134FC6B2BB6F04460D469847C0B2F7
:103A3000B04209D020467B6F984706B12DB9BDE84A
:103A4000F840202016F00ABAF8BD07EE905A9FED14
:103A5000097AF8EE677AC7EE877A074B17EE900A75
:103A6000997808F0C7FDBDE8F840202016F0F6B9B7
:103A7000883A002000007A44603D002038B50446B2
:103A800021F08AF8022801D1012038BD0AF044FD56
:103A90000028FAD0114B1A78002AF5D15D78002D54
:103AA000F2D10F4B20465B6FE4B298471CB10D4B2F
:103AB000B3F898301BB9202016F0D0F9E4E707EEF0
:103AC000903A9FED097AF8EE677AC7EE877A294631
:103AD00017EE900A08F08EFDEDE700BF603D002074
:103AE000883A0020F85E002000007A4403462C2B20
:103AF0004FF0000011D80E2B1CD901220F3B1449A6
:103B0000DBB202FA03F30B4218D112490B421CD16B
:103B100011490B4215D0104670477F2B12D0882BCD
:103B200009D083F08002072A98BF0120A3F1800307
:103B300098BF984070474FF0030070474FF0040063
:103B4000704770474FF0070070474FF00200704712
:103B50000404003C0202E00101010F00124A92F845
:103B60000832FBB9114892F8051290F8840192F8D6
:103B7000072221EA000101F0070100B522EA000254
:103B800081F0070E02F007026EF3070382F0070CC4
:103B900061F30F2306486CF3174362F31F6303605E
:103BA0005DF804FB704700BF883A0020F85E0020F3
:103BB000C0480020024B82B0186802B0704700BFB6
:103BC000C0480020144B93F8083213B1134B186807
:103BD00070471A46114910B591F800C08C7891F8D9
:103BE00003E04978C0B244EA0C0C4EEA01016CF3E0
:103BF000070360F3070261F30F2360F30F2264F3FE
:103C0000174360F317426EF31F6360F31F6282B0C5
:103C100003EA020002B010BD883A0020C04800202C
:103C200001460E4BA3F5B26C93F890258A4206D05C
:103C300063450CD093F88825083B8A42F8D1634548
:103C4000D3F8940505D0083B0028EDD07047044810
:103C50007047034B002808BF184670478CB102100C
:103C6000204D02100D289DBF012303FA00F080B201
:103C70000020704784464FF6FF7000294ED0614403
:103C80001CF8013B434003F0010202EB820002EB0F
:103C9000403282EA530202F0010303EB830003EB9C
:103CA0004033C2F34E025A4002F0010303EB83009B
:103CB00003EB4033C2F34E025A4002F0010303EB20
:103CC000830003EB4033C2F34E025A4002F001037B
:103CD00003EB830003EB4033C2F34E025A4002F081
:103CE000010303EB830003EB4033C2F34E025A405F
:103CF00002F0010303EB830003EB4033C2F34E02F7
:103D00005A4002F0010303EB830003EB4033C2F39C
:103D10004E0253408C4598B2B2D17047704700BFF5
:103D2000014B1B68185C7047F44E002010B410B9AA
:103D300001220A4B5A700A4A0A4C1378246843B984
:103D4000B0FA80F314F800C05B098C4518BF43F04B
:103D5000010321545DF8044B137070479C600020F0
:103D6000546C0020F44E00202DE9F047DFF8E8E025
:103D70000546BEF8B0C10F4616469846BCF1000F86
:103D800004D0BEF8B24164448C4250D3B8F1000F65
:103D900043D1002E3ED040462D4C711E052922688D
:103DA0004BD97B1C1344EB1A022BAE4645D902EBD0
:103DB000070C26F003014FEA960901EB0C035CF8AF
:103DC000044B63454EF8044BF9D18E42A6EB010437
:103DD00007EB010305EB010C0DD0D15C012C05F8BC
:103DE000291008D013445978022C8CF8011002D005
:103DF0009B788CF80230B8F1000F0BD03744D31900
:103E00005978D35D43EA0123181AB0FA80F04009CB
:103E1000BDE8F0870120BDE8F0870D4C31462068F1
:103E20003844FFF727FF002EB7D12268E7E7094C97
:103E3000246AA446BDE8F04760477B1E29446C1EF7
:103E4000134413F8015F04F8015FA142F9D1D2E7EE
:103E5000F44E0020A44F0020883A00202DE9F04FB6
:103E6000DFF80C920646B9F8B0418A4617469846E4
:103E700083B02CB1B9F8B2512C448442C0F0A08078
:103E8000B8F1000F7AD17549434681F80080002FC0
:103E900000F0A180D4460AEB0702354600244FF01B
:103EA000010A6F4806F1FF3ED0F800B06D48CDE939
:103EB000003BDE441CF8013B0DB980F801A044B979
:103EC000B5FA85F49EF801B064099B4518BF44F02B
:103ED000010494450EF8013F05F10105EAD1DDE941
:103EE000003BE2460C70B8F1000F1BD0F219DDB2B6
:103EF00008D101224270002C79D00BF8015BC3F38A
:103F000007230CE0002C7ED00137BF190BF80250BC
:103F1000C3F3072318BFBB4401D1012444708BF8BD
:103F200000300C704378FBB101230B704E4B1B78B3
:103F300003B30122B9F8B0310270002B47D14B4CCA
:103F400003E0CBB234F82320A2B1B24203F1010165
:103F5000F7D104EB830292789B00042A0AD8DFE8A9
:103F600002F076096A617300D9F8AC315345DBD0B1
:103F7000002CDBD1012003B0BDE8F08F394650465C
:103F8000FFF778FE002335490B700346002F81D1DF
:103F9000334AC5B2D2F800B036B31BF80620C0F3DE
:103FA0000723AA422F4832460BEB060433D10132D5
:103FB000B3D093449BF80040E41A18BF0124AEE745
:103FC000294CE469A44603B0BDE8F04F6047B34212
:103FD00026D80271CEE723484378002BA4D1D9F824
:103FE000AC319A45C6D19FE701221E4842709BF82A
:103FF0000020C3F30723AA422CD001228BF80050E3
:10400000012493448BE71BF80270C3F30723AF42EC
:104010000BEB0204CBD0013225703FF47EAFEFE70B
:1040200000238CE701221C44E378417902FA03F370
:104030000B4343719EE701221C44E378C18802FAD6
:1040400003F30B43C38095E70123C37092E7012379
:1040500083708FE701240BF1010B60E7546C0020A3
:10406000F44E00209C600020A44F002024B70210D2
:10407000883A00202DE9F047634FFC69002C00F0DE
:104080009D80624D6B7843B10023614A18461168E8
:104090000122A04780F001006870AB785BB15C4AF8
:1040A0000023116801204FF4D372FC690131A0474D
:1040B00080F00100A870EB7863B1554A00231168C5
:1040C00040F2B7304822FC6901F2B731A04780F0D6
:1040D0000100E87095F805C0BCF1000F29D002245A
:1040E0004FF001092346DFF82881013B2CFA03F247
:1040F000D10717D509FA03FE6FEA0E0E5842D8F819
:10410000001000F0480000F226300EEA0C0C0023EC
:104110004822FE69014485F805C05FFA8EFAB0476F
:1041200000286BD1012C04D0012495F805C023464A
:10413000DBE7EB882BB34FF42A790C24DFF8D0802F
:1041400000E0EB88E340DA070ED5D8F80010002332
:104150000E224846FE694944B04728B10122EB8847
:10416000A24023EA0203EB80013C631CA9F10E0983
:10417000E7D12B793BB9EB88C3B101232B70BDE8A4
:10418000F0872B7993B1234BB3F8B221002A33D0B7
:104190001F49B3F8B00109680023FC690144A04736
:1041A000EB8880F001002871002BE6D1AB78002B62
:1041B000E3D1AB88002BE0D1EB78DFE7BB6A002BC3
:1041C000DDD0134D04242868984730B9013C0AD04B
:1041D000BB6A286898470028F8D000220B4BC3E937
:1041E0000022BDE8F08702210B480BF079FE002287
:1041F000064BC3E90022F4E72A71BCE76B790AEAAF
:10420000030E85F805E08DE7A44F00209C60002098
:10421000F44E0020883A0020BC550210F8B5144B2B
:10422000144ED3F8A84133689C4211D8124B134F57
:104230001C6820461EF0DEF90546386020B1224693
:10424000FF2134601FF098FC281E18BF0120F8BD24
:10425000B4F5805F28BF4FF48054084F064D38688E
:104260002C600028E5D01EF0EDF92C68E1E700BFD6
:10427000883A0020DC290020E0290020F44E0020AC
:1042800010B5074C206848B1064B1B7813B1FFF7F7
:10429000F1FE2068BDE810401EF0D4B910BD00BF8B
:1042A000F44E00209C6000202DE9F041454C464D25
:1042B000D4F8A4312F68013B43F003030133C4F861
:1042C000A431002F6DD0414E04F5D07EB446BEE837
:1042D0000F00ACE80F00BEE80F00ACE80F009EE84E
:1042E000070096F800808CE80700B8F1030F5ED055
:1042F000B8F1000F32D10423354AC4E97188C4F8FB
:10430000B421344A84F8A031C4F8B821324AC4F840
:10431000BC21324AC4F8C021314B187810F092F811
:104320003378032B48D0F76947B10023B4F8B221A2
:104330001846296802F58062B8473378002B34D0DC
:10434000284B07209B68984728680022264B801A34
:10435000C3E9002218BF0120BDE8F0810023B4F8B2
:10436000B22138461946376A02F58062B84730787C
:10437000042200231649C4E97133C4F8B411154965
:1043800084F8A021C4F8B8111349C4F8BC1113492A
:10439000C4F8C0110028BFD028680378172BBBD100
:1043A000D3E71249124820F0F3FB2868CDE73846DE
:1043B000736A98473078DBE7B36A286898473378A0
:1043C000BCE700BF883A0020F44E0020A44F002034
:1043D000213D00102D3D00105D3E0010693D001094
:1043E0003CD20210603900209C600020D45502109D
:1043F0003DFF0010024B1B780BB1FFF73BBE70472F
:104400009C600020044890F8A031042B0CBF0348A6
:1044100000F5D070704700BF883A0020A44F0020FC
:10442000F8B504692DED028B08EE101AE16B002936
:1044300042D000266425027D214B22F020026468D0
:1044400002755A7F1F4F42F0800287ED198A02766B
:104450005A7F80ED008A42F0040286605A77027E1D
:1044600042F0040202765A7F42F001025A77037E3C
:1044700043F0010303760120E5608847D0ED007A20
:1044800028EE278AB5EE408AF1EE10FA10D00E4BD6
:104490009FED0E7AD3ED1D7A67EE877AF4EEC87A37
:1044A000BDEC028BF1EE10FA4CBF2B203046F8BD6C
:1044B0002920BDEC028BF8BD1420BDEC028BF8BDA9
:1044C000603D0020D8470020F85E00206666663F09
:1044D0000A4A92F8833002F1840C013303F003039B
:1044E00003EB43010CEB810C02F1B80182F883303D
:1044F00007C98CE8070015F0E1BB00BFD8470020D2
:104500000A4B9A690AB1DB69184730B4084D044672
:10451000AC46084BD3F8D030186859689A68DB6805
:10452000ACE80F0028462C6130BC70476039002091
:1045300008680020D847002038B50C201EF05AF833
:1045400068B10446074B084D93E807002B6884E8E0
:1045500007002BB11A469B68002BFBD1946038BD35
:104560002C6038BDC44700203C4F0020472370B565
:1045700000F13604E4B23B2C104D204628BF3B200E
:104580002B8007F07BFE0646284620F0DFF83146F8
:1045900028441FF0DBFE3B2C01D8084870BD0346C1
:1045A000074AA4F13B0012881A8007F067FE014613
:1045B00028461FF02FFB014870BD00BF8C4500202E
:1045C000E09B021000487047F0290020124BF7EEE4
:1045D000007AD3ED056AF4EE676A93ED047AF1EEA2
:1045E00010FAB4EE677A93ED037AF7EE007A14BF0F
:1045F00001200020F1EE10FAB4EE677A4FEA400095
:1046000018BF40F00100F1EE10FA4FEA40001CBF65
:1046100040F00100C0B27047E429002010B5044604
:10462000F9B140F20113174AB2F80C21934318D0A4
:1046300014F026FA002814DB134B00EB4000204452
:1046400003EB800003EB8402D0ED217AD2ED026A05
:1046500092ED317A77EEA67A77EE877A17EE900AA6
:1046600010BD094B03EB8401D1ED027AD1ED2E6A26
:1046700091ED317A77EEA67A77EE877A17EE900A87
:1046800010BD00BFF85E0020D847002010B582B0F2
:10469000019250B3022803D0384BD87102B010BD3C
:1046A00007EE902A364BF8EEE77A03EB4113D3ED91
:1046B0000C6A87EEA67A334C304B01F13002A469C4
:1046C00003EB820292ED016A82ED017A2CB9D3F8F4
:1046D000D02002EB810282ED007AB4EE476AF1EE5F
:1046E00010FA14BF012200222AE0264B9B699BBBD3
:1046F000224B0022D3ED336AF5EE406AD3F8D01096
:1047000093ED327AD3ED317AC3F8CC208A60C3F8C6
:10471000C8204A60C3F8C4200A60F1EE10FAB5EE72
:10472000407A14BF01220022F1EE10FAF5EE407A31
:1047300018BF42F00102F1EE10FA18BF42F0010278
:10474000D871002AAAD04FF4806015F087FB02B020
:10475000BDE8104015F0B2BA084B0022D3ED336A21
:1047600093ED327AD3ED317AF5EE406AC3F8CC207E
:10477000C3F8C820C3F8C420CFE700BFD847002043
:10478000F85E00206039002071B1012905D10222B4
:1047900000230270437081707047012202230021C0
:1047A00002704370817070470A4601230221027033
:1047B00043708170704700BF2DE9F043864F87B08A
:1047C00097F88140002C00F08280844D844C0021B9
:1047D000D42228461FF0D0F994F81231814ED90620
:1047E00040F1AE80F369D4F894019847C5F8D00041
:1047F000002800F0A580B369002B00F0AA807A4B56
:104800001C682CB12046A4681DF01CFF002CF9D1B7
:104810007A7F764B002085F82C20EB6511F0EEF9BD
:10482000734BF7EE007AD3ED056AF4EE676A93ED09
:10483000047AF1EE10FAB4EE677A93ED037AF7EEAC
:10484000007A14BF01220022F1EE10FAB4EE677A6A
:104850004FEA420218BF42F00102F1EE10FAA862DC
:1048600053D000220021C3ED057AC3ED047AC3EDD5
:10487000037A85F82E109A605A601A60022015F0AB
:10488000EDFA5C49287D0FF0ABFD10B90720B36845
:10489000984797F88130002B47D0514B93F811314E
:1048A0009B0766D5B36C43B100225249CDE9002283
:1048B0000868029200286CD0984717F061FA336BB1
:1048C000002B3AD0454807B0BDE8F0431847434DA8
:1048D000B82206462146284695F8149095F8078098
:1048E0001FF04AF9444BD5F8D000D3F81C310269C7
:1048F000AA670BB1214698472EB13A4E85F814901D
:1049000085F807807BE7374E79E700210020C3ED6B
:10491000057AC3ED047AC3ED037A85F82E00996019
:1049200059601960002AACD0A8E7B36C002BC3D142
:1049300017F026FA336B002BC4D107B0BDE8F08323
:10494000F36900209847B369C5F8D000002B7FF4C5
:1049500056AF036043608360C360036194F8123113
:10496000DA067FF54CAFD4F89421D5F8D0301A612F
:1049700045E70B2021490FF033FD10BB0720B3683A
:104980009847B36C002B98D097F88120002A8BD1E0
:1049900092E74C6894428FD18C6894428CD10A463D
:1049A000CDE90300059052F8B00F002884D150687B
:1049B000049A904280D1D1F8B81091427FF47CAF34
:1049C0007BE70C2395F9832002FB03530B4A8433C6
:1049D00007CA83E80700D4E7603D0020D8470020DD
:1049E000F85E0020603900203C4F0020F447002092
:1049F000E4290020E0470020883A00209048002069
:104A000000487047F4470020002208B5054BC3E971
:104A100000229A6011F036FBBDE80840102015F026
:104A20001DBA00BFF447002008B5054A054B507673
:104A30005B6F9847BDE80840202015F00FBA00BF13
:104A4000D8470020883A002040B110B504462046DF
:104A5000A4681DF0F7FD002CF9D110BD704700BF10
:104A6000B0B10C4B10B5D3F8C430044603B198472D
:104A7000237823B92046BDE810401DF0E3BD204651
:104A800000210BF02DFA2046BDE810401DF0DABDE4
:104A9000704700BF60390020014B1868704700BFA5
:104AA000F446002070B5044660B31C4B187848BB30
:104AB0005B7833BB1A4D607E84F838306B7E2A8871
:104AC0009842228004D0174BB3F89810FEF7A8FF45
:104AD0000C22154904F11C001FF020F8A0B1104E63
:104AE00004F1400EB44620686168A268E36810349F
:104AF0007445ACE80F0006F11006F3D10120EB6B12
:104B00002B6670BD002070BD064B626AB3F8A03002
:104B1000217FA86A11F008FAE1E700BF603D00209C
:104B2000D8470020F85E0020F44700202DE9F04F20
:104B3000037817465A1E1F2A0446884683B004D8B5
:104B400014F8013F581E1F28FAD93B2B53D02F2BA6
:104B50003DD0002B68D0A2460026651C202B09D929
:104B6000292B05F1FF391BD03B2B14D0282B0CD05F
:104B7000002E33D015F8013B002BEFD10023204647
:104B80008AF8003003B0BDE8F08F2E4615F8013BDF
:104B9000002BE3D1F2E7002EECD189F80060EDE7BD
:104BA0007EB13F4B93F881305BB905F8013C3D4B3A
:104BB00093F8FA315B0724D4002F4BD03B68002BCD
:104BC00034D015F8013B0026002BC7D1D6E7364B71
:104BD0001B7ADA060FD463780134BAE7A3F16102D5
:104BE000192A98BF03F05F030AF8013B15F8013B4F
:104BF000002BB3D1C2E700232046237003B0BDE8E9
:104C0000F08F3378002BDCD017B13B68002BD8D164
:104C1000DFF89CB0DBF8C830002BD2D03046984784
:104C2000002688F80000A5E7A246A7E7DFF880B0D5
:104C3000DBF8C03023B13046984738600028C0D137
:104C40000422304619491FF081F838B13378002B1F
:104C5000E0D1B6E73378002BB3D0D9E7A9EB060251
:104C6000A2F10309484601921DF0C4FC019A386084
:104C70000028EBD03379202B0FD1731D194613F880
:104C800001CBBCF1200FF9D006F101099144A9EB49
:104C900001094A461FF0E4FC93E7311DF9E700BF24
:104CA000D8470020883A0020603D0020F4550210CB
:104CB0006039002000212DE9F04FDFF8D4A22DED5E
:104CC000088BDAF80431AD4E5B1A18BF012396F851
:104CD0007D20AFB093EA020519918DF8631019AAEF
:104CE0000DF1630118BF86F87D30FFF71FFF9DF8B7
:104CF00063800446B8F1000F13D10778252F16D032
:104D0000CFB9199C64B19E4BD3F8C4300BB1204687
:104D100098472378002B40F0C78620461DF092FC70
:104D2000B84640462FB0BDEC088BBDE8F08F437805
:104D3000002B00F0BE80934D904EE02200212846CB
:104D40001EF01AFF0023B64605F1080C06938DF8F5
:104D50002030ADF814301F46BEE80F00ACE80F005D
:104D6000BEE80F00ACE80F00BEE80F00ACE80F0093
:104D70009EE80F008CE80F00F36D0A932378242B34
:104D800000F0E282224601231A9300231C9392F83A
:104D900000B01E93BBF1000F01F09D83BBF1400FEB
:104DA00068D9BBF15A0F00F28586BBF14F0F65D170
:104DB000754B20461B931AAB19461CAA049307F0A7
:104DC0002BFB034609908DF86300002841F0B5865F
:104DD000DDED1B7AF4EE677AF1EE10FAB0EE677A49
:104DE00081F12E83814607900B90FCEEE76AF8EE86
:104DF000665A9FED666A77EEE57A67EE867AF8FE88
:104E0000677ACDED1C6ABCEEE78ABBF1470F63D031
:104E1000BBF14D0F40F014822B78412B00F0D28073
:104E20001C98632840F28A810023DFF854B11E9356
:104E3000DBF8F830002B00F09D8018EE102A80B2CD
:104E4000002A00F0CD8200EB80001FFA82FB00EB0D
:104E500080000BEB800080B298478146002800F06C
:104E600089801C9B03EB830303EB83030BEB83031E
:104E70009BB2BCE2BBF1240F40F01C861AAB194672
:104E800020461BAA049307F01FFB002801F019829B
:104E90000023994608EE103A099307930B93DDED32
:104EA0001B7AF4EE677AF1EE10FAB0EE677A9CD7CF
:104EB000ABE7037096F87D30002B00F07682002D72
:104EC00040F0FC8296F87C30002B41F0DF813923E2
:104ED0001F468DF8633014E700231E931C9B412B63
:104EE0005AD8412B46D8DFE813F09402940294027A
:104EF0009402860394024500780378034500F90282
:104F0000450045004500450045004500EF02EF0221
:104F1000EF024A034A0345004500450045004500AD
:104F20004500F9024500F902450045002C04450002
:104F3000450045004500ED034500E50345004500FB
:104F400064034500450045004500450064035803DF
:104F50005803450086038B028B028B028B028B0267
:104F60008B024500310445004500450016044C2BDA
:104F700000F0E7834FF01408D3E600BFD8470020C5
:104F800060390020F84600200000C07F0000C842C1
:104F9000883A00200000C07F592B40F2DD81A3F148
:104FA0005A02092AE6D8A3F15C02072A03F2C08656
:104FB000DFE812F0B1025A025A02AF024D024D026E
:104FC0006502650295F8C930990601F17E8185ED8B
:104FD0001A7A43F0200385F8C9301A9B5A1C1A929A
:104FE00014F803B0BBF1000F00F06C85BBF1400F6B
:104FF0002AD8BBF1240F40F05D85204604991BAAF6
:1050000007F062FA00286ED1B9F1020F41F0598120
:105010005FED207AB0EE677ACDED1B7A18EE103A8C
:10502000002B40F03D85BDEEC77AD5F8C82085ED50
:105030002C7A12F0010308EE103A41F04681012368
:105040001343C5F8C830C8E7BBF15A0F00F23285E8
:10505000BBF14F0F5FD1B74B204604991CAA1B939D
:1050600007F0DAF98DF86300002841F03581DDEDB5
:105070001B7AF4EE677AF1EE10FA1D900FD6BCEEB3
:10508000E77AB8EE476ADFEDAC6A77EEC67A67EE8C
:10509000A67AF8FE677A8DED1C7ABCEEE78A18EEE8
:1050A000103A002B40F0FC849DF87530D5F8C820EC
:1050B00043F080038DF875301C9BC5F8B8301D9BFC
:1050C00012EA030108EE101A41F0FF809B490B42DF
:1050D000B6D0DDED1B7AF5EEC07AF1EE10FAAFD561
:1050E0004FF004081DE69DED1B7AB4EE477AF1EE11
:1050F00010FA93D6FCEEC77AB8EE678ADFED8E6AB7
:1051000037EE488A28EE268AB8FE488ACDED1C7A0A
:10511000BCEEC88A82E7204604991BAA07F0D4F99E
:1051200000287FF4BCAEB9F1020F41F0CA80DFED78
:10513000847AB0EE677ACDED1B7A66E618EE103A07
:10514000002B40F0AD848DED1E8A632800F2408173
:10515000DFE810F0F801F801F801960296029602D5
:1051600089047502750275023E013E013E013E0151
:105170003E013E013E013E013E013E013E013E0137
:105180003E013E013E013E013E013E013E013E0127
:10519000F8013E013E013E013E013E013E013E015D
:1051A0003E013E013E013E013E013E013E013E0107
:1051B0003E013E016A006A006A006A003E016A0020
:1051C0003E013E0164003E013E013E01F8019E04A5
:1051D00061026102610261027B04040304033E0177
:1051E0005A025A025A025A023E013E013E013E0153
:1051F0003E013E013E013E013E013E013E013E01B7
:105200003E013E013E013E013E013E013E013E01A6
:105210003E013E013E013E013E016B04494B93F8C5
:10522000203159077FF5A6AE4FF000094FF48013E7
:1052300068701F4208BF3B4340F038821F46CCE6EF
:105240000023ABF1240B1D93BBF1360F3FF692AE5A
:1052500001A353F82BF000BF1D500010754F001034
:10526000754F0010754F0010754F0010754F0010EE
:10527000754F0010754F0010754F0010754F0010DE
:10528000754F0010754F0010754F0010754F0010CE
:10529000754F0010754F0010754F0010754F0010BE
:1052A000754F0010754F0010754F0010754F0010AE
:1052B000754F0010754F0010754F0010754F00109E
:1052C000754F0010754F0010754F0010B357001048
:1052D000A15700108F570010795700106D5900101A
:1052E00053590010754F001019590010FD58001047
:1052F000E1580010C55800108F580010754F00106D
:10530000735800109F5000109959001083590010D5
:10531000AF5900105B58001001580010ED570010F5
:10532000D9570010C55700100D5A0010E35900104E
:10533000C55900100000C07F0000C84280CA180094
:105340000000C07FF85E002001210423AF72E21C40
:105350002981ADF8141017E5482B7FF60BAE01201C
:10536000C44AA3F1490100FA01F10A40002A40F0C1
:105370008C80502B7FF4FBAD9DF8782042F0020228
:105380008DF878202B81002385F83730022318EE22
:10539000102A002A40F0848317EA030208EE102A3C
:1053A00040F0848191461F4317E696F87C30DFF881
:1053B000CCB283F0010386F87C30DBF8EC3013B11B
:1053C00096F87C0098472778002F3FF49AACB2E417
:1053D000DFF8A8B2DBF8F830002B3FF4CBAD80B299
:1053E0009847814600283FF4C5ADBDF870306B800A
:1053F0009DF87A3043F020038DF87A301E9B18E731
:10540000A3F136023B2B2A7700F0C0874FF40063EC
:10541000BDE7079A002A41F0E0819DF87820052B2E
:1054200042F002028DF8782041F0218018EE102A17
:1054300032B10A2A18EE103A08BF33237FF49AAD2E
:105440002B81002385F8373002230793A4E78A4A8B
:10545000127E022A7FF48EAD603B83F0010385F853
:1054600049304FF4005392E7C3F15E03AB729DF8ED
:10547000783043F020038DF87830202387E7623BB3
:1054800085F835304FF4007381E7079A002A41F020
:10549000A4819AB233882A819B1A18BF0123059AE6
:1054A00085F8370063F34102059202229DF87830B7
:1054B000079213438DF87830134668E70123DFF82D
:1054C000BCB186F87C3078E7113BAB739DF878303F
:1054D00043F004038DF87830042358E718EE102ABF
:1054E000002A40F0E587079A002A41F076819DF86E
:1054F00078201C2B42F001022B708DF8782041F0AF
:105500001F830122079218EE102A13442B700123E7
:1055100042E70223AAE718EE103A002B40F0AB87CF
:10552000079B002B41F059819DF8783043F001032F
:105530008DF878300123079318EE103A5C332B7006
:10554000012329E7002800F0E386012840F0D786F0
:105550009AF800329A0640F1DF87DAF86C30984703
:1055600080F02003C3F34013002B00F06882012376
:105570004FF0000985F820304FF4004359E6A3F1BD
:105580001403B3FA83F35B09EB729DF8783043F0B0
:1055900040038DF878304023F9E6A3F13303B3FAE2
:1055A00083F304225B0985F8363007924FF4806359
:1055B000EDE6312B00F03E8718EE103A002B40F05C
:1055C0004587DFF8B8B0DBF81830002B3FF4D2ACD9
:1055D0000123EB734FF48073DEE6274A127E022A22
:1055E0007FF4C8ACA3F10703B3FA83F35B096B73D1
:1055F0004FF48043CBE62B709DF8783043F00103E5
:105600008DF878300123C2E685F8DC003B464FF088
:1056100000091F46E1E417F023FB82077FF5AAACDF
:105620000121084617F0DCF900283FF4A3AC9DF8EF
:1056300070204FF000094FF480330992F9E5059B83
:10564000082843F48073059300F05286092800F07F
:1056500046869AF80A329B077FF58CAC95F8213084
:105660004FF0000943F0020385F821304FF4002386
:10567000DFE500BF01370100F85E0020603900203F
:10568000A0F10402431FB2FA82F218BF01235209AB
:1056900043EA420395F848204FF0000922F0030244
:1056A000134385F848304FF48023C2E54FF01508C6
:1056B000FFF737BB9DF8783043F080038DF87830E2
:1056C000802364E6DAF81031002B3FF453AC18EE77
:1056D000103AA3F114021E2A3FF64CACC84BD3403B
:1056E000DB077FF547AC18EE102AC64BA3FB02235D
:1056F000DB088A331C93079A002A41F06E809BB224
:105700002B81002385F837309DF8783043F0020371
:105710008DF8783098E641232B709DF8783043F06F
:1057200001038DF8783018EE103A002B7FF422AC8C
:10573000DFF8D4B2DBF81C31002B3FF41BAC0123A3
:105740002AE618EE102A002AD5D013E418EE103AF3
:10575000002B7FF40FAC4FF480531DE617F080FA56
:1057600040077FF507AC0121002017F039F9002828
:105770007FF45DAFFFF7FEBBD5F8C82085ED137A47
:10578000130600F1A285DDED1B7A8023A3E4D5F892
:10579000C82085ED217A110700F1978508234FE491
:1057A000D5F8C82085ED207A530700F18E850423B3
:1057B00046E4D5F8C82085ED1F7A910700F185856C
:1057C00002233DE4D5F8C82085ED247A110200F1CA
:1057D0007C854FF4000333E4D5F8C82085ED237AA7
:1057E000530200F172854FF4800329E4D5F8C820F4
:1057F00085ED227A910200F168854FF400131FE4D1
:1058000018EE103A002B40F04B81DFF8FCB11C98E9
:10581000DBF81830002B00F05C85DBF81C30984773
:10582000B0FA80F04009002841F06585DDED1B7A73
:10583000F4EE677AF1EE10FA6CBF4FF0FF331C9B69
:10584000D5F8C820C5F8C03012F4801308EE103A1D
:1058500040F03B854FF480133DE4D5F8C82085ED3A
:105860001E7A130300F13185DDED1B7A4FF400231E
:1058700031E4BDEEC77AD5F8C82085ED2D7A530402
:1058800000F12385DDED1B7A4FF4804323E418EE0D
:10589000103A002B40F00481B4EE477AF1EE10FA92
:1058A0006CBFFF239DF87030D5F8C82085F8C43050
:1058B00012F4805308EE103A40F007854FF48053FD
:1058C000FFF7BEBB069BD5F8C82043F00403510682
:1058D00085ED187A069300F1F8844023FFF7B0BBFA
:1058E000069BD5F8C82043F002030693930685ED86
:1058F000177A00F1EA842023FFF7A2BB069BD5F8B4
:10590000C82043F00103D10685ED167A069300F115
:10591000DC841023FFF794BB18EE103A002B40F004
:10592000BF80B4EE477AF1EE10FA6CBF4FF0FF3350
:105930001C9BD5F8C820C5F8BC3012F4006308EEF3
:10594000103A40F0C284DDED1B7A4FF40063FFF79C
:10595000C2BBD5F8C82085ED157A930500F1B58452
:10596000DDED1B7A4FF40073FFF7B5BBD5F8C82007
:1059700085ED147AD10500F1A8844FF48073FFF708
:105980005FBBD5F8C82085ED1C7A930300F19D8498
:105990004FF40033FFF754BBD5F8C82085ED1B7AD0
:1059A000D10300F192844FF48033FFF749BBD5F85F
:1059B000C82085ED1D7A510300F187844FF48023C0
:1059C000FFF73EBB089BD5F8C82043F004030893BB
:1059D000530185ED277A00F178844FF08063FFF75B
:1059E0002FBB089BD5F8C82043F00203910185ED39
:1059F000267A089300F169844FF00073FFF720BB0B
:105A000001041040CDCCCCCC60390020089BD5F8E7
:105A1000C82043F001030893D30185ED257A00F1F6
:105A200054844FF08073FFF70BBB6323DFF890B013
:105A300085F82030DBF82031002B3FF49BAA4FF093
:105A400000094FF40043FFF7F4BB17F009F903070F
:105A50007FF590AA0021012016F0C2FF0146002820
:105A60007FF4E5AD81E6DAF82431984781460028D5
:105A700040F00084114B1B7F042B3FF4C7ADDAF8D4
:105A8000E030002B3FF476AA4FF40033FFF7D1BB90
:105A900001224FF000094FF400330B92FFF7C9BB0E
:105AA0004FF01708FFF73DB9002120460AF018FA19
:105AB000FFF733B94FF00108FFF733B9F85E002064
:105AC000603900209DF87830D90703D52B78412B19
:105AD00000F0E7849DF82040002C00F0E684079B4E
