:020000041000EA
:10000000002008205D0100101301001015010010F0
:100010001101001011010010110100101101001058
:100020001101001011010010110100101701001042
:100030001101001011010010190100102903002006
:100040001D0100101D0100101D0100101D010010F8
:100050001D0100101D0100101D0100101D010010E8
:100060001D0100101D0100101D0100101D010010D8
:100070001D0100101D0100101D0100101D010010C8
:100080001D0100101D0100101D0100101D010010B8
:100090001D0100101D0100101D0100101D010010A8
:1000A0001D0100101D0100101D0100101D01001098
:1000B0001D0100101D0100101D0100101D01001088
:1000C0001D0100101D0100101D0100101D01001078
:1000D0001D0100101D0100101D0100101D01001068
:1000E0001D0100101D0100101D0100101D01001058
:1000F0001D0100101D0100101D0100101D01001048
:100100001D0100101D0100101D0100101D01001037
:1001100000BE00BE00BE00BE00BE00BEEFF3058004
:10012000103800BEF2EB8871AC1E0310C81E03101D
:10013000A801001090A31AE7D3DEFFFF42012110AF
:10014000FF01000088560300793512AB4FF0000024
:100150002049086006C881F3088810474FF05040D6
:10016000006810B14FF00000F2E70FA40ECC002998
:1001700002D000F015F8F9E71749184A002000E00E
:1001800001C19142FCD1002080F30A8814498847BC
:10019000144988471449884700BEFDE701C901C2D8
:1001A0009A42FBD3704700BFC81E03101001002005
:1001B000083A0020C0570310000008200000082063
:1001C000C057031000100820001008200000000095
:1001D0007047000008ED00E0083A00208872002017
:1001E000815902103D02001079590210F8B500BF84
:1001F000064B0749C91A891048BF0131491003D07D
:10020000044B0BB101481847704700BF083A002063
:10021000083A00200000000008B5054B1BB1054955
:100220000548AFF30080BDE80840FFF7E1BF00BF1D
:1002300000000000985200200086021008B503F06C
:100240007BF8002008BD00BF01205170704700BF3F
:1002500008B588470020002108BD00BF044B1C22C0
:1002600093F85B314340C3F3000343EC40207047F5
:100270006C640020002300B583B0009310EE1830AA
:1002800010EE18E010EE18C010EE180010EE181066
:1002900010EE1820CEF3C00EC3F3800343EA4E03E2
:1002A000CCF3001C43EA8C03C0F3401043EAC003C4
:1002B000C1F3801143EA0113C2F3C01243EA4213AF
:1002C0008DF80030009803B05DF804FB164B5A78A7
:1002D000904228D1998870B5C1F3072212F04002EC
:1002E0000C460ED0F1B1230405D410EE1840C4F32F
:1002F000402441EA84140D4B2046BDE870401B6F3A
:1003000018479B78042BEDD1084B0146D3F84C518C
:1003100001200023A847B0FA80F0400960F3CF34F1
:10032000A1B2DFE770BD7047FC2B0020F03C00203D
:10033000704700BF4FF00000704700BF72B60368FF
:100340001943016062B67047034672B600681A68C6
:1003500022EA0101196062B6704700BF034672B617
:100360000068196062B67047014B1868704700BF9B
:10037000D04900202DE9F0470026884691462F4CB1
:100380002F4D237F43F001032377EF68AB7AA7F16A
:10039000010CBCFA8CFC627F95F800E04FEA5C1C13
:1003A0006361EB696CF3041226714946204684F8B8
:1003B00005E0A760236162770136C0470D2E05F185
:1003C0002005E2D102231F4D1F4FDFF884A0A38335
:1003D0000EE0272B0CBF524600226B694946C4E948
:1003E000032316480136C0472A2E05F11C050BD001
:1003F000EB68287A29786A68252B2671606161711B
:10040000A260E6D13A46E8E7104B1D680023E3609E
:100410008DB1EB68267163612B782F8A63716B68ED
:100420006A6949460548A360A7832261C047AD6950
:100430000136002DEDD1BDE8F08700BF683F0020F8
:10044000342A002008270020008602107053002064
:10045000048602100D4B1B6813B970479B69A3B14A
:1004600093F800C08445F9D110B45C688C4208D080
:100470009B693BB193F800C08445F9D15C688C421C
:10048000F6D15A615DF8044B7047704770530020F5
:10049000002330B583B0054614468DF807100120BF
:1004A00019460DF107021FF0F9FA40B122469DF8F6
:1004B00007302846637012F8041B1FF061FB607858
:1004C000FF3818BF012003B030BD00BF70B504462F
:1004D0001C2025F0F3F9A8B18446054600262068C3
:1004E0006168A268E368ACE80F00084A20696169A6
:1004F0001368ACE80300AE612BB11A469B69002B70
:10050000FBD1956170BD156070BD00BF70530020B8
:1005100000B58BB0684626F0EDFF044B0448C01AC6
:10052000079BC01A0BB05DF804FB00BF8872002067
:1005300000000820064C08B50648D4F8C03098479B
:1005400000216420E36B98470021084621F060FDFC
:10055000F03C00200C86021010B5937882B0FF2B7F
:1005600014468DF807101AD06268012A12D020783C
:1005700003F09CFA012103460DF1070208461FF023
:100580008DFA50B19DF807006070FF3818BF012048
:1005900002B010BD426993420AD06078F5E7127844
:1005A0007632D2B2052ADFD80020637002B010BDC7
:1005B000836A002BE6D1F0E721F07ABC2DE9F84FF1
:1005C00001252A4C4FF000088146AA4604F54B7BD2
:1005D00002E01C345C452CD0E368242BF9D163681D
:1005E0000B2BF6D0207A20F0ADFC0428F1D0207A35
:1005F00020F06AFD2378207A062B33D0C02B31D02F
:10060000A0F1200CC0F1200105FA0CFC25FA01F143
:100610004746434605FA00F64CEA010242EC2460E4
:100620006368012BD5D104211C3420F06DFC5C459E
:10063000D2D199F800300E4AA3F11703B3FA83F32D
:100640000C4C5B0948464FF00001D2F8082123709A
:10065000904710EE103003F07C6320EE10302078CD
:10066000BDE8F88F4AEC4000CAE700BF0827002029
:10067000F03C00206972002088B170B50646002465
:100680004FF00003E2B262F3070362F30F2363F358
:100690000F0528460134B047062CF1D170BD7047D4
:1006A000002110B50446112020F052FD0121104A0E
:1006B000104B10681A68814022EA01021A60D3F8D0
:1006C000702122F48072C3F8702184B110EE1030D2
:1006D00003F07C6320EE10300020074A074B0849E6
:1006E0001B68907009681268043341F8232010BD1C
:1006F000746A002000003050D42B00206C6A002067
:10070000586A002000B170470149024812F020B930
:10071000388602104086021038B51B4C00214FF07D
:100720003F00D4F88C309847184B194A1968236A4F
:100730001848A2FB03230268B2EB131F0FD01C0959
:10074000154B164D1A6801EB4103046002F01F02BD
:1007500005EBC303081D45F82040C3F8D82001234A
:100760000E4A8B401068034208D111680B43136096
:10077000D2F8703143F48073C2F870310121BDE8C2
:100780003840112020F0E4BCF03C0020746A0020C6
:100790001F85EB516C530020786A00200000305018
:1007A0002DE9F0410D4684B010B3044631B321F079
:1007B000E5F9064621F07CFB0B4602464FF47A70C1
:1007C0004FF0FF3C6FF00047E4FB0023944577EBCC
:1007D00003014FF00001154C3CBF62463B463046DA
:1007E00001950094029121F0CDF904B0BDE8F081AB
:1007F0000029FAD004B0BDE8F04108474FF47A72FE
:100800000B4E02FB04F4B76AB36ADB1BA342ECD2C3
:10081000DFF82080D8F8585027F0BAFEA847B36A0E
:10082000DB1B9C42F6D804B0BDE8F08151020010F9
:1008300000000B40C83B00202DE9F0416A4D82B01A
:10084000064608460F462C7803F002F90190002E68
:1008500045D0664B93F87A31DB0740D50026FFB2CE
:100860006A68013C4FEA441802EB441357B9FEB1E1
:1008700000220F21987A20F0A3FB002CF0D102B0C7
:10088000BDE8F08112F8080003F050F86B68C0B2C0
:100890004344DA68B2F5007F0CBF9DF804209DF850
:1008A000052000EA0206003E18BF0126002EDFD117
:1008B0001A89C2F34412102A73D8DFE802F0938C2D
:1008C00085727E72727277727272727272726D005B
:1008D00000220F21987A20F073FB002CCFD06B6898
:1008E000013C03EB4413002EF2D01A89C2F34412E8
:1008F000102A2AD801A151F822F000BFD108001017
:1009000041090010890900104B09001079090010F5
:100910004B0900104B0900104B0900106909001029
:100920004B0900104B0900104B0900104B09001037
:100930004B0900104B0900104B0900105909001019
:1009400001220821987A20F03BFB002C97D06B689D
:10095000013C03EB4413C8E70122987A114620F0CA
:100960002FFB002CF3D18AE701220221987A20F094
:1009700027FB002CEBD182E701220C21987A20F092
:100980001FFB002CE3D17AE701220421987A20F0A2
:1009900017FB002CDBD172E70122987A114620F078
:1009A0000FFB0026002C7FF45BAF68E701220221D9
:1009B000987A20F005FB0026F4E701220C21987AB2
:1009C00020F0FEFA0026EDE701220421987A20F0BB
:1009D000F7FA0026E6E701220821987A20F0F0FADB
:1009E0000026DFE7002643E73C5100206C6400202E
:1009F00010B50389044603F47871802982B01CD0B5
:100A000010EE1820403918BF0121807AC240607A68
:100A100082EA900202F001028A420ED0C3F344132C
:100A2000102B47D8DFE803F0585B5E466146464628
:100A300048464646464646465000E268B2F5806F54
:100A400005D0B2F5801F53D0B2F5007FE6D1002368
:100A5000009310EE183010EE18E010EE18C010EEF3
:100A6000180010EE181010EE1820CEF3C00EC3F3CD
:100A7000800343EA4E03CCF3001C43EA8C03C0F32B
:100A8000401043EAC003C1F3801143EA0113C2F3EB
:100A9000C01243EA421303F03F038DF80030009880
:100AA00027F046FDC0B230B3144B00981B6E984738
:100AB0002389B3E702B010BD01220221A07A02B05F
:100AC000BDE8104020F07CBA01221146A07A02B0A5
:100AD000BDE8104020F074BA00220F21EEE7012299
:100AE0000821EBE701220421E8E701220C21E5E7D8
:100AF000204602F01FF8238990E700BFF03C002059
:100B000038B582780446FF2A04D103787633DBB205
:100B1000052B25D901210023084662181EF0BEFFCF
:100B20000546D0B121788C290AD08F2908D000221F
:100B300028461FF025F86078FF3818BF012038BD1F
:100B4000A07820F0C1FA0123A078834040EE143051
:100B5000042120F0D9F92178E9E7FF23637038BD3B
:100B60006270002038BD00BF10290AD8DFE801F00C
:100B70000A0F1409190909091E09090909090909AE
:100B80002300704700220F21807A20F019BA012239
:100B90000821807A20F014BA01220421807A20F002
:100BA0000FBA01220C21807A20F00ABA0122022118
:100BB000807A20F005BA0122807A114620F000BA2E
:100BC000C44B1B78002B00F0E480C34BD0ED587A67
:100BD0001B6ADFEDC23A07EE103AB0EE006AF8EE9B
:100BE000475ADFEDBF4A37EE866AB2EE045A85EE09
:100BF000A37A77EEE47AD0ED596A9FEDBA4A27EEF0
:100C0000067A67EE857ABAFE477AFCEEE77AF4EE6A
:100C1000C46A2DE9F04F83B0BCEEC77A0093F1EEC1
:100C200010FA17EE903AB049B04A804681ED027A48
:100C3000537040F29B8176EEE46A66EE856AFCEEC4
:100C4000E67ACDED007A9DF8003098F85811102022
:100C500001F00101137020F0A3F998F85911162042
:100C600001F0010120F09CF998F858111120C1F30E
:100C7000400120F095F998F859111720C1F340016F
:100C800020F08EF998F858111220C1F3800120F05D
:100C900087F998F859111820C1F3800120F080F9E4
:100CA00098F858111320C1F3C00120F079F998F891
:100CB00059111920C1F3C00120F072F998F85811A8
:100CC0001420C1F3001120F06BF998F859111A2083
:100CD000C1F3001120F064F998F858111520C1F300
:100CE000401120F05DF998F859111B20C1F3401113
:100CF00020F056F9784B0120D3F88830984700222D
:100D0000DFF8FC910D264C4611461046784B20F03A
:100D10007BF90021152020F01BFA98F87B3198F818
:100D20007CA1744F8AEA030ACAF340130093CAF302
:100D30000013019394F88A0120F0C6F994F88031E9
:100D4000013E3D2B26D81E2B2ED91F3B1E2B2BD808
:100D5000DFE813F0B200B200B2002A002A00A200BD
:100D6000A200A2002A002A008C008C008C002A001D
:100D70002A00D800D8002A00FD00FD002A00E80063
:100D8000E8002A002A002A002A002A002A002A0055
:100D900022007047C32B07D109EB4612138923F4B5
:100DA0007E7343F0480313817501D4F88C3113F43A
:100DB000C06F0BD009EB05035A7A12F0040F0CBF79
:100DC000012102211A8961F349121A814D442B7ABB
:100DD00094F88A0103F01803082B0DBF01210021AC
:100DE0000122002220F0B8F8697A94F88A01C1F350
:100DF000800120F0C5F8D4F88C311F4200F0EC805F
:100E000094F88A010F2120F053F9203C002E91D153
:100E1000394B5878FF2803D09978002940F0E480B6
:100E2000364E1D25344603E01C3C002D00F0B480F6
:100E3000D4F81C33013D242BF6D194F810338A3BAF
:100E4000072BF1D801A252F823F000BFCB0F0010FE
:100E5000B90F0010290E0010290E0010290E0010E5
:100E6000290E0010A70F0010710F001098F87C21B8
:100E700009EB4610018942F3800202F0030282F07E
:100E8000010221F48361CAF380039B0243EAC20397
:100E90000B430381750188E798F87C2109EB461024
:100EA000018942F3400202F0030282F0010221F4C0
:100EB0008361CAF34003E8E798F87C2109EB461008
:100EC000018902F00102013221F483610AF0010379
:100ED000DBE700BF69720020F03C00200024744969
:100EE000CDCC4C3ECDCC4C3F5C6A0020D42B0020B6
:100EF0006502002000061000FC2B002008270020BF
:100F0000342A002098F87C2109EB4610018942F32D
:100F1000C00202F0030282F0010221F48361CAF3ED
:100F2000C003B2E798F87C3109EB4610018943F31E
:100F3000401303F00303009A83F0010321F483615B
:100F4000920242EAC3030B43038175012DE798F82F
:100F50007C3109EB4610018943F3001303F00303CE
:100F6000019A83F0010321F48361E9E702236CE62F
:100F7000C5EBC50398F8F62006EB8303597C1C3CAF
:100F800062F38201597494F83403C1F3800120F0B4
:100F900007F8002D7FF44CAF0121152003B0BDE808
:100FA000F04F20F0D5B898F8F620C5EBC50306EB56
:100FB0008303C2F34002E1E798F80821C5EBC503BB
:100FC00006EB8303C2F34002D8E7C5EBC50398F8EC
:100FD000082106EB8303D1E7298904F5C070C1F32A
:100FE0004411FFF7C1FD0BE71C781C2C04D80A4AFA
:100FF000E240D4073FF514AF8A0706D09B88B8F8C3
:10100000F0201A420CBF01210221044B044AD3F8FC
:101010006031984704E700BF00400014F03C002016
:10102000CD0200102DE9F04F2DED028B4FF0E023A3
:101030000024032640F2E7328F4D904997B0696053
:101040008F490520A9608F49E9605A619C611E6142
:101050008D4B8E4AAB638E4B2A612B621FF064FE70
:101060004FF480628B4BAA62A3FB00239B0C07EE1C
:10107000903AB2EE047AF8EEE76A6B62864B4FF074
:101080007E526B63854BC6EE877AEB63844BEA61D5
:10109000C5F80831834B844AC5F88430834BC2EDD0
:1010A000007AC5F88830824BC5F88C30814BC5F882
:1010B0009430814BC5F89830804BC5F8AC30804BEC
:1010C000AB65804BEB65804B6B67804BAB67804BB0
:1010D000EB66804BC5F8D8317F4BC5F8D4317F4BD8
:1010E0002B647F4B6B647F4BAB647F4BC5F8CC317B
:1010F0007E4BC5F894317E4BC5F8983100F060FF07
:1011000001F0D2F919F026FC4FF48053794AC5F862
:10111000A831794BC5F8C42185F8A061C5F8C8315C
:1011200002F0C2FF3F22754B75489968D0F804B0B1
:1011300090F800C093F806E0724895F8F8314668D8
:1011400023F06F0343F06F0312920778049685F83B
:10115000F8310D92C5F80422ADF82C40ADF84840A6
:10116000A5F80842002900F09F84A046664CBEF115
:10117000FF0F39462046C2464646DFF89C91CDF81F
:101180001480CDF81880079710D1DCE213F4C06FFB
:1011900007D0BBF1000F00F048824FF001085FFA62
:1011A0008EFC01360D2E00F1200033D004EB4613E7
:1011B0001A79770122F0190242F009021A711A7A9B
:1011C0000CF1010E22F0190242F009021A72837A20
:1011D00049F82300C368B3F5801FD7D1049B002BC7
:1011E00000F074824FF0010A01F13F03C1720370F5
:1011F0002744BB88013623F478735B045B0C43F40B
:101200000343514443F0E0030D2EC9B2BB8000F10B
:101210002000CBD1079FB8F1000F02D0384B83F8E4
:1012200000C0059B13B1364BC3F804B0BAF1000FF0
:1012300000F0FE82334B1970069B13B1314B049AB8
:101240005A604FF00009314E314B30781A78314FE7
:101250000690D3F804B096463846CA464B46CDE9C8
:101260000721DDF818C0D6F80480CDF81490CDF829
:10127000109009945AE000BFF03C00205486021000
:101280005C86021064860210BD0500107086021094
:101290008096980083DE1B4311050010A107001003
:1012A000C10B001019070010A0530020A106001068
:1012B0005D020010DD010020110100207906001000
:1012C00039080010750200103103001035030010BA
:1012D000B5010020B9050010690300103D0300109E
:1012E000490300105D03001075030010CD040010C9
:1012F00055040010C9250010E5250010FC2B002026
:101300003C510020C8460020342A0020E04600203E
:10131000E846002008270020605000200B2C00F039
:10132000888101331D2B00F11C001ED0C3EBC302CA
:1013300007EB8202117C446841F00201092C117410
:101340004FEAC302EAD1ACF16E020CF1010CB8F124
:10135000000F00F0818101331D2B02704FF0010A54
:101360005FFA8CFC00F11C00E0D1099CDDE907214B
:10137000B9F1000F00F05A82BB4B83F800E0059BE7
:1013800013B1B94BC3F804B0BAF1000F00F04B82AF
:1013900086F800C0049B0BB1C6F8048051EA0C0C1F
:1013A00006D0B249B24801F0E7FBAF4B93F800E03A
:1013B000BEF1000F40F03E82002701F013FFAD4A5E
:1013C000937803F01F035B0143F4804363F30F073B
:1013D0009379FE2B00F0BB82FF2B00F0A682A54A7A
:1013E0005378FF2B12D0D268002A00F0CE81002360
:1013F00001201946A04A1EF051FB002800F00F8280
:101400009D4B13F8011CDA1C1EF0BAFB9B4C04F137
:1014100024086768012F00F05D81A378FF2B00F09E
:1014200076816378FF2B02D02046FFF769FB0C34EE
:101430004445EED13378022B6AD9012102220846B5
:10144000D5F85431984758B143797633DBB2022B43
:1014500040F28E82012102220846894B1EF0E8FCF0
:101460003378032B54D9012103220846D5F854318F
:10147000984758B143797633DBB2022B40F27D8234
:101480000121032208467F4B1EF0D2FC3378042B47
:101490003ED9012104220846D5F85431984758B165
:1014A00043797633DBB2022B40F26C8201210422B5
:1014B0000846754B1EF0BCFC3378052B28D901215A
:1014C00005220846D5F85431984758B14379763308
:1014D000DBB2022B40F25B820121052208466B4BF6
:1014E0001EF0A6FC3378062B12D9012106220846ED
:1014F000D5F85431984758B143797633DBB2022B93
:1015000040F23182012106220846614B1EF090FC18
:10151000604A614B61481A661BF0B6F900216048C9
:1015200024F04CFC03465F4C5F495D48236024F087
:1015300061FC002211925D4A5D4B92ED008A4FF4EE
:10154000402218604FEAC01E431D10924EEA033E2F
:101550004FF480324FF4F8338446CDE90E230EAEBB
:1015600012AF96E80F0087E80F002468CDF84CE032
:1015700097E80F0086E80F00334662462146484848
:1015800024F008FDDFED4B7A78EE277ABCEEE77A9F
:1015900017EE103A9BB2002B00F0C58007EE103A10
:1015A000B8EE477ADFED446A77EEC77A67EEA67A3F
:1015B000FCEEE77ACDED047A9DF81020120242EAA3
:1015C000034204EB4403DB0003F1A04303F54013A3
:1015D000C3F8C820112039491FF0DCFD002111207B
:1015E0001FF0F6FF4FF0000806231024CDE9013864
:1015F000334A344934480CAB009424F01FFD0028D2
:1016000040F01D8125F01CF90DF00EFA24F05EFF6C
:1016100025F014F82868A0F10A00B0FA80F040091B
:1016200017B0BDEC028BBDE8F08F01238346059314
:10163000B3E5BBF1000F13D04FF00109D21A07EB4D
:101640008202517C41F008015174AEF15602CE4441
:1016500002705FFA8EFE64E60121804604917AE60C
:10166000012183460591E7E7E8460020E046002097
:10167000C8460020FC2B0020FD2B0020D82B00208A
:1016800094860210988602109C860210A086021092
:10169000A486021005070010C83B0020F826002091
:1016A00000003050746A00204CED0210A05300205E
:1016B000786A00200000003B00008043C101002048
:1016C0006C6A0020586A002034ED02100123049057
:1016D000069387E54FF4A03239463846C94B00944B
:1016E0001EF004FB00283FF4A2AE00233946384622
:1016F000621C1EF0D3F9A06000283FF498AE0022CF
:1017000021781EF03DFA2046FFF7FAF98FE6012115
:101710004FF480420846BB4B00941EF0E7FA0028C5
:101720003FF485AE80E61A4649E7BBF1000F00F0B2
:101730004B814FF001085FFA8EFC01360D2E00F14F
:1017400020003FF467AD04EB46131A79770122F0CD
:10175000190242F009021A711A7A0CF1010E22F0F4
:10176000190242F009021A72837A49F82300C36809
:10177000B3F5801F00F0108113F4C06FD5D101368E
:101780000D2E00F12000DED144E5D4F88C21B2F515
:10179000801F00F01D81D4F86C21B2F5801F00F08D
:1017A0002081D4F84C21B2F5801F00F04781D4F895
:1017B0002C21B2F5801F00F04A81D4F80C21B2F53B
:1017C000801F00F04D81D4F8EC20B2F5801F00F0AE
:1017D0005081D4F8CC20B2F5801F00F05381D4F8AA
:1017E000AC20B2F5801F00F05681D4F88C20B2F501
:1017F000801F00F0C481E26EB2F5801F00F0B68158
:10180000E26CB2F5801F00F0CC81E26AB2F5801F75
:1018100000F0BE81E268B2F5801F00F0EB80FF238C
:10182000794A5370F2E5DDF818C0B3E59646A6E5AF
:10183000394601E57549764801F046FBBCE5754B34
:10184000DDF830B093ED008A734BCDF84480D3F8C7
:101850000090724B4FEACB1CD3F800A04FF440230A
:10186000109309F12F4303F560034FEA13580BF16E
:1018700006034FF480324CEA033C4FF4F833CDE9D1
:101880000E2396E80F0087E80F00DFF8ACE108F1BF
:101890000608CDF84CC097E80F005FFA88F886E894
:1018A0000F00CDF844E02046414601341FF02CFBE8
:1018B000162CF8D1012310225146009348460623E6
:1018C00024F022FB33465A465146484624F062FB38
:1018D000DFED537A78EE277ABCEEE77A17EE103A0E
:1018E0009BB2002B3DD007EE103AB8EE477ADFED01
:1018F0004D6A77EEC77A67EEA67AFCEEE77ACDED11
:10190000047A9DF81020120242EA03430AEB4A02CD
:1019100009EBC202C2F8C8300123D9F8002003FA4B
:101920000AF31343C9F800306CE6374C3A460021FD
:1019300001203D4B00941EF0D9F900283FF466AD1C
:10194000B5F80032A2881343A5F800325EE5374BA4
:10195000009200213A4601201EF0C8F92A4B9B79DB
:101960003AE51A46D0E7002298211EF009F9C9E5A8
:10197000002294211EF004F96CE5002295211EF04E
:10198000FFF87DE5002296211EF0FAF88EE5002290
:1019900097211EF0F5F89FE5049B2744002B00F0EB
:1019A0000D8101F13F03C1720370BB88013123F443
:1019B00078735B045B0C43F4034343F0E0034FF0A4
:1019C000010AC9B2BB80B8E6012383460593B0E69D
:1019D00094F88B219A427FF4DEAE154B0A4AD3600D
:1019E00005E594F86B219A427FF4DBAE114B064A71
:1019F000D360FCE4E27A9A427FF411AF024BDC60E0
:101A0000F5E400BF59050010FC2B0020E84600203B
:101A1000D0460020A0530020586A00206C6A0020A5
:101A20000000003B000080439104001049020010B8
:101A3000B42B0020942B00201000600094F84B2160
:101A40009A427FF4B4AE5F4B5F4AD360CFE494F820
:101A50002B219A427FF4B1AE5C4B5B4AD360C6E463
:101A600094F80B219A427FF4AEAE594B564AD3609C
:101A7000BDE494F8EB209A427FF4ABAE554B524A4A
:101A8000D360B4E494F8CB209A427FF4A8AE524BD2
:101A90004D4AD360ABE494F8AB209A427FF4A5AEF4
:101AA0004E4B494AD360A2E488464D4C3946234602
:101AB000C2464246DFF83C91CDF81480CDF818803C
:101AC000079711E010F4C06F08D0BBF1000F49D0A8
:101AD0004FF001080CF1010C5FFA8CFC01320D2A69
:101AE00003F120033FF496AB04EB42163079570123
:101AF00020F0190040F009003071307A20F0190010
:101B000040F009003072D8689E7AB0F5801F49F81D
:101B10002630D7D1049800284CD001F13F00D9726B
:101B200027441870B888BEF1FF0F20F478704FEA90
:101B300040404FEA504040F4034040F0E000B8809D
:101B400001F10100C0B209D0B64507D11E4E717037
:101B50003178F3600E2904BF0421B17001464FF0C3
:101B6000010ABBE701209B460590B1E794F86B2082
:101B70009A427FF445AE1B4B134AD36037E494F886
:101B80008B209A427FF437AE174B0F4AD3602EE476
:101B900094F82B209A427FF43DAE144B0A4AD3604E
:101BA00025E494F84B209A427FF42FAE104B064A5E
:101BB000D3601CE4012004930690AEE70123049057
:101BC0000693EEE6742B0020FC2B0020542B002003
:101BD000342B0020142B0020F42A0020D42A0020CB
:101BE000342A0020942A0020B42A0020542A0020FD
:101BF000742A002060500020054B1A685B6890B280
:101C00009A4299B238BF00F58060401A80B270479E
:101C1000B0580020074B1A685B6890B29A4299B29C
:101C200038BF00F58060401A80B2C0F57F70033085
:101C300080B27047B0580020074A53681168994233
:101C400006D0591CC1F309011344D87A516070477A
:101C50004FF0FF30704700BFB05800202021034AEA
:101C6000034B91631A685A60704700BF0030074009
:101C7000286E0020084A82B09369D90605D41368FB
:101C8000DBB201939369DB06F9D50022034B196897
:101C90005A72596002B0704700000740B0580020E7
:101CA000F8B5104B06469A6B910605D49A699206D0
:101CB00016D520220C4B9A630C4D0D4F2C68013425
:101CC000C4F3080403E0D7F8F431984738B16B68DF
:101CD000A342F8D02B682C601D442E720120F8BD61
:101CE0001860FBE70000074000200740286E002036
:101CF000F03C0020084B1A685B6890B299B29A4297
:101D0000064B38BF00F500709B69401AC3F3C0034F
:101D100080B2184480B27047286E0020000007404F
:101D2000502210B1024B9A637047024B9A6370477E
:101D30000030074000200740014B1B68184700BFD8
:101D4000202C00200346024A106803B1136070473C
:101D5000202C002008B5034603F00C0213F0030FFB
:101D600014BF07210821082A14BF012202220348B8
:101D7000C3F3021322F030F8012008BD0000074031
:101D800008B50146024821F0D9FF012008BD00BF77
:101D9000000007400146014818F02EBBB058002053
:101DA000F8B5224D2F6C17F0500F0AD0204E05E0E9
:101DB0002C683368E4B22046984718B3AB69DB0659
:101DC000F6D5BA060AD51B4A1849536888698406AD
:101DD0000CD5536051681368994220D0F8BD287A19
:101DE000C4F30803086088698006F2D41068D51827
:101DF000984203F10104F2D153605168136899428B
:101E0000ECD10CE00C4A136851680133C3F30903A9
:101E1000994208D0116813600A44D472CEE7202298
:101E2000064B9A63F8BD01235372C7E700000740D1
:101E3000202C0020286E0020B058002000300740E1
:101E40001F4A517809B10020704792F802C070B55E
:101E500004461CF0010030D01CF0020FCCF3400609
:101E60002CD14CF0020C174D0221304682F802C0F2
:101E70001FF04AF8022101201FF046F821462846AB
:101E800021F0DAFE286B104C00F44040012233466A
:101E900008212063284621F09FFF0121284621F0D8
:101EA000D3FF212009491FF075F9212001211FF0DE
:101EB0004FF95022064B07489A6370BD084670BD23
:101EC000182C00200000074000100740A11D001042
:101ED0000020074060ED02102DE9F843074617F88F
:101EE000016B1EB3DFF85880DFF85890D8F838300F
:101EF0009A0606D4D8F818309B0619D520220E4B26
:101F00009A630E4D2C680134C4F3080403E0D9F839
:101F1000F431984730B16B689C42F8D02B682C6044
:101F20001D442E7217F8016B002EDFD1BDE8F88337
:101F3000C8F80060F6E700BF00200740286E0020C8
:101F400000000740F03C002081B32DE9F047064631
:101F50004B1E9BB20133DFF86080DFF860A0C7182A
:101F6000D8F8383016F8019B9A0606D4D8F81830FD
:101F70009B0618D520220E4B9A630E4D2C68013417
:101F8000C4F3080403E0DAF8F431984738B16B6819
:101F90009C42F8D02B682C601D4485F80890BE4206
:101FA000DED1BDE8F087C8F80090F8E7704700BFC1
:101FB00000200740286E002000000740F03C002071
:101FC00010B5074C0748D4F8943198470648D4F820
:101FD00094319847BDE81040044818F0EFB900BFAD
:101FE000F03C0020CCED0210B4ED02100C2C0020CF
:101FF000054B5A681B6891B298B29A4288BF00F5A7
:102000008060401A80B27047BC5C0020064B5A6862
:102010001B6890B29A4299B294BF00F2FF3000F16F
:10202000FF30401A80B27047BC5C0020014B1A6838
:102030005A607047BC5C00201820064B19681A686B
:1020400019445A601A68C8720132C2F309021A6050
:10205000704700BFBC5C0020074A53681168994272
:1020600006D0591CC1F309011344D87A5160704756
:102070004FF0FF30704700BFBC5C0020014B1B6875
:10208000184700BF242C00200346024A106803B101
:1020900013607047242C002008B51F201FF06EF835
:1020A0004FF47A70002108BD0146014818F0A4B928
:1020B000BC5C0020002021F005B800BF08B500215D
:1020C000074826F071FA00B908BD4FF0FF30002133
:1020D00020F030FABDE80840014826F035BA00BFCC
:1020E000487100202DE9F84380460F4620F098F90A
:1020F00048B900200021294BC3E90001BDE8F8439D
:10210000274826F021BA20F093F905460028F0D19F
:10211000002FF3DDDFF88490224E13E022460020EA
:1021200021F084F8002104464FF0FF3020F002FA3D
:10213000002021F033F81FF0BBFEC9E9000125445F
:10214000AF42DBDD002021F091F87C1B8442A8BF68
:10215000044608EB0501002CE0D121464FF0FF308A
:1021600020F0E8F9204621F019F820F059F900286C
:10217000C4D020F05DF90028C0D121F077F8002804
:10218000DED11FF095FED9F80030D9F804209B1954
:1021900042F1000283428A41D2D2AFE7003F0020E1
:1021A0004871002020A1070008B50E4B18701FF0E1
:1021B0007FFE4FF0FF3E6FF0004C0B4A821841F15A
:1021C000000396457CEB03013CBF7246634607481B
:1021D00026F0CEF918B101210248FFF783FF012054
:1021E00008BD00BF8448002040420F004871002015
:1021F000474B2DE9F047474C1B68984723780BB1B4
:10220000BDE8F0870123237020F00AF918B90023F4
:102210002370BDE8F08720F00BF90028F7D120F0FB
:1022200067FF06460028F2D03B4D69682A688BB2EA
:10223000914294BF03F2FF3703F1FF3790B23F1A88
:10224000BFB220F0EDF80028E1D020F0F1F800282E
:10225000DDD120F04DFF0028D9D01FF029FE4FF02E
:10226000FF3E6FF0004C2D4A821841F10003964565
:102270007CEB03013CBF72466346294826F078F99F
:102280000028C4D020F0CCF840B900214FF0FF3036
:1022900020F050F9224826F057F9B8E720F0C8F8A6
:1022A00080460028F1D120F023FF0028EDD0142E25
:1022B0003246A8BF14221B4EBA42A8BF3A46314646
:1022C000404620F021FF0746154826F03DF9002F33
:1022D0009DD09CDDB1464FF001083E44124F06E010
:1022E0002A682B60AB1883F80BA0B1458FD019F882
:1022F00001AB3B68504698470028F6D12B686A68C6
:102300000133C3F309039342EAD185F80980ECE76E
:10231000B452002079720020BC5C002040420F00C3
:1023200048710020CC6D0020242C00202DE9F041C4
:102330001F4D204E05F10C07AF602B6833B1002014
:1023400020F094FF0A282B6804D84BBB0120AF6013
:10235000BDE8F081984228BF1846D5F808800446A9
:102360001FF0A6FD02464FF0FF3E6FF0004C9219A1
:1023700041F1000396457CEB03013CBF7246634686
:102380000D4826F0F5F818B121464046FFF7AAFEA1
:102390002B68AA681B1B22442B60AA60002BD5D097
:1023A000064BD3F8F43198470028C6D12860CEE711
:1023B0003070002040420F0048710020F03C0020A7
:1023C00038B5114B04461B680D4613B1FFF7AEFF3D
:1023D00098B11FF06DFD4FF0FF3E6FF0004C0B4ABF
:1023E000821841F1000396457CEB03013CBF724625
:1023F0006346074826F0BCF800B938BD2946204698
:10240000BDE83840FFF76EBE3070002040420F003C
:10241000487100200378002B39D070B5044625F0B0
:102420008BFE1E4E05463368C218FF2A16D8024698
:102430002146B06825F00AFE3368B2682B442A446E
:102440003360B260254415F8012C0A2A02D0726864
:1024500093421BD9BDE87040FFF768BF13B1FFF787
:1024600065FF98B11FF024FD4FF0FF3C6FF0004670
:102470000B4A821841F10003944576EB03013CBFFF
:1024800062463346074826F073F808B970BD7047B6
:102490002046A9B2BDE87040FFF724BE307000208E
:1024A00040420F0048710020002130B5084685B039
:1024B00021F09EF81F201B491EF06CFE01211F20F9
:1024C0001EF046FE18481FF021F91FF057FB044686
:1024D0001FF0EEFC4FF0FF3E6FF0004C10F57A72EB
:1024E00041F1000396457CEB03014FF001054FF0ED
:1024F000000120460D4CCDE901153CBF72466346F4
:1025000000941FF03FFBEC21094A0A48546D0A4B26
:1025100004600A4C0A4803F10C059D60546559603B
:1025200005B030BDBD20001048710020992000107A
:10253000C83B0020B452002030700020F121001070
:10254000E4ED02100048704798EE02100048704712
:102550004CEE021038B540B940F209424FF44173D5
:10256000164D16486A802B8038BD042804461ED8B4
:1025700003281ED0124B114D53F824102846002377
:10258000013903E0132B20F8022F0BD011F8012F93
:102590000133DBB2002AF5D15B0043F440730748F6
:1025A0002B80E1E74FF44A7304482B80DCE70020DE
:1025B00038BD1021034823F03FFBDBE790490020A2
:1025C00038EE0210D862002008B5044B0449D3F855
:1025D000A42125F03BFD012008BD00BFF03C0020F8
:1025E00000801F1038B5144D1449D5F8A4210446B5
:1025F00024F08AFF08B9012038BD72B64FF480512B
:102600004FF4FC1025F0ACFFD5F8A4214FF4FC10DA
:10261000D3B2120A002B18BF01322146120225F054
:102620006BFF62B605492046D5F8A42124F06CFF63
:10263000B0FA80F0400938BDF03C002000801F1047
:102640000C4BDA7803799A420FD910EE18200A4918
:10265000C3EBC303096801EB83031B7A22FA03F37C
:10266000DB0704D54FF07E507047044870470020C8
:10267000704700BFB8490020D8460020000080BF46
:102680000B4B1A7803799A420DD910EE182009499C
:10269000096801EB43139B7A22FA03F3DB0704D5A5
:1026A0004FF07E507047044870470020704700BFCD
:1026B000B8490020C0460020000080BF354B364A94
:1026C00010B5DA62002832D1344A12788A422DD904
:1026D000334A197114684FEA411C04EB41114A7ADC
:1026E0004868C2F3801282F001029201B1F808E05A
:1026F00042F004029861C0F3072020F0440002F089
:10270000440202435A76CA68A3F81CE014F80CC0CD
:102710009A608A7A0C69C8695A612249224AC3E9D7
:102720000340C3E9081283F805C01A4810BD012808
:102730002DD11A4AD2788A4229D91C4AC1EBC10C40
:102740001468197104EB8C010A8A9A830A8A9A61C7
:10275000120A22F044004A7CC2F3801282F0010285
:10276000920142F0040202F0440202435A7614F845
:102770002C00CA6858714C6848699C600C7A0C49F6
:10278000DA600C4AC3E90404C3E90812CDE700206B
:1027900010BD00BF083F0020052B0010B8490020E5
:1027A000C04600202D28001081260010D8460020A9
:1027B000B9270010412600102DE9F041194F037987
:1027C00097F803C0634508D3174E336818786045FF
:1027D0002CBF00200120BDE8F081134E0446306874
:1027E000C3EBC30300EB830390465A7C0D46097884
:1027F000C2F38000884205D1B8F1000F0BD197F8E1
:1028000003C0E2E761F38202187A5A741EF0C8FB33
:10281000B8F1000FF3D0294620461DF0CFFF97F8FE
:1028200003C0D2E7B8490020D8460020F8B5224FAF
:10283000164697F800C00279624503D28B780D46A0
:10284000032B04D162452CBF00200120F8BD47F6C0
:10285000E73104461948012B006803F0030300EB3D
:10286000421228784FEAC30343EA8023687843EA98
:10287000C033108901EA0001114803EA000343EA6A
:10288000010313810DBF0121002101220022606993
:102890001EF062FB297860691EF072FB3EB9227956
:1028A00097F800C062452CBF00200120F8BD2946E2
:1028B00020461DF00DFFF2E7B8490020C046002079
:1028C0001884FFFF4F4B2DE9F0471B78834239D91D
:1028D0004D4B1D6805EB401500297CD007EE902A72
:1028E000B3EE047A67EE877AFAFE677AFCEEE77A4F
:1028F00017EE904A4B1E012B04F1010427D90E1F3D
:1029000018BF012610EE1830AA7AD34003F0010355
:10291000B34269D0B4B13D4FDFF8F8800AE098F8CF
:1029200000307BB910EE1830AA7AD34003F00103CF
:10293000B34259D00DF0ECFE00213220FB6B9847DA
:10294000013CECD14FF0FF342046BDE8F08701296F
:1029500014BF02230B46AA8818BF194613EA521364
:10296000F0D00127002395F80AC0294E07FA0CFC85
:10297000D6E90089284628EA0C02C6E90023FEF7BA
:10298000F3F8D6E90023A87A8740174234D1BCB1C6
:102990001E4FDFF880800BE098F8003083B9D6E94D
:1029A000009A0121A87A01FA00F313EA090F23D152
:1029B0000DF0AEFE00213220FB6B9847013CEBD1BD
:1029C0004FF0FF3429892846C1F34411FEF7CCF8B3
:1029D0002046BDE8F08710EE1840AB7ADC4004F0EA
:1029E00001042046BDE8F08710EE1840D44004F002
:1029F00001042046BDE8F08710EE1840C44004F002
:102A00000104DFE7B8490020C0460020F03C002068
:102A1000C03B0020E03F0020064BDB78834208D912
:102A2000054BC0EBC0001B6803EB80031B7A41EC35
:102A300040307047B8490020D846002048B90C4BB8
:102A40001B788B4212D90B4B1B6803EB4113DA61E5
:102A5000704701280AD1064BDB788B4206D9064B1A
:102A6000C1EBC1011B6803EB81035A61704700BFD2
:102A7000B8490020C0460020D846002070B51E4C42
:102A800082B02478844220D91C4C256805EB40157F
:102A9000B5F804C01CF4787414D0CCF3441C32EAAA
:102AA0000C0C16D00024164E336D98470021284692
:102AB000FEF75AF800222B89AA6123F478732B8140
:102AC000F36C9847204602B070BD0024204602B047
:102AD00070BD7BB12889E97262F3491028811146E3
:102AE0002846AB610192FEF73FF8019A0124002AC3
:102AF000E8D1D8E71C46D6E7B8490020C0460020F8
:102B0000F03C0020037FDB0706D5084A03791268F2
:102B10005B010120D1547047054A03791268C3EB69
:102B2000C303012002F82310704700BFC0460020F5
:102B3000D8460020012170B40E4E90F80AC0D6E9A4
:102B400000452B4601FA0CF141EA04028469C6E90A
:102B5000002364B110EE1810437A21FA0CF181EAD7
:102B60009301C07A234670BC01F00101184770BC84
:102B7000704700BFC03B002030B587B0EC4690F8EE
:102B800000E00C4A40680C4D10600C4B4A6885F818
:102B900000E01A600A4C0B78EB700FCCACE80F0029
:102BA00094E803008CE8030068461DF021FB07B0A1
:102BB00030BD00BFC0460020B8490020D8460020E4
:102BC000ACEE0210064B1B6843B106490279C97886
:102BD000914203D903EB820318687047024870479B
:102BE00074540020B0460020000080BF037F9A0785
:102BF00005D5044A037912685B01D154037FC3F3FE
:102C000040007047C44600209FED4D7AD1ED007A18
:102C1000F4EEC77AF1EE10FA2DE9F84F0C460546AE
:102C2000D0F80C9009DC9FED477AF4EEC77AF1EE0C
:102C300010FA12DDC0260C2701E01026012705201E
:102C40001EF072F84946B0FBF7F220461DF092FCE8
:102C5000074630B93846BDE8F88F4FF4487632273A
:102C6000EDE76869B9F804801EF02EFA012368695F
:102C7000834040EE143004211EF046F96B69D9F808
:102C8000082058081F2B8ABF00F0030000F007003F
:102C9000083013F0010308BF4FF6FF7A1FFA82FBDA
:102CA0004FEA800200EB800102444FF00000DFF8A1
:102CB000A0C04FEA81018C44DCF800E01CBFDFF8C3
:102CC00094A04FEA0B4B94F818908EEA0B0E0CF57B
:102CD000805C0EEA0A0ECCF800E0920083F0010C52
:102CE00009EA030301F1804102F1804209EA0C097B
:102CF000DB0002F5282201F5282143EA8903086058
:102D000043F001039060D060C2F810800E4A4E601C
:102D10000B602B79D2789A429CD90C4AC3EBC3033F
:102D20001268617E02EB8302537C81F0010060F344
:102D3000041361F3451353743846BDE8F88F00BFA0
:102D40000000FA4400004843B0460020DC46002062
:102D50000C800A400000FFFF0A4B40B918788842F7
:102D600005D9094B1B6803EB4113DA617047DB7827
:102D70008B4206D9054BC1EBC1011B6803EB8103F4
:102D80005A617047B0460020C4460020DC4600204F
:102D900038B505461F4B0C4630220021184624F05A
:102DA000E1FB012D33D11C4AD278A2422FD9034630
:102DB0001A4AC4EBC40C1568047105EB8C010A8A2D
:102DC0008283C2F3803080F00100C2F3072460F3F5
:102DD000861492B29A615C7615F82C004A69587193
:102DE0004C680F489C600C7A1A614A7C5C6112F056
:102DF000300FD86209D00B4A0C7E0B480B49126881
:102E0000C3E9080102EB4412DA60024838BD002031
:102E100038BD00BF383F0020B0460020DC4600200F
:102E2000ED2B00106C540020092C0010C52B001055
:102E300070B51F4D0446EB78834234D91D4A1E4BB2
:102E400010681A68C4EBC4039E0002EB830330B120
:102E5000925D02F18042AA3A00EB820001601E7A84
:102E6000187E164B1B6803EB40101DF0F9FB73082E
:102E70001F2E8ABF03F0030303F007030833104A31
:102E800003EB83039B001A44F30758BF4FF6FF760A
:102E9000116880B244BF0B4E00044140314002F53E
:102EA0008052EB7811609C422CBF0020012070BD45
:102EB000B046002074540020DC4600206C540020F2
:102EC0000C800A400000FFFF2DE9F043344B8DB029
:102ED0000393344B002404930346334A1F785B6802
:102EE000324D334E13604B682F70DFF8D89033604B
:102EF0000B786846CDE900590294EB701CF0D2FFC4
:102F0000002849D0EF78002F46D02A4BD6F8008011
:102F100007930A934346284ACDE908440592274A75
:102F2000C7EBC70106940B94C2F8489108EB8101E6
:102F30005A7C1C33D00648BF01348B42F8D1202183
:102F4000204622F0CDFCDFF880900421C9F8000073
:102F5000204622F0C5FC0021194B0C46186001E008
:102F6000D6F80080C4EBC40308EB83035A7CD20676
:102F70000FD5D9F8002001F1010852B119760120CE
:102F8000E1B2FFF705FF05A90022FFF73DFE41462C
:102F9000EF780134A742E3D80DB0BDE8F08300BF5D
:102FA000592D0010912D0010C4460020B04600207D
:102FB000DC4600200000C84200409C45F03C002058
:102FC00074540020312E00106C540020704700BF54
:102FD00000207047024A034BD2F8C0001B68184714
:102FE000F03C0020C83B0020074B70B51B6804462E
:102FF0000D469847054B1B6F23B129462046BDE877
:103000007040184770BD00BF384C0020C83B0020FE
:10301000024B93F8FA0100F002007047F03C0020E8
:103020002DE9F843384D2B68E3B1384B384E93F80F
:10303000BF30C3B1336D98472C68F36C002C61D05E
:1030400000272F609847DFF8D880D8F80030E5686F
:10305000D4E90120E7606760002B4CD0904715B1A0
:103060002C46F2E72A4ED6F8D4319847294B8046B1
:103070001A6882422AD0284D284A2C681768BC4218
:1030800024D0186037B1D7E901309847FF68002F86
:10309000F9D12C68D4B10027DFF884902368A3EB22
:1030A0000803002B12DC336D98472B68A34218D01D
:1030B00073B9F36C9847D4E90130D9F80020676000
:1030C000E7608AB198472C68002CE7D1BDE8F88307
:1030D0001A46DB68002BECD0A342F9D1E368D36039
:1030E000E7E7E3682B60E4E7C9F8004098472C68FD
:1030F000002CD3D1EAE7C8F800409047002DB2D0A9
:103100002C46A2E79847AEE75C500020E03F002045
:10311000F03C0020E85000208C520020006B002082
:10312000E450002008B512F031FA0022014BC3F838
:10313000202108BDC83B002030B5154B8BB093F85B
:1031400000E0EC466FEA0E0E124C5FFA8EFE83F83A
:1031500000E00FCCACE80F0094E80F00ACE80700EB
:1031600070468CF800300BF061FC0446684624F091
:10317000E3FF2146684424F0DFFD0346064A0021B0
:10318000128868461A800FF093FB0BB030BD00BF69
:10319000282C0020F8860210188702104AB1064A2F
:1031A00092F87521920704D5044A1846D2F81431D2
:1031B00018470020704700BF6C640020F03C0020DE
:1031C000074B93F87221D20604D5C269D3F8F411E3
:1031D0008A4200D17047C3F8F42113F047BB00BF07
:1031E0006C640020704700BF0D4808B5417A11F0AB
:1031F00002010CD00B4B01211B6C483098470A4B45
:1032000000219A8A0948BDE8084025F099B9064B83
:103210009A8A02B908BD0648BDE8084025F090B971
:10322000E03F0020F03C00206C640020E9310010F9
:1032300035320010054B00215B7A9B07044B4CBFD5
:10324000044805489A8A25F07BB900BFE03F00207A
:103250006C640020E93100103532001070B504466E
:10326000E30707D4194B1B68002B2BD02046BDE881
:1032700070401847164D174E2B6D98473368B3B101
:103280000021154803E0DA68194682B113465A68EE
:103290008242F8D19A68002AF5D1DA6899B1CA60F9
:1032A00000220E495A600868DA6000B90B60EB6CC6
:1032B0009847C8220021084825F042F9034B1B68B3
:1032C000002BD3D170BD3260EAE700BFC0520020AE
:1032D000F03C00208C520020D52F0010E45000203C
:1032E00070B5124E0D46336D0446984710490B6871
:1032F000A3B1002003E0DA6818467AB113465A6891
:10330000A242F8D19A68AA42F5D1DA6860B1C260E7
:10331000002208495A600868DA6018B1F36CBDE809
:10332000704018470B60F9E70A60F1E7F03C0020B5
:103330008C520020E45000202DE9F04FC64D83B0A0
:10334000DFF88883E4220021284624F00BF94FF4AB
:1033500020720021C14824F005F94FF49272002137
:10336000404624F0FFF8BE4BBE4CC8F81431BE4BAB
:10337000BE4AC8F86030BE4BBE4FC8F86830BE4B7E
:103380000021C8F87C30BD4BC8F81821C8F880303F
:10339000BB4B4FF40472C8F88430BA4B2046C8E9DE
:1033A0001577C8F8D03024F0DDF80A2340F2FD325A
:1033B0002360B54BB54EC4F89C314FF08043C4F840
:1033C000A421B34AE361C4E914624FF6FF730122FA
:1033D000A4F80232134684F80A22AE4AAE492267A4
:1033E000AE4A2166C4F89C20AD4A85F8BD30C4F8C9
:1033F000F421AC4AE664C4F8242108F04FF900F047
:1034000053FE14F05DFD12F0C1F8FDF70BFEA64F60
:1034100000263B7860F300033B7000F08BFE14F055
:1034200059FD94F8F821397802F06003A3F16003A4
:10343000B3FA83F342F060025B0984F8F821DB0001
:10344000C2F3400243EA021321F0180103F018030B
:103450000B43FF2B3B700CBF01233346C5E933669A
:10346000C5E93566C5F8C86085F8C060C5F8DC6098
:1034700085F8BE300FD18D4BD4F80821C4F808313F
:103480008B4B8C481A60A36B98473B7885F8BE60DD
:1034900060F341033B70874E0DF1060196F8FC0086
:1034A00015F082FA8146002800F08D8196F8FD0023
:1034B0000DF1070115F078FA18B996F8FC3086F886
:1034C000FD309DF9060015F0D3F83B78814660F396
:1034D00082033B70002800F06E81002015F0DAFABC
:1034E000C36A2BB1006BB0F1000918BF4FF001099E
:1034F0003B7869F382033B7094F8F93113F00203CF
:1035000005D196F8F02163F3410286F8F0213B786B
:10351000FF2B06D010230021674885F8BC3025F02A
:1035200033F80121D4F88C3096F85C01984715F0F7
:10353000F5FC636F4FF000009847D4F8F0310BB101
:103540005E48984795F8BC30626E103B18BF012367
:1035500085F8BF30002A00F0E78096F8E331DF07F6
:1035600000F1E280B28A002A40F0E88094F8F93154
:1035700013F0060F40F0EC8094F8B63003F00C0323
:10358000042B06D14E4BD4F800211A604D4BC4F8E1
:103590000031D8F8B030002B00F023814FF0000943
:1035A0004FF0640A4FF0640B11F0F0FFEB7823B199
:1035B00096F9E231002B80F2B1805022002126489A
:1035C00023F0D0FF6FF001030020C5E904AB2B65A9
:1035D00015F054FA002840F0E480B38A697A003B81
:1035E00018BF012396F8802163F341016972D10766
:1035F00005D56B7FC2F3400262F3C3036B770BF018
:1036000069FED4F8D430984796F87201C0F34000B0
:1036100001F080F896F87A01A36D4FF0000100F0F8
:10362000010098470BF008FF17F000FA07F0F4FFCD
:1036300019F006F90CF09CFB2049234819F04AFBCD
:10364000D4F8903013B100210846984794F8FA3125
:103650009B0740F1A3803BE0E03F00201C6B002073
:10366000C9000110F03C0020CD2F0010150C0020E7
:103670003DC9011021300010F5DC0110FDDC011006
:1036800009720110C13100102531001071F20010D3
:10369000D12F00105110002039060020F50C002019
:1036A000D1A3011011300010282C0020E92F0010A8
:1036B000384C00206C64002039310010A8400020F4
:1036C000C05200205D3200106C4B0020C83B00202F
:1036D000D8F80030D4F8C400984796F97131002B1F
:1036E00053DA94F9F931002B07DA95F8C030002B42
:1036F0000CBF8020872024F053FF0DF085F807468B
:1037000098B385F8BD9011F041FFEB78002B3FF4A2
:1037100054AF96F9E231002BFFF64FAFBC220021E7
:10372000384823F01FFF4DE794F80532002B48D1AD
:10373000354BB28A6366002A3FF418AF0021334844
:1037400024F0FEFE94F8F93113F0060F3FF414AFA5
:10375000C3F38002C3F3400343EA420140F28A20EC
:1037600001F0030114F0ACF906E7D4F8D031FBB155
:10377000984785F8BD70074600287FF415AF00F024
:10378000C5FC384603B0BDE8F08F24F001FFB0F56A
:10379000807FA6D1012015F031FFA2E71AF042F98F
:1037A00096E7002015F076F964224368DA6014E7A2
:1037B00085F8BD30F8E615F07BF914F059FF814625
:1037C00096E6134BB5E715F0A1F8494615F076F8E3
:1037D000A8B190F9002043788DF8062086F8FC30D7
:1037E00064E694F8FB31D8077FF5D8AED4F81431ED
:1037F000002B3FF4D3AE074BC8F8B030CEE60246FC
:103800000B23E9E7E03F002061030020E9310010CD
:10381000810300209D310010F8B50E4F3B6893B135
:1038200000250D4E3268DC68D3E90110DD605D6073
:1038300022B188473C6034B12346F3E733608847C0
:103840003C60002CF8D1054B93F8BF3003B9FEE77C
:10385000F8BD00BFB0520020E4500020E03F00203F
:10386000F8B5134FC6B2BB6F04460D469847C0B2B9
:10387000B04209D020467B6F984706B12DB9BDE80C
:10388000F840202019F0F4BAF8BD07EE905A9FEDE9
:10389000097AF8EE677AC7EE877A074B17EE900A37
:1038A00099780BF07FFABDE8F840202019F0E0BAD3
:1038B000F03C002000007A44E03F002038B5044688
:1038C00024F066FE022801D1012038BD0DF086FAF1
:1038D0000028FAD0114B1A78002AF5D15D78002D16
:1038E000F2D10F4B20465B6FE4B298471CB10D4BF1
:1038F000B3F8F8301BB9202019F0BAFAE4E707EE64
:10390000903A9FED097AF8EE677AC7EE877A2946F2
:1039100017EE900A0BF046FAEDE700BFE03F0020FB
:10392000F03C00206C64002000007A440346302BF9
:103930004FF000000DD82D2B36D8142B14D80E2B99
:103940004BD9103B042B20D8DFE803F02B252E2881
:1039500036007F2B33D01A0629D5882B18D0892B17
:1039600030D14FF018007047173BDBB2152B36D81B
:1039700001221B4902FA03F3194061B9194A1342A3
:103980000FD140F60172134228D04FF0010070476A
:103990004FF0030070474FF0040070474FF01000E5
:1039A00070474FF0020070474FF008007047332B0C
:1039B000F4D9343B022B0FD84FF0200070474FF062
:1039C0003F00704783F08002072A98BF0120A3F1CF
:1039D000800398BF984070477047704770477047A2
:1039E00004003C0002E00100124A92F80832FBB9E0
:1039F000114892F8051290F8E40192F8072221EAA2
:103A0000000101F03F0100B522EA000281F03F0E03
:103A100002F03F026EF3070382F03F0C61F30F23C5
:103A200006486CF3174362F31F6303605DF804FB01
:103A3000704700BFF03C00206C640020404C002028
:103A4000024B82B0186802B0704700BF404C0020A3
:103A5000144B93F8083213B1134B186870471A4689
:103A6000114910B591F800C08C7891F803E04978BD
:103A7000C0B244EA0C0C4EEA01016CF3070360F398
:103A8000070261F30F2360F30F2264F3174360F31F
:103A900017426EF31F6360F31F6282B003EA0200F5
:103AA00002B010BDF03C0020404C002001460E4BFF
:103AB000A3F5C86C93F840268A4206D063450CD023
:103AC00093F83826083B8A42F8D16345D3F8440678
:103AD00005D0083B0028EDD0704704487047034BE1
:103AE000002808BF18467047C4EE02101C87021059
:103AF0000D289DBF012303FA00F080B2002070471B
:103B000084464FF6FF7000294ED061441CF8013BFB
:103B1000434003F0010202EB820002EB403282EAF2
:103B2000530202F0010303EB830003EB4033C2F3C3
:103B30004E025A4002F0010303EB830003EB4033D3
:103B4000C2F34E025A4002F0010303EB830003EB81
:103B50004033C2F34E025A4002F0010303EB8300EC
:103B600003EB4033C2F34E025A4002F0010303EB71
:103B7000830003EB4033C2F34E025A4002F00103CC
:103B800003EB830003EB4033C2F34E025A4002F0D2
:103B9000010303EB830003EB4033C2F34E025340B7
:103BA0008C4598B2B2D17047704700BF014B1B687B
:103BB000185C70479452002010B410B901220A4BCF
:103BC0005A700A4A0A4C1378246843B9B0FA80F351
:103BD00014F800C05B098C4518BF43F00103215461
:103BE0005DF8044B137070477066002070720020FF
:103BF000945200202DE9F047DFF8E8E00546BEF8D2
:103C0000B0C10F4616469846BCF1000F04D0BEF86E
:103C1000B24164448C4250D3B8F1000F43D1002E1E
:103C20003ED040462D4C711E052922684BD97B1C85
:103C30001344EB1A022BAE4645D902EB070C26F0D3
:103C400003014FEA960901EB0C035CF8044B634552
:103C50004EF8044BF9D18E42A6EB010407EB0103A9
:103C600005EB010C0DD0D15C012C05F8291008D012
:103C700013445978022C8CF8011002D09B788CF8F0
:103C80000230B8F1000F0BD03744D3195978D35D07
:103C900043EA0123181AB0FA80F04009BDE8F08722
:103CA0000120BDE8F0870D4C314620683844FFF70D
:103CB00027FF002EB7D12268E7E7094C246AA44603
:103CC000BDE8F04760477B1E29446C1E134413F87F
:103CD000015F04F8015FA142F9D1D2E794520020BC
:103CE00074530020F03C00202DE9F04FDFF80C92D7
:103CF0000646B9F8B0418A461746984683B02CB1BB
:103D0000B9F8B2512C448442C0F0A080B8F1000F41
:103D10007AD17549434681F80080002F00F0A180D8
:103D2000D4460AEB0702354600244FF0010A6F48DB
:103D300006F1FF3ED0F800B06D48CDE9003BDE440F
:103D40001CF8013B0DB980F801A044B9B5FA85F41F
:103D50009EF801B064099B4518BF44F001049445E6
:103D60000EF8013F05F10105EAD1DDE9003BE2462D
:103D70000C70B8F1000F1BD0F219DDB208D101228E
:103D80004270002C79D00BF8015BC3F307230CE0E1
:103D9000002C7ED00137BF190BF80250C3F3072364
:103DA00018BFBB4401D1012444708BF800300C7063
:103DB0004378FBB101230B704E4B1B7803B30122F8
:103DC000B9F8B0310270002B47D14B4C03E0CBB2B5
:103DD00034F82320A2B1B24203F10101F7D104EB80
:103DE000830292789B00042A0AD8DFE802F0760961
:103DF0006A617300D9F8AC315345DBD0002CDBD1BC
:103E0000012003B0BDE8F08F39465046FFF778FE39
:103E1000002335490B700346002F81D1334AC5B2C8
:103E2000D2F800B036B31BF80620C0F30723AA422D
:103E30002F4832460BEB060433D10132B3D0934402
:103E40009BF80040E41A18BF0124AEE7294CE4694E
:103E5000A44603B0BDE8F04F6047B34226D80271D4
:103E6000CEE723484378002BA4D1D9F8AC319A454A
:103E7000C6D19FE701221E4842709BF80020C3F381
:103E80000723AA422CD001228BF80050012493442E
:103E90008BE71BF80270C3F30723AF420BEB02045E
:103EA000CBD0013225703FF47EAFEFE700238CE7E3
:103EB00001221C44E378417902FA03F30B43437176
:103EC0009EE701221C44E378C18802FA03F30B4306
:103ED000C38095E70123C37092E7012383708FE7C6
:103EE00001240BF1010B60E7707200209452002056
:103EF00070660020745300200CF50210F03C002086
:103F00002DE9F047634FFC69002C00F09D80624D65
:103F10006B7843B10023614A184611680122A0471B
:103F200080F001006870AB785BB15C4A00231168D7
:103F3000012040F20622FC690131A04780F0010017
:103F4000A870EB7863B1554A0023116840F2BE3087
:103F50003E22FC6901F2BE31A04780F00100E8700A
:103F600095F805C0BCF1000F29D002244FF00109DB
:103F70002346DFF82881013B2CFA03F2D10717D53D
:103F800009FA03FE6FEA0E0E5842D8F8001000F04E
:103F90003E0000F241300EEA0C0C00233E22FE6986
:103FA000014485F805C05FFA8EFAB04700286BD14E
:103FB000012C04D0012495F805C02346DBE7EB88EB
:103FC0002BB34FF450790C24DFF8D08000E0EB885D
:103FD000E340DA070ED5D8F8001000231A2248462D
:103FE000FE694944B04728B10122EB88A24023EA88
:103FF0000203EB80013C631CA9F11A09E7D12B797C
:104000003BB9EB88C3B101232B70BDE8F0872B7956
:1040100093B1234BB3F8B221002A33D01F49B3F830
:10402000B00109680023FC690144A047EB8880F0D7
:1040300001002871002BE6D1AB78002BE3D1AB88CF
:10404000002BE0D1EB78DFE7BB6A002BDDD0134D0E
:1040500004242868984730B9013C0AD0BB6A286814
:1040600098470028F8D000220B4BC3E90022BDE896
:10407000F08702210B480EF01BFC0022064BC3E91F
:104080000022F4E72A71BCE76B790AEA030E85F88F
:1040900005E08DE7745300207066002094520020E4
:1040A000F03C0020A4900210F8B5144B144ED3F845
:1040B000A84133689C4211D8124B134F1C6820460C
:1040C00021F0FCFB0546386020B12246FF21346018
:1040D00023F048FA281E18BF0120F8BDB4F5805F10
:1040E00028BF4FF48054084F064D38682C600028D4
:1040F000E5D021F00BFC2C68E1E700BFF03C00208C
:104100002C2C0020302C00209452002010B5074C9D
:10411000206848B1064B1B7813B1FFF7F1FE206809
:10412000BDE8104021F0F2BB10BD00BF945200204A
:10413000706600202DE9F041454C464DD4F8A4317D
:104140002F68013B43F003030133C4F8A431002F6F
:104150006DD0414E04F5D07EB446BEE80F00ACE809
:104160000F00BEE80F00ACE80F009EE8070096F8CD
:1041700000808CE80700B8F1030F5ED0B8F1000FA3
:1041800032D10423354AC4E97188C4F8B421344AD1
:1041900084F8A031C4F8B821324AC4F8BC21324AAC
:1041A000C4F8C021314B187813F0DCF83378032BB6
:1041B00048D0F76947B10023B4F8B22118462968FE
:1041C00002F2FD32B8473378002B34D0284B072059
:1041D0009B68984728680022264B801AC3E9002272
:1041E00018BF0120BDE8F0810023B4F8B2213846A1
:1041F0001946376A02F2FD32B847307804220023AC
:104200001649C4E97133C4F8B411154984F8A021E2
:10421000C4F8B8111349C4F8BC111349C4F8C0114B
:104220000028BFD028680378172BBBD1D3E71249E9
:10423000124824F0A9F92868CDE73846736A9847F0
:104240003078DBE7B36A286898473378BCE700BF6B
:10425000F03C00209452002074530020AD3B00102D
:10426000B93B0010E93C0010F53B0010E4110310CD
:10427000C83B002070660020BC9002100D29011080
:10428000024B1B780BB1FFF73BBE704770660020F6
:10429000044890F8A031042B0CBF034800F5D070FF
:1042A000704700BFF03C002074530020F8B504694B
:1042B0002DED028B08EE101AE16B002942D000268A
:1042C0006425027D214B22F02002646802755A7F2A
:1042D0001F4F42F0800287ED1C8A02765A7F80EDE4
:1042E000008A42F0040286605A77027E42F004029D
:1042F00002765A7F42F001025A77037E43F00103AF
:1043000003760120E5608847D0ED007A28EE278A01
:10431000B5EE408AF1EE10FA10D00E4B9FED0E7AFA
:10432000D3ED1D7A67EE877AF4EEC87ABDEC028B86
:10433000F1EE10FA4CBF2B203046F8BD2920BDEC21
:10434000028BF8BD1420BDEC028BF8BDE03F0020CD
:10435000F84A00206C6400206666663F00B50E4A8D
:1043600092F89B3002F19C0C013303F0030303EB42
:1043700043010CEBC10C02F5807E82F89B30BEE855
:104380000F00ACE80F009EE803008CE803005DF826
:1043900004EB18F07FBC00BFF84A00200D4B9A696F
:1043A0000AB1DB69184770B40B4E0546B4460B4B97
:1043B000D3F8304120686168A268E368ACE80F0078
:1043C00020696169A269ACE807003046F56170BCFC
:1043D000704700BFC83B0020006E0020F84A002054
:1043E00038B50C2021F06AFA68B10446074B084D35
:1043F00093E807002B6884E807002BB11A469B68F6
:10440000002BFBD1946038BD2C6038BDE44A0020FD
:10441000E8520020472370B500F13604E4B23B2C8B
:10442000104D204628BF3B202B800AF0FFFA06469D
:10443000284623F081FE3146284423F07DFC3B2CA6
:1044400001D8084870BD0346074AA4F13B00128812
:104450001A800AF0EBFA0146284623F0D1F8014809
:1044600070BD00BF88480020B8D8021000487047CF
:104470004C2C0020274BF7EE007AD3ED0B6AF4EEBC
:10448000676A93ED0A7AF1EE10FAB4EE677A93ED6B
:10449000097AF7EE007A14BF01200020F1EE10FA3D
:1044A000B4EE677A93ED087AF7EE007A4FEA4000AF
:1044B00018BF40F00100F1EE10FAB4EE677A93ED08
:1044C000077AF7EE007A4FEA40001CBF40F0010087
:1044D000C0B2F1EE10FAB4EE677A93ED067AF7EE19
:1044E000007A4FEA4000C0B218BF40F00100F1EE80
:1044F00010FAB4EE677A4FEA4000C0B218BF40F03D
:104500000100F1EE10FA4FEA4000C0B218BF40F0CF
:1045100001007047342C002010B5044601B340F26E
:104520000113174AB2F86C21934319D017F038F9E8
:10453000002815DB134B00EB400004EB400003EBBD
:10454000800003EB8402D0ED277AD2ED026A92ED6F
:10455000467A77EEA67A77EE877A17EE900A10BD44
:10456000084B03EB8401D1ED027AD1ED406A91ED65
:10457000467A77EEA67A77EE877A17EE900A10BD24
:104580006C640020F84A002010B582B0019250B34C
:10459000022803D0504BD87102B010BD07EE902A0C
:1045A0004E4BF8EEE77A03EB4113D3ED0C6A87EE3E
:1045B000A67A4B4C484B01F14602A46903EB8202F8
:1045C00092ED006A82ED007A2CB9D3F8302102EB2B
:1045D000810282ED007AB4EE476AF1EE10FA14BF60
:1045E000012200224FE03E4B9B69002B57D13A4BF2
:1045F000002293ED4B5AB5EE405AD3F83011D3ED6B
:104600004A5A93ED496AD3ED486A93ED477AD3ED60
:10461000467AC3F82C214A61C3F828210A61C3F8FD
:104620002421CA60C3F820218A60C3F81C214A6093
:10463000C3F818210A60F1EE10FAF5EE405A14BFE3
:1046400001220022F1EE10FAB5EE406A18BF42F0E6
:104650000102F1EE10FAF5EE406A18BF42F00102D5
:10466000F1EE10FAB5EE407A18BF42F00102F1EE19
:1046700010FAF5EE407A18BF42F00102F1EE10FA9E
:1046800018BF42F00102D871002A85D04FF4806033
:1046900018F0EEFB02B0BDE8104018F0FBBA0E4B6C
:1046A000002293ED4B5AD3ED4A5A93ED496AD3ED6C
:1046B000486A93ED477AD3ED467AB5EE405AC3F88F
:1046C0002C21C3F82821C3F82421C3F82021C3F8E2
:1046D0001C21C3F81821AEE7F84A00206C640020C2
:1046E000C83B002071B1012905D1022200230270CC
:1046F00043708170704701220223002102704370D1
:10470000817070470A460123022102704370817054
:10471000704700BF2DE9F043AC4F8DB097F8BD4016
:10472000002C00F0B380AA4DAA4C00214FF49A72DD
:10473000284622F017FF94F87231A74ED90640F1AF
:10474000F080F369D4F8F4019847C5F830010028E7
:1047500000F0E780B169002900F0EC809F4B1C68F5
:104760002CB12046A46821F0D1F8002CF9D17A7F31
:104770009B4B002085F83820AB6614F08BF9994BE1
:10478000F7EE007AD3ED0B6AF4EE676A93ED0A7ADE
:10479000F1EE10FAB4EE677A93ED097AF7EE007A4B
:1047A00014BF01220022F1EE10FAB4EE677A93ED05
:1047B000087AF7EE007A4FEA420218BF42F001028F
:1047C000F1EE10FAB4EE677A93ED077AF7EE007A1D
:1047D0004FEA42021CBF42F00102D2B2F1EE10FADF
:1047E000B4EE677A4FEA4202D2B218BF42F0010239
:1047F000F1EE10FA93ED067A686367D0B4EE677A4B
:10480000F1EE10FA00F0D4804FF07E510022D96210
:10481000996259621962D9619961C3E90022C3E9B9
:104820000222C3E9042285F83A20022018F020FB76
:104830006D4995F8200012F05FFD10B90720B368AC
:10484000984797F8BD30002B60D0624B93F87131D8
:104850009B0740F18B80B46C74B100231822694629
:104860006148CDE90033CDE90233CDE9043322F0CC
:104870004BFE00286CD0A0471AF09EFA336B002B39
:104880004CD053480DB0BDE8F0431847504D4FF49D
:10489000807206462146284695F8209095F80780B4
:1048A00022F060FE514BD5F83001D3F81C31C269BB
:1048B000C5F890200BB1214698472EB1464E85F899
:1048C000209085F8078049E7434E47E7B4EE677AC2
:1048D000F1EE10FA4FEA8202D2B295D10021C3ED77
:1048E0000B7AC3ED0A7AC3ED097AC3ED087AC3EDFA
:1048F000077AC3ED067AC3E90011C3E90211C3E9DF
:10490000041185F83A10002A92D08EE7B46C002C7E
:10491000B1D11AF051FA336B002BB2D10DB0BDE812
:10492000F0830020F3699847B169C5F83001002988
:104930007FF414AF202222F015FE94F87231DA06CB
:104940007FF50CAFD4F8F421D5F83031DA6105E702
:1049500006A9C1E90100C1E90300069048611822D7
:10496000234822F0D1FD002886D084E70B2020497F
:1049700012F0C2FC60B90720B3689847B46C002CF1
:104980003FF47AAF97F8BD30002B7FF466AF72E743
:10499000182495F99B30DFF858C003FB0454BCE899
:1049A0000F009C340FC49CE8030084E80300E5E793
:1049B0000022C3ED0B7AC3ED0A7AC3ED097AC3ED89
:1049C000087AC3ED077AC3ED067A26E7E03F0020B8
:1049D000F84A00206C640020C83B0020E852002008
:1049E000204B0020342C0020004B0020F03C002005
:1049F000F84B002000487047204B0020002208B5EB
:104A0000054BC3E900229A6014F088FABDE808401B
:104A1000102018F02DBA00BF204B002008B5054A21
:104A2000054B82F825005B6F9847BDE808402020C1
:104A300018F01EBAF84A0020F03C002040B110B532
:104A400004462046A46820F061FF002CF9D110BD77
:104A5000704700BFB0B10C4B10B5D3F8C43004465A
:104A600003B19847237823B92046BDE8104020F0D1
:104A70004DBF204600210DF01BFF2046BDE8104031
:104A800020F044BF704700BFC83B0020014B1868AE
:104A9000704700BFFC49002038B5044620B3184BCE
:104AA000187808BB5B78F3B9164D94F8250084F8A4
:104AB000443095F825302A889842228004D0124B41
:104AC000B3F8F810FEF7CCFE0C22104904F12800D0
:104AD00022F01AFD50B14C2221460A4823F0B6FAC2
:104AE0000120AB6CEB6638BD002038BD064B226B55
:104AF000B3F8003194F82810686B14F061F9EAE714
:104B0000E03F0020F84A00206C640020204B002089
:104B10002DE9F04F037817465A1E1F2A044688468F
:104B200083B004D814F8013F581E1F28FAD93B2B34
:104B300053D02F2B3DD0002B68D0A2460026651CF9
:104B4000202B09D9292B05F1FF391BD03B2B14D081
:104B5000282B0CD0002E33D015F8013B002BEFD1C1
:104B6000002320468AF8003003B0BDE8F08F2E46BF
:104B700015F8013B002BE3D1F2E7002EECD189F8C8
:104B80000060EDE77EB13F4B93F899305BB905F8D3
:104B9000013C3D4B93F8FA315B0724D4002F4BD0F6
:104BA0003B68002B34D015F8013B0026002BC7D101
:104BB000D6E7364B1B7ADA060FD463780134BAE7AE
:104BC000A3F16102192A98BF03F05F030AF8013BC1
:104BD00015F8013B002BB3D1C2E700232046237018
:104BE00003B0BDE8F08F3378002BDCD017B13B6801
:104BF000002BD8D1DFF89CB0DBF8C830002BD2D026
:104C000030469847002688F80000A5E7A246A7E7A7
:104C1000DFF880B0DBF8C03023B130469847386009
:104C20000028C0D104223046194922F085FD38B150
:104C30003378002BE0D1B6E73378002BB3D0D9E737
:104C4000A9EB0602A2F103094846019220F036FEC4
:104C5000019A38600028EBD03379202B0FD1731DD7
:104C6000194613F801CBBCF1200FF9D006F1010968
:104C70009144A9EB01094A4623F0E8F993E7311D75
:104C8000F9E700BFF84A0020F03C0020E03F002098
:104C9000DC900210C83B002000212DE9F04FDFF826
:104CA000B4922DED088BD9F80431A54E5B1A18BFCC
:104CB000012396F89520B3B093EA020419918DF878
:104CC000631019AA0DF1630118BF86F89530FFF73C
:104CD0001FFF9DF8637080469FB90578252D16D07B
:104CE000CDB9199C64B1974BD3F8C4300BB12046B1
:104CF00098472378002B40F0C386204620F006FE1C
:104D00002F46384633B0BDEC088BBDE8F08F4278B3
:104D1000002A00F0B2808C4CF8220021204622F0BC
:104D200021FC4C22864904F1080023F08FF900226F
:104D300098F80010B36E24291046154607928DF896
:104D400018200A93ADF8142000F0DE8241460122BB
:104D50001A9200221C9291F800B01E92BBF1000F33
:104D600001F02084BBF1400F68D9BBF15A0F00F26B
:104D70008D86BBF14F0F65D1744A1AAB19461B9251
:104D800040461CAA049309F01FFF034609908DF8C2
:104D90006300002841F0EC87DDED1B7AF4EE677AC2
:104DA000F1EE10FAB0EE677A81F1B5838246089091
:104DB0000B90FCEEE76AF8EE665A9FED656A77EEB7
:104DC000E57A67EE867AF8FE677ACDED1C6ABCEE6E
:104DD000E78ABBF1470F63D0BBF14D0F40F0118262
:104DE0002278412A00F0D0801C98632840F2878105
:104DF0000022DFF850B11E92DBF8F820002A00F004
:104E00009D8018EE103A80B2002B00F0CC8200EBAF
:104E100080001FFA83FB00EB80000BEB800080B268
:104E200090478246002800F089801C9A02EB82029B
:104E300002EB82020BEB820292B2BBE2BBF1240FC7
:104E400040F024861AAB194640461BAA049309F089
:104E500013FF002801F08B8200239A4608EE103AD7
:104E6000CDE908330B93DDED1B7AF4EE677AF1EEB2
:104E700010FAB0EE677A9CD7ABE7027096F89520EF
:104E8000002A00F07482002C40F0FA8296F89420F8
:104E9000002A41F0518239231D468DF8633020E706
:104EA00000221E921C9A412A58D8412A46D8DFE88F
:104EB00012F0940294029402940284039402450036
:104EC000760376034500F70245004500450045009E
:104ED00045004500ED02ED02ED02480348034500A0
:104EE00045004500450045004500F7024500F70232
:104EF0004500450027044500450045004500EA03FC
:104F00004500E203450045006203450045004500B9
:104F100045004500620356035603450084038A0298
:104F20008A028A028A028A028A0245002C0445000B
:104F30004500450011044C2A00F0E2831427E0E606
:104F4000F84A0020C83B0020004A00200000C07F33
:104F50000000C842F03C00200000C07F592A40F207
:104F6000DC81A2F15A010929E8D8A2F15C010729E4
:104F700004F2FA82DFE811F0B1025A025A02AF02DB
:104F80004D024D026502650294F8E120930601F19D
:104F9000F18184ED1D7A42F0200284F8E1201A9A12
:104FA000511C1A9118F802B0BBF1000F00F0768581
:104FB000BBF1400F2AD8BBF1240F40F06785404673
:104FC00004991BAA09F058FE00286DD1BAF1020F0E
:104FD00041F0CD815FED207AB0EE677ACDED1B7A9E
:104FE00018EE103A002B40F04885BDEEC77AD4F891
:104FF000E01084ED327A11F0010308EE103A41F02E
:10500000B98101220A43C4F8E020C8E7BBF15A0F76
:1050100000F23C85BBF14F0F5ED1B64A40461B9271
:1050200004991CAA09F0D0FD8DF86300002841F016
:10503000A781DDED1B7AF4EE677AF1EE10FA1D9090
:105040000FD6BCEEE77AB8EE476ADFEDAB6A77EED3
:10505000C67A67EEA67AF8FE677A8DED1C7ABCEE0A
:10506000E78A18EE103A002B40F007859DF875206E
:10507000D4F8E01042F080028DF875201C9AC4F834
:10508000D0201D9A11EA020308EE103A41F0728115
:105090009A480242B6D0DDED1B7AF5EEC07AF1EE09
:1050A00010FAAFD504272CE69DED1B7AB4EE477AB3
:1050B000F1EE10FA94D6FCEEC77AB8EE678ADFED0F
:1050C0008E6A37EE488A28EE268AB8FE488ACDEDE9
:1050D0001C7ABCEEC88A83E7404604991BAA09F0F3
:1050E000CBFD00287FF4BFAEBAF1020F41F03F8143
:1050F000DFED837AB0EE677ACDED1B7A69E618EEC4
:10510000103A002B40F0B9848DED1E8A632800F21E
:105110004281DFE810F0F901F901F90197029702E5
:105120009702950476027602760240014001400122
:105130004001400140014001400140014001400167
:105140004001400140014001400140014001400157
:105150004001F9014001400140014001400140018E
:105160004001400140014001400140014001400137
:105170004001400140016A006A006A006A00400183
:105180006A00400140016400400140014001F90112
:10519000AA0462026202620262028704020302033C
:1051A00040015B025B025B025B0240014001400187
:1051B00040014001400140014001400140014001E7
:1051C00040014001400140014001400140014001D7
:1051D0004001400140014001400140017704494A3B
:1051E00092F8802153077FF5A9AE4FF0000A4FF4E3
:1051F00080126070154208BF2A4340F0398215467C
:10520000CDE60022ABF1240B1D92BBF1360F3FF629
:1052100095AE01A252F82BF0E14F00103D4F001067
:105220003D4F00103D4F00103D4F00103D4F00100E
:105230003D4F00103D4F00103D4F00103D4F0010FE
:105240003D4F00103D4F00103D4F00103D4F0010EE
:105250003D4F00103D4F00103D4F00103D4F0010DE
:105260003D4F00103D4F00103D4F00103D4F0010CE
:105270003D4F00103D4F00103D4F00103D4F0010BE
:105280003D4F00103D4F00103D4F00107F57001064
:10529000655700104B570010355700104759001044
:1052A0002D5900103D4F0010F1580010D558001036
:1052B000B95800109D580010655800103D4F00105F
:1052C0004958001063500010735900105D590010C8
:1052D0008959001031580010D5570010C1570010DF
:1052E000AD57001099570010E7590010C959001028
:1052F0009F5900100000C07F0000C84280CA1800FB
:105300000000C07F6C6400200120A27208F103013C
:1053100004222081ADF814001AE5482A7FF60EAE6B
:105320004FF0010CC449A2F149000CFA00F0014011
:10533000002940F08C80502A7FF4FDAD9DF8781054
:1053400041F002018DF878102281002284F8432078
:10535000022218EE103A002B40F08F8315EA020368
:1053600008EE103A40F084819A46154317E696F805
:105370009420DFF8CCB282F0010286F89420DBF8AA
:10538000EC2012B196F89400904798F80050002D48
:105390003FF4A7ACBFE4DFF8A8B2DBF8F820002A9E
:1053A0003FF4CCAD80B29047824600283FF4C6ADB2
:1053B000BDF8702062809DF87A2042F020028DF8BE
:1053C0007A201E9A16E7A2F136013B2A84F82810AB
:1053D00001F045804FF40062BBE7089B002B41F0D1
:1053E000E0829DF87810052A41F002018DF87810CE
:1053F00041F0A88018EE103A23B10A2B08BF3322DF
:105400007FF49CAD2281002284F84320022208927E
:10541000A4E78A49097E02297FF490AD603A82F0C0
:10542000010284F855204FF4005292E7C2F15E0267
:10543000A2729DF8782042F020028DF87820202278
:1054400087E7623A84F841204FF4007281E7089BB5
:10545000002B41F0A68291B23288059B521A18BFE8
:10546000012262F34103059302239DF8782084F81A
:1054700043C01A438DF8782021811A46089368E7C3
:105480000122DFF8BCB186F8942078E7113AA273C4
:105490009DF8782042F004028DF87820042258E725
:1054A00018EE103A002B41F06A80089B002B41F067
:1054B00078829DF878101C2A41F0010122708DF845
:1054C000781041F058840123089318EE103A1A44DA
:1054D0002270012242E70222AAE718EE103A002BBE
:1054E00041F03480089B002B41F05B8201239DF842
:1054F0007820089342F001028DF8782018EE102AE7
:105500005C322270012229E7002800F0558701282B
:1055100040F0498799F80022910641F16380D9F85B
:105520006C20904780F02002C2F34012002A00F065
:10553000738201224FF0000A84F82C204FF40042BD
:1055400058E6A2F11402B2FA82F25209E2729DF810
:10555000782042F040028DF878204022F9E6A2F14E
:105560003302B2FA82F20423520984F842200893EB
:105570004FF48062EDE6312A00F0C78718EE103A4A
:10558000002B40F0CE87DFF8B8B0DBF81820002AF7
:105590003FF4D4AC0122E2734FF48072DEE6274977
:1055A000097E02297FF4CAACA2F10702B2FA82F2A4
:1055B000520962734FF48042CBE622709DF8782046
:1055C00042F001028DF878200122C2E684F8F4004E
:1055D0002A464FF0000A1546E1E41AF05DFB800709
:1055E0007FF5ACAC012108461AF016FA00283FF40A
:1055F000A5AC9DF870304FF0000A4FF4803209934B
:10560000F8E5059B082843F48073059300F0C486F1
:10561000092800F0B88699F80A2292077FF58EAC27
:1056200094F82D204FF0000A42F0020284F82D2059
:105630004FF40022DEE500BF013701006C6400205A
:10564000C83B0020A0F10401421FB1FA81F118BF4C
:105650000122490942EA410294F854104FF0000A2D
:1056600021F003010A4384F854204FF48022C1E55D
:105670001527FFF746BB9DF8782042F080028DF891
:105680007820802265E6D9F81021002A3FF456AC34
:1056900018EE103AA3F114011E293FF64FACC74A89
:1056A000CA40D2077FF54AACC54AA2FB0312D20812
:1056B0008A321C92089B002B41F0738192B22281A6
:1056C000002284F843209DF8782042F002028DF8F1
:1056D00078209BE6412218EE103A22709DF878203F
:1056E00042F001028DF87820002B7FF427ACDFF820
:1056F000D4B2DBF81C21002A3FF420AC01222DE6B5
:1057000018EE103A002BD5D018E418EE103A002B02
:105710007FF414AC4FF4805220E61AF0BDFA420731
:105720007FF50CAC012100201AF076F900287FF4F7
:1057300060AF03E4D4F8E01084ED167A0A0600F1B5
:105740001986DDED1B7A8022A7E4069BD4F8E010D1
:1057500043F0200306930B0784ED2A7A00F10A86B2
:1057600008224FE4069BD4F8E01043F010034A07E8
:1057700084ED297A069300F1FD85042242E4069B1C
:10578000D4F8E01043F0080306938B0784ED287AE1
:1057900000F1F085022235E4D4F8E01084ED247A9B
:1057A0000B0200F1E7854FF400022BE4D4F8E0107F
:1057B00084ED237A4A0200F1DD854FF4800221E472
:1057C000D4F8E01084ED227A8B0200F1D3854FF4F7
:1057D000001217E418EE103A002B40F04E81DFF86B
:1057E000E4B11C98DBF81820002A00F0C685DBF82D
:1057F0001C209047B0FA80F04009002841F06483F3
:10580000DDED1B7AF4EE677AF1EE10FA68BF4FF027
:10581000FF32D4F8E01078BF1C9A11F4801308EE20
:10582000103AC4F8D82040F0A5854FF4801234E433
:10583000D4F8E01084ED217A0A0300F19B85DDEDB8
:105840001B7A4FF4002228E4BDEEC77AD4F8E010AA
:1058500084ED337A4A0400F18D85DDED1B7A4FF437
:1058600080421AE418EE103A002B40F00681B4EEA4
:10587000477AF1EE10FA68BFFF22D4F8E01078BF43
:105880009DF8702011F4805308EE103A84F8DC2063
:1058900040F070854FF48052FFF7B4BB079BD4F8FB
:1058A000E01043F0040307934B0684ED1B7A00F1EC
:1058B00061854022FFF7A6BB079BD4F8E01043F0B8
:1058C00002038A0684ED1A7A079300F15385202299
:1058D000FFF798BB079BD4F8E01043F00103079350
:1058E000CB0684ED197A00F145851022FFF78ABBBB
:1058F00018EE103A002B40F0C080B4EE477AF1EE7B
:1059000010FA68BF4FF0FF32D4F8E01078BF1C9A4D
:1059100011F4006308EE103AC4F8D42040F02A8550
:10592000DDED1B7A4FF40062FFF7B7BBD4F8E0104F
:1059300084ED187A8A0500F11D85DDED1B7A4FF4A0
:105940000072FFF7AABBD4F8E01084ED177ACB05FC
:1059500000F110854FF48072FFF754BBD4F8E010CB
:1059600084ED1F7A8A0300F105854FF40032FFF7BA
:1059700049BBD4F8E01084ED1E7ACB0300F1FA8421
:105980004FF48032FFF73EBBD4F8E01084ED207A6C
:105990004B0300F1EF844FF48022FFF733BB069BEB
:1059A000D4F8E01043F004034A0184ED277A06930B
:1059B00000F1E0844FF08062FFF724BB0104104047
:1059C000CDCCCCCCC83B0020069BD4F8E01043F0F3
:1059D000020306938B0184ED267A00F1CB844FF00D
:1059E0000072FFF70FBB069BD4F8E01043F00103F1
:1059F000CA0184ED257A069300F1BC844FF08072D1
:105A0000FFF700BB6322DFF890B084F82C20DBF8AE
:105A10002021002A3FF492AA4FF0000A4FF40042DE
:105A2000FFF7E8BB1AF038F901077FF587AA0021D4
:105A3000012019F0F1FF014600287FF4DAAD73E68A
:105A4000D9F8242190478246002840F06984114A01
:105A5000127F042A3FF4BCADD9F8E020002A3FF4BD
:105A60006DAA4FF40032FFF7C5BB01234FF0000AC7
:105A70004FF400320B93FFF7BDBB1727FFF741B977
:105A8000002120460CF014FFFFF737B90127FFF77C
:105A900038B900BF6C640020C83B00209DF8783006
:105AA000DB0703D52378412B00F062859DF8182091
:105AB000002A00F06185089B002B00F0AC8496F86A
:105AC00098301BB1089B022B00F0A88494F8E130B9
:105AD0005B0605D5B64BD4F8CC10994200F39485FB
