:020000041000EA
:10000000002008205D0100101301001015010010F0
:100010001101001011010010110100101101001058
:100020001101001011010010110100101701001042
:100030001101001011010010190100102903002006
:100040001D0100101D0100101D0100101D010010F8
:100050001D0100101D0100101D0100101D010010E8
:100060001D0100101D0100101D0100101D010010D8
:100070001D0100101D0100101D0100101D010010C8
:100080001D0100101D0100101D0100101D010010B8
:100090001D0100101D0100101D0100101D010010A8
:1000A0001D0100101D0100101D0100101D01001098
:1000B0001D0100101D0100101D0100101D01001088
:1000C0001D0100101D0100101D0100101D01001078
:1000D0001D0100101D0100101D0100101D01001068
:1000E0001D0100101D0100101D0100101D01001058
:1000F0001D0100101D0100101D0100101D01001048
:100100001D0100101D0100101D0100101D01001037
:1001100000BE00BE00BE00BE00BE00BEEFF3058004
:10012000103800BEF2EB887184190310A019031077
:10013000A801001090A31AE7D3DEFFFF42012110AF
:10014000FF01000038510300793512AB4FF0000079
:100150002049086006C881F3088810474FF05040D6
:10016000006810B14FF00000F2E70FA40ECC002998
:1001700002D000F015F8F9E71749184A002000E00E
:1001800001C19142FCD1002080F30A8814498847BC
:10019000144988471449884700BEFDE701C901C2D8
:1001A0009A42FBD3704700BFA01903101001002032
:1001B000E0390020705203100000082000000820E1
:1001C00070520310001008200010082000000000EA
:1001D0007047000008ED00E0E03900206072002068
:1001E000595402103D02001051540210F8B500BFDE
:1001F000064B0749C91A891048BF0131491003D07D
:10020000044B0BB101481847704700BFE03900208C
:10021000E03900200000000008B5054B1BB105497E
:100220000548AFF30080BDE80840FFF7E1BF00BF1D
:100230000000000070520020D880021008B502F0C3
:10024000E9FD002008BD00BF08B588470020002157
:1002500008BD00BF044B142293F85B314340C3F345
:10026000000343EC4020704744640020002300B5A5
:1002700083B0009310EE183010EE18E010EE18C0A6
:1002800010EE180010EE181010EE1820CEF3805E5D
:10029000C3F3405343EA4E03CCF3C05C43EA8C0300
:1002A000C0F3006043EAC003C1F3406143EA0113B5
:1002B000C2F3806243EA42138DF80030009803B025
:1002C0005DF804FB704700BF4FF00000704700BFAF
:1002D00072B603681943016062B67047034672B68E
:1002E00000681A6822EA0101196062B6704700BF0F
:1002F000034672B60068196062B67047014B186811
:10030000704700BFA84900202DE9F0470026884625
:1003100091462F4C2F4D237F43F001032377EF6845
:10032000AB7AA7F1010CBCFA8CFC627F95F800E077
:100330004FEA5C1C6361EB696CF304122671494659
:10034000204684F805E0A760236162770136C04744
:100350000D2E05F12005E2D102231F4D1F4FDFF8BE
:1003600084A0A3830EE0272B0CBF524600226B69AA
:100370004946C4E9032316480136C047292E05F132
:100380001C050BD0EB68287A29786A68252B267122
:1003900060616171A260E6D13A46E8E7104B1D68E2
:1003A0000023E3608DB1EB68267163612B782F8A9F
:1003B00063716B686A6949460548A360A783226137
:1003C000C047AD690136002DEDD1BDE8F08700BF13
:1003D000403F0020182A002008270020D880021063
:1003E00048530020DC8002100D4B1B6813B9704786
:1003F0009B69A3B193F800C08445F9D110B45C683F
:100400008C4208D09B693BB193F800C08445F9D178
:100410005C688C42F6D15A615DF8044B70477047B6
:100420004853002070B504461C2024F0B3FFA8B147
:1004300084460546002620686168A268E368ACE847
:100440000F00084A206961691368ACE80300AE61D7
:100450002BB11A469B69002BFBD1956170BD1560CD
:1004600070BD00BF4853002000B58BB0684626F031
:10047000ADFD044B0448C01A079BC01A0BB05DF8D1
:1004800004FB00BF6072002000000820064C08B585
:100490000648D4F8C030984700216420E36B9847A1
:1004A0000021084621F020FBC83C0020E480021017
:1004B00010B5937882B0FF2B14468DF807101AD030
:1004C0006268012A12D0207803F05EF80121034609
:1004D0000DF1070208461FF04DF850B19DF80700D6
:1004E0006070FF3818BF012002B010BD426993420E
:1004F0000AD06078F5E712787632D2B2052ADFD8D2
:100500000020637002B010BD836A002BE6D1F0E7D3
:1005100021F03ABA2DE9F84F01252A4C4FF0000896
:100520008146AA4604F5447B02E01C345C452CD08D
:10053000E368242BF9D163680B2BF6D0207A20F0E6
:100540006DFA0428F1D0207A20F02AFB2378207A53
:10055000062B33D0C02B31D0A0F1200CC0F12001EC
:1005600005FA0CFC25FA01F14746434605FA00F668
:100570004CEA010242EC24606368012BD5D10421CE
:100580001C3420F02DFA5C45D2D199F800300E4A87
:10059000A3F11703B3FA83F30C4C5B0948464FF001
:1005A0000001D2F808212370904710EE103003F4B8
:1005B0007C5320EE10302078BDE8F88F4AEC4000E4
:1005C000CAE700BF08270020C83C00204172002075
:1005D00088B170B5064600244FF00003E2B262F322
:1005E000070362F30F2363F30F0528460134B04776
:1005F000062CF1D170BD7047002110B504461120C2
:1006000020F012FB0121104A104B10681A6881403B
:1006100022EA01021A60D3F8702122F48072C3F832
:10062000702184B110EE103003F47C5320EE1030B2
:100630000020074A074B08491B6890700968126838
:10064000043341F8232010BD4C6A002000003050D4
:10065000B82B0020446A0020306A002000B17047A7
:100660000149024811F0E0BE108102101881021009
:1006700038B51B4C00214FF03F00D4F88C30984720
:10068000184B194A1968236A1848A2FB0323026809
:10069000B2EB131F0FD01C09154B164D1A6801EB56
:1006A0004103046002F01F0205EBC303081D45F877
:1006B0002040C3F8D82001230E4A8B401068034223
:1006C00008D111680B431360D2F8703143F4807382
:1006D000C2F870310121BDE83840112020F0A4BAE1
:1006E000C83C00204C6A00201F85EB514453002079
:1006F000506A0020000030502DE9F0410D4684B0D2
:1007000010B3044631B320F0A5FF064621F03CF9B2
:100710000B4602464FF47A704FF0FF3C6FF00047F3
:10072000E4FB0023944577EB03014FF00001154CE7
:100730003CBF62463B46304601950094029120F052
:100740008DFF04B0BDE8F0810029FAD004B0BDE807
:10075000F04108474FF47A720B4E02FB04F4B76A7B
:10076000B36ADB1BA342ECD2DFF82080D8F85850E4
:1007700027F076FCA847B36ADB1B9C42F6D804B08E
:10078000BDE8F0814902001000000B40A03B0020B2
:100790002DE9F0416A4D82B0064608460F462C7896
:1007A00002F0C4FE0190002E45D0664B93F87A31DA
:1007B000DB0740D50026FFB26A68013C4FEA4418C7
:1007C00002EB441357B9FEB100220F21987A20F0B2
:1007D00063F9002CF0D102B0BDE8F08112F80800F6
:1007E00002F012FE6B68C0B24344DA68B2F5007FD3
:1007F0000CBF9DF804209DF8052000EA0206003E8B
:1008000018BF0126002EDFD11A89C2F34412102A24
:1008100073D8DFE802F0938C85727E727272777201
:100820007272727272726D0000220F21987A20F03B
:1008300033F9002CCFD06B68013C03EB4413002E3E
:10084000F2D01A89C2F34412102A2AD801A151F811
:1008500022F000BF2908001099080010E1080010DC
:10086000A3080010D1080010A3080010A30800106E
:10087000A3080010C1080010A3080010A30800106E
:10088000A3080010A3080010A3080010A30800107C
:10089000A3080010B108001001220821987A20F066
:1008A000FBF8002C97D06B68013C03EB4413C8E7BE
:1008B0000122987A114620F0EFF8002CF3D18AE754
:1008C00001220221987A20F0E7F8002CEBD182E790
:1008D00001220C21987A20F0DFF8002CE3D17AE78E
:1008E00001220421987A20F0D7F8002CDBD172E79E
:1008F0000122987A114620F0CFF80026002C7FF4D0
:100900005BAF68E701220221987A20F0C5F8002643
:10091000F4E701220C21987A20F0BEF80026EDE7DA
:1009200001220421987A20F0B7F80026E6E7012298
:100930000821987A20F0B0F80026DFE7002643E788
:10094000145100204464002010B50389044603F4C8
:100950007871802982B01CD010EE1820403918BF61
:100960000121807AC240607A82EA900202F001029C
:100970008A420ED0C3F34413102B47D8DFE803F0AC
:10098000585B5E46614646464846464646464646AB
:100990005000E268B2F5806F05D0B2F5801F53D0E9
:1009A000B2F5007FE6D10023009310EE183010EE70
:1009B00018E010EE18C010EE180010EE181010EE2F
:1009C0001820CEF3805EC3F3405343EA4E03CCF3CA
:1009D000C05C43EA8C03C0F3006043EAC003C1F388
:1009E000406143EA0113C2F3806243EA421303F019
:1009F0003F038DF80030009827F002FBC0B230B3FF
:100A0000144B00981B6E98472389B3E702B010BDC2
:100A100001220221A07A02B0BDE8104020F03CB8CB
:100A200001221146A07A02B0BDE8104020F034B88F
:100A300000220F21EEE701220821EBE70122042129
:100A4000E8E701220C21E5E7204601F0E1FD2389DA
:100A500090E700BFC83C002038B582780446FF2AE2
:100A600004D103787633DBB2052B25D9012100238D
:100A7000084662181EF07EFD0546D0B121788C290B
:100A80000AD08F2908D0002228461EF0E5FD6078A4
:100A9000FF3818BF012038BDA07820F081F801236D
:100AA000A078834040EE143004211FF099FF217894
:100AB000E9E7FF23637038BD6270002038BD00BFD6
:100AC00010290AD8DFE801F00A0F140919090909E9
:100AD0001E090909090909092300704700220F218D
:100AE000807A1FF0D9BF01220821807A1FF0D4BF7D
:100AF00001220421807A1FF0CFBF01220C21807ACD
:100B00001FF0CABF01220221807A1FF0C5BF012257
:100B1000807A11461FF0C0BFCB4B1B78002B00F032
:100B2000E1802DE9F04FC94CD0ED587A94ED087A68
:100B3000DFEDC73AF8EE475AB0EE006ADFEDC54A7E
:100B400037EE866AB2EE045A85EEA37A77EEE47A3F
:100B5000D0ED596A9FEDC04A27EE067A67EE857A96
:100B6000BAFE477AFCEEE77AF4EEC46A17EE903AE2
:100B7000BCEEC77AF1EE10FAB849B94A83B08046A4
:100B800081ED027A537040F2C28176EEE46A66EE3D
:100B9000856AFCEEE67ACDED007A9DF8003098F893
:100BA0005811022001F0010113701FF065FF98F841
:100BB0005911082001F001011FF05EFF98F858114B
:100BC0000320C1F340011FF057FF98F85911092085
:100BD000C1F340011FF050FF98F858110420C1F3F1
:100BE00080011FF049FF98F859110A20C1F38001D4
:100BF0001FF042FF98F858110520C1F3C0011FF003
:100C00003BFF98F859110B20C1F3C0011FF034FFCE
:100C100098F858110620C1F300111FF02DFF98F825
:100C200059110C20C1F300111FF026FF98F858113C
:100C30000720C1F340111FF01FFF98F859110D2034
:100C4000C1F340111FF018FFD4F8883001209847F5
:100C50000022DFF81C920D264C4611461046814BAF
:100C60001FF03EFF002115201FF0DEFF98F87B31BA
:100C700098F87CA17C4F8AEA030ACAF340130093D8
:100C8000CAF30013019394F88A011FF089FF94F8C6
:100C90008031013E3D2B26D81E2B2ED91F3B1E2B0B
:100CA0002BD8DFE813F0A900A900A9002A002A0028
:100CB0009900990099002A002A008300830083008C
:100CC0002A002A00240124012A00150115012A0006
:100CD000000100012A002A002A002A002A002A0016
:100CE0002A0022007047C32B07D109EB4612138953
:100CF00023F47E7343F0480313817501D4F88C31DB
:100D000013F4C06F0BD009EB05035A7A12F0040FED
:100D10000CBF012102211A8961F349121A814D4445
:100D20002B7A94F88A0103F01803082B0DBF0121D8
:100D30000021012200221FF07BFE697A94F88A01CB
:100D4000C1F380011FF088FED4F88C311F4200F0FF
:100D5000E08094F88A010F211FF016FF203C002E3E
:100D600091D1424E1C25344602E01C3C002D63D03C
:100D7000D4F80033013D242BF7D194F8F4328A3BA8
:100D8000072BF2D801A252F823F000BF990E0010F1
:100D9000870E00106B0D00106B0D00106B0D001016
:100DA0006B0D0010750E0010130E001098F87C21CA
:100DB00009EB4610018942F3800202F0030282F03F
:100DC000010221F48361CAF380039B0243EAC20358
:100DD0000B430381750191E798F87C2109EB4610DC
:100DE000018942F3400202F0030282F0010221F481
:100DF0008361CAF34003E8E798F87C2109EB4610C9
:100E0000018902F00102013221F483610AF0010339
:100E1000DBE7C5EBC50398F8F62006EB8303597CA6
:100E20001C3C62F38201597494F81803C1F38001E9
:100E30001FF022FE002D9BD10121152003B0BDE83B
:100E4000F04F1FF0F1BE00BF41720020C83C0020EF
:100E500000247449CDCC4C3ECDCC4C3F346A0020AC
:100E6000B82B002065020020000610000827002093
:100E7000182A002098F8F620C5EBC50306EB83037B
:100E8000C2F34002CBE798F80821C5EBC50306EB97
:100E90008303C2F34002C2E7C5EBC50398F80821FB
:100EA00006EB8303BBE798F87C3109EB4610018918
:100EB00043F3401303F00303009A83F0010321F48A
:100EC0008361920242EAC3030B430381750115E774
:100ED00098F87C3109EB4610018943F3001303F0C5
:100EE0000303019A83F0010321F48361E9E798F891
:100EF0007C2109EB4610018942F3C00202F0030293
:100F000082F0010221F48361CAF3C0035DE702238A
:100F100045E6298904F5C070C1F34411FFF7D0FDFF
:100F200017E700BF2DE9F04F2DED028B00244FF0A5
:100F3000E023032640F2E732874D884995B0696087
:100F400087490520A9608749A346E9605A619C61E9
:100F50001E61854B854AAB63854B2A612B621FF06E
:100F60004FFC4FF48062834BAA62A3FB00239B0CCF
:100F700007EE903AB2EE047AF8EEE76A6B627E4BC7
:100F80004FF07E526B637D4BC6EE877AEB637C4BF2
:100F9000EA61C5F808317B4B7B4AC5F884307B4B4E
:100FA000C2ED007AC5F88830794BDFF84882C5F881
:100FB0008C30784BC5F89430774BC5F89830774B28
:100FC000C5F8AC30764BAB65764BEB65764B6B6713
:100FD000764BAB67764BEB66764BC5F8D831764BE4
:100FE000C5F8D431754B2B64754B6B64754BAB6492
:100FF000754BC5F8CC31754BC5F89431744BC5F8B9
:10100000983100F04BFD00F0BDFF19F00FFA4FF4DE
:101010008053704AC5F8A8316F4BC5F8C42185F8D4
:10102000A061C5F8C83102F0ADFD6C4B3F221978C4
:10103000D3F8049008466A4B6A4ED3F804A01F7890
:1010400095F8F831864623F06F0343F06F0306915D
:1010500010923146A446204685F8F8310B92C5F827
:101060000422ADF82440ADF84040A5F808420594AC
:1010700004940FE013F4C06F07D0BAF1000F00F032
:101080000A824FF0010C0137FFB201300D2801F147
:10109000200134D006EB40131A79440122F01902E2
:1010A00042F009021A711A7A22F0190242F009027A
:1010B0001A728B7A48F82310CB68B3F5801FD9D108
:1010C0000EF13F0234440EF1010BB9F1000F00F0B4
:1010D000DE8181F80BE00A70A388013023F4787375
:1010E0005B045B0C43F4034343F0E0030D285FFA19
:1010F0008BFEA3804FF0010B01F12001CAD1BCF19E
:10110000000F01D0364B1F70059B13B1344BC3F851
:1011100004A0BBF1000F00F00B82304B83F800E01D
:10112000049B13B12D4BC3F804904FF000092E4BD4
:101130002E4E1A78D3F804B02D4B17461978D3F8F1
:10114000048030468C46CA464B46CDE90621CDF890
:101150001490CDF8109057E0C83C00202C8102106C
:10116000348102103C8102101505001048810210E4
:101170008096980083DE1B4369040010F906001076
:10118000190B00107106001078530020F9050010AB
:1011900055020010DD01002011010020D1050010D2
:1011A000910700106D020010C5020010C902001066
:1011B000B901002011050010FD020010D10200103D
:1011C000DD020010F10200100903001025040010D8
:1011D000E9030010A5200010C1200010A046002047
:1011E00014510020182A0020C046002008270020A3
:1011F000B8460020385000200B2C00F050810133FD
:101200001C2B00F11C001ED0C3EBC30206EB8202B4
:10121000117C446841F00201092C11744FEAC302A9
:10122000EAD1ACF16E020CF1010CB8F1000F00F044
:10123000488101331C2B02704FF0010A5FFA8CFCCD
:1012400000F11C00E0D1DDE90621B9F1000F00F04A
:101250006D81B94B1F70059B13B1B74BC3F804B038
:10126000BAF1000F00F06081B44B83F800C0049B1A
:1012700013B1B24BC3F804805EEA0C0C05D0AF4941
:10128000AF4801F0E7F9AC4B1F78002F40F0F78131
:1012900001F016FDAB4C04F124076668012E00F046
:1012A0001881A378FF2B00F031816378FF2B02D0E7
:1012B0002046FFF7D1FB0C34BC42EED19F4B1B788C
:1012C000022B57D9012102220846D5F854319847FC
:1012D00058B143797633DBB2022B40F2D78101213A
:1012E00002220846984B1EF00FFB944B1B78032BF1
:1012F00040D9012103220846D5F85431984758B106
:1013000043797633DBB2022B40F2C58101210322FF
:1013100008468E4B1EF0F8FA884B1B78042B29D90F
:10132000012104220846D5F85431984758B1437931
:101330007633DBB2022B40F2B3810121042208464E
:10134000834B1EF0E1FA7D4B1B78052B12D901214E
:1013500005220846D5F85431984758B14379763379
:10136000DBB2022B40F2A181012105220846794B14
:101370001EF0CAFA784A794B79481A661AF0F0FFDB
:101380000021784824F086FA0346774C774975485F
:10139000236024F09BFA00220F92754A754B92ED60
:1013A000008A4FF4402218604FEAC01E431D0E927F
:1013B0004EEA033E4FF480324FF4F8338446CDE9D1
:1013C0000C230CAE10AF96E80F0087E80F002468DE
:1013D000CDF844E097E80F0086E80F0033466246F8
:1013E0002146604824F042FBDFED637A78EE277AED
:1013F000BCEEE77A17EE103A9BB2002B00F0928019
:1014000007EE103AB8EE477ADFED5C6A77EEC77AFE
:1014100067EEA67AFCEEE77ACDED047A9DF810200F
:10142000120242EA034204EB4403DB0003F1A0434F
:1014300003F54013C3F8C820112051491FF016FCD2
:10144000002111201FF030FE4FF000080623022477
:10145000CDE901384B4A4C494C480AAB009424F082
:1014600059FB002840F0968024F056FF0DF048F814
:1014700024F098FD24F04EFE2868A0F10A00B0FA8E
:1014800080F0400915B0BDEC028BBDE8F08F012360
:10149000894604931DE601238A460593F1E5BBF1D5
:1014A000000F12D04FF00109D21A06EB8202517CD4
:1014B00041F008015174A7F156024F440270FFB287
:1014C0009DE6012180460491B3E601218346059102
:1014D000E8E74FF4A032314630462D4B00941EF021
:1014E00071F900283FF4E7AE002331463046621C14
:1014F0001EF040F8A06000283FF4DDAE0022217805
:101500001EF0AAF82046FFF7A7FAD4E601214FF40F
:10151000804208461E4B00941EF054F900283FF408
:10152000CAAEC5E61A467CE78C46A0E6174692E6A8
:10153000DDF818E0F4E500BFC0460020B846002002
:10154000A0460020BC2B00206C810210708102108C
:1015500074810210788102105D060010A03B00200B
:10156000F8260020000030504C6A002024E80210C9
:1015700078530020506A00200000003B00008043A8
:10158000C1010020446A0020306A00200CE80210EB
:10159000B1040010474BDDF828B093ED008A464BAC
:1015A000CDF83C80D3F80090444B4FEACB1CD3F8E5
:1015B00000A04FF440230E9309F12F4303F560037D
:1015C0004FEA13580BF106034FF480324CEA033C08
:1015D0004FF4F833CDE90C2396E80F0087E80F00AD
:1015E000DFF8ECE008F10608CDF844C097E80F00FA
:1015F0005FFA88F886E80F00CDF83CE020464146C7
:1016000001341FF0EDF9082CF8D1012302225146D4
:1016100000934846062324F0E3F933465A465146E0
:10162000484624F023FADFED267A78EE277ABCEEDE
:10163000E77A17EE103A9BB233B307EE103AB8EEE2
:10164000477ADFED206A77EEC77A67EEA67AFCEE7E
:10165000E77ACDED047A9DF81020120242EA0343A6
:101660000AEB4A0209EBC202C2F8C8300123D9F8DA
:10167000002003FA0AF31343C9F80030F4E61249D4
:10168000124801F08FF903E61A46E7E70022942199
:101690001DF0E2FF23E6002295211DF0DDFF35E677
:1016A000002296211DF0D8FF47E6002297211DF069
:1016B000D3FF59E678530020306A0020446A0020A6
:1016C0000000003B00008043C0460020A8460020E8
:1016D00002006000054B1A685B6890B29A4299B2AA
:1016E00038BF00F58060401A80B2704788580020EB
:1016F000074B1A685B6890B29A4299B238BF00F5FE
:101700008060401A80B2C0F57F70033080B27047AD
:1017100088580020074A53681168994206D0591C1E
:10172000C1F309011344D87A516070474FF0FF307C
:10173000704700BF885800202021034A034B916363
:101740001A685A60704700BF00300740006E0020E2
:10175000084A82B09369D90605D41368DBB20193B5
:101760009369DB06F9D50022034B19685A72596058
:1017700002B070470000074088580020F8B5104BB1
:1017800006469A6B910605D49A69920616D52022D0
:101790000C4B9A630C4D0D4F2C680134C4F30804B4
:1017A00003E0D7F8F431984738B16B68A342F8D01A
:1017B0002B682C601D442E720120F8BD1860FBE7D9
:1017C0000000074000200740006E0020C83C0020B9
:1017D000084B1A685B6890B299B29A42064B38BFC0
:1017E00000F500709B69401AC3F3C00380B218442F
:1017F00080B27047006E002000000740502210B1F8
:10180000024B9A637047024B9A637047003007405F
:1018100000200740014B1B68184700BFF42B002035
:101820000346024A106803B113607047F42B00208E
:1018300008B5034603F00C0213F0030F14BF072191
:101840000821082A14BF012202220348C3F302130D
:1018500022F02EF8012008BD0000074008B501461F
:10186000024821F0D7FF012008BD00BF000007405B
:101870000146014818F02CBB88580020F8B5224DCD
:101880002F6C17F0500F0AD0204E05E02C683368FB
:10189000E4B22046984718B3AB69DB06F6D5BA0622
:1018A0000AD51B4A18495368886984060CD55360C9
:1018B00051681368994220D0F8BD287AC4F3080310
:1018C000086088698006F2D41068D518984203F140
:1018D0000104F2D15360516813689942ECD10CE0D5
:1018E0000C4A136851680133C3F30903994208D0C5
:1018F000116813600A44D472CEE72022064B9A6323
:10190000F8BD01235372C7E700000740F42B002005
:10191000006E002088580020003007401F4A517890
:1019200009B10020704792F802C070B504461CF05F
:10193000010030D01CF0020FCCF340062CD14CF04B
:10194000020C174D0221304682F802C01FF048F801
:10195000022101201FF044F82146284621F0D8FE3C
:10196000286B104C00F440400122334608212063CC
:10197000284621F09DFF0121284621F0D1FF21209A
:1019800009491FF073F9212001211FF04DF9502260
:10199000064B07489A6370BD084670BDEC2B0020CB
:1019A00000000740001007407D180010002007408D
:1019B00038E802102DE9F843074617F8016B1EB30B
:1019C000DFF85880DFF85890D8F838309A0606D4F7
:1019D000D8F818309B0619D520220E4B9A630E4D6D
:1019E0002C680134C4F3080403E0D9F8F4319847B3
:1019F00030B16B689C42F8D02B682C601D442E726D
:101A000017F8016B002EDFD1BDE8F883C8F800603D
:101A1000F6E700BF00200740006E002000000740EE
:101A2000C83C002081B32DE9F04706464B1E9BB20F
:101A30000133DFF86080DFF860A0C718D8F83830CD
:101A400016F8019B9A0606D4D8F818309B0618D5CC
:101A500020220E4B9A630E4D2C680134C4F3080407
:101A600003E0DAF8F431984738B16B689C42F8D05B
:101A70002B682C601D4485F80890BE42DED1BDE87D
:101A8000F087C8F80090F8E7704700BF00200740D3
:101A9000006E002000000740C83C002010B5074C35
:101AA0000748D4F8943198470648D4F894319847B9
:101AB000BDE81040044818F0EDB900BFC83C002054
:101AC000A4E802108CE80210E02B0020054B5A68B5
:101AD0001B6891B298B29A4288BF00F58060401AA4
:101AE00080B27047945C0020064B5A681B6890B225
:101AF0009A4299B294BF00F2FF3000F1FF30401AD1
:101B000080B27047945C0020014B1A685A6070479D
:101B1000945C00201820064B19681A6819445A6012
:101B20001A68C8720132C2F309021A60704700BF16
:101B3000945C0020074A53681168994206D0591CEA
:101B4000C1F309011344D87A516070474FF0FF3058
:101B5000704700BF945C0020014B1B68184700BF12
:101B6000F82B00200346024A106803B11360704747
:101B7000F82B002008B51F201FF06CF84FF47A7086
:101B8000002108BD0146014818F0A2B9945C00206C
:101B9000002021F003B800BF08B50021074826F057
:101BA0006BFA00B908BD4FF0FF30002120F02EFA8B
:101BB000BDE80840014826F02FBA00BF2071002080
:101BC0002DE9F84380460F4620F096F948B90020E9
:101BD0000021294BC3E90001BDE8F843274826F05E
:101BE0001BBA20F091F905460028F0D1002FF3DD53
:101BF000DFF88490224E13E02246002021F082F884
:101C0000002104464FF0FF3020F000FA002021F0C0
:101C100031F81FF0B9FEC9E900012544AF42DBDD10
:101C2000002021F08FF87C1B8442A8BF044608EBFB
:101C30000501002CE0D121464FF0FF3020F0E6F9FD
:101C4000204621F017F820F057F90028C4D020F0E2
:101C50005BF90028C0D121F075F80028DED11FF013
:101C600093FED9F80030D9F804209B1942F1000204
:101C700083428A41D2D2AFE7D83E002020710020B3
:101C800020A1070008B50E4B18701FF07DFE4FF025
:101C9000FF3E6FF0004C0B4A821841F1000396455D
:101CA0007CEB03013CBF72466346074826F0CCF943
:101CB00018B101210248FFF783FF012008BD00BFD2
:101CC0005C48002040420F0020710020474B2DE966
:101CD000F047474C1B68984723780BB1BDE8F08765
:101CE0000123237020F008F918B900232370BDE800
:101CF000F08720F009F90028F7D120F065FF0646AB
:101D00000028F2D03B4D69682A688BB2914294BF9B
:101D100003F2FF3703F1FF3790B23F1ABFB220F052
:101D2000EBF80028E1D020F0EFF80028DDD120F01A
:101D30004BFF0028D9D01FF027FE4FF0FF3E6FF079
:101D4000004C2D4A821841F1000396457CEB0301BB
:101D50003CBF72466346294826F076F90028C4D075
:101D600020F0CAF840B900214FF0FF3020F04EF9C2
:101D7000224826F051F9B8E720F0C6F8804600283E
:101D8000F1D120F021FF0028EDD0142E3246A8BF5B
:101D900014221B4EBA42A8BF3A463146404620F0B4
:101DA0001FFF0746154826F037F9002F9DD09CDD10
:101DB000B1464FF001083E44124F06E02A682B60FE
:101DC000AB1883F80BA0B1458FD019F801AB3B6875
:101DD000504698470028F6D12B686A680133C3F350
:101DE00009039342EAD185F80980ECE78C52002080
:101DF00051720020945C002040420F0020710020AE
:101E0000A46D0020F82B00202DE9F0411F4D204E3D
:101E100005F10C07AF602B6833B1002020F092FF72
:101E20000A282B6804D84BBB0120AF60BDE8F081C5
:101E3000984228BF1846D5F8088004461FF0A4FD34
:101E400002464FF0FF3E6FF0004C921941F1000343
:101E500096457CEB03013CBF724663460D4826F075
:101E6000F3F818B121464046FFF7AAFE2B68AA688E
:101E70001B1B22442B60AA60002BD5D0064BD3F845
:101E8000F43198470028C6D12860CEE708700020BA
:101E900040420F0020710020C83C002038B5114B93
:101EA00004461B680D4613B1FFF7AEFF98B11FF053
:101EB0006BFD4FF0FF3E6FF0004C0B4A821841F172
:101EC000000396457CEB03013CBF7246634607481E
:101ED00026F0BAF800B938BD29462046BDE838409A
:101EE000FFF76EBE0870002040420F0020710020F6
:101EF0000378002B39D070B5044625F089FE1E4EBC
:101F000005463368C218FF2A16D802462146B06833
:101F100025F008FE3368B2682B442A443360B2606F
:101F2000254415F8012C0A2A02D0726893421BD965
:101F3000BDE87040FFF768BF13B1FFF765FF98B1C8
:101F40001FF022FD4FF0FF3C6FF000460B4A821855
:101F500041F10003944576EB03013CBF62463346F2
:101F6000074826F071F808B970BD70472046A9B23D
:101F7000BDE87040FFF724BE0870002040420F000B
:101F800020710020002130B5084685B021F09CF872
:101F90001F201B491EF06AFE01211F201EF044FE77
:101FA00018481FF01FF91FF055FB04461FF0ECFC0A
:101FB0004FF0FF3E6FF0004C10F57A7241F10003D4
:101FC00096457CEB03014FF001054FF000012046E0
:101FD0000D4CCDE901153CBF7246634600941FF0DD
:101FE0003DFBEC21094A0A48546D0A4B04600A4C37
:101FF0000A4803F10C059D605465596005B030BD79
:10200000991B001020710020751B0010A03B0020C0
:102010008C52002008700020CD1C0010BCE802107B
:102020000048704770E902100048704724E9021028
:1020300038B540B940F209424FF44173164D164885
:102040006A802B8038BD042804461ED803281ED081
:10205000124B114D53F8241028460023013903E098
:10206000132B20F8022F0BD011F8012F0133DBB214
:10207000002AF5D15B0043F4407307482B80E1E769
:102080004FF44A7304482B80DCE7002038BD102150
:10209000034823F03DFBDBE76849002010E902100C
:1020A000B062002008B5044B0449D3F8A42125F000
:1020B00039FD012008BD00BFC83C002000801F1072
:1020C00038B5144D1449D5F8A421044624F088FFEE
:1020D00008B9012038BD72B64FF480514FF4FC109E
:1020E00025F0AAFFD5F8A4214FF4FC10D3B2120AB0
:1020F000002B18BF01322146120225F069FF62B69B
:1021000005492046D5F8A42124F06AFFB0FA80F0F2
:10211000400938BDC83C002000801F100C4BDA7805
:1021200003799A420FD910EE18200A49C3EBC30372
:10213000096801EB83031B7A22FA03F3DB0704D55A
:102140004FF07E507047044870470020704700BF32
:1021500090490020B0460020000080BF0B4B1A7849
:1021600003799A420DD910EE18200949096801EB4C
:1021700043139B7A22FA03F3DB0704D54FF07E501A
:102180007047044870470020704700BF9049002006
:1021900098460020000080BF354B364A10B5DA6201
:1021A000002832D1344A12788A422DD9334A197123
:1021B00014684FEA411C04EB41114A7A4868C2F3A3
:1021C000801282F001029201B1F808E042F00402AC
:1021D0009861C0F3072020F0440002F0440202435B
:1021E0005A76CA68A3F81CE014F80CC09A608A7A80
:1021F0000C69C8695A612249224AC3E90340C3E90C
:10220000081283F805C01A4810BD01282DD11A4ABA
:10221000D2788A4229D91C4AC1EBC10C14681971C1
:1022200004EB8C010A8A9A830A8A9A61120A22F0C4
:1022300044004A7CC2F3801282F00102920142F013
:10224000040202F0440202435A7614F82C00CA68D1
:1022500058714C6848699C600C7A0C49DA600C4AE9
:10226000C3E90404C3E90812CDE7002010BD00BF94
:10227000E03E0020E1250010904900209846002013
:10228000092300105D210010B046002095220010A7
:102290001D2100102DE9F041194F037997F803C073
:1022A000634508D3174E3368187860452CBF00206B
:1022B0000120BDE8F081134E04463068C3EBC30330
:1022C00000EB830390465A7C0D460978C2F38000E8
:1022D000884205D1B8F1000F0BD197F803C0E2E7AF
:1022E00061F38202187A5A741EF0C6FBB8F1000F2F
:1022F000F3D0294620461DF0CDFF97F803C0D2E762
:1023000090490020B0460020F8B5224F164697F8B5
:1023100000C00279624503D28B780D46032B04D1AD
:1023200062452CBF00200120F8BD47F6E731044686
:102330001948012B006803F0030300EB42122878D0
:102340004FEAC30343EA8023687843EAC033108925
:1023500001EA0001114803EA000343EA0103138183
:102360000DBF012100210122002260691EF060FBE7
:10237000297860691EF070FB3EB9227997F800C099
:1023800062452CBF00200120F8BD294620461DF0E3
:102390000BFFF2E790490020984600201884FFFFC9
:1023A0004F4B2DE9F0471B78834239D94D4B1D68BF
:1023B00005EB401500297CD007EE902AB3EE047A95
:1023C00067EE877AFAFE677AFCEEE77A17EE904AB4
:1023D0004B1E012B04F1010427D90E1F18BF012643
:1023E00010EE1830AA7AD34003F00103B34269D04B
:1023F000B4B13D4FDFF8F8800AE098F800307BB9BF
:1024000010EE1830AA7AD34003F00103B34259D03A
:102410000DF0EAFE00213220FB6B9847013CECD125
:102420004FF0FF342046BDE8F087012914BF022396
:102430000B46AA8818BF194613EA5213F0D0012799
:10244000002395F80AC0294E07FA0CFCD6E900894A
:10245000284628EA0C02C6E90023FEF731FBD6E93C
:102460000023A87A8740174234D1BCB11E4FDFF851
:1024700080800BE098F8003083B9D6E9009A0121FA
:10248000A87A01FA00F313EA090F23D10DF0ACFE8C
:1024900000213220FB6B9847013CEBD14FF0FF3419
:1024A00029892846C1F34411FEF70AFB2046BDE8FE
:1024B000F08710EE1840AB7ADC4004F001042046AF
:1024C000BDE8F08710EE1840D44004F00104204627
:1024D000BDE8F08710EE1840C44004F00104DFE7C7
:1024E0009049002098460020C83C0020983B0020DE
:1024F000B83F0020064BDB78834208D9054BC0EB80
:10250000C0001B6803EB80031B7A41EC403070472E
:1025100090490020B046002048B90C4B1B788B42F4
:1025200012D90B4B1B6803EB4113DA61704701288A
:102530000AD1064BDB788B4206D9064BC1EBC101B1
:102540001B6803EB81035A61704700BF904900206C
:1025500098460020B046002070B51E4C82B024780A
:10256000844220D91C4C256805EB4015B5F804C001
:102570001CF4787414D0CCF3441C32EA0C0C16D042
:102580000024164E336D984700212846FEF798FA2E
:1025900000222B89AA6123F478732B81F36C98476E
:1025A000204602B070BD0024204602B070BD7BB151
:1025B0002889E97262F34910288111462846AB61E7
:1025C0000192FEF77DFA019A0124002AE8D1D8E7AA
:1025D0001C46D6E79049002098460020C83C0020C1
:1025E000037FDB0706D5084A037912685B010120E7
:1025F000D1547047054A03791268C3EBC303012025
:1026000002F82310704700BF98460020B046002013
:10261000012170B40E4E90F80AC0D6E900452B4651
:1026200001FA0CF141EA04028469C6E9002364B1AD
:1026300010EE1810437A21FA0CF181EA9301C07A66
:10264000234670BC01F00101184770BC704700BF01
:10265000983B002030B587B0EC4690F800E00C4A7B
:1026600040680C4D10600C4B4A6885F800E01A6019
:102670000A4C0B78EB700FCCACE80F0094E8030029
:102680008CE8030068461DF01FFB07B030BD00BF9B
:102690009846002090490020B046002084E90210AE
:1026A000064B1B6843B106490279C978914203D9A8
:1026B00003EB820318687047024870474C540020AF
:1026C00088460020000080BF037F9A0705D5044A92
:1026D000037912685B01D154037FC3F34000704754
:1026E0009C4600209FED4D7AD1ED007AF4EEC77A3A
:1026F000F1EE10FA2DE9F84F0C460546D0F80C9093
:1027000009DC9FED477AF4EEC77AF1EE10FA12DD9C
:10271000C0260C2701E01026012705201EF070F8C6
:102720004946B0FBF7F220461DF090FC074630B951
:102730003846BDE8F88F4FF448763227EDE76869F0
:10274000B9F804801EF02CFA01236869834040EE3A
:10275000143004211EF044F96B69D9F80820580898
:102760001F2B8ABF00F0030000F00700083013F0B1
:10277000010308BF4FF6FF7A1FFA82FB4FEA80027F
:1027800000EB800102444FF00000DFF8A0C04FEAE8
:1027900081018C44DCF800E01CBFDFF894A04FEA14
:1027A0000B4B94F818908EEA0B0E0CF5805C0EEA39
:1027B0000A0ECCF800E0920083F0010C09EA030352
:1027C00001F1804102F1804209EA0C09DB0002F5C7
:1027D000282201F5282143EA8903086043F0010318
:1027E0009060D060C2F810800E4A4E600B602B796A
:1027F000D2789A429CD90C4AC3EBC3031268617E1B
:1028000002EB8302537C81F0010060F3041361F357
:10281000451353743846BDE8F88F00BF0000FA44F2
:102820000000484388460020B44600200C800A403F
:102830000000FFFF0A4B40B91878884205D9094BC0
:102840001B6803EB4113DA617047DB788B4206D9D2
:10285000054BC1EBC1011B6803EB81035A61704753
:10286000884600209C460020B446002038B5054626
:102870001F4B0C4630220021184624F0DFFB012DAF
:1028800033D11C4AD278A2422FD903461A4AC4EB4C
:10289000C40C1568047105EB8C010A8A8283C2F3AB
:1028A000803080F00100C2F3072460F3861492B2F6
:1028B0009A615C7615F82C004A6958714C680F488B
:1028C0009C600C7A1A614A7C5C6112F0300FD8620D
:1028D00009D00B4A0C7E0B480B491268C3E908016A
:1028E00002EB4412DA60024838BD002038BD00BF58
:1028F000103F002088460020B4460020C926001062
:1029000044540020E5260010A126001070B51F4D8C
:102910000446EB78834234D91D4A1E4B10681A686E
:10292000C4EBC4039E0002EB830330B1925D02F15D
:102930008042AA3A00EB820001601E7A187E164B94
:102940001B6803EB40101DF0F7FB73081F2E8ABFB6
:1029500003F0030303F007030833104A03EB830378
:102960009B001A44F30758BF4FF6FF76116880B2F8
:1029700044BF0B4E00044140314002F58052EB78D9
:1029800011609C422CBF0020012070BD88460020B1
:102990004C540020B4460020445400200C800A40CF
:1029A0000000FFFF2DE9F043344B8DB00393344B0F
:1029B000002404930346334A1F785B68324D334E3C
:1029C00013604B682F70DFF8D89033600B7868463F
:1029D000CDE900590294EB701CF0D0FF002849D0DB
:1029E000EF78002F46D02A4BD6F8008007930A9341
:1029F0004346284ACDE908440592274AC7EBC70158
:102A000006940B94C2F8489108EB81015A7C1C3360
:102A1000D00648BF01348B42F8D12021204622F055
:102A2000CBFCDFF880900421C9F80000204622F09A
:102A3000C3FC0021194B0C46186001E0D6F8008059
:102A4000C4EBC40308EB83035A7CD2060FD5D9F834
:102A5000002001F1010852B119760120E1B2FFF71F
:102A600005FF05A90022FFF73DFE4146EF7801343E
:102A7000A742E3D80DB0BDE8F08300BF35280010B1
:102A80006D2800109C46002088460020B446002097
:102A90000000C84200409C45C83C00204C54002027
:102AA0000D29001044540020704700BF00207047DB
:102AB000024A034BD2F8C0001B681847C83C0020EC
:102AC000A03B0020074B70B51B6804460D46984795
:102AD000054B1B6F23B129462046BDE870401847BF
:102AE00070BD00BF104C0020A03B0020024B93F8AB
:102AF000FA0100F002007047C83C00202DE9F843BD
:102B0000384D2B68E3B1384B384E93F8BF30C3B122
:102B1000336D98472C68F36C002C61D000272F6030
:102B20009847DFF8D880D8F80030E568D4E901206C
:102B3000E7606760002B4CD0904715B12C46F2E758
:102B40002A4ED6F8D4319847294B80461A688242DB
:102B50002AD0284D284A2C681768BC4224D0186017
:102B600037B1D7E901309847FF68002FF9D12C68B9
:102B7000D4B10027DFF884902368A3EB0803002B6F
:102B800012DC336D98472B68A34218D073B9F36CED
:102B90009847D4E90130D9F800206760E7608AB12E
:102BA00098472C68002CE7D1BDE8F8831A46DB680B
:102BB000002BECD0A342F9D1E368D360E7E7E368E8
:102BC0002B60E4E7C9F8004098472C68002CD3D16B
:102BD000EAE7C8F800409047002DB2D02C46A2E7A3
:102BE0009847AEE734500020B83F0020C83C002092
:102BF000C050002064520020D86A0020BC50002041
:102C000008B512F02FFA0022014BC3F8202108BDAD
:102C1000A03B002030B5154B8BB093F800E0EC469C
:102C20006FEA0E0E124C5FFA8EFE83F800E00FCCB6
:102C3000ACE80F0094E80F00ACE8070070468CF891
:102C400000300BF05FFC0446684624F0E1FF2146AB
:102C5000684424F0DDFD0346064A002112886846D8
:102C60001A800FF091FB0BB030BD00BFFC2B002091
:102C7000CC810210EC8102104AB1064A92F875210B
:102C8000920704D5044A1846D2F814311847002098
:102C9000704700BF44640020C83C0020074B93F8F5
:102CA0007221D20604D5C269D3F8F4118A4200D148
:102CB0007047C3F8F42113F045BB00BF4464002003
:102CC000704700BF0D4808B5417A11F002010CD0E1
:102CD0000B4B01211B6C483098470A4B00219A8A04
:102CE0000948BDE8084025F093B9064B9A8A02B915
:102CF00008BD0648BDE8084025F08AB9B83F002065
:102D0000C83C002044640020C52C0010112D001088
:102D1000054B00215B7A9B07044B4CBF04480548D8
:102D20009A8A25F075B900BFB83F0020446400209E
:102D3000C52C0010112D001070B50446E30707D410
:102D4000194B1B68002B2BD02046BDE8704018475C
:102D5000164D174E2B6D98473368B3B100211548B7
:102D600003E0DA68194682B113465A688242F8D104
:102D70009A68002AF5D1DA6899B1CA6000220E4932
:102D80005A600868DA6000B90B60EB6C9847C8229B
:102D90000021084825F03CF9034B1B68002BD3D1D8
:102DA00070BD3260EAE700BF98520020C83C0020A6
:102DB00064520020B12A0010BC50002070B5124EA1
:102DC0000D46336D0446984710490B68A3B10020A7
:102DD00003E0DA6818467AB113465A68A242F8D17D
:102DE0009A68AA42F5D1DA6860B1C2600022084947
:102DF0005A600868DA6018B1F36CBDE87040184793
:102E00000B60F9E70A60F1E7C83C0020645200203B
:102E1000BC5000202DE9F04FC64D83B0DFF8888309
:102E2000E4220021284624F009F94FF42072002101
:102E3000C14824F003F94FF492720021404624F077
:102E4000FDF8BE4BBE4CC8F81431BE4BBE4AC8F8A4
:102E50006030BE4BBE4FC8F86830BE4B0021C8F88A
:102E60007C30BD4BC8F81821C8F88030BB4B4FF4FC
:102E70000472C8F88430BA4B2046C8E91577C8F800
:102E8000D03024F0DBF80A2340F2FD322360B54B4A
:102E9000B54EC4F89C314FF08043C4F8A421B34A26
:102EA000E361C4E914624FF6FF730122A4F8023211
:102EB000134684F80A22AE4AAE492267AE4A21661A
:102EC000C4F89C20AD4A85F8BD30C4F8F421AC4A62
:102ED000E664C4F8242108F04FF900F053FE14F022
:102EE0005BFD12F0BFF8FEF71DF8A64F00263B78F9
:102EF00060F300033B7000F08BFE14F057FD94F874
:102F0000F821397802F06003A3F16003B3FA83F388
:102F100042F060025B0984F8F821DB00C2F3400252
:102F200043EA021321F0180103F018030B43FF2BAF
:102F30003B700CBF01233346C5E93366C5E93566EE
:102F4000C5F8C86085F8C060C5F8DC6085F8BE309B
:102F50000FD18D4BD4F80821C4F808318B4B8C4825
:102F60001A60A36B98473B7885F8BE6060F3410315
:102F70003B70874E0DF1060196F8FC0015F080FAC3
:102F80008146002800F08D8196F8FD000DF10701C3
:102F900015F076FA18B996F8FC3086F8FD309DF9F0
:102FA000060015F0D1F83B78814660F382033B7050
:102FB000002800F06E81002015F0D8FAC36A2BB10A
:102FC000006BB0F1000918BF4FF001093B7869F3BD
:102FD00082033B7094F8F93113F0020305D196F89F
:102FE000F02163F3410286F8F0213B78FF2B06D0F5
:102FF00010230021674885F8BC3025F02DF8012109
:10300000D4F88C3096F85C01984715F0F3FC636FA8
:103010004FF000009847D4F8F0310BB15E48984764
:1030200095F8BC30626E103B18BF012385F8BF30A5
:10303000002A00F0E78096F8E331DF0700F1E28034
:10304000B28A002A40F0E88094F8F93113F0060FB4
:1030500040F0EC8094F8B63003F00C03042B06D15A
:103060004E4BD4F800211A604D4BC4F80031D8F80B
:10307000B030002B00F023814FF000094FF0640ABC
:103080004FF0640B11F0EEFFEB7823B196F9E231CB
:10309000002B80F2B18050220021264823F0CEFF81
:1030A0006FF001030020C5E904AB2B6515F052FA5F
:1030B000002840F0E480B38A697A003B18BF0123FE
:1030C00096F8802163F341016972D10705D56B7FC2
:1030D000C2F3400262F3C3036B770BF067FED4F8D0
:1030E000D430984796F87201C0F3400001F080F8A0
:1030F00096F87A01A36D4FF0000100F001009847A7
:103100000BF006FF17F0FEF907F0F4FF19F004F9D1
:103110000CF09AFB2049234819F048FBD4F8903072
:1031200013B100210846984794F8FA319B0740F103
:10313000A3803BE0B83F0020F46A0020A1FB001010
:10314000C83C0020A92A0010150C002015C401104D
:10315000FD2A0010CDD70110D5D70110E16C011068
:103160009D2C0010012C001049ED0010AD2A00101C
:103170005110002039060020F50C0020A99E0110F6
:10318000ED2A0010FC2B0020C52A0010104C002056
:1031900044640020152C001080400020985200202C
:1031A000392D0010444B0020A03B0020D8F80030FF
:1031B000D4F8C400984796F97131002B53DA94F98A
:1031C000F931002B07DA95F8C030002B0CBF8020B6
:1031D000872024F04DFF0DF083F8074698B385F85B
:1031E000BD9011F03FFFEB78002B3FF454AF96F900
:1031F000E231002BFFF64FAFBC220021384823F00C
:103200001DFF4DE794F80532002B48D1354BB28AAB
:103210006366002A3FF418AF0021334824F0F8FE1B
:1032200094F8F93113F0060F3FF414AFC3F38002A2
:10323000C3F3400343EA420140F28A2001F0030154
:1032400014F0AAF906E7D4F8D031FBB1984785F815
:10325000BD70074600287FF415AF00F0C5FC384666
:1032600003B0BDE8F08F24F0FBFEB0F5807FA6D15F
:10327000012015F02FFFA2E71AF040F996E7002091
:1032800015F074F964224368DA6014E785F8BD30FC
:10329000F8E615F079F914F057FF814696E6134BDE
:1032A000B5E715F09FF8494615F074F8A8B190F904
:1032B000002043788DF8062086F8FC3064E694F808
:1032C000FB31D8077FF5D8AED4F81431002B3FF48A
:1032D000D3AE074BC8F8B030CEE602460B23E9E781
:1032E000B83F002061030020C52C0010810300209E
:1032F000792C0010F8B50E4F3B6893B100250D4EA8
:103300003268DC68D3E90110DD605D6022B1884776
:103310003C6034B12346F3E7336088473C60002CBF
:10332000F8D1054B93F8BF3003B9FEE7F8BD00BFF5
:1033300088520020BC500020B83F0020F8B5134F41
:10334000C6B2BB6F04460D469847C0B2B04209D022
:1033500020467B6F984706B12DB9BDE8F840202084
:1033600019F0F2BAF8BD07EE905A9FED097AF8EE1F
:10337000677AC7EE877A074B17EE900A99780BF0B9
:103380007DFABDE8F840202019F0DEBAC83C0020E4
:1033900000007A44B83F002038B5044624F060FEAF
:1033A000022801D1012038BD0DF084FA0028FAD09E
:1033B000114B1A78002AF5D15D78002DF2D10F4B10
:1033C00020465B6FE4B298471CB10D4BB3F8F83060
:1033D0001BB9202019F0B8FAE4E707EE903A9FED08
:1033E000097AF8EE677AC7EE877A294617EE900ACF
:1033F0000BF044FAEDE700BFB83F0020C83C0020C6
:103400004464002000007A440346302B4FF0000053
:103410000DD82D2B36D8142B14D80E2B4BD9103B8E
:10342000042B20D8DFE803F02B252E2836007F2B35
:1034300033D01A0629D5882B18D0892B30D14FF0DC
:1034400018007047173BDBB2152B36D801221B49F9
:1034500002FA03F3194061B9194A13420FD140F639
:103460000172134228D04FF0010070474FF0030063
:1034700070474FF0040070474FF0100070474FF056
:10348000020070474FF008007047332BF4D9343BEB
:10349000022B0FD84FF0200070474FF03F007047CD
:1034A00083F08002072A98BF0120A3F1800398BF10
:1034B00098407047704770477047704704003C0061
:1034C00002E00100124A92F80832FBB9114892F862
:1034D000051290F8E40192F8072221EA000101F0B8
:1034E0003F0100B522EA000281F03F0E02F03F02E8
:1034F0006EF3070382F03F0C61F30F2306486CF371
:10350000174362F31F6303605DF804FB704700BF5D
:10351000C83C002044640020184C0020024B82B0BC
:10352000186802B0704700BF184C0020144B93F885
:10353000083213B1134B186870471A46114910B579
:1035400091F800C08C7891F803E04978C0B244EA61
:103550000C0C4EEA01016CF3070360F3070261F300
:103560000F2360F30F2264F3174360F317426EF3E7
:103570001F6360F31F6282B003EA020002B010BD55
:10358000C83C0020184C002001460E4BA3F5C86C27
:1035900093F840268A4206D063450CD093F838262B
:1035A000083B8A42F8D16345D3F8440605D0083B6E
:1035B0000028EDD0704704487047034B002808BF2F
:1035C000184670479CE90210F08102100D289DBF3B
:1035D000012303FA00F080B20020704784464FF6C2
:1035E000FF7000294ED061441CF8013B434003F0BA
:1035F000010202EB820002EB403282EA530202F047
:10360000010303EB830003EB4033C2F34E025A4045
:1036100002F0010303EB830003EB4033C2F34E02DD
:103620005A4002F0010303EB830003EB4033C2F383
:103630004E025A4002F0010303EB830003EB4033D8
:10364000C2F34E025A4002F0010303EB830003EB86
:103650004033C2F34E025A4002F0010303EB8300F1
:1036600003EB4033C2F34E025A4002F0010303EB76
:10367000830003EB4033C2F34E0253408C4598B2B3
:10368000B2D17047704700BF014B1B68185C704790
:103690006C52002010B410B901220A4B5A700A4A29
:1036A0000A4C1378246843B9B0FA80F314F800C0C8
:1036B0005B098C4518BF43F0010321545DF8044BAE
:1036C0001370704748660020487200206C5200203A
:1036D0002DE9F047DFF8E8E00546BEF8B0C10F4637
:1036E00016469846BCF1000F04D0BEF8B2416444BF
:1036F0008C4250D3B8F1000F43D1002E3ED040464B
:103700002D4C711E052922684BD97B1C1344EB1AE2
:10371000022BAE4645D902EB070C26F003014FEA17
:10372000960901EB0C035CF8044B63454EF8044B1F
:10373000F9D18E42A6EB010407EB010305EB010C66
:103740000DD0D15C012C05F8291008D0134459780C
:10375000022C8CF8011002D09B788CF80230B8F162
:10376000000F0BD03744D3195978D35D43EA0123B6
:10377000181AB0FA80F04009BDE8F0870120BDE8D2
:10378000F0870D4C314620683844FFF727FF002EA4
:10379000B7D12268E7E7094C246AA446BDE8F047A0
:1037A00060477B1E29446C1E134413F8015F04F824
:1037B000015FA142F9D1D2E76C5200204C530020A6
:1037C000C83C00202DE9F04FDFF80C920646B9F80E
:1037D000B0418A461746984683B02CB1B9F8B25129
:1037E0002C448442C0F0A080B8F1000F7AD1754912
:1037F000434681F80080002F00F0A180D4460AEBF8
:103800000702354600244FF0010A6F4806F1FF3EDB
:10381000D0F800B06D48CDE9003BDE441CF8013B18
:103820000DB980F801A044B9B5FA85F49EF801B04D
:1038300064099B4518BF44F0010494450EF8013F0C
:1038400005F10105EAD1DDE9003BE2460C70B8F173
:10385000000F1BD0F219DDB208D101224270002CFA
:1038600079D00BF8015BC3F307230CE0002C7ED06A
:103870000137BF190BF80250C3F3072318BFBB442D
:1038800001D1012444708BF800300C704378FBB1F7
:1038900001230B704E4B1B7803B30122B9F8B031F2
:1038A0000270002B47D14B4C03E0CBB234F82320FD
:1038B000A2B1B24203F10101F7D104EB8302927885
:1038C0009B00042A0AD8DFE802F076096A617300D7
:1038D000D9F8AC315345DBD0002CDBD1012003B04B
:1038E000BDE8F08F39465046FFF778FE0023354992
:1038F0000B700346002F81D1334AC5B2D2F800B015
:1039000036B31BF80620C0F30723AA422F483246DD
:103910000BEB060433D10132B3D093449BF8004043
:10392000E41A18BF0124AEE7294CE469A44603B0A9
:10393000BDE8F04F6047B34226D80271CEE7234876
:103940004378002BA4D1D9F8AC319A45C6D19FE772
:1039500001221E4842709BF80020C3F30723AA42AD
:103960002CD001228BF80050012493448BE71BF8E4
:103970000270C3F30723AF420BEB0204CBD001323A
:1039800025703FF47EAFEFE700238CE701221C4453
:10399000E378417902FA03F30B4343719EE7012276
:1039A0001C44E378C18802FA03F30B43C38095E714
:1039B0000123C37092E7012383708FE701240BF189
:1039C000010B60E7487200206C520020486600201E
:1039D0004C530020E4EF0210C83C00202DE9F047D2
:1039E000634FFC69002C00F09D80624D6B7843B101
:1039F0000023614A184611680122A04780F00100A7
:103A00006870AB785BB15C4A00231168012040F21A
:103A10000622FC690131A04780F00100A870EB7814
:103A200063B1554A0023116840F2BE303E22FC6962
:103A300001F2BE31A04780F00100E87095F805C0A2
:103A4000BCF1000F29D002244FF001092346DFF812
:103A50002881013B2CFA03F2D10717D509FA03FE9E
:103A60006FEA0E0E5842D8F8001000F03E0000F247
:103A700041300EEA0C0C00233E22FE69014485F819
:103A800005C05FFA8EFAB04700286BD1012C04D034
:103A9000012495F805C02346DBE7EB882BB34FF4F0
:103AA00050790C24DFF8D08000E0EB88E340DA079F
:103AB0000ED5D8F8001000231A224846FE69494462
:103AC000B04728B10122EB88A24023EA0203EB8031
:103AD000013C631CA9F11A09E7D12B793BB9EB88AA
:103AE000C3B101232B70BDE8F0872B7993B1234B31
:103AF000B3F8B221002A33D01F49B3F8B0010968E6
:103B00000023FC690144A047EB8880F00100287184
:103B1000002BE6D1AB78002BE3D1AB88002BE0D1B2
:103B2000EB78DFE7BB6A002BDDD0134D0424286857
:103B3000984730B9013C0AD0BB6A286898470028EA
:103B4000F8D000220B4BC3E90022BDE8F087022128
:103B50000B480EF019FC0022064BC3E90022F4E7E3
:103B60002A71BCE76B790AEA030E85F805E08DE758
:103B70004C530020486600206C520020C83C0020B6
:103B80007C8B0210F8B5144B144ED3F8A84133685F
:103B90009C4211D8124B134F1C68204621F0FAFBAF
:103BA0000546386020B12246FF21346023F046FAF2
:103BB000281E18BF0120F8BDB4F5805F28BF4FF460
:103BC0008054084F064D38682C600028E5D021F05D
:103BD00009FC2C68E1E700BFC83C0020002C002055
:103BE000042C00206C52002010B5074C206848B10E
:103BF000064B1B7813B1FFF7F1FE2068BDE81040BB
:103C000021F0F0BB10BD00BF6C52002048660020C0
:103C10002DE9F041454C464DD4F8A4312F68013BC5
:103C200043F003030133C4F8A431002F6DD0414E9B
:103C300004F5D07EB446BEE80F00ACE80F00BEE845
:103C40000F00ACE80F009EE8070096F800808CE8B3
:103C50000700B8F1030F5ED0B8F1000F32D1042392
:103C6000354AC4E97188C4F8B421344A84F8A031D3
:103C7000C4F8B821324AC4F8BC21324AC4F8C02181
:103C8000314B187813F0DAF83378032B48D0F76902
:103C900047B10023B4F8B2211846296802F2FD3278
:103CA000B8473378002B34D0284B07209B689847BF
:103CB00028680022264B801AC3E9002218BF012081
:103CC000BDE8F0810023B4F8B22138461946376ABE
:103CD00002F2FD32B8473078042200231649C4E9C5
:103CE0007133C4F8B411154984F8A021C4F8B8118F
:103CF0001349C4F8BC111349C4F8C0110028BFD03F
:103D000028680378172BBBD1D3E71249124824F057
:103D1000A3F92868CDE73846736A98473078DBE71F
:103D2000B36A286898473378BCE700BFC83C0020D6
:103D30006C5200204C53002089360010953600103C
:103D4000C5370010D1360010BC0C0310A03B00207A
:103D500048660020948B0210E5230110024B1B786B
:103D60000BB1FFF73BBE704748660020044890F84F
:103D7000A031042B0CBF034800F5D070704700BF82
:103D8000C83C00204C530020F8B504692DED028B8F
:103D900008EE101AE16B002942D000266425027D4E
:103DA000214B22F02002646802755A7F1F4F42F0B7
:103DB000800287ED1C8A02765A7F80ED008A42F0ED
:103DC000040286605A77027E42F0040202765A7F2D
:103DD00042F001025A77037E43F00103037601208B
:103DE000E5608847D0ED007A28EE278AB5EE408A54
:103DF000F1EE10FA10D00E4B9FED0E7AD3ED1D7A36
:103E000067EE877AF4EEC87ABDEC028BF1EE10FA19
:103E10004CBF2B203046F8BD2920BDEC028BF8BDED
:103E20001420BDEC028BF8BDB83F0020D04A002022
:103E3000446400206666663F00B50E4A92F89B30E7
:103E400002F19C0C013303F0030303EB43010CEB81
:103E5000C10C02F5807E82F89B30BEE80F00ACE812
:103E60000F009EE803008CE803005DF804EB18F0F7
:103E70007DBC00BFD04A00200D4B9A690AB1DB69B6
:103E8000184770B40B4E0546B4460B4BD3F830417F
:103E900020686168A268E368ACE80F002069616986
:103EA000A269ACE807003046F56170BC704700BFFE
:103EB000A03B0020D86D0020D04A002038B50C204F
:103EC00021F068FA68B10446074B084D93E80700F3
:103ED0002B6884E807002BB11A469B68002BFBD1A6
:103EE000946038BD2C6038BDBC4A0020C052002010
:103EF000472370B500F13604E4B23B2C104D204648
:103F000028BF3B202B800AF0FDFA0646284623F006
:103F10007FFE3146284423F07BFC3B2C01D8084827
:103F200070BD0346074AA4F13B0012881A800AF0CC
:103F3000E9FA0146284623F0CFF8014870BD00BFDA
:103F40006048002090D3021000487047202C0020C9
:103F5000274BF7EE007AD3ED0B6AF4EE676A93ED28
:103F60000A7AF1EE10FAB4EE677A93ED097AF7EE79
:103F7000007A14BF01200020F1EE10FAB4EE677A47
:103F800093ED087AF7EE007A4FEA400018BF40F050
:103F90000100F1EE10FAB4EE677A93ED077AF7EECE
:103FA000007A4FEA40001CBF40F00100C0B2F1EEC1
:103FB00010FAB4EE677A93ED067AF7EE007A4FEADC
:103FC0004000C0B218BF40F00100F1EE10FAB4EEAC
:103FD000677A4FEA4000C0B218BF40F00100F1EE2E
:103FE00010FA4FEA4000C0B218BF40F0010070471D
:103FF000082C002010B5044601B340F20113174A03
:10400000B2F86C21934319D017F036F9002815DB6C
:10401000134B00EB400004EB400003EB800003EB8C
:104020008402D0ED277AD2ED026A92ED467A77EEDD
:10403000A67A77EE877A17EE900A10BD084B03EB4D
:104040008401D1ED027AD1ED406A91ED467A77EEA6
:10405000A67A77EE877A17EE900A10BD44640020A6
:10406000D04A002010B582B0019250B3022803D08C
:10407000504BD87102B010BD07EE902A4E4BF8EEAF
:10408000E77A03EB4113D3ED0C6A87EEA67A4B4C2B
:10409000484B01F14602A46903EB820292ED006AEB
:1040A00082ED007A2CB9D3F8302102EB810282ED47
:1040B000007AB4EE476AF1EE10FA14BF0122002232
:1040C0004FE03E4B9B69002B57D13A4B002293EDBA
:1040D0004B5AB5EE405AD3F83011D3ED4A5A93ED0E
:1040E000496AD3ED486A93ED477AD3ED467AC3F82F
:1040F0002C214A61C3F828210A61C3F82421CA602F
:10410000C3F820218A60C3F81C214A60C3F8182133
:104110000A60F1EE10FAF5EE405A14BF01220022B7
:10412000F1EE10FAB5EE406A18BF42F00102F1EE6E
:1041300010FAF5EE406A18BF42F00102F1EE10FAF3
:10414000B5EE407A18BF42F00102F1EE10FAF5EE3A
:10415000407A18BF42F00102F1EE10FA18BF42F0A7
:104160000102D871002A85D04FF4806018F0ECFB72
:1041700002B0BDE8104018F0F9BA0E4B002293EDE2
:104180004B5AD3ED4A5A93ED496AD3ED486A93ED01
:10419000477AD3ED467AB5EE405AC3F82C21C3F8DE
:1041A0002821C3F82421C3F82021C3F81C21C3F817
:1041B0001821AEE7D04A002044640020A03B002034
:1041C00071B1012905D10222002302704370817070
:1041D00070470122022300210270437081707047F2
:1041E0000A4601230221027043708170704700BFAC
:1041F0002DE9F043AC4F8DB097F8BD40002C00F096
:10420000B380AA4DAA4C00214FF49A72284622F09E
:1042100015FF94F87231A74ED90640F1F080F3698A
:10422000D4F8F4019847C5F83001002800F0E78081
:10423000B169002900F0EC809F4B1C682CB120462E
:10424000A46821F0CFF8002CF9D17A7F9B4B002095
:1042500085F83820AB6614F089F9994BF7EE007AAF
:10426000D3ED0B6AF4EE676A93ED0A7AF1EE10FA79
:10427000B4EE677A93ED097AF7EE007A14BF012263
:104280000022F1EE10FAB4EE677A93ED087AF7EEB9
:10429000007A4FEA420218BF42F00102F1EE10FA32
:1042A000B4EE677A93ED077AF7EE007A4FEA4202AE
:1042B0001CBF42F00102D2B2F1EE10FAB4EE677AFE
:1042C0004FEA4202D2B218BF42F00102F1EE10FAF8
:1042D00093ED067A686367D0B4EE677AF1EE10FA70
:1042E00000F0D4804FF07E510022D9629962596269
:1042F0001962D9619961C3E90022C3E90222C3E9C5
:10430000042285F83A20022018F01EFB6D4995F82A
:10431000200012F05DFD10B90720B368984797F8A8
:10432000BD30002B60D0624B93F871319B0740F198
:104330008B80B46C74B10023182269466148CDE9C2
:104340000033CDE90233CDE9043322F049FE0028E1
:104350006CD0A0471AF09CFA336B002B4CD053481A
:104360000DB0BDE8F0431847504D4FF4807206463B
:104370002146284695F8209095F8078022F05EFEA9
:10438000514BD5F83001D3F81C31C269C5F89020E3
:104390000BB1214698472EB1464E85F8209085F8FE
:1043A000078049E7434E47E7B4EE677AF1EE10FA2B
:1043B0004FEA8202D2B295D10021C3ED0B7AC3ED50
:1043C0000A7AC3ED097AC3ED087AC3ED077AC3ED23
:1043D000067AC3E90011C3E90211C3E9041185F8A3
:1043E0003A10002A92D08EE7B46C002CB1D11AF0AA
:1043F0004FFA336B002BB2D10DB0BDE8F083002033
:10440000F3699847B169C5F8300100297FF414AF0A
:10441000202222F013FE94F87231DA067FF50CAFF9
:10442000D4F8F421D5F83031DA6105E706A9C1E9FD
:104430000100C1E90300069048611822234822F0D8
:10444000CFFD002886D084E70B20204912F0C0FC65
:1044500060B90720B3689847B46C002C3FF47AAF7A
:1044600097F8BD30002B7FF466AF72E7182495F9FA
:104470009B30DFF858C003FB0454BCE80F009C34A9
:104480000FC49CE8030084E80300E5E70022C3EDC5
:104490000B7AC3ED0A7AC3ED097AC3ED087AC3ED4E
:1044A000077AC3ED067A26E7B83F0020D04A0020FD
:1044B00044640020A03B0020C0520020F84A0020A5
:1044C000082C0020D84A0020C83C0020D04B0020F7
:1044D00000487047F84A0020002208B5054BC3E9A0
:1044E00000229A6014F086FABDE80840102018F007
:1044F0002BBA00BFF84A002008B5054A054B82F8E0
:1045000025005B6F9847BDE80840202018F01CBAD2
:10451000D04A0020C83C002040B110B504462046D7
:10452000A46820F05FFF002CF9D110BD704700BFD8
:10453000B0B10C4B10B5D3F8C430044603B1984762
:10454000237823B92046BDE8104020F04BBF204619
:1045500000210DF019FF2046BDE8104020F042BFB9
:10456000704700BFA03B0020014B1868704700BF98
:10457000D449002038B5044620B3184B187808BB3E
:104580005B78F3B9164D94F8250084F8443095F81B
:1045900025302A889842228004D0124BB3F8F810B4
:1045A000FEF7CCFE0C22104904F1280022F018FD81
:1045B00050B14C2221460A4823F0B4FA0120AB6CDA
:1045C000EB6638BD002038BD064B226BB3F80031D6
:1045D00094F82810686B14F05FF9EAE7B83F002000
:1045E000D04A002044640020F84A00202DE9F04F12
:1045F000037817465A1E1F2A0446884683B004D8FB
:1046000014F8013F581E1F28FAD93B2B53D02F2BEB
:104610003DD0002B68D0A2460026651C202B09D96E
:10462000292B05F1FF391BD03B2B14D0282B0CD0A4
:10463000002E33D015F8013B002BEFD1002320468C
:104640008AF8003003B0BDE8F08F2E4615F8013B24
:10465000002BE3D1F2E7002EECD189F80060EDE702
:104660007EB13F4B93F899305BB905F8013C3D4B67
:1046700093F8FA315B0724D4002F4BD03B68002B12
:1046800034D015F8013B0026002BC7D1D6E7364BB6
:104690001B7ADA060FD463780134BAE7A3F161021A
:1046A000192A98BF03F05F030AF8013B15F8013B94
:1046B000002BB3D1C2E700232046237003B0BDE82E
:1046C000F08F3378002BDCD017B13B68002BD8D1AA
:1046D000DFF89CB0DBF8C830002BD2D030469847CA
:1046E000002688F80000A5E7A246A7E7DFF880B01B
:1046F000DBF8C03023B13046984738600028C0D17D
:1047000004223046194922F083FD38B13378002B5A
:10471000E0D1B6E73378002BB3D0D9E7A9EB060296
:10472000A2F103094846019220F034FE019A386054
:104730000028EBD03379202B0FD1731D194613F8C5
:1047400001CBBCF1200FF9D006F101099144A9EB8E
:1047500001094A4623F0E6F993E7311DF9E700BF66
:10476000D04A0020C83C0020B83F0020B48B021083
:10477000A03B002000212DE9F04FDFF8B4922DED91
:10478000088BD9F80431A54E5B1A18BF012396F89F
:104790009520B3B093EA020419918DF8631019AA19
:1047A0000DF1630118BF86F89530FFF71FFF9DF8E4
:1047B000637080469FB90578252D16D0CDB9199C18
:1047C00064B1974BD3F8C4300BB120469847237897
:1047D000002B40F0C386204620F004FE2F463846CA
:1047E00033B0BDEC088BBDE8F08F4278002A00F0B2
:1047F000B2808C4CF8220021204622F01FFC4C2273
:10480000864904F1080023F08DF9002298F8001081
:10481000B36E24291046154607928DF818200A9386
:10482000ADF8142000F0DE82414601221A920022E7
:104830001C9291F800B01E92BBF1000F01F0208491
:10484000BBF1400F68D9BBF15A0F00F28D86BBF166
:104850004F0F65D1744A1AAB19461B9240461CAAE9
:10486000049309F01DFF034609908DF863000028AA
:1048700041F0EC87DDED1B7AF4EE677AF1EE10FA89
:10488000B0EE677A81F1B583824608900B90FCEE1A
:10489000E76AF8EE665A9FED656A77EEE57A67EEAD
:1048A000867AF8FE677ACDED1C6ABCEEE78ABBF12A
:1048B000470F63D0BBF14D0F40F011822278412A9F
:1048C00000F0D0801C98632840F287810022DFF836
:1048D00050B11E92DBF8F820002A00F09D8018EEFF
:1048E000103A80B2002B00F0CC8200EB80001FFA5F
:1048F00083FB00EB80000BEB800080B29047824688
:10490000002800F089801C9A02EB820202EB8202EE
:104910000BEB820292B2BBE2BBF1240F40F0248683
:104920001AAB194640461BAA049309F011FF002850
:1049300001F08B8200239A4608EE103ACDE9083345
:104940000B93DDED1B7AF4EE677AF1EE10FAB0EE20
:10495000677A9CD7ABE7027096F89520002A00F0A2
:104960007482002C40F0FA8296F89420002A41F0DC
:10497000518239231D468DF8633020E700221E92B4
:104980001C9A412A58D8412A46D8DFE812F09402EE
:104990009402940294028403940245007603760301
:1049A0004500F7024500450045004500450045002B
:1049B000ED02ED02ED0248034803450045004500C5
:1049C000450045004500F7024500F7024500450057
:1049D00027044500450045004500EA034500E20381
:1049E000450045006203450045004500450045007F
:1049F000620356035603450084038A028A028A0230
:104A00008A028A028A0245002C04450045004500BE
:104A100011044C2A00F0E2831427E0E6D04A00207B
:104A2000A03B0020D84900200000C07F0000C84201
:104A3000C83C00200000C07F592A40F2DC81A2F16E
:104A40005A010929E8D8A2F15C01072904F2FA8287
:104A5000DFE811F0B1025A025A02AF024D024D02D4
:104A60006502650294F8E120930601F1F18184ED7D
:104A70001D7A42F0200284F8E1201A9A511C1A9102
:104A800018F802B0BBF1000F00F07685BBF1400FC3
:104A90002AD8BBF1240F40F06785404604991BAA31
:104AA00009F056FE00286DD1BAF1020F41F0CD8118
:104AB0005FED207AB0EE677ACDED1B7A18EE103AF2
:104AC000002B40F04885BDEEC77AD4F8E01084EDA5
:104AD000327A11F0010308EE103A41F0B981012257
:104AE0000A43C4F8E020C8E7BBF15A0F00F23C8546
:104AF000BBF14F0F5ED1B64A40461B9204991CAAE7
:104B000009F0CEFD8DF86300002841F0A781DDEDAE
:104B10001B7AF4EE677AF1EE10FA1D900FD6BCEE18
:104B2000E77AB8EE476ADFEDAB6A77EEC67A67EEF2
:104B3000A67AF8FE677A8DED1C7ABCEEE78A18EE4D
:104B4000103A002B40F007859DF87520D4F8E0104E
:104B500042F080028DF875201C9AC4F8D0201D9A6E
:104B600011EA020308EE103A41F072819A480242BB
:104B7000B6D0DDED1B7AF5EEC07AF1EE10FAAFD5C6
:104B800004272CE69DED1B7AB4EE477AF1EE10FA7D
:104B900094D6FCEEC77AB8EE678ADFED8E6A37EE00
:104BA000488A28EE268AB8FE488ACDED1C7ABCEEEB
:104BB000C88A83E7404604991BAA09F0C9FD00286A
:104BC0007FF4BFAEBAF1020F41F03F81DFED837A8F
:104BD000B0EE677ACDED1B7A69E618EE103A002B3D
:104BE00040F0B9848DED1E8A632800F24281DFE82F
:104BF00010F0F901F901F901970297029702950463
:104C000076027602760240014001400140014001F7
:104C1000400140014001400140014001400140018C
:104C20004001400140014001400140014001F901C3
:104C3000400140014001400140014001400140016C
:104C4000400140014001400140014001400140015C
:104C500040016A006A006A006A0040016A0040017F
:104C600040016400400140014001F901AA046202D0
:104C700062026202620287040203020340015B02D5
:104C80005B025B025B0240014001400140014001C8
:104C9000400140014001400140014001400140010C
:104CA00040014001400140014001400140014001FC
:104CB00040014001400140017704494A92F88021B7
:104CC00053077FF5A9AE4FF0000A4FF480126070D1
:104CD000154208BF2A4340F039821546CDE600222E
:104CE000ABF1240B1D92BBF1360F3FF695AE01A23E
:104CF00052F82BF0BD4A0010194A0010194A001052
:104D0000194A0010194A0010194A0010194A0010D7
:104D1000194A0010194A0010194A0010194A0010C7
:104D2000194A0010194A0010194A0010194A0010B7
:104D3000194A0010194A0010194A0010194A0010A7
:104D4000194A0010194A0010194A0010194A001097
:104D5000194A0010194A0010194A0010194A001087
:104D6000194A0010194A00105B52001041520010FD
:104D70002752001011520010235400100954001043
:104D8000194A0010CD530010B15300109553001074
:104D90007953001041530010194A00102553001098
:104DA0003F4B00104F540010395400106554001050
:104DB0000D530010B15200109D5200108952001086
:104DC00075520010C3540010A55400107B540010FD
:104DD0000000C07F0000C84280CA18000000C07FE9
:104DE000446400200120A27208F103010422208102
:104DF000ADF814001AE5482A7FF60EAE4FF0010C0C
:104E0000C449A2F149000CFA00F00140002940F029
:104E10008C80502A7FF4FDAD9DF8781041F002019E
:104E20008DF878102281002284F84320022218EEA7
:104E3000103A002B40F08F8315EA020308EE103A77
:104E400040F084819A46154317E696F89420DFF8DF
:104E5000CCB282F0010286F89420DBF8EC2012B18B
:104E600096F89400904798F80050002D3FF4A7ACB6
:104E7000BFE4DFF8A8B2DBF8F820002A3FF4CCAD9D
:104E800080B29047824600283FF4C6ADBDF870203E
:104E900062809DF87A2042F020028DF87A201E9AD6
:104EA00016E7A2F136013B2A84F8281001F045806C
:104EB0004FF40062BBE7089B002B41F0E0829DF8B5
:104EC0007810052A41F002018DF8781041F0A88091
:104ED00018EE103A23B10A2B08BF33227FF49CADA1
:104EE0002281002284F8432002220892A4E78A4902
:104EF000097E02297FF490AD603A82F0010284F8C5
:104F000055204FF4005292E7C2F15E02A2729DF862
:104F1000782042F020028DF87820202287E7623A3C
:104F200084F841204FF4007281E7089B002B41F088
:104F3000A68291B23288059B521A18BF012262F3F1
:104F40004103059302239DF8782084F843C01A4357
:104F50008DF8782021811A46089368E70122DFF84E
:104F6000BCB186F8942078E7113AA2739DF87820B6
:104F700042F004028DF87820042258E718EE103A27
:104F8000002B41F06A80089B002B41F078829DF84D
:104F900078101C2A41F0010122708DF8781041F040
:104FA00058840123089318EE103A1A442270012203
:104FB00042E70222AAE718EE103A002B41F03480B3
:104FC000089B002B41F05B8201239DF87820089319
:104FD00042F001028DF8782018EE102A5C3222701F
:104FE000012229E7002800F05587012840F0498771
:104FF00099F80022910641F16380D9F86C2090471E
:1050000080F02002C2F34012002A00F073820122D5
:105010004FF0000A84F82C204FF4004258E6A2F129
:105020001402B2FA82F25209E2729DF8782042F03C
:1050300040028DF878204022F9E6A2F13302B2FA5C
:1050400082F20423520984F8422008934FF48062CC
:10505000EDE6312A00F0C78718EE103A002B40F039
:10506000CE87DFF8B8B0DBF81820002A3FF4D4ACC4
:105070000122E2734FF48072DEE62749097E02299D
:105080007FF4CAACA2F10702B2FA82F2520962734B
:105090004FF48042CBE622709DF8782042F0010266
:1050A0008DF878200122C2E684F8F4002A464FF0F9
:1050B000000A1546E1E41AF05BFB80077FF5ACAC13
:1050C000012108461AF014FA00283FF4A5AC9DF817
:1050D00070304FF0000A4FF480320993F8E5059BD9
:1050E000082843F48073059300F0C486092800F073
:1050F000B88699F80A2292077FF58EAC94F82D2095
:105100004FF0000A42F0020284F82D204FF40022F2
:10511000DEE500BF0137010044640020A03B002011
:10512000A0F10401421FB1FA81F118BF012249091F
:1051300042EA410294F854104FF0000A21F00301B2
:105140000A4384F854204FF48022C1E51527FFF765
:1051500046BB9DF8782042F080028DF878208022AE
:1051600065E6D9F81021002A3FF456AC18EE103A43
:10517000A3F114011E293FF64FACC74ACA40D2071B
:105180007FF54AACC54AA2FB0312D2088A321C92B0
:10519000089B002B41F0738192B22281002284F897
:1051A00043209DF8782042F002028DF878209BE69B
:1051B000412218EE103A22709DF8782042F0010248
:1051C0008DF87820002B7FF427ACDFF8D4B2DBF821
:1051D0001C21002A3FF420AC01222DE618EE103AE3
:1051E000002BD5D018E418EE103A002B7FF414AC45
:1051F0004FF4805220E61AF0BBFA42077FF50CAC60
:10520000012100201AF074F900287FF460AF03E454
:10521000D4F8E01084ED167A0A0600F11986DDED67
:105220001B7A8022A7E4069BD4F8E01043F0200309
:1052300006930B0784ED2A7A00F10A8608224FE4D0
:10524000069BD4F8E01043F010034A0784ED297A56
:10525000069300F1FD85042242E4069BD4F8E01099
:1052600043F0080306938B0784ED287A00F1F0855C
:10527000022235E4D4F8E01084ED247A0B0200F128
:10528000E7854FF400022BE4D4F8E01084ED237A94
:105290004A0200F1DD854FF4800221E4D4F8E010E9
:1052A00084ED227A8B0200F1D3854FF4001217E4CB
:1052B00018EE103A002B40F04E81DFF8E4B11C9854
:1052C000DBF81820002A00F0C685DBF81C20904788
:1052D000B0FA80F04009002841F06483DDED1B7ACC
:1052E000F4EE677AF1EE10FA68BF4FF0FF32D4F8AF
:1052F000E01078BF1C9A11F4801308EE103AC4F83D
:10530000D82040F0A5854FF4801234E4D4F8E010A2
:1053100084ED217A0A0300F19B85DDED1B7A4FF4C1
:10532000002228E4BDEEC77AD4F8E01084ED337A89
:105330004A0400F18D85DDED1B7A4FF480421AE4BA
:1053400018EE103A002B40F00681B4EE477AF1EEE9
:1053500010FA68BFFF22D4F8E01078BF9DF87020E3
:1053600011F4805308EE103A84F8DC2040F0708588
:105370004FF48052FFF7B4BB079BD4F8E01043F022
:10538000040307934B0684ED1B7A00F161854022EC
:10539000FFF7A6BB079BD4F8E01043F002038A0690
:1053A00084ED1A7A079300F153852022FFF798BB0A
:1053B000079BD4F8E01043F001030793CB0684ED7C
:1053C000197A00F145851022FFF78ABB18EE103AD2
:1053D000002B40F0C080B4EE477AF1EE10FA68BFBF
:1053E0004FF0FF32D4F8E01078BF1C9A11F400633C
:1053F00008EE103AC4F8D42040F02A85DDED1B7A7F
:105400004FF40062FFF7B7BBD4F8E01084ED187AD0
:105410008A0500F11D85DDED1B7A4FF40072FFF760
:10542000AABBD4F8E01084ED177ACB0500F1108503
:105430004FF48072FFF754BBD4F8E01084ED1F7A6C
:105440008A0300F105854FF40032FFF749BBD4F819
:10545000E01084ED1E7ACB0300F1FA844FF4803221
:10546000FFF73EBBD4F8E01084ED207A4B0300F147
:10547000EF844FF48022FFF733BB069BD4F8E01093
:1054800043F004034A0184ED277A069300F1E08497
:105490004FF08062FFF724BB01041040CDCCCCCC90
:1054A000A03B0020069BD4F8E01043F002030693D3
:1054B0008B0184ED267A00F1CB844FF00072FFF768
:1054C0000FBB069BD4F8E01043F00103CA0184ED42
:1054D000257A069300F1BC844FF08072FFF700BB81
:1054E0006322DFF890B084F82C20DBF82021002A1A
:1054F0003FF492AA4FF0000A4FF40042FFF7E8BBD6
:105500001AF036F901077FF587AA0021012019F06A
:10551000EFFF014600287FF4DAAD73E6D9F82421C5
:1055200090478246002840F06984114A127F042A7D
:105530003FF4BCADD9F8E020002A3FF46DAA4FF447
:105540000032FFF7C5BB01234FF0000A4FF40032D1
:105550000B93FFF7BDBB1727FFF741B9002120468A
:105560000CF012FFFFF737B90127FFF738B900BF7A
:1055700044640020A03B00209DF87830DB0703D571
:105580002378412B00F062859DF81820002A00F056
:105590006185089B002B00F0AC8496F898301BB115
:1055A000089B022B00F0A88494F8E1305B0605D537
:1055B000B64BD4F8CC10994200F39485C5F3074854
:1055C00018F02001049200F0F7836188002900F0B0
:1055D000F383DFF8CCB2AE48DBF8FC10D4F8E0A0DF
:1055E00088470D901C90002840F03587D4F8E010D3
:1055F0008AEA010AA7491AEA010107D0080E049AAB
:1056000040EA8101C9B222EA010306931AF4007F3D
:1056100018BF0021079BCAF3021223EA0203CAF350
:10562000072216BF94ED189A9FED9B9A21661106EA
:10563000079305D50022D4F8D030C4F8D0200D93BC
:105640001AF4002F18BF0021CAF3074216BF94EDC9
:10565000218A9FED918AC4F8841012F0100200F0A4
:105660000B870022D4F8D830C4F8D8200F93BDF8A7
:10567000142002F0010312F001010C9300F0A48346
:1056800094F8E120920740F17D85E17A94F8E020DA
:1056900039B1D4ED187A9FED817A67EE877AC4ED3F
:1056A000187AD1073AD594F8E220120700F17D83E9
:1056B000AB07EAB20BD52189212900F0768340F2AD
:1056C0004B10814200F071834C2900F06E839106EB
:1056D00003D5A27A022A00F06883C5F30723AA043F
:1056E000049308F0040100F1608318F0100F0A46DB
:1056F00003D06078332800F05883002A00F0CC8370
:10570000D4F8C820531CC0F2F084002A00F3ED84C2
:1057100094F8E02022F0010284F8E020A27A022A24
:1057200000F0BE83C5F30723AA04049300F1C783E6
:105730000A9B002B00F035850A9B94F8E2105A78FA
:105740000B0784F8552040F1CA83012A00F09A869D
:10575000012312930B9B94F8E220002B00F0E683C8
:10576000920742F1E186E06F09F06CF800283FF4FF
:10577000F2AEDFF82CB1D4ED1F7ADBF81820002A46
:1057800001F05380FDEEE77ADBF81C2017EE900A5B
:105790009047B0FA80F04009002841F00381D4ED31
:1057A0001F7AFCEEE77AC4ED367A94F8E21060F3E3
:1057B000410184F8E21018F0010F3ED0099B002B44
:1057C0003BD0422B01F03E8601F24E84A3F13E0213
:1057D000D2B2032A31D894F8E220D00742F1A4864D
:1057E000D4ED1E8AF5EEC08AF1EE10FA3FF5C8A995
:1057F0000121084619F07CFEFCEEE88A18EE903A8A
:10580000834280F07284D4ED1E7AFCEEE77A0122A6
:1058100017EE901A099B84F8E4203E2B84F8E510DB
:1058200003D0A3F140014A424A41C4F8E82094F869
:10583000E22022F0010284F8E22018F0040F00F0C8
:10584000268494F85420910706D50A9BDA68927A48
:1058500012F00A0F3FF4E0A818F0100F28D094F8C7
:10586000E230DA0700F1FA854FF07E53A3676378E0
:10587000303B082B1CD8DFE813F015006F025F02E5
:1058800088021B0078021B001B00490280969800CA
:10589000D84900200E000007000000003333CB4140
:1058A000A03B002094F8403023F0050384F84030FA
:1058B0002378042B00F01C84A37B0E93002B00F0B4
:1058C0006884012B00F0BE85002202231192012280
:1058D00014930E9210931393E37A002B4DD0B44B94
:1058E0009DF8181093F85D21CBB2890609D5910671
:1058F00007D4D4ED2A7A9FEDAF7A67EE877AC4EDAC
:105900002A7AD90609D5D10607D4D4ED297A9FED94
:10591000A97A67EE877AC4ED297A190709D51107A4
:1059200007D4D4ED287A9FEDA37A67EE877AC4ED89
:10593000287A590709D5510707D4D4ED277A9FED66
:105940009D7A67EE877AC4ED277A990709D5910782
:1059500007D4D4ED267A9FED977A67EE877AC4ED67
:10596000267AD90709D5D20707D4D4ED257A9FED39
:10597000917A67EE877AC4ED257A049A7379510695
:1059800007D5627B9A4204D00820727116F0DCFFC2
:10599000737953B1069BDB0707D5D4ED257AB6EEB4
:1059A000007A67EE877AC4ED257A089B042B00F015
:1059B000048496F83A20002A65D0227B9DF818309E
:1059C000002A40F0D2869A060DD5DFF8F88194EDD2
:1059D0002A7AD8ED057AD8ED0B6A37EE677AE7EECA
:1059E000267AC4ED2A7AD9060DD5DFF8D88194ED50
:1059F000297AD8ED047AD8ED0A6A37EE677AE7EEAD
:105A0000267AC4ED297A1A070DD5DFF8B88194ED0E
:105A1000287AD8ED037AD8ED096A37EE677AE7EE8F
:105A2000267AC4ED287A59070DD5DFF8988194EDD0
:105A3000277AD8ED027AD8ED086A37EE677AE7EE72
:105A4000267AC4ED277A9A070DD5DFF8788194ED90
:105A5000267AD8ED017AD8ED076A37EE677AE7EE55
:105A6000267AC4ED267ADB070DD5DFF8588194ED50
:105A7000257AD8ED007AD8ED066A37EE677AE7EE38
:105A8000267AC4ED257A049BD9072CD5E37B022B1B
:105A900000F08B87032B00F07487012B23D1DFF8F4
:105AA00028B1DBF81830002B3EF4B6AF94F8E130A3
:105AB0001B0741F13D86D4F8D40040B93C4B93F824
:105AC000F03159075CBFD4F8D800C4F8D400DBF833
:105AD0001C309847002800F0658794F8E13023F0E7
