:020000041000EA
:10000000002008205D0100101B0100101D010010E0
:100010001101001011010010110100101101001058
:100020001901001019010010190100101F01001022
:100030001101001019010010210100100903002016
:100040001101001011010010110100101101001028
:100050001101001011010010110100101101001018
:100060001101001011010010110100101101001008
:1000700011010010110100101101001011010010F8
:1000800011010010110100101101001011010010E8
:1000900011010010110100101101001011010010D8
:1000A00011010010110100101101001011010010C8
:1000B00011010010110100101101001011010010B8
:1000C00011010010110100101101001011010010A8
:1000D0001101001011010010110100101101001098
:1000E0001101001011010010110100101101001088
:1000F0001101001011010010110100101101001078
:100100001101001011010010110100101101001067
:10011000EFF30580103800BE00BE00BE00BE00BE7A
:1001200000BE00BEF2EB88713486021050860210C9
:10013000A001001090A31AE7D3DEFFFF42012110B7
:10014000FF010000F8A30200793512AB4FF0000068
:100150001E49086006C881F3088810474FF05040D8
:10016000006810B14FF00000F2E70DA40ECC00299A
:1001700002D000F012F8F9E71549164A002000E015
:1001800001C19142FCD11449884714498847144958
:10019000884700BEFDE701C901C29A42FBD3704700
:1001A0005086021010010020F01F002030A5021020
:1001B000000008200000082030A5021000100820D0
:1001C00000100820000000007047000008ED00E06B
:1001D000F01F00203055002035B40110350200100A
:1001E0002DB40110F8B500BF064B0749C91A891094
:1001F00048BF0131491003D0044B0BB101481847E7
:10020000704700BFF01F0020F01F0020000000001A
:1002100008B5054B1BB105490548AFF30080BDE8A3
:100220000840FFF7E1BF00BF00000000E0370020FA
:10023000B0F5011008B500F095FA002008BD00BF28
:10024000704700BF0020704700B5064B83B0DB6DE0
:100250009847C0F30743C0B240EA032003B05DF8FB
:1002600004FB00BFC8220020024A034BD2F8C000A2
:100270001B681847C8220020A8210020074B70B532
:100280001B6804460D469847054BDB6E23B1294693
:100290002046BDE87040184770BD00BF9C3100206B
:1002A000A8210020024B93F8D60100F0020070470D
:1002B000C82200202DE9F843374F3B68002B67D058
:1002C000364B374E93F88330CBB1336D98473C684B
:1002D000F36C002C5ED000253D609847314F01E063
:1002E000904764B1D4E9012023463968E4685D6031
:1002F000DD600029F4D13B609047002CF2D1D6F8A4
:10030000B0319847284B80461A6882423ED0274D2C
:10031000274A2C681768BC4238D0186037B1D7E933
:1003200001309847FF68002FF9D12C68002C2DD0A0
:100330000027DFF870900BE0F36C9847D4E90130A8
:10034000D9F800206760E760D2B198472C68ECB11B
:100350002368A3EB0803002B18DC336D98472B6848
:10036000A3420AD0002BE7D01A46DB68002BE3D06B
:10037000A342F9D1E368D360DEE7E3682B60DBE7F3
:10038000C9F8004098472C68002CE1D1BDE8F883FB
:10039000034EB4E79847B2E7B4350020202500208B
:1003A000C82200203436002038360020D437002000
:1003B000D44D002008B510F0A5F80022014BC3F879
:1003C0001C2108BDA821002000B585B012F06AFEEE
:1003D0000D4B0290DB6D98479DF80A309DF80B108D
:1003E0009DF808C09DF8092001EA106102EA102278
:1003F00003EA104300EA0C000B43104340EA0320D9
:1004000005B05DF804FB00BFC822002030B5154BD5
:100410008BB093F800E0EC466FEA0E0E124C5FFAD8
:100420008EFE83F800E00FCCACE80F0094E80F00DC
:10043000ACE8070070468CF8003010F079F80446FC
:1004400068461EF0B9FE214668441EF0B5FC03461E
:10045000064A0021128868461A800DF0E1FC0BB0B4
:1004600030BD00BFA0130020B0F50110D0F5011081
:100470004AB1064A92F81521920704D5044A184653
:10048000D2F8143118470020704700BFB44700204D
:10049000C8220020074B93F81221D20604D5026926
:1004A000D3F894118A4200D17047C3F894210AF01E
:1004B00061B800BFB44700202DE9F0410446204E4A
:1004C0000F46336D904698470CB31E4B1D681DB305
:1004D00000221A60D6F8B0319847002100EB0802DC
:1004E00019486C6003682A60AF60E96023B319683B
:1004F000511A002904DC1EE01968511A002903DB97
:100500001846DB68002BF7D1EB60C5600124F36C63
:1005100098472046BDE8F0810C4D2823AC4602E008
:10052000ACF1100C53B1DCF87402013B0028F7D198
:1005300005EB0315CEE7EB600560E7E71C46E6E751
:10054000C822002034360020D4370020E44D00209B
:100550000D4808B5417A11F002010CD00B4B012176
:100560001B6C3C3098470A4B00219A8A0948BDE829
:100570000840FFF7A1BF064B9A8A02B908BD06489A
:10058000BDE80840FFF798BF20250020C8220020C2
:10059000B4470020510500109D050010054B0021B7
:1005A0005B7A9B07044B4CBF044805489A8AFFF7C7
:1005B00083BF00BF20250020B44700205105001054
:1005C0009D05001070B5124E0D46336D04469847D8
:1005D00010490B68A3B1002003E0DA6818467AB12D
:1005E00013465A68A242F8D19A68AA42F5D1DA684D
:1005F00060B1C260002208495A600868DA6018B128
:10060000F36CBDE8704018470B60F9E70A60F1E74A
:10061000C8220020D43700203436002010B504460C
:10062000E30706D40A4B1B6883B12046BDE810409F
:10063000184700210748FFF7C5FFC82200210548D9
:10064000FFF73AFF024B1B68002BEED110BD00BF35
:100650000838002069020010F8B50446164F0E460F
:100660003B6D98478CB1154B1D6895B10021196001
:1006700000201349C5E901460B68E860BBB1194683
:10068000DB68002BFBD1CD600124FB6C9847204632
:10069000F8BD0C4D28232A4601E0103A4BB1D2F8A0
:1006A0007402013B0028F8D105EB0315E0E70D606B
:1006B000EAE71C46E9E700BFC822002034360020E4
:1006C000B4350020E44D0020214B2DE9F04193F892
:1006D000816016B304461F4F88463B6D9847B4B1FE
:1006E0001D4B1D68EDB10021196000201B496C6095
:1006F0000B68C5F80880E8600BB31946DB68002B6F
:10070000FBD1CD60FB6C98473046BDE8F0812646B2
:10071000FB6C98473046BDE8F081BDE8F041FFF73B
:100720009BBF0F4D28232A4601E0103A6BB1D2F847
:100730007402013B0028F8D105EB0315D5E7FB6CEB
:100740000D6098473046BDE8F0811E46DAE700BFED
:1007500020250020C822002034360020F837002051
:10076000E44D00202DE9F04FC44D83B0DFF88083C5
:100770009C22002128461DF035FF4FF420720021F5
:10078000BF481DF02FFF4FF49072002140461DF02E
:1007900029FFBC4BBC4CC8F81031BC4BBC4AC8F854
:1007A0005C30BC4BBC4FC8F86430BC4B0021C8F86F
:1007B0007830BB4BC8F81421C8F87C30B94B4FF4E3
:1007C000F672C8F88030B84B2046C8E91477C8F8EC
:1007D000CC301DF007FF0A234FF480622360B34B37
:1007E000B34EC4F878314FF08043C4F88021B14A49
:1007F000E361C4E914624FF6FF730122A4F8DE310D
:10080000134684F8E621AC4AAC492267AC4A21661B
:10081000C4F89C20AB4A85F88130C4F8D021AA4A9C
:10082000E664C4F8242111F08DFB14F0ADF80AF051
:1008300019FF0FF067FE16F0EBFFA44F00263B7880
:1008400060F300033B7014F0E5F80AF015FF94F82C
:10085000D421397802F06003A3F16003B3FA83F383
:1008600042F060025B0984F8D421DB00C2F340024D
:1008700043EA021321F0180103F018030B43FF2B86
:100880003B700CBF01233346C5E92466C5F88C6074
:1008900085F8846085F882300FD18D4BD4F808211B
:1008A000C4F808318B4B8C481A60A36B98473B788F
:1008B00085F8826060F341033B70874E0DF10601BD
:1008C00096F89C0013F034FA8146002800F08D81E0
:1008D00096F89D000DF1070113F02AFA18B996F861
:1008E0009C3086F89D309DF9060013F069FA3B783C
:1008F000814660F382033B70002800F06E81002087
:1009000013F036FAC36A2BB1006BB0F1000918BFBF
:100910004FF001093B7869F382033B7094F8D531BD
:1009200013F0020305D196F8902163F3410286F893
:1009300090213B78FF2B06D010230021674885F8D3
:100940008030FFF7C1FE0121D4F88C3096F8FC000E
:10095000984713F09DFC636F4FF000009847D4F860
:10096000CC310BB15E48984795F88030626E103BF1
:1009700018BF012385F88330002A00F0E78096F83D
:100980008331DF0700F1E280B28A002A40F0E8807C
:1009900094F8D53113F0060F40F0EC8094F8B6309F
:1009A00003F00C03042B06D14E4BD4F800211A603F
:1009B0004D4BC4F80031D8F8AC30002B00F0238147
:1009C0004FF000094FF0640A4FF0640B0FF09AFDEE
:1009D000EB7823B196F98231002B80F2B18044226A
:1009E000002126481DF0FEFD6FF001030020C5E93F
:1009F00004AB6B6413F0B0F9002840F0E480B38AD4
:100A0000697A003B18BF012396F8202163F3410166
:100A10006972D10705D56B7FC2F3400262F3C3034D
:100A20006B7711F00FFBD4F8D430984796F8120189
:100A3000C0F3400000F0F0FA96F81A01A36D4FF0F1
:100A4000000100F00100984705F058FE06F03EFC5A
:100A500011F044FA0BF05AFC06F078F920492348CB
:100A60000BF01AFFD4F8903013B1002108469847D4
:100A700094F8D6319B0740F1A3803BE0202500206D
:100A8000E44D0020A9800010C8220020410200107F
:100A90008D330110BDC50010B5020010AD6B011003
:100AA000A56B011021AB001095040010B5030010D8
:100AB000190D01104502001041C300100D16011060
:100AC00065700010ED320110A5020010A013002087
:100AD0007D0200109C310020B44700200D0400105E
:100AE000AC250020083800201D060010243100200D
:100AF000A8210020D8F80030D4F8C400984796F90F
:100B00001131002B53DA94F9D531002B07DA95F81F
:100B10008430002B0CBF8020872008F05BF907F0A1
:100B200057FE074698B385F881900FF0EBFCEB7801
:100B3000002B3FF454AF96F98231002BFFF64FAFF4
:100B40008022002138481DF04DFD4DE794F8E13139
:100B5000002B48D1354BB28A6366002A3FF418AFA8
:100B600000213348FFF7A8FC94F8D53113F0060FA5
:100B70003FF414AFC3F38002C3F3400343EA4201DE
:100B800040F28A2001F003010AF06AFB06E7D4F87C
:100B9000AC31FBB1984785F88170074600287FF497
:100BA00015AF13F023FF384603B0BDE8F08F11F006
:100BB000A5FCB0F5807FA6D1012011F0A5FCA2E72D
:100BC00015F0BAFE96E7002013F0D2F864224368CD
:100BD000DA6014E785F88130F8E613F0D7F813F0FF
:100BE000EFF8814696E6134BB5E713F02BF849462C
:100BF00013F000F8A8B190F9002043788DF8062092
:100C000086F89C3064E694F8D731D8077FF5D8AEE3
:100C1000D4F81431002B3FF4D3AE074BC8F8AC30F6
:100C2000CEE602460B23E9E720250020490200100A
:100C300051050010C903001071040010F8B50E4FE3
:100C40003C689CB100250D4E02E090473C606CB1C1
:100C5000D4E9012023463168E4685D60DD60002945
:100C6000F3D1336090473C60002CF1D1044B93F8F2
:100C7000833003B9FEE7F8BDF83700203436002092
:100C800020250020F8B504692DED028B08EE101A1E
:100C9000E16B002942D000266425027D214B22F021
:100CA0002002646802755A7F1F4F42F0800287ED70
:100CB000198A02765A7F80ED008A42F0040286602B
:100CC0005A77027E42F0040202765A7F42F0010215
:100CD0005A77037E43F0010303760120E5608847DD
:100CE000D0ED007A28EE278AB5EE408AF1EE10FAB0
:100CF00010D00E4B9FED0E7AD3ED1D7A67EE877AFA
:100D0000F4EEC87ABDEC028BF1EE10FA4CBF2B204A
:100D10003046F8BD2920BDEC028BF8BD1420BDEC97
:100D2000028BF8BD20250020BC300020B4470020F5
:100D30006666663F0A4A92F8833002F1840C0133FA
:100D400003F0030303EB43010CEB810C02F1B80148
:100D500082F8833007C98CE807000BF07DBD00BF27
:100D6000BC3000200A4B9A690AB1DB69184730B4DD
:100D7000084D0446AC46084BD3F8D0301868596883
:100D80009A68DB68ACE80F0028462C6130BC7047DD
:100D9000A8210020BC500020BC30002020490022A7
:100DA0000B46B7EE007A30B4A1F10C0073ED017A76
:100DB000F4EE477AF1EE10FA4FEA4202D2B218BFCF
:100DC00042F001029842F1D1F7EE007A154C4FF053
:100DD000000C0023C4ED057AC4ED047AC4ED037A57
:100DE000114DC4F808C085F82E30C4F804C0C4F80A
:100DF00000C031ED017AB4EE677AF1EE10FA4FEAF5
:100E00004303DBB218BF43F001038142F1D19342A7
:100E100001D130BC7047022030BC0BF0E5BD00BFF3
:100E2000BC130020A4130020BC300020472370B561
:100E300000F13604E4B23B2C104D204628BF3B2085
:100E40002B800FF075FB064628461EF0B5F931469B
:100E500028441DF0B1FF3B2C01D8084870BD034663
:100E6000074AA4F13B0012881A800FF061FB01468B
:100E700028461DF005FC014870BD00BF782E0020FB
:100E80005050021000487047B01300200020B7EE09
:100E9000007A094BA3F10C0273ED017AF4EE477A64
:100EA000F1EE10FA4FEA4000C0B218BF40F0010066
:100EB0009A42F1D1704700BFBC13002010B5044620
:100EC000F9B140F20113174AB2F80C21934318D03C
:100ED00007F064F8002814DB134B00EB40002044BB
:100EE00003EB800003EB8402D0ED217AD2ED026A9D
:100EF00092ED317A77EEA67A77EE877A17EE900A3E
:100F000010BD094B03EB8401D1ED027AD1ED2E6ABD
:100F100091ED317A77EEA67A77EE877A17EE900A1E
:100F200010BD00BFB4470020BC30002030B583B0F6
:100F3000019298B3022803D0274BD87103B030BD7B
:100F4000DDED017A254BF8EEE77A03EB4113D3EDA3
:100F50000C6A87EEA67A224A1F4C926904EB810341
:100F600093ED316A83ED317A2AB9D4F8D03003EBAE
:100F7000810383ED007AB4EE476AF1EE10FA14BFF4
:100F800001210021E0710029D8D04FF480600BF0DE
:100F90002BFD03B0BDE830400BF05EBC114A0146AA
:100FA00014464FF0000C0E4B9D6954F8D039A3F154
:100FB0000C0E72ED017AF5EE407AF1EE10FAC2F8FD
:100FC00000C018BF41F001010DB9C3F808C0043BCF
:100FD0007345EED1D6E700BFBC300020B4470020F7
:100FE000A82100208C31002071B1012905D10222F5
:100FF0000023027043708170704701220223002198
:1010000002704370817070470A460123022102700A
:1010100043708170704700BF2DE9F043654F87B082
:1010200097F88140002C50D0634D644C0021D422AD
:1010300028461DF0D7FA94F81231614ED9066DD5C5
:10104000F369D4F894019847C5F8D000002865D01A
:10105000B369002B6AD05B4B1C682CB12046A46896
:101060001AF0A0F9002CF9D17B7F574C002085F8AD
:101070002C30EC6512F07CFEA862FFF78FFE287D15
:10108000A4F1140109F0C4FD10B90720B368984712
:1010900097F88130002B36D0484B93F811319B07DD
:1010A00055D5736C43B100224849CDE90022086848
:1010B000029200285BD0984714F054FD336B53B371
:1010C0003D4807B0BDE8F04318473B4DB8220646FF
:1010D0002146284695F8149095F807801DF082FA6D
:1010E0003B4BD5F8D000D3F81C310269AA670BB18D
:1010F000214698472EB1324E85F8149085F8078026
:10110000A9E72F4EA7E7736C002BD4D114F02AFD6A
:10111000336B002BD4D107B0BDE8F083F369002016
:101120009847B369C5F8D000002B94D1D5F8D020EA
:10113000136053609360D360136194F81231DA0640
:1011400089D5D4F89421D5F8D0301A6183E70B20E3
:10115000204909F05DFD08BB0720B3689847736C10
:10116000002BA9D097F88120002A9CD1A3E74C68D6
:101170009442A0D18C6894429DD10A46CDE90300E7
:10118000059052F8B00F002895D15068049A90420B
:1011900091D1D1F8B81091428DD18DE70C2395F9FA
:1011A000832002FB03530B4A843307CA83E80700FA
:1011B000D5E700BF20250020BC300020B447002028
:1011C000A821002018380020D8300020C43000208A
:1011D000C82200207431002000487047D830002019
:1011E000002208B5054BC3E900229A6013F050F8BD
:1011F000BDE8084010200BF0F7BB00BFD83000203E
:1012000008B5054A054B50765B6F9847BDE8084026
:1012100020200BF0E9BB00BFBC300020C82200201A
:1012200040B110B504462046A4681AF0BBF8002C63
:10123000F9D110BD704700BFB0B10C4B10B5D3F859
:10124000C030044603B19847237823B92046BDE84F
:1012500010401AF0A7B8204600210CF0E1FD20460E
:10126000BDE810401AF09EB8704700BFA8210020CA
:10127000014B1868704700BFD82F002070B5044696
:1012800060B31C4B187848BB5B7833BB1A4D607E4B
:1012900084F838306B7E2A889842228004D0174B1D
:1012A000B3F8981012F0A0FA0C22154904F11C00B2
:1012B0001DF06AF9A0B1104E04F1400EB44620684A
:1012C0006168A268E36810347445ACE80F0006F169
:1012D0001006F3D10120EB6B2B6670BD002070BDB2
:1012E000064B626AB3F8A030217FA86A12F074FF3F
:1012F000E1E700BF20250020BC300020B4470020DB
:10130000D83000202DE9F04F037817465A1E1F2AC7
:101310000446884683B004D814F8013F581E1F289D
:10132000FAD93B2B50D02F2B4AD02378002B66D0F4
:10133000A2460026651C202B08D9292B05F1FF3970
:101340001AD03B2B13D0282B0BD066B315F8013BDA
:10135000002BF0D1002320468AF8003003B0BDE80E
:10136000F08F2E4615F8013B002BE4D1F2E7002E5A
:10137000ECD189F80060EDE77EB13E4B93F8813007
:101380005BB905F8013C3C4B93F8D6315B0723D49D
:10139000002F4AD03B68002B33D015F8013B0026C4
:1013A000002BC8D1D6E7A3F16102192A98BF03F038
:1013B0005F030AF8013B15F8013B002BBBD1C9E7DD
:1013C0002E4B1B7ADA0605D500232046237003B086
:1013D000BDE8F08F0134A8E73378002BDDD017B1DA
:1013E0003B68002BD9D1DFF89CB0DBF8C430002B70
:1013F000D3D030469847002688F80000A6E7A246DA
:10140000A8E7DFF880B0DBF8BC3023B1304698475E
:1014100038600028C1D10422304619491DF0CCF9AA
:1014200038B13378002BE0D1B7E73378002BB4D054
:10143000D9E7A9EB0602A2F103094846019219F087
:1014400075FF019A38600028EBD03379202B0FD13B
:10145000731D194613F801CBBCF1200FF9D006F12A
:1014600001099144A9EB01094A461DF02FFE94E7BA
:10147000311DF9E7BC300020C822002020250020C3
:10148000D4F50110A821002000212DE9F04FDFF84C
:10149000AC922DED088BD9F80431A44F5B1A18BF1C
:1014A000012397F87D20ABB093EA020515918DF8E2
:1014B000531015AA0DF1530118BF87F87D30FFF7BF
:1014C00021FF9DF853800446B8F1000F09D103783D
:1014D000252B0CD07BB9159808B1FFF7ADFE9DF810
:1014E000538040462BB0BDEC088BBDE8F08F4378AD
:1014F000002B00F0B8808E4D8C4FE0220021284652
:101500001DF070F80023BC4605F1080607938DF81E
:101510002030ADF818309A46BCE80F000FC6BCE882
:101520000F000FC6BCE80F000FC69CE80F0086E84E
:101530000F00FB6D09932378242B00F0358322469E
:10154000012316930023189392F800B01A93BBF16D
:10155000000F01F06D83BBF1400F67D9BBF15A0F4B
:1015600000F2F586BBF14F0F64D1724B2046179302
:1015700016AB194618AA04930FF0A6F805908DF83B
:101580005300002841F06D86DDED177AF4EE677A9E
:10159000F1EE10FAB0EE677A81F1BE82059B1E462D
:1015A0000A93FCEEE76AF8EE665A9FED636A77EEFF
:1015B000E57A67EE867AF8FE677ACDED186ABCEEBA
:1015C000E78ABBF1470F60D0BBF14D0F40F0D280EE
:1015D0002B78412B00F04681189E632E40F2FC814F
:1015E0000023DFF85CB11A93DBF8F430002B00F035
:1015F0009A8018EE102AB0B2002A00F0238300EB84
:10160000800606EB86001FFA82FB0BEB800080B29F
:1016100098470646002800F08680189B03EB83035A
:1016200003EB83030BEB83039BB212E3BBF1240FA9
:1016300040F08D8616AB1946204617AA04930FF08A
:101640009BF8002801F04E82002608EE106A0596ED
:101650000A96DDED177AF4EE677AF1EE10FAB0EE45
:10166000677A9ED7ADE7037097F87D30002B00F0C6
:10167000CE82002D40F0968397F87C30002B41F00D
:10168000FC8139238DF8533025E700231A93189BEA
:10169000412B59D8412B46D8DFE813F044034403CB
:1016A0004403440329044403450017041704450078
:1016B000AC03450045004500450045004500A30337
:1016C000A303A30331043104450045004500450050
:1016D00045004500AC034500AC03450045007204DD
:1016E0004500450045004500AC044500A504450003
:1016F000450003044500450045004500450003043E
:10170000F303F30345002904F202F202F202F202AB
:10171000F202F20245009D044500450045008704A1
:101720004C2B00F02D844FF01408DAE6BC3000207A
:10173000DC2F00200000C07F0000C842C82200202B
:10174000A82100200000C07F592B40F23682A3F16F
:101750005A02092AE7D8A3F15C02072A03F2E384BC
:10176000DFE812F06C031603160363030503050399
:10177000FB02FB020023ABF1240B1993BBF1360FE4
:10178000D1D801A353F82BF0BB1800102717001075
:101790002717001027170010271700102717001011
:1017A0002717001027170010271700102717001001
:1017B00027170010271700102717001027170010F1
:1017C00027170010271700102717001027170010E1
:1017D00027170010271700102717001027170010D1
:1017E00027170010271700102717001027170010C1
:1017F000271700102717001027170010BF2100100F
:10180000AB210010972100107F21001069210010EA
:10181000512100102717001019210010FD20001081
:10182000E1200010C52000109120001027170010A3
:10183000652000103D1900103D20001051200010BF
:1018400029200010C92200106F2200105922001018
:10185000432200102D2200100F220010F121001051
:10186000D321001095F8C9309A0601F1518185ED18
:101870001A7A43F0200385F8C930169B5A1C169239
:1018800014F803B0BBF1000F00F06585BBF1400F09
:1018900029D8BBF1240F40F05A852046049917AA95
:1018A0000EF06AFF00286DD1022E41F01B815FED22
:1018B0005B7AB0EE677ACDED177A18EE103A002B0E
:1018C00040F04185BDEEC77AD5F8C82085ED2C7A69
:1018D00012F0010308EE103A41F01A81012313437C
:1018E000C5F8C830C9E7BBF15A0F00F23085BBF12B
:1018F0004F0F5FD1DB4B2046049918AA17930EF0C7
:10190000E3FE8DF85300002841F00C81DDED177ADD
:10191000F4EE677AF1EE10FA19900FD6BCEEE77A82
:10192000B8EE476ADFEDD06A77EEC67A67EEA67A40
:10193000F8FE677A8DED187ABCEEE78A18EE103A59
:10194000002B40F000859DF86530D5F8C82043F0A5
:1019500080038DF86530189BC5F8B830199B12EAE2
:10196000030108EE101A41F0D380C0490B42B6D0F3
:10197000DDED177AF5EEC07AF1EE10FAAFD54FF043
:101980000408AEE59DED177AB4EE477AF1EE10FA51
:1019900093D6FCEEC77AB8EE678ADFEDB36A37EE0E
:1019A000488A28EE268AB8FE488ACDED187ABCEE21
:1019B000C88A82E72046049917AA0EF0DDFE0028A7
:1019C0007FF447AE022E41F08D80DFEDA97AB0EEB4
:1019D000677ACDED177AF4E518EE103A002B40F057
:1019E000B2848DED1A8A632E00F2248101A353F88C
:1019F00026F000BF6B1E00106B1E00106B1E001047
:101A0000571F0010571F0010571F0010E32200102F
:101A1000251F0010251F0010251F0010351C001069
:101A2000351C0010351C0010351C0010351C001032
:101A3000351C0010351C0010351C0010351C001022
:101A4000351C0010351C0010351C0010351C001012
:101A5000351C0010351C0010351C0010351C001002
:101A6000351C0010351C0010351C00106B1E0010BA
:101A7000351C0010351C0010351C0010351C0010E2
:101A8000351C0010351C0010351C0010351C0010D2
:101A9000351C0010351C0010351C0010351C0010C2
:101AA000351C0010351C0010351C0010351C0010B2
:101AB000351C0010911B0010911B0010911B001091
:101AC000911B0010351C0010911B0010351C0010DC
:101AD000351C0010851B0010351C0010351C001033
:101AE000351C00106B1E0010232300102717001058
:101AF00027170010271700102717001027170010AE
:101B00002717001027170010351C0010191F001090
:101B1000191F0010191F0010191F0010351C00108C
:101B2000351C0010351C0010351C0010351C001031
:101B3000351C0010351C0010351C0010351C001021
:101B4000351C0010351C0010351C0010351C001011
:101B5000351C0010351C0010351C0010351C001001
:101B6000351C0010351C0010351C0010351C0010F1
:101B7000351C0010351C0010351C0010351C0010E1
:101B80000B2300103B4B93F8203158077FF5CBAD6A
:101B90006E704FF4801300261AEA030F41F0448060
:101BA0004AEA03039A4668E60121042385F80AA05D
:101BB000E21C2981ADF81810C3E4482B7FF6B3ADC1
:101BC00001202D4AA3F1490100FA01F10A40002A3F
:101BD00040F0EE80502B7FF4A3AD9DF8682042F0DA
:101BE00002028DF868202B81002385F8373018EE2B
:101BF000103A002B40F0A7831A9B1AEA030208EE62
:101C0000102A41F0118016464AEA030A35E697F891
:101C10007C30DFF868B083F0010387F87C30DBF8B4
:101C2000E83013B197F87C0098472378002B3FF4F5
:101C300052AC60E4DFF844B0DBF8F430002B3FF442
:101C400072ADB0B29847064600283FF46CADBDF8BF
:101C500060306B809DF86A3043F020038DF86A3065
:101C60001A9B99E70000C07F0000C84280CA180094
:101C70000000C07FB447002001370100A8210020E8
:101C80009DF869203B2B42F008028DF86920A3F1F2
:101C900036022A77ABD118EE102A1E2A3FF643AD42
:101CA00001A353F822F000BF4123001027170010B2
:101CB00027170010271700102717001027170010EC
:101CC00027170010271700102717001027170010DC
:101CD0002F230010271700102717001027170010B8
:101CE00027170010271700102717001027170010BC
:101CF00027170010271700102F2300102717001098
:101D0000271700102717001027170010271700109B
:101D1000271700102717001027170010271700108B
:101D20002F230010059A002A42F058849DF868205D
:101D3000052B42F002028DF8682040F04C8718EE27
:101D4000102A1AB10A2A7FF4EEAC33232B81002328
:101D500085F83730022305934FE7623B85F835302D
:101D60009DF8693043F002038DF869303FE7C44ABB
:101D7000127E022A7FF4D7AC603B83F0010385F822
:101D800049309DF8693043F020038DF869302EE723
:101D9000C3F15E03AB729DF8683043F020038DF809
:101DA000683024E70123DFF8E4B287F87C3036E7B7
:101DB000059A002A42F012849AB23B882A819B1A23
:101DC00018BF0123069A85F8370063F341029DF896
:101DD0006830069243F002038DF8683002230593C1
:101DE00005E7113BAB739DF8683043F004038DF8B1
:101DF0006830FCE618EE102A002A40F02087059A89
:101E0000002A42F0EB839DF868201C2B42F001026F
:101E10002B708DF8682041F053820122059218EE54
:101E2000102A13442B700123E7E60223AB729DF8BE
:101E3000683043F020038DF86830D8E618EE103A89
:101E4000002B40F0D386059B002B42F0C7839DF802
:101E5000683043F001038DF868300123059318EED4
:101E6000103A5C332B700123C7E6002E00F0338656
:101E7000012E00F01D8685F8206000264FF40043F7
:101E80008AE6A3F13303B3FA83F35B0985F83630AE
:101E9000042305939DF8693043F004038DF86930FD
:101EA000A5E6312B00F0798618EE103A002B40F0B1
:101EB0007A86DFF8D8B1DBF81830002B3FF433AC6A
:101EC0000123EB734FF4807397E66D4A127E022A6A
:101ED0007FF429ACA3F10703B3FA83F35B096B73B7
:101EE0009DF8693043F040038DF869307FE62B7030
:101EF0009DF8683043F001038DF8683077E6A3F170
:101F00001403B3FA83F35B09EB729DF8683043F076
:101F100040038DF868306AE685F8DC605346002699
:101F20009A46AAE4069B082E43F48073069300F0B9
:101F3000E585092E00F0DA8599F8E6319E077FF5F0
:101F4000F2AB95F82130002643F0020385F82130EA
:101F50004FF4002320E6A6F10403B3FA83F3053E11
:101F600018BF012695F848205B0946EA430322F092
:101F70000302134385F8483000264FF480230BE614
:101F800018EE102A002A7FF4CEAB059A002A42F000
:101F900025839BB22B81002385F837309DF868306C
:101FA00043F002038DF86830D4E641232B709DF88E
:101FB000683043F001038DF8683018EE103A002BBA
:101FC0007FF4B1ABDFF8C4B0DBF81831002B3FF47D
:101FD000AAAB012311E618EE103A002B7FF4A3AB55
:101FE0004FF4805309E69DF8683043F080038DF884
:101FF0006830FCE5D9F81031002B3FF494AB18EEB3
:10200000103AA3F114021E2A3FF68DAB1D4BD340AC
:10201000D8077FF588AB18EE102A1B4BA3FB0223D1
:10202000DB088A331893B0E7D5F8C82085ED1D7A10
:10203000510300F16D854FF4802350E4D5F8C8209A
:1020400085ED1B7AD30300F163854FF4803346E4BA
:10205000D5F8C82085ED1C7A900300F159854FF41E
:1020600000333CE4BDEEC77AD5F8C82085ED2D7A63
:10207000510400F14D85DDED177A4FF4804379E48A
:10208000B447002001041040CDCCCCCCA8210020C6
:1020900018EE103A002B40F05681B4EE477AF1EE7C
:1020A00010FA6CBFFF239DF86030D5F8C82085F882
:1020B000C43012F4805308EE103A40F029854FF4F2
:1020C00080530CE4079BD5F8C82043F00403500666
:1020D00085ED187A079300F11B854023FFF7FFBBBE
:1020E000079BD5F8C82043F002030793930685EDBC
:1020F000177A00F10D852023FFF7F1BB079BD5F878
:10210000C82043F00103D10685ED167A079300F14C
:10211000FF841023FFF7E3BB18EE103A002B40F0CA
:102120001281B4EE477AF1EE10FA6CBF4FF0FF3334
:10213000189BD5F8C820C5F8BC3012F4006308EE2F
:10214000103A40F0E584DDED177A4FF4006311E4B6
:10215000D5F8C82085ED157A900500F1D984DDED1C
:10216000177A4FF4007305E4D5F8C82085ED147A8A
:10217000D30500F1CD844FF48073FFF7B0BBD5F8E1
:10218000C82085ED137A110600F1C284DDED177ABF
:102190008023FFF7EFBBD5F8C82085ED217A100723
:1021A00000F1B6840823FFF79ABBD5F8C82085ED67
:1021B000207A530700F1AC840423FFF790BBD5F8D5
:1021C000C82085ED1F7A910700F1A2840223FFF752
:1021D00086BB089BD5F8C82043F00403089353013D
:1021E00085ED277A00F194844FF08063FFF777BB89
:1021F000089BD5F8C82043F00203910185ED267AAB
:10220000089300F185844FF00073FFF768BB089BCB
:10221000D5F8C82043F00103D00185ED257A089355
:1022200000F176844FF08073FFF759BBD5F8C820D2
:1022300085ED247A130200F16B844FF40003FFF75D
:102240004EBBD5F8C82085ED237A510200F1608499
:102250004FF48003FFF743BBD5F8C82085ED227A01
:10226000900200F155844FF40013FFF738BB18EECD
:10227000103A002B67D1DFF8F0B11898DBF818306E
:10228000002B00F04284DBF81C309847B0FA80F055
:102290004009002841F05980DDED177AF4EE677AA5
:1022A000F1EE10FA6CBF4FF0FF33189BD5F8C82041
:1022B000C5F8C03012F4801308EE103A40F02884BC
:1022C0004FF48013FFF756BBD5F8C82085ED1E7A72
:1022D000130300F11D84DDED177A4FF40023FFF79F
:1022E00049BBD9F8243198470646002840F0A0831E
:1022F000594B1B7F042B3FF411AED9F8E030002B73
:102300003FF411AA4FF4003346E46323DFF858B1D9
:1023100085F82030DBF81C31002B7FF4AEADFFF7E1
:1023200002BA012200264FF400330A9234E44B4BE8
:10233000A3FB0223DB0805332B774FF400635CE437
:102340004FF4006359E44FF01708FFF7CAB84FF095
:102350000108FFF7C6B89DF86830DE0703D52B7873
:10236000412B00F07F849DF82020002A00F07E841D
:10237000059B002B00F0D98397F880301BB1059B9B
:10238000022B00F0D58395F8C930580605D5344B9B
:10239000D5F8B410994200F3A384CAF3074414F0AB
:1023A0002001049266D06E88002E00F01884DFF8B9
:1023B000B8B02C48DBF8F810D5F8C86088470C9006
:1023C0001890002840F0F485D5F8C8104E4016F05B
:1023D000E06104D0049A22EA11628DF82020B10550
:1023E00048BF0021079BC6F3021223EA0203C6F38B
:1023F00007224CBF95ED159A9FED1C9A079348BF95
:102400006965130605D50022D5F8B830C5F8B8209F
:102410000C93300348BF0021C6F307424ABF95ED35
:102420001E8A9FED128AA96712F0100200F0C38580
:102430000022D5F8C030C5F8C0200E936A8802B3D8
:102440000C3A062A1DD8DFE812F0360130012101CE
:102450001C001C000401EB00B4470020CDCCCCCC08
:1024600080969800DC2F0020A821002000000000AA
:102470003333CB411FED038A0E46B0EE489A0E91DE
:102480000C91BDF8182002F0010312F001010B932A
:1024900000F0D98295F8C920930740F1CC84E97AFD
:1024A00095F8C82039B1D5ED157A1FED0F7A67EE92
:1024B000877AC5ED157AD1073CD595F8CA20120761
:1024C00000F1AF821AF0020F5FFA8AF20BD029896D
:1024D000212900F0A68240F24B10814200F0A18237
:1024E0004C2900F09E82930603D5AA7A022A00F0B6
:1024F0009882CAF307231AF4005F049304F00401DE
:1025000040F08F82E0060A4603D56878332800F051
:102510008882002A00F01383D5F8B020511CC1F244
:10252000C784002A01F3C48495F8C82022F0010270
:1025300085F8C820AA7A022A00F00583CAF3072387
:102540001AF4005F049340F00F83099B002B00F006
:102550001585099B95F8CA105A78090785F849200E
:1025600040F11283012A00F02985012311930A9B6F
:1025700095F8CA20002B00F02883900740F1508383
:10258000286F0EF073F900283FF4DDAEDFF8F0B3EA
:10259000D5ED1C7ADBF81820002A00F03C86FDEE11
:1025A000E77ADBF81C2017EE900A9047B0FA80F02B
:1025B0004009002840F0C986D5ED1C7AFCEEE77A88
:1025C000C5ED307A95F8CA1060F3410185F8CA105C
:1025D000620740F14E8395F84820930706D5099B82
:1025E000DA68927A12F00A0F3FF49DA8E40640F1EF
:1025F000898095F8CA30D80700F1CC844FF07E531B
:10260000EB666B78303B082B7CD8DFE813F0750065
:102610000102F101E1017B00D1017B007B00BB01E4
:1026200095F8CA20D20740F1FB82D5ED1B7AFCEE6B
:10263000E77ACDED047A9DF810B011F033FC5845DF
:1026400001F2BC8395F8CA2022F0010285F8CA2065
:1026500017E795F8CA2002F00302032A40F0E0824F
:10266000D5ED1B7AFCEEE77ACDED047AD5ED1C8A28
:102670009DF810B011F016FC584501F2E48595F86C
:10268000CA2022F0030285F8CA20FAE6B1480421E4
:1026900090F8822122F06A0242F04A0280F88221F8
:1026A000D9F84020AC489047EBE64021D9F84020CB
:1026B000A9489047E5E695F8CA20D10740F1B082D5
:1026C00095ED1B7ADFEDA57AB4EEE77AF1EE10FA1C
:1026D00007D4DFEDA37AB4EEE77AF1EE10FA77FED5
:1026E000877A17EE900A15F005FB95F8CA2022F0BC
:1026F000010285F8CA20C4E695F8343023F00503BA
:1027000085F834302B78042B10D195F8CA30DA07CD
:1027100040F18682D5ED1B7AF5EEC07AF1EE10FA23
:102720003FF52DA923F0010385F8CA30AB7B0D934B
:10273000002B00F01D84012B00F00E8402230024E6
:10274000CDE90F3401230D93EB7A9BB19FED857A90
:102750000323854A9DF82000013B20FA03F1CC07B2
:1027600005D5D2ED277A67EE877AC2ED277A043A4B
:10277000002BF1D1049A7B79520607D56A7B9A42E5
:1027800004D008207A710AF02FF97B7953B1089BA5
:10279000D90707D5D5ED257AB6EE007A67EE877AA8
:1027A000C5ED257A059B042B00F07E8397F82E005B
:1027B000D8B12C7B6C4D03232A466C499DF820C070
:1027C000013B2CFA03F010F0010F0AD0D2ED277A6A
:1027D000D1ED056A002C00F0328367EEA67AC2EDD7
:1027E000277A043A0439002BEAD1049BDB072CD565
:1027F000EB7B022B01F05081032B00F09585012B20
:1028000023D1DFF87CB1DBF81830002B3EF48BAF1E
:1028100095F8C930190741F1F881D5F8BC0040B9E5
:102820004C4B93F890315A075CBFD5F8C000C5F8FF
:10283000BC00DBF81C309847002800F0868595F82E
:10284000C93023F0080385F8C930049B1C0709D55B
:10285000287F3B7D834205D0454908F0D9F90028FF
:1028600001F0B8862A789DF820300A2A1C4600F02C
:10287000D3835C2A00F03882002B40F0F68429894B
:10288000023989B2012940F2F084352A01F06B82C5
:1028900041F23B81412A40F0478295F8CA30D9077E
:1028A00040F1BE81DFED337A95ED1B7AB4EEE77A25
:1028B000F1EE10FA01F3FC8213F044F9D42303FB88
:1028C000007013F0A7F8002802F01B84002395F88D
:1028D000CA2063F3000285F8CA20D5F8C8108DF825
:1028E00020304908C5F8C810002901F03681224A75
:1028F00004964FF0010B2E46204C154617E001239D
:10290000042903FA0BF007D11168226802431FFA69
:102910008BF0226012F010FBD6F8C8100BF1010BFF
:102920004908C6F8C8100835002901F05582CA07C1
:10293000F2D5AA68002AEFD0297B0229DFD11168DD
:10294000012307EE901AF8EE677A03FA0BF017EE00
:10295000901ADAE7B44700205C2500200000B4C2DA
:102960000000B4423333CB41DC2F0020A4130020FD
:10297000EC2F002000FF7F473C580210D82F00208A
:10298000A8210020C54B93F8203159077FF5BAAE36
:10299000D5ED1B7AF5EE407AF1EE10FA0CBF01226C
:1029A000002295F8343062F3C30385F83430A9E689
:1029B000D5ED1B7AF5EE407AF1EE10FA0CBF01224C
:1029C000002295F8343062F3410385F8343099E6FB
:1029D000D5ED1B7AF5EE407AF1EE10FA0CBF01222C
:1029E000002295F8343062F3820385F8343089E6AA
:1029F000D5ED1B7AF5EE407AF1EE10FA0CBF01220C
:102A0000002295F8343062F3000385F8343079E61B
:102A100095F8343023F0050343F0050385F834308E
:102A200070E6D5F8B020002ABFF67BADFEF7A7BF51
:102A300002287EF478AED9F820310026002B7FF4EE
:102A400061ACFEF770BE2A89212A00F03781A97A8D
:102A5000012900F0E18111F0FD0F40F0298195F886
:102A6000C90095F8C820800700F1F583B87888423E
:102A70007FF421AD396E69651DE5DFF830B287F866
:102A80007C8006F081F90820DBF80C309847DBF8F1
:102A90004C50002D3FF4C3A80FF030FD0146A1F1CA
:102AA0000201B1FA81F1FF204909A847FFF7B7B841
:102AB00099F8DC319B0640F1E480D9F86C309847F6
:102AC00080F02006C6F34016002E40F0E2804FF45E
:102AD0000043FFF761B8032385F820304FF400432B
:102AE000FFF75AB84FF00208FEF7FBBC002385F849
:102AF000213000264FF40023FFF74EB895F821301F
:102B000043F0010385F82130F3E7C00FFFF7C1BBA5
:102B10004FF01908FEF7E5BC059B1E4619930A9372
:102B2000FEF711BF8046FEF7DCBC97F880301BB182
:102B3000069BDC0740F10D840223059323E4AA7A67
:102B4000022A7FF402AD099B002B3EF4ECAD099BF9
:102B5000DA68D26B002A3EF4E6ADCAF307231AF412
:102B6000005F04933FF4F5AC95F84920099B012AD6
:102B700000F06E815978012900F058835A7095F859
:102B8000CA100B073FF5F1AC099B002A40F0EC811D
:102B90009A680023AA671193E9E40023EB734FF4CA
:102BA0008073FFF72AB8142B00F091800A2B7EF473
:102BB000BAAD059B002B41F0118502230322EB7374
:102BC00005924FF48073FFF718B8D1065CBFBA6F57
:102BD000C5F8C020FCE402220592FFF704B89FED7F
:102BE000308A0E96B0EE489A0C964AE45C232B701D
:102BF0009DF8683043F001038DF8683018EE103A04
:102C00001E2B3EF690AD18EE102A264BD340DE0761
:102C10007EF589ADFFF723B9BEF1000F01F08C8678
:102C20004FF01C08FEF75DBC4FF01508FEF759BCCD
:102C30005A46CDF814B0CDF828B0FFF7A4BB9DF8E4
:102C400068201C2B42F001022B708DF8682002D006
:102C50001E2B7FF478AB18EE102A0A2A3FF4DFA867
:102C6000FEF761BDCDF81CB08DF820B00022FFF753
:102C700083BB099B002B3FF4B9AC1A7885F8482038
:102C8000B4E4094B1E7AC6F3801686F00106F6B24C
:102C90001AE7012385F82030FFF7EFB8B44700208A
:102CA000000000000104104020250020A821002081
:102CB00095F8C820D0073FF500AC3FE495F8C82050
:102CC000500600F17E81796E6966FFF7F4BBDFF88C
:102CD00044B3DBF81830002B3EF425AD03235DE749
:102CE0004FF01B08FEF7FDBB002B01F0B28303225F
:102CF000BF49C048013A23FA02F4E40740F1758164
:102D0000D0ED1C7A91ED066AD1ED276A77EEC67A8E
:102D100090ED337A77EEE67A77EEC77AC1ED277ACF
:102D200004380439002AE5D1B5F808B0BBF1500FDA
:102D300000F01383059B022B00F036830B9B03F0FE
:102D4000FF042BB995F8CA3023F0180385F8CA3070
:102D500095F8C93023F0420385F8C930059B002B54
:102D600040F0BD820023D5F8C8100593002941F03A
:102D7000398420AB2822184604931BF033FC9E4B69
:102D80009DF89520079393F89930B3FA83F35B0984
:102D900063F3410263F382028DF8952097F8833044
:102DA0008DF89930002C00F03E833AF0490340F052
:102DB00018872B78352B02D0002B40F012877A7EB3
:102DC0008E4B97F87F6021AC8DF896200FCB84E86E
:102DD0000F00002E40F0168795F8243013F0020300
:102DE00003D02B6B9B7AC3F3C0039DF89450844CA3
:102DF00063F3C715224604987D498DF8945003F07B
:102E000087F8804600287EF46CAB7E4B93E8070081
:102E100084E80700FEF765BB059B022B7FF448AFF3
:102E2000502A3FF445AF002A3FF442AF95F8C9203D
:102E300093073FF53DAF4FF01608FEF752BB91EDFB
:102E4000027A77EEC77AA7EEA67A82ED277AC8E4EF
:102E5000DA68917ACB077EF566AC95F8CA10080758
:102E60007FF5DEAE95F9C81092ED067A002950681C
:102E7000C0F27E8680ED077A0121099B597095F892
:102E8000CA10090771D5E97AD5ED1E7A002900F03C
:102E900048829FED5D7A67EE877A5268C5ED1E7AAB
:102EA000C2ED047AFFF761BB95F83630002B00F0D5
:102EB000FC8500239DF8201085F83630002901F0AC
:102EC000C8824FF0030B1C46504A0BF1FF3B484BA6
:102ED00021FA0BF0CDF84880B0462E461546C207C1
:102EE0001397F7EE008A27461C461CD496F8360046
:102EF000043C40B9D5ED027AF4EE687AF1EE10FAAE
:102F000014BF0120002086F83600BBF1000F00F04E
:102F1000ED819DF820100BF1FF3B21FA0BF0C20769
:102F2000A5F10405E2D5D4ED277A95ED057AB4EE46
:102F3000677A4FF0010CF1EE10FA0CFA0BFC21EA63
:102F40000C034FF00200C5ED057A18BF47F00107EA
:102F5000089309F049FDC9E70D9B109300230F93D7
:102F600002230D93FFF7F0BBDA685268D26910E6CE
:102F700001230220CDE90F30FFF7E6BB95F8CA2008
:102F8000C2F3C003119313077FF5F1AA099B5A7886
:102F9000FFF7E8BAD5ED1B7AF5EEC07AF1EE10FA3C
:102FA0003EF5EDAC23F0010385F8CA30FFF729BBED
:102FB0008046FEF796BA0E92FFF740BA099BDA6890
:102FC00061E761F3861285F8C820EA7AD5ED187AB0
:102FD0002AB19FED0F7A67EE877AC5ED187AC5EDB5
:102FE000197A95F8C820FFF766BAD0ED307A95E6E1
:102FF000DC2F0020BC3000202025002000300020E5
:10300000243100207030002066669843A41300200D
:103010003333CB41A82100204BB995F8C420142AA2
:1030200001F0178295F8CA20500741F11282D5F8B5
:10303000C82012F4883F3FF4F3ADD5ED1B7AF5EECE
:10304000C07AF1EE10FA3EF59AACF6EEE77AFCEEB5
:10305000E77ACDED047A95F8C4109DF81020013977
:1030600013293EF660AB01A050F821F0BD300010EE
:103070009F31001027170010271700102717001086
:103080002717001027170010271700102717001008
:10309000BD300010BD30001027170010271700109A
:1030A00027170010271700102717001027170010E8
:1030B0002717001027170010A9310010DFF8E4B21D
:1030C0001293DBF8181000293EF42DAB1046DBF804
:1030D0001C10049288470446002800F0368195F8B9
:1030E000CA10049A11F0040F129B07D0696FC160D7
:1030F00095F8CA1021F0040185F8CA1095F8C4109B
:103100000B2901F05A8220A9049195F8C4100129D5
:1031100006D11046DBF81C20129390470446129B00
:10312000032295F8C400994D21461394AC461C46E1
:10313000DDF810E00492A0F10A02D2B21292944A91
:10314000049B013B049324FA03F3DB0740F102865E
:10315000012800F07D860A2801F05E810B2807D146
:10316000DEED027A9CED277A77EEC77AC1ED027A1E
:10317000049B043AACF1040C0439AEF1040E002BAC
:10318000DED10128139C03D12046DBF82430984778
:10319000D5F8C83023F48833C5F8C830C4E595F8AD
:1031A000CA1049073EF5BFAA092A00F25B86002A29
:1031B00040F05486287F7749049385F8AC0007F0E7
:1031C00027FD002801F00682734A049B92F818211B
:1031D0004AB195F8AC100639C8B2022803D8CA40E3
:1031E000D20701F12B8195F8C4C0684D0320294610
:1031F000674A013823FA00F4E40707D5BCF1140F3D
:1032000091ED277A00F0CA8581ED2A7A043A0439D3
:103210000028EED1BCE79FED617AF4EEC77AF1EEBB
:1032200010FACCBF01200020FFF7C3B9099B5A68F0
:103230001AB100225A6005F0A7FD099BDA685268AE
:1032400012689A6095F849205A7095F8CA100807D4
:103250003FF588A998E4E97A00293FF42CA9FFF703
:1032600022B9DDF81480FEF73CB90599032900F076
:1032700092844FF0030C464844490CF1FF3C23FA7A
:103280000CFE1EF0010F0AD1D0F870E0C1F89CE0EE
:1032900004380439BCF1000FEFD1FFF7F6BA352A34
:1032A000F6D095F80CE091ED277ABEF1000F00F012
:1032B0007F84D0ED1C7A77EE877AC1ED277AE7E735
:1032C0001E2B3EF4AAAD01230593FEF795BCD5F85D
:1032D000C83023F4C21323F40073C5F8C830D5F8FE
:1032E000C81021F0E061C5F8C8103FE535463C46FE
:1032F000D5F8C830139F23F0E063C5F8C83097F8BD
:103300002E30464643402343DDF8488087F82E00A0
:103310003FF44EAA022009F067FB97F82E00FFF752
:1033200047BA9FED1F7AB6E5DFF878B0DBF81830C2
:10333000002B3EF4F8A995F8C9301B077FF570AC57
:10334000D5F8BC0000287FF474AA4FF02608FEF7D9
:10335000C8B84FF02808FEF7C4B89DF82030002BFD
:1033600000F00184059B012B40F06E85002385F859
:1033700035300B9B03F0FF04002BA8D095F8C93023
:10338000059423F0420385F8C930A8E7DC2F00201C
:10339000BC3000207C300020B44700200000004FEB
:1033A00000007A44A8210020B7F800C0069ABCEBC0
:1033B0000B0318BF012363F34922ADF81820BBF1BA
:1033C000000F40F085849DF8203002F00102002BB0
:1033D00040F07D83002A40F0CA87D5F8C84024F425
:1033E000C21424F40074C5F8C840002C41F0FA80DF
:1033F00020AB28221846214604931BF0F3F8A74B74
:103400009DF89520079393F899300594B3FA83F3C8
:103410005B0963F3410263F382028DF8952097F80C
:1034200083308DF89930099B3BB3DB689B7A1B078F
:1034300023D52B895A1E022A07D9052B05D0332BF9
:1034400003D0069B43F0400306939DF820301BB148
:10345000059B022B01F0D582099B1B7803F0030228
:10346000012A00F0D18613F0020304D0069B83F0FA
:103470004003C3F3801387F87F30D5F8B4307B67FF
:1034800027930FF03BF8159C0B9064B102280AD0EB
:1034900020461BF091FE013017F048FF289010B134
:1034A00021461BF0B1FDAB7A012BBB7005D19DF815
:1034B000943043F020038DF894306B6D099A3B668D
:1034C00020935378012B00F03184D2ED027A95EDF0
:1034D0001E7AF4EE477AF1EE10FA9DF81830139345
:1034E00001D19C060AD5099C2378D80703D5139BE4
:1034F000190640F17584AB6F099A9360139B5B06C4
:1035000040F16D830023D5F8C0002393BB6F834245
:1035100000F06B830B9BB867022B6FD0FDF722FC8A
:103520000A9B1290002B40F0FA8699F8D6319C073E
:1035300000F1F0865A4B1B7F042B00F0F086D9F87F
:10354000E030002B00F0E686D9F81C31CAF30744BE
:1035500004F00204002B00F02F870A9A129882F0E0
:1035600001019847002C49D00A9B002B46D1B86F27
:10357000FDF7F8FB044605F007FC289818B1FDF7A5
:103580005BFE00232893D7F8D03022691B699A424A
:1035900034D0DFF814B1DBF8C8306BB1099A20469B
:1035A00012780A929847099A13780A9A93421CBF94
:1035B00085F848304AF4802AD9F82031002B01F0F0
:1035C000658538489847189000287FF4ABAA80207A
:1035D00009F00AFADBF81830002B01F04585C7F82E
:1035E000D040DBF8CC304BB10EF088FFB0F5007F57
:1035F00004D0DBF8CC30D7F8D0009847CAF30743A3
:103600001AF4802F0A9300F07D82099895F84810EB
:1036100003788B4200F06982DFF88CB0DBF8404021
:103620001CB14378239AC068A047099B239A95F858
:103630004810D86810F0B6FD002800F05A820998AA
:1036400095F84810C268536819720170099C249259
:10365000FC656168206821AB03C397F87F309DF853
:103660009420217863F3C7128DF894208DF884108C
:103670000BB197F87E309DF8952063F300028DF82A
:10368000952095F8DC10A1F14603032B1AD8DFE84A
:1036900013F00D00EC00E9000D0000BF2025002014
:1036A000B4470020BC300020A8210020A1F149002F
:1036B00041423B6E41419648FB6312F03BF90028C2
:1036C00001F01485069BD9050AD57B7E95F821006B
:1036D000834205D010F0E2F810B195F821307B76E6
:1036E0000023079A82F820307B7E8DF89630CAF34B
:1036F0000743DA0627D597F82C2095F834309A42FC
:1037000021D0099C87F82C30E3689BB1596897F861
:103710002C200B7AC2F38002C3F30010904209D030
:1037200062F304130B72237862F304132370002AEC
:1037300041F0E08497F82C30DB0701F1D18497F851
:103740002C0002F095FD6B88E3B10B9B022B19D086
:103750002B79002B40F0DA850C9B85ED159AC5F886
:10376000B8300E9B85ED1E8AC5F8C030694BC5F890
:10377000C860D3F8FC400EF0C1FE6749A0470023A3
:10378000C5F8C8302B78042B00F08A84AB7B1AF480
:10379000807FBB71EB7AFB7073D0EB7BFB7103F026
:1037A000FD03012B00F044820023F879584F0322D7
:1037B0003946594C013A032801F2AD84DFE800F0A4
:1037C00041311902002093ED027AD1ED337AB5EE42
:1037D000407A77EE877AF1EE10FAA1F1040118BF72
:1037E00040F00100043BC1ED347A002A42D0013A96
:1037F000E9E700209DF8203023FA02F6F60737D5D6
:10380000D4ED277A91ED337AB4EE677AF1EE10FABF
:103810002ED0C1ED337A72B301200439043C013A51
:10382000EAE70020D3ED027A91ED337AB4EE677ABD
:10383000F1EE10FA40F0FF84E2B10439043B013AA2
:10384000F0E700200023D1ED337AF5EE407AF1EE77
:1038500010FAC1F8CC3018BF40F0010004394AB169
:10386000013AF0E712F0C0F82CE712F09FF829E7D0
:10387000002AD2D128B14FF4806009F0B5F808F0E1
:10388000EBFF3A7D2B7F9A420AD0244C244B0FCB7E
:1038900084E80F004FF4007009F0A6F808F0DCFF90
:1038A0002B7B3B7195F8353087F82D302B78412BE9
:1038B00000F2C5811B2B40F2F8831C3B252B3AD824
:1038C000DFE813F006053900060539003900390034
:1038D0003900390039003900E80439001E05390083
:1038E0003900390039003900390039003900390010
:1038F0003900390039003900390039003900390000
:1039000039003900390039003900390039008304A1
:10391000BC300020A8210020DC2F0020C430002073
:10392000EC2F002001230B20BB4987F8B43007F0AF
:103930006FF9FDF7FFF9288995F83730502838805E
:1039400087F82F3003D0059B022B00F0CC832898FA
:1039500008B1FDF771FC95F820303B762BB9079B39
:1039600093F90830002BBDF6BCAD05F00DFA3B7E97
:10397000632B00F09682032B00F0868295F82030AE
:10398000012B00F073823C2B00F02585079A92F9F9
:103990000820002AC0F26A820B9A022A02D01E2B4B
:1039A00001F0EE81012200233A803A7D85F837301C
:1039B00087F87C30BB713B71BB70002A40F00485F6
:1039C0000024BA6ABC83526897F82C30107A934965
:1039D00023F0050364F3041087F82C307C7691F80B
:1039E00020313C62107291F8102103F00105960716
:1039F00040F1F6846421099AD2685268D16055B1C9
:103A000003F00603991F97F82C204B424B4163F3B8
:103A1000C30287F82C206423079997F82C20C1E96A
:103A200004334A770B9B022B21D07D49387D07F068
:103A3000EFF8002800F0CE850B201DA907F0E8F86C
:103A400038B10C2274491DA81AF09EFD002840F0E0
:103A5000D78408F001FF10F01BFCD9F87430787E91
:103A60009847102008F0C0FF202008F0BDFFDFF8C5
:103A7000BCB1DBF84C302BB10B9A387E941E6142FE
:103A800061419847674B1868002800F0DB84846820
:103A900017F088FC2046F7E79DF82030002B7EF4D5
:103AA000D4AE4FF02508FDF71CBDFDF777F9FEF702
:103AB0007DBE37EE677A02F00103BBF1550F1A465F
:103AC00087ED137A40F03E87002387F85830002AAC
:103AD00040F0B181D5F8C830002423F4C21323F498
:103AE0000073C5F8C830FFF7FABB119B53B1DFF87C
:103AF0003CB1DBF840402CB10998239A4378017817
:103B0000C068A047099BDA68A0E502F0FD011C2906
:103B10007FF40AA91C2A14BF0A20092042490493F1
:103B200007F076F8002800F05585049B002B40F044
:103B3000C38129899DF82C20502908BF85F835308C
:103B4000002A40F01484D5F8C83023F4C21323F4BB
:103B50000073C5F8C830FFF705B9B5F808B0BBF178
:103B6000500F7FF4E7A8002385F83530FFF7E6B85B
:103B7000D5ED137AF4EEC77AF1EE10FA58BFF0EEF5
:103B8000477A95F8C810C0ED077A21F0800185F8D2
:103B9000C810FFF771B9352A00F0EF80B5D9412A76
:103BA0003EF47BAE2A89502A7FF4C8A8FFF7D7BB22
:103BB000D0ED307A91ED066AD0ED336A77EE867AF1
:103BC00077EEA67A77EE877AC1ED277AFFF760BBAA
:103BD000099CAA6F217810F009FAAB6FA360AB6F54
:103BE00091E44FF01008FDF77CBC1AF4003F3FF45D
:103BF00005AD0A9B002B7FF401AD0B9B022B3FF41C
:103C0000FDACB4E40123FFF7F0B8D5F8C030C5F837
:103C1000BC30FEF71ABE00BF74310020B44700204C
:103C2000C4300020183800207C300020A82100205B
:103C3000C14BD5F8BC00DB6998470346B5E55C3B52
:103C4000DAB21E2A3FF677AE1E2B3FF674AE01A203
:103C500052F823F01B3F001037390010373900109D
:103C60003739001037390010373900103739001054
:103C7000373900103739001037390010F53E001081
:103C80003739001037390010373900103739001034
:103C90003739001037390010373900103739001024
:103CA00037390010DF3E0010373900103739001067
:103CB0003739001037390010373900103739001004
:103CC0003739001037390010373900102539001006
:103CD00095F837200AB985F8352095F84930012B39
:103CE00000F0C882BBF1210F00F08D80BBF14C0FBA
:103CF00001F04E80D5ED157AF5EE407AF1EE10FA2E
:103D00003FF499A8002A40F02781BBF1050F00F28B
:103D10002D870BF1FF3BBBF1040F00F28880DFE839
:103D20001BF078097504790486009C032B89099A95
:103D3000502B02D0002B40F00D8453681BB10023A0
:103D4000536005F021F8099BD3ED027AC5ED1E7A88
:103D5000FFF7BDBB129B012B9CBFD2ED337AC1EDA7
:103D6000027AFFF705BAB5F808B0BBF1010F7EF68D
:103D7000E1AF4FF01E08FDF7B4BB2B89012BF8D83B
:103D80000B9B03F0FF04002B3FF4A1AA95F8C93068
:103D900023F0420385F8C930FFF7A1BAD2ED1C7AAF
:103DA00092ED306A77EEC77AD2ED336A77EEC67A53
:103DB00077EEE67AC1ED2A7AFFF728BA4FFA8BF050
:103DC0000FF0D6FF00283EF43DAC4FF0000100227A
:103DD00010F00CF9FEF736BC3546049EFEF7A4BF82
:103DE000E3685B6883ED007A04F0CEFF139AE06825
:103DF00052067FF5EDAE0022217810F0F7F8AB6F98
:103E0000A360FFF77FBB099BDB68DB6B002B3DF4F6
:103E10008AACD5ED197AF5EE407AF1EE10FA47D07A
:103E2000069B43F020030693002A40F09580069BF2
:103E3000DC077FF54FAE95F8C930012423F042032B
:103E400085F8C930FFF74BBA4FF01F08FDF749BBA3
:103E5000DCED277AC1ED027AFFF78AB9013AD0B2D8
:103E6000FFF7A9B94FF01D08FDF73BBB0B9B022BD9
:103E700006D00821D9F840303048984704F036FC85
:103E800000233B76FDF72DBB0B9B022BF8D095F85A
:103E900020303C2BEDD1D9F8B831002BE9D0984730
:103EA000E7E7254BD3F81C31002BE9D09847E7E72B
:103EB0004FF02708FDF715BB032221482149013A9D
:103EC00023FA02F4E40758BF046FA1F1040158BFBC
:103ED000C1F8AC400438002AF1D1FEF725BF002319
:103EE000194AC7F8B83087F8B430C2E90133FCF793
:103EF00021FF20E50023154AC7F8B83092F81111C8
:103F0000114A8807C2E9013387F8B4303FF511AD93
:103F10000B200D4906F05EFE0BE5012387F8B43057
:103F20000A4B0B4A93F81141074BA40707CA83E8D1
:103F300007003FF5FEACEBE7A82100205C25002040
:103F4000BC300020DC2F002074310020B44700205A
:103F5000703000203333CB41BDF8183013F0020E1F
:103F6000DAB21CD0BB78012B01F0698095F8CA3019
:103F70005C077EF555AE9DF820301099CB40D807F0
:103F80007EF54EAE01230021A7F858300D9B396510
:103F900007EB830319640F9B07EB8303196495F800
:103FA000C930D90601F18080012385F8C43095F825
:103FB000CA305B0718D5B7EE007A5FED1A6AD5ED07
:103FC0001D7AEB7A002B2B7B07FE267A27EE877A69
:103FD000002B01F03880109B07EB8303D3ED1A7A96
:103FE00077EE277AC7ED157A0320AD49DFF8DCC2FA
:103FF0009DF82030013823FA00F4E40797ED157A94
:104000000DD5DCED277A109CC1ED127A844201F0C7
:104010005480D1ED1C6A77EEE67AC1ED127A04394C
:10402000ACF1040C0028E5D1109B07EB8303D3ED22
:10403000107AF4EEC77AF1EE10FA00F3B184D5F8F5
:10404000C83023F48223C5F8C830ABF14903102BE4
:1040500000F2A18401A151F823F000BF4F490010E4
:104060009749001097490010974900109749001090
:10407000974900109749001097490010B33A001073
:10408000134900104F49001097490010B33A00102F
:10409000F74800109749001097490010F7480010A2
:1040A000E86E01F081FFFFF771BB0A2B7FF443AC90
:1040B00095F8C430022B02D0142B7FF43CAC794C21
:1040C00095F8AC00214606F085FD3A7D95F8AC30B8
:1040D0009A427FF430AC94E80700734B83E8070002
:1040E00008F0BAFB27E4714C53282368299300F2A7
:1040F0006F84532855D8DFE810F07C0574059A05C5
:104100009A0554004B0554005400540054005400C8
:1041100054005400540054005400540054005400FF
:1041200054005400540054005400540054005400EF
:10413000540054005400540054005400F40454003B
:1041400054005400540054005400540054005400CF
:1041500054005400540054005400540054005400BF
:10416000B50454005400540054005400540054004A
:10417000540054005400540054005400540054009F
:1041800054005400540054005400540013055400CB
:1041900054008C04540054005400540013051305BB
:1041A00013050020299A079B22605A78002A7FF481
:1041B000CEAB002800F04C8401287FF4C8AB3C490A
:1041C0003C4808F069FBFFF7C2BB00213A4811F0F8
:1041D0009DF90021394811F099F9D5ED1B7AFCEED3
:1041E000E77A17EE902A364B90B2D3F818319847F9
:1041F000FE2804463DF475A911F02AFCFF2C3FF47B
:1042000057AEA046FDF76DB93A880699501E0228B0
:1042100001F0400140F25F87052A00F05C87332AF5
:1042200000F0598700297FF41EA9069A42F0200267
:104230000692FFF718B9C1ED337A002A3FF41BABA1
:104240000120FFF7FABA4FFA8BF00FF091FD00282A
:104250003EF415AADFED1B6ADFED1B7A88EEA67A25
:1042600067EE277A4FF0010117EE902A0FF0BEFE9D
:10427000FEF705BA95F84830DB0707D5D5ED1E7A6D
:10428000F5EE407AF1EE10FA7FF42CAD4FF02908EC
:10429000FDF727B90920074906F09CFCFFF74BBB47
:1042A000BC3000207C300020C430002018380020B2
:1042B000AC25002024310020DCF50110E4F50110CC
:1042C000A82100200000C84200007A44DC2F002012
:1042D0009DF8943043F001038DF89430059B002B3A
:1042E00040F03E84C14C0499204600F041FF94E820
:1042F0000700BF4B83E80700FCF750FDFFF71BBB2F
:104300000A20BB4906F066FCFFF715BB04F03CFD34
:10431000FFF722BAD9F82031002B7FF415A9DFF876
:10432000E8B2DBF81830E3B1129BC7F8D030DBF805
:10433000C8305BB1099A129814789847099A137893
:10434000A3421CBF85F848304AF4802ADBF8CC3001
:1043500013B1D7F8D0009847802008F045FBFFF74D
:10436000F3B8129B1A69D7F8D0301A61DFE795F8D5
:10437000C93023F0420385F8C930D5F8C8100029A8
:1043800040F0308120AB2822184604931AF02AF915
:10439000984B97F8832093F899308DF89920B3FAC9
:1043A00083F39DF895205B0963F3410263F3820276
:1043B0008DF89520FEF7F9BC802008F015FB002C45
:1043C0003FF41CA9FFF7D0B84FF400703B7508F01C
:1043D0000BFBFFF7F5BA0B9B022B7FF45CAD4FE5AF
:1043E000A5B103F006039A1F5342534197F82C20BE
:1043F00063F3C302079B87F82C205A77FFF712BBA1
:104400000B207D4906F0E6FBFFF723BB97F82C3025
:10441000079A5377FFF706BBD2ED1C7A92ED046A38
:10442000D2ED306A77EEC67A9CED277A77EEE67A9F
:1044300077EEC77AC1ED027AFEF79ABE4FF03808E0
:10444000FDF74FB811F0B2FADBF80C3008209847AE
:1044500016E54FF01A08FDF744B8AB7B002B75D179
:104460009DF82030032B00F2B980D5F8C83003F452
:104470004032B2F5403F7EF4D3AB069A920504D5A4
:1044800003F03003302B7EF4CBAB95F8C820D5ED8C
:104490001B6A12F0300F95ED1C6AEB7A33D1B1EE46
:1044A000667AF1EE467A85ED167AC5ED177A4BB14C
:1044B000DFED527A66EEA76A26EE276AC5ED1B6A23
:1044C00085ED1C6A97F82E3083B14D4B95ED1B7A24
:1044D000D5ED1C7A93ED036AD3ED046A27EE067AD4
:1044E00067EEA67A85ED1B7AC5ED1C7AEB6E3B6311
:1044F0002B6F7B63D5F8C83023F4403323F03003AF
:10450000C5F8C83093E4002B00F0DE8195ED167AF3
:10451000DFED3A5AD5ED177A27EE257A67EEA57AC0
:1045200097F82E3085ED167AC5ED177A002BBFD09F
:10453000334B93ED035AD3ED045A27EE057A67EE19
:10454000A57A85ED167AC5ED177AB1E74FF02A08FE
:10455000FCF7C7BFD36800215C6804F11003536007
:104560000F9B184663629B46FCF7A8FC099A2062E1
:10457000536807EB8B02D2ED1A7AD3ED046A77EE1B
:10458000E67AF5EEC07AF1EE10FA93ED037A0DD9E2
:10459000DFED1C6A93ED006A67EEA67AC6EE276A25
:1045A000F4EEC76AF1EE10FA37FE267A099B85ED24
:1045B0001E7AD3ED027AFEF78ABFCDE9122320AB33
:1045C00019460820049306F023FBDDE91223002896
:1045D0007EF49BAD4FF00708FCF783BF4FF018083F
:1045E000FCF77FBF4FF02408FCF77BBF7C30002036
:1045F0002431002020250020743100203333CB41AA
:10460000A4130020DB0FC940A8210020069B43F023
:104610000403069395F8CA0044070ED59DF8203090
:10462000002B3FF416AF01220D990F9C02FA01F105
:10463000A2401143194200F04381C10700F12881D3
:104640000123C5F8D8300D9A05EB8203D3ED25AAD6
:1046500007EB82030F9A93ED1A7A05EB8203D3EDF1
:10466000258A07EB8203D3ED1A7A95F8CA307AEEE1
:10467000C7AA5A0778EEE78A40F1878023F004033F
:104680000C22CC49CC4885F8CA3019F07DFF0028AF
:1046900000F0F680EB7A3BB1D5ED1D7A9FEDC77A3D
:1046A00067EE877AC5ED1D7A97F82E30B3B1C44B0B
:1046B0000D9AD5ED1D6A03EB8202D2ED037A0F9AB3
:1046C00003EB820393ED037AF4EEC77AF1EE10FA6E
:1046D00077FE877A67EEA67AC5ED1D7AD5ED1D9A2D
:1046E000B1EE007A6AEEAABA29EE877AF0EE6B7A1A
:1046F00028EEA8BAD9EE877A77EECB7AF5EEC07AB3
:10470000F1EE10FA3DD417EE900A1AF025FF7BEE79
:104710008B7A0AEE100A17EE900A1AF01DFFB1EE1E
:104720004AAA07EE100AF5EEC09ACAEE077A2B895C
:10473000032B08BFF1EE677AF1EE10FA05D5F1EE22
:10474000699AF1EE677AC5ED1D9AB0EE6A7AF6EED7
:10475000006AA7EEE87AE7EEAA8A27EE267A68EEE4
:10476000A67A0D9B05EB83020F9B82ED167A05EB73
:104770008303C3ED167A069BDB073FF55CABFFF7BF
:10478000A9B94FF02208FCF7ACBE01230D9A0F998E
:1047900003FA02F28B401343079A134274D095F840
:1047A000C83023F0700385F8C830EB7A8BB19FEDE9
:1047B000837A0322834B0799013AD140CC0705D570
:1047C000D3ED187A67EE877AC3ED187A043B002A96
:1047D000F1D197F82E309BB103227A4B7849079894
:1047E000013AD040C00707D5D3ED187A91ED057A8C
:1047F00067EE877AC3ED187A043B0439002AEED1BC
:104800000F9B05EB8303D3ED169A0D9B78EEE98A97
:1048100005EB830393ED16AA68EEA88A7AEECAAA7E
:10482000EAEEAA8A18EE900A1AF096FE69EEA99AA4
:10483000EAEE0A9A08EE900A19EE900A1AF08CFE37
:1048400007EE100A78EEC77ADFED5F6AF0EEE77ADE
:10485000F4EEE67AF1EE10FA68677FF7E8AAF6EE72
:10486000006AF4EEE67AF1EE10FA09DCDFED576A41
:1048700027EE267AB4EEE77AF1EE10FA7FF5D7AAA2
:104880004FF02108FCF72DBE4FF02308FCF729BE9E
:10489000E86E0BF0EBFF00283DF455ADD5ED1B7A2B
:1048A000FCEEE77A17EE903AC5ED367A002B3FF42E
:1048B000FFAA95F8CA3023F0010385F8CA30C2E692
:1048C0004FF02008FCF70DBE97F82E30002B3FF478
:1048D0000DAE3B4B95ED167AD5ED177A93ED036A45
:1048E000D3ED046A27EE067A67EEA67A85ED167A8E
:1048F000C5ED177AEAE54FF00003ABF15604D4F1A9
:10490000000B4BEB040B6BF307036BF30F23A7F8C0
:10491000583095F8CA30D8077EF57EA9D5ED1B6AC8
:10492000F5EEC06AF1EE10FA3DF529A823F0010377
:10493000C7ED146A85F8CA3037EE677A87ED137AC7
:1049400002F00103002B7FF476AAFFF7C3B895F8B5
:10495000CA30990728D5D5ED1C7AF5EEC07AF1EE6C
:1049600010FA7DF60CA8B7EE007ADFED146AE97A4A
:1049700023F00203002907FE267A67EE877A85F87E
:10498000CA30C7ED137A4FF07A533B65D3073FF532
:1049900052AAFFF79FB8D2073FF54DAAFFF79AB882
:1049A0004FF03608FCF79DBDBEF1000FEBD0FEF7CF
:1049B00037B900BF70300020243100203333CB41A1
:1049C000A4130020DC2F00200AD7A33B6F12833AE8
:1049D0008C38032800F29983BF4B9DF8940093F81C
:1049E0001431BDF81820C3F3001383F0010363F3FF
:1049F00004108DF894000499B84801F0E5FAFFF727
:104A0000D1BB069B43F080030693099B1B78FEF7FE
:104A10002ABDDFF8D8B204F0B7F9079BDBF8001025
:104A200004985E7FFCF72EF9C6F3400A0346B0B93E
:104A3000049853465A46AA4901F0F8F8304601F066
:104A400017FC299B2360079B5B78002B7EF47FAFCC
:104A5000A34BA24A07CA83E80700FEF778BF98462F
:104A6000FCF73FBDD5ED167A97ED1A3AD7ED1B3A14
:104A7000D5ED176A95ED254AD5ED264A33EE277A0E
:104A800037EEA76A73EEA67A37EE447A77EEE47AC9
:104A9000F0EE085A76EEA66A37EE077A77EEA77A36
:104AA00086EE255A86EEA56AC7EE256A87EEA57AB8
:104AB00035EE035A36EE236A76EE846A77EE247A70
:104AC0001DAB00930499864A84481BAB8DED1B5A9D
:104AD0008DED1C6ACDED1D6ACDED1E7A00F042FE13
:104AE000AFE704F051F9079B0498696E5E7FFCF70D
:104AF000C9F803460028B2D19DF88430049943F0E8
:104B000080038DF884309DF89830744843F0020398
:104B10008DF8983000F02CFB304601F0A9FB90E7AF
:104B20000D9B049A8DF86C300F9B8DF86D30109BA7
:104B30008DF86E30AB6F23931B9BADF800301B0CD0
:104B40008DF80230674B029395F8C4102833019119
:104B500097F82D1087F85A10604900F055FF70E75C
:104B600004995E4800F004FBFFF7BCBBBBF1330FB8
:104B700000F0C080ABF18C03032B3FF658A9ABF1DA
:104B80008D03022B00F28680DFE803F08084800032
:104B900097ED1A6A95ED164AD7ED1B6AD5ED174ABF
:104BA00095ED257A97ED0C5AD5ED267AD7ED0D5A6D
:104BB00036EE046A76EEA46A37EE057A77EEA57AC9
:104BC0001DAB00930499464A44481BAB8DED1B6A0C
:104BD000CDED1C6A8DED1D7ACDED1E7A00F0C2FD83
:104BE0002FE7BB78022B0FD004993C4800F0C0FAA5
:104BF00027E79DF89430049943F0010337488DF876
:104C0000943000F0B5FA1CE7334B1A7E9DF89430CF
:104C1000022A43F040038DF8943000F00482012210
:104C20009DF8843062F3C7138DF88430DCE7BB78DD
:104C3000022B0BD19DF8843043F080038DF8843033
:104C40009DF8943043F040038DF894301399D5F8D3
:104C5000D83049070D9948BF5B428DF86C100F9909
:104C60006A6F8DF86D10109902938DF86E101B9B72
:104C70000092ADF804301B0C8DF806301A4B0499E5
:104C8000174A03F13C0000F0B3FADAE6069B43F062
:104C900010030693ABF18E0BBBF1010F94BF012300
:104CA000069B069A88BFC3F3C00363F3C3029DF853
:104CB00020301446ADF81820002B3FF4CAAB0C226C
:104CC0000649074819F060FC00283FF4D9ADE10718
:104CD0003FF5B1A8FEF7FEBEB447002070300020BB
:104CE00024310020FC3000203430002064500020AB
:104CF0003333CB41AB7B002B7FF428AC9DF82030C5
:104D0000032B3FF66BACD5F8C83003F03003302BE3
:104D10007DF486AFD5ED167AF5EE407AF1EE10FA15
:104D20003FF4C6A8EB7A5BB15FED0F6A95ED177A99
:104D300067EEA67A27EE267AC5ED167A85ED177A04
:104D400097F82E3083B1CB4B95ED167AD5ED177AC7
:104D500093ED036AD3ED046A27EE067A67EEA67A2E
:104D600085ED167AC5ED177A95F8C83023F0300333
:104D700085F8C830069BD8073FF55DA8FEF7AABEA8
:104D8000D9F8B831002B3EF40DAE9847FEF70ABEB5
:104D9000099BD868C36B002B3CF4C5ACAB7B012BE3
:104DA0007FF4D4AB9DF8201011F0FA0FCBB27FF452
:104DB00019AC95F8CA10049111F00401079109D0BB
:104DC00095ED1D7AF7EE007AB4EEE77AF1EE10FA7F
:104DD0003FF56EA85C077DF523AFD5F8C810A64C4B
:104DE0000C40002C3DF41CAF95ED1BAAB5EEC0AAFB
:104DF000F1EE10FA3CF5C3ADD5ED176AF5EEC06AD9
:104E0000F1EE10FA3CF5BBAD95ED186AB5EEC06A4F
:104E1000F1EE10FA3CF5B3AD95ED167AB5EE407AA9
:104E2000F1EE10FA3FF444A8F5EE406AF1EE10FA04
:104E30003FF43EA8F4EEC66AF1EE10FABFF638A8C9
:104E400095F8C91011F010040B9404D095F8C440E3
:104E5000032C3FF62DA8099CD0ED055AD4ED027A1B
:104E6000F4EEE57AF1EE10FA00F1CF80D0ED065ABB
:104E7000F4EEE57AF1EE10FA00F3C780BCF14C0FC6
:104E800040F0B3807D4CB5EEC07AF1EE10FA58BF19
:104E90004FF07E50D5ED279AB0EEC77A48BF7848DC
:104EA00084ED00AA6062E87AC4ED019AC4ED036A59
:104EB00084ED046A84ED027A68B1DFED727A27EE40
:104EC000277A66EEA76A26EE276A84ED027AC4ED99
:104ED000036A84ED046A687B98B1B6EE006AD4ED8B
:104EE000026A94ED037AD4ED047A66EE866A27EEC0
:104EF000067A67EE867AC4ED026A84ED037AC4ED21
:104F0000047A042B2BD095ED046AD7ED2E5AD7EDF9
:104F1000317A97ED1C7A36EE256A39EEC77A36EE8D
:104F2000276AD5ED256A67EE077A76EEC66AE6EE61
:104F3000A67AF0EEC78A17EE900ACDE91221C5EDE8
:104F40001B8AC4ED066A1AF007FBDDE9122107EEA1
:104F5000900A2AEE277AC7EE287AC4ED007A08076D
:104F600044BFD5F8BC30A3620B9B1BB195F8C4308D
:104F700084F82C30C90744BF2B6DE36194ED077AA8
:104F8000B5EEC07AF1EE10FA29D994F82C3033B38B
:104F9000D7ED1C7A79EEE77AF6EE006AF0EEE77A62
:104FA00067EEA67AB4EEE77AF1EE10FA3EF780AF3C
:104FB000079B0BB16B6F6361049B9B0744BF2B6F17
:104FC0002362069B43F020030693D5F8C83023F4F0
:104FD000E32323F4B873C5F8C830FEF725BF0023D8
:104FE000E361002384F82C30E2E74FF0000C4FF02F
:104FF0007E54254840F8044CC0E900CCC0E902CCFE
:10500000C0E904CCA0F118043DE74FF02C08FCF7F0
:1050100068BA069A9DF8203002F00102002B3EF497
:10502000D9A9FEF754BD95ED277AD7ED1C7AB4EED9
:10503000677AF1EE10FA14BF01220022F0E54FF07A
:105040000308FCF74EBA109905EB8103D3ED047AFF
:1050500007EB810393ED2E6AD3ED316A77EE867A02
:1050600077EEA67AFEF7BCBF2269D7F8D0301A6176
:10507000FEF7B7BAA41300207000010064500020AE
:10508000000080BF3333CB417C50002018930123B4
:105090004FF4806187F880303448D9F84030984721
:1050A00003F024FBFEF796BA95F8C430002B7EF48B
:1050B0007EAF4FF01308FCF714BA2C7B002C3EF4A3
:1050C000AEAFD1ED1C6A77EEE67A77EE877AC1ED66
:1050D000127AFEF7A4BF00293EF4C5A9FFF7A5B8D0
:1050E0000021084601F072FEFEF729BB4FF053087D
:1050F000FCF7F7B9FB6D6421D8680EF0F5FEFEF7FA
:1051000019BB4FF05208FCF7ECB9079B5B78002BFA
:105110007EF41DAC9CE40439043B043C002A7EF47C
:1051200049ABFEF7AEBB18EE102A6AB9A3F15B01DA
:105130004B424B412B739DF8683043F008038DF8C8
:1051400068300823FCF759BD9DF8682042F0100232
:105150008DF8682018EE102A0A2A7CF4E4AA5A2B4B
:105160003CF4E1AA1023FCF748BD00BF5C250020F9
:1051700038B54B7D0C4603F00603062B054602D0DE
:1051800049690CF06DFE0DF0B9F9022808D1174BF2
:105190001A781AB9587880F0010038BD002038BD5F
:1051A00003F0A4FA0028F2D004E001F06FFB30B164
:1051B00002F0ACFF03F09AFA0028F6D1EDE72146A1
:1051C000284601F0BFFB0028E1D123699B7A1B0729
:1051D000DDD5237903F00303012BD8D103F0D4FDEF
:1051E0002069E268436A21799847D0E720250020AA
:1051F0002DE9F04F2DED068B9DB09DF8B4B09DF8D4
:10520000B540914603EB8B02CDE908104FEA8B05C0
:1052100010681294049513931D4616921AF07CF9A7
:10522000064605EB8402106801F100431792A200C4
:105230000F460E92069607931AF06EF904464FEA4F
:105240008B0309EB03021068109201F100420D4636
:10525000049405921AF060F932463B4614F0A0FD22
:10526000CDE90A010E99DDF8B88009EB0106306836
:1052700011961AF051F922462B4614F091FD099C23
:105280004FEA8B03E318CDE90C0118681AF044F9D2
:10529000DDE90A2314F098FD0F460E9906466318BF
:1052A00018681AF039F9DDE90C2314F08DFD324647
:1052B00004460D46DDE906013B4614F099FD9DEDDF
:1052C0002C9A22462B46CDE914019DF8B6A0DDE9C3
:1052D000040114F08DFD02460B46DDE9140114F0C3
:1052E0005FFD22462B4604460D46DDE9060114F01B
:1052F0007FFD32463B4606460F46DDE9040114F0C9
:1053000077FD02460B463046394614F05DFD2246D5
:105310002B4615F027FB14F0DFFDB8F1000F08EE67
:10532000900A40F3EE81DFED9C7AF4EEE78AF1EE2D
:1053300010FA40F2DA81089D6B7D5C0723D4974A0E
:10534000D2F80841FCB143F004036B75DDE90A01B2
:1053500014F0C2FD1990DDE90C0114F0BDFD8DEDD6
:10536000009A2D9B1A90ADF804301B0C8DF8063076
:10537000CDF8088019AB0CCB49460998A0476B7D46
:1053800060F341036B7588EAE874A4EBE874012CC0
:1053900040F39480601E07EE900AF8EEE77A17EE6D
:1053A000900A1AF0B9F878A3D3E9002314F020FD8D
:1053B000B8F1000FD8BFF1EE687A06460F4609EB48
:1053C0008A0393ED008A099BD4BF17EE900A18EE6A
:1053D000900A03EB8A03D3ED009A1AF09DF8324647
:1053E0003B4614F0DDFC14F077FD79EEC89A07EE29
:1053F000100AC9EE877A77EEA77A17EE900A1AF0AC
:105400008BF863A3D3E9002314F0F2FC14F064FDDD
:105410004FEA8B010DEB01070E99099A0DEB01067E
:1054200010994FEA8A05D1F800E0119905F170034F
:10543000D1F800C009EE900A5168106892680DEB2F
:10544000030519AB07C3B8F1000FC7F864E0C6F84D
:1054500064C00DF10606CCBF4FF001084FF0FF38D5
:10546000334646469846023C01AF39EE888A129B85
:105470008DF8B4B08DF8B5308DF8B6A0DDF8B4C0B5
:10548000139B4FEA1C4E05ED038A089902964A4683
:10549000A7F800C019A888F800E08DED009AFFF782
:1054A000A7FE19AB07CBC9F80000C9F80410C9F86A
:1054B00008201CB115ED038A013CD6E7384B79EE84
:1054C000097A93ED027AF4EEC77AF1EE10FA40F31E
:1054D000038177EEC77AB6EE008A67EE877A28EE08
:1054E000888AF5EE407A28EE098AF1EE10FAB0EEDD
:1054F000C88A00F12981B1EEE77AC8EE077AFBFE8F
:10550000677AFCEEE77A17EE902A002A00F0E48032
:105510000899F8EE675A0B7D980600F1068188EE2F
:10552000A5AAF0EE007ADFED1F6AEAEE4A7AB1EE44
:10553000007AB6EE005A099B09EB8A0803EB8A0150
:1055400037EE877A91ED006A67EE857AD8ED004AEA
:105550006AEE266A36EE646ACDED147A66EE877AD4
:10556000012A86EE259ACDED137A00F0B580DDE9AB
:105570000645CDF848904FF0000B4FF0010A9146D8
:1055800076E000BFAFF30080182D4454FB21194092
:10559000182D4454FB210940BD370635A8210020B1
:1055A000B4470020ABAA2A3E139819F0B5FF06466F
:1055B00014980F4619F0B0FF22462B46CDE90E0194
:1055C00030463946CDE9066714F012FCDDE90423C4
:1055D00006460F46DDE90E0114F00AFC02460B46B2
:1055E0003046394614F0DCFB14F076FC22462B469C
:1055F0000646DDE90E0114F0FBFBDDE90423044659
:105600000D46DDE9060114F0F3FB02460B46204689
:10561000294614F0D9FB044630460D4619F07CFFAC
:10562000CDE904010BF1010B2246DDE90A012B460D
:1056300014F0B6FB14F050FC109B1860DDE9042355
:10564000DDE90C0114F0ACFB14F046FC119B089949
:105650001860D8ED007A77EE897A1298C8ED007A52
:10566000FFF786FD00286AD00AF1010AD14533D040
:10567000BBF10C0F98D107EE90AAF8EE677A67EEAF
:105680008A7A17EE904A204615F005FD08EE100ABA
:10569000204615F0FDFC179B08EE900AD3ED009A0A
:1056A000169B29EEA87AD3ED007AA7EEC87AF1EE20
:1056B00067AA28EE698A17EE100A19F02DFFAAEEE4
:1056C000A88A044618EE100A0D4619F025FF4FF07F
:1056D000000BCDE90401A7E7DDE908101DB0BDEC22
:1056E000068BBDE8F04FFFF743BD19F015FF1AA375
:1056F000D3E9002314F054FB14F0EEFB08EE900AFB
:1057000019E6DFED177AF4EEE78AF1EE10FAFFF60C
:1057100012AE19F001FF10A3D3E9002314F054FBDB
:1057200014F0DAFB08EE900A05E6D1ED007A67EE98
:10573000A57A23F02003C1ED007A0B75EFE61DB0CA
:10574000BDEC068BBDE8F08F17EE900A19F004FF50
:1057500007EE100AD1E600BF182D4454FB21194072
:10576000BD3706B52DE9F0412DED108B9FEDA39AC5
:10577000DFEDA38AF7EE009ADFEDA2DA1D46B0EE68
:1057800049AA84B014460646884610685168926853
:105790000DF1040CACE807001A9F39EE289AB4EE1C
:1057A000E99AF1EE10FA97ED001A97ED010A96EDDD
:1057B00000BA96ED01CA39FE898A79EEC87AD5ED2C
:1057C000001AD5ED010A6BEE082A2CEE083A61EEBC
:1057D000086A20EE087AE1EEA76AA0EEA77AE1EE69
:1057E000272AA0EE273AD4ED00AAD4ED01BA61EE43
:1057F000884A20EE885A68EE222A28EE033A68EE9C
:10580000265A28EE076AE7EEA62AA7EE273AEAEE1E
:10581000A74AABEEA75AF0EE656AB0EE467AE7EE1D
:10582000A46AA5EE277A68EE222A28EE033A00221F
:10583000B6EE002ADDED01CA9DED02DAE7EEA62AFA
:10584000A7EE273A53E078EE287A67EE827A39EEAF
:10585000E77A6BEE276A2CEE276AE1EE076AA0EE84
:10586000076A21EE275A60EE275AA1EE875AE0EE2A
:10587000875A61EEA7FA20EEA7FA67EEA66A27EE2E
:10588000866AEAEE87FAA5EE876AABEE87FA27EE1C
:10589000A5EAE7EE056A67EE85EAAFEE07EAE7EE0E
:1058A0002FEA67EEA66A27EE866AE7EE2E6AAEEE6C
:1058B000076A7DEE034A3CEEA24AF0EE665AB0EE6D
:1058C000467AE4EE425AA4EEC27AF0EEE55AB0EE21
:1058D000C77A37EE257AB4EECA7AF1EE10FA0FD90C
:1058E000B0EE463AF0EE662AB0EE678A012278EE14
:1058F000683AF4EEED3AF1EE10FAB0EE639AA2DAFD
:10590000AAB1414601A8F0EE488ACDED012A8DEDFD
:10591000023AFFF72DFC28B1B4EEE98AF1EE10FA55
:105920003FF53BAF04B0BDEC108BBDE8F081B0EEAD
:10593000005AF6EE005A59E0F0EE687AE3EE857A06
:10594000F4EEE97AF1EE10FADBDA39EEE77A2BEED3
:10595000276A6CEE276AA1EE076A61EE27EAE0EE9D
:10596000076AE1EE87EA60EE273A21EEA7EA27EE22
:10597000866AE0EE873AAAEE87EAA7EE2E6A20EE64
:10598000A72A67EEA66A27EEAE4AABEE872AA7EEF5
:105990000E4AE3EE876A67EEA34A27EE866AE2EED6
:1059A000074AA7EE046A67EEA66AE4EE876A7CEE11
:1059B000864AB0EE627A3DEE264AA4EEE57AF0EE33
:1059C000434AE4EE654AB0EEC77AF0EEE44A37EEB9
:1059D000247AB4EECA7AF1EE10FA92DCB0EE678A5D
:1059E000B0EE663AF0EE462A77EEE83AF4EECA3ABE
:1059F000F1EE10FAB0EE639A9ED982E7CDCCCC3DA1
:105A0000000000006F12033B2DE9F04F2DED048BD9
:105A100085B09DF84A60149D4FEA860903EB86061F
:105A200095ED057AD6ED007AF4EEC77AF1EE10FA2C
:105A30009DF848409846137D03949DF8494043F0F3
:105A400001030294824614468B46139F137500F19E
:105A5000AA80AB7EDBF80010DBF80420012BDBF81A
:105A6000083008BF95ED059A4046C8F80010C8F800
:105A70000420C8F808302146C6ED007A18BFB0EE01
:105A8000679AFFF775FB002800F088807B1E019362
:105A9000002F77D0002796ED008AD5ED057AB4EE79
:105AA000E78AF1EE10FA00F3898005EB090393ED24
:105AB000007AB4EEC78AF1EE10FA5DDDD5ED037A17
:105AC00038EE678AB4EEC78AF1EE10FA48BFB0EE3E
:105AD000478A237D214623F001032375404686ED46
