:020000041000EA
:10000000002008205D0100101B0100101D010010E0
:100010001101001011010010110100101101001058
:100020001901001019010010190100101F01001022
:100030001101001019010010210100100903002016
:100040001101001011010010110100101101001028
:100050001101001011010010110100101101001018
:100060001101001011010010110100101101001008
:1000700011010010110100101101001011010010F8
:1000800011010010110100101101001011010010E8
:1000900011010010110100101101001011010010D8
:1000A00011010010110100101101001011010010C8
:1000B00011010010110100101101001011010010B8
:1000C00011010010110100101101001011010010A8
:1000D0001101001011010010110100101101001098
:1000E0001101001011010010110100101101001088
:1000F0001101001011010010110100101101001078
:100100001101001011010010110100101101001067
:10011000EFF30580103800BE00BE00BE00BE00BE7A
:1001200000BE00BEF2EB8871488A0210648A021099
:10013000A001001090A31AE7D3DEFFFF42012110B7
:10014000FF0100000CA80200793512AB4FF000004F
:100150001E49086006C881F3088810474FF05040D8
:10016000006810B14FF00000F2E70DA40ECC00299A
:1001700002D000F012F8F9E71549164A002000E015
:1001800001C19142FCD11449884714498847144958
:10019000884700BEFDE701C901C29A42FBD3704700
:1001A000648A021010010020F01F002044A90210F0
:1001B000000008200000082044A9021000100820B8
:1001C00000100820000000007047000008ED00E06B
:1001D000F01F002050550020FDB70110350200101F
:1001E000F5B70110F8B500BF064B0749C91A8910C9
:1001F00048BF0131491003D0044B0BB101481847E7
:10020000704700BFF01F0020F01F0020000000001A
:1002100008B5054B1BB105490548AFF30080BDE8A3
:100220000840FFF7E1BF00BF00000000E0370020FA
:1002300078F9011008B500F095FA002008BD00BF5C
:10024000704700BF0020704700B5064B83B0DB6DE0
:100250009847C0F30743C0B240EA032003B05DF8FB
:1002600004FB00BFC8220020024A034BD2F8C000A2
:100270001B681847C8220020A8210020074B70B532
:100280001B6804460D469847054BDB6E23B1294693
:100290002046BDE87040184770BD00BF9C3100206B
:1002A000A8210020024B93F8D60100F0020070470D
:1002B000C82200202DE9F843374F3B68002B67D058
:1002C000364B374E93F88330CBB1336D98473C684B
:1002D000F36C002C5ED000253D609847314F01E063
:1002E000904764B1D4E9012023463968E4685D6031
:1002F000DD600029F4D13B609047002CF2D1D6F8A4
:10030000B0319847284B80461A6882423ED0274D2C
:10031000274A2C681768BC4238D0186037B1D7E933
:1003200001309847FF68002FF9D12C68002C2DD0A0
:100330000027DFF870900BE0F36C9847D4E90130A8
:10034000D9F800206760E760D2B198472C68ECB11B
:100350002368A3EB0803002B18DC336D98472B6848
:10036000A3420AD0002BE7D01A46DB68002BE3D06B
:10037000A342F9D1E368D360DEE7E3682B60DBE7F3
:10038000C9F8004098472C68002CE1D1BDE8F883FB
:10039000034EB4E79847B2E7B4350020202500208B
:1003A000C82200203436002038360020D437002000
:1003B000F44D002008B510F0D5F90022014BC3F828
:1003C0001C2108BDA821002000B585B012F09AFFBD
:1003D0000D4B0290DB6D98479DF80A309DF80B108D
:1003E0009DF808C09DF8092001EA106102EA102278
:1003F00003EA104300EA0C000B43104340EA0320D9
:1004000005B05DF804FB00BFC822002030B5154BD5
:100410008BB093F800E0EC466FEA0E0E124C5FFAD8
:100420008EFE83F800E00FCCACE80F0094E80F00DC
:10043000ACE8070070468CF8003010F0A9F90446CB
:1004400068461FF09DF8214668441EF099FE034659
:10045000064A0021128868461A800DF011FE0BB082
:1004600030BD00BFA013002078F9011098F90110E9
:100470004AB1064A92F81521920704D5044A184653
:10048000D2F8143118470020704700BFD44700202D
:10049000C8220020074B93F81221D20604D5026926
:1004A000D3F894118A4200D17047C3F894210AF01E
:1004B00091B900BFD44700202DE9F0410446204EF9
:1004C0000F46336D904698470CB31E4B1D681DB305
:1004D00000221A60D6F8B0319847002100EB0802DC
:1004E00019486C6003682A60AF60E96023B319683B
:1004F000511A002904DC1EE01968511A002903DB97
:100500001846DB68002BF7D1EB60C5600124F36C63
:1005100098472046BDE8F0810C4D2823AC4602E008
:10052000ACF1100C53B1DCF87402013B0028F7D198
:1005300005EB0315CEE7EB600560E7E71C46E6E751
:10054000C822002034360020D4370020044E00207A
:100550000D4808B5417A11F002010CD00B4B012176
:100560001B6C3C3098470A4B00219A8A0948BDE829
:100570000840FFF7A1BF064B9A8A02B908BD06489A
:10058000BDE80840FFF798BF20250020C8220020C2
:10059000D4470020510500109D050010054B002197
:1005A0005B7A9B07044B4CBF044805489A8AFFF7C7
:1005B00083BF00BF20250020D44700205105001034
:1005C0009D05001070B5124E0D46336D04469847D8
:1005D00010490B68A3B1002003E0DA6818467AB12D
:1005E00013465A68A242F8D19A68AA42F5D1DA684D
:1005F00060B1C260002208495A600868DA6018B128
:10060000F36CBDE8704018470B60F9E70A60F1E74A
:10061000C8220020D43700203436002010B504460C
:10062000E30706D40A4B1B6883B12046BDE810409F
:10063000184700210748FFF7C5FFC82200210548D9
:10064000FFF73AFF024B1B68002BEED110BD00BF35
:100650000838002069020010F8B50446164F0E460F
:100660003B6D98478CB1154B1D6895B10021196001
:1006700000201349C5E901460B68E860BBB1194683
:10068000DB68002BFBD1CD600124FB6C9847204632
:10069000F8BD0C4D28232A4601E0103A4BB1D2F8A0
:1006A0007402013B0028F8D105EB0315E0E70D606B
:1006B000EAE71C46E9E700BFC822002034360020E4
:1006C000B4350020044E0020214B2DE9F04193F871
:1006D000816016B304461F4F88463B6D9847B4B1FE
:1006E0001D4B1D68EDB10021196000201B496C6095
:1006F0000B68C5F80880E8600BB31946DB68002B6F
:10070000FBD1CD60FB6C98473046BDE8F0812646B2
:10071000FB6C98473046BDE8F081BDE8F041FFF73B
:100720009BBF0F4D28232A4601E0103A6BB1D2F847
:100730007402013B0028F8D105EB0315D5E7FB6CEB
:100740000D6098473046BDE8F0811E46DAE700BFED
:1007500020250020C822002034360020F837002051
:10076000044E00202DE9F04FC44D83B0DFF88083A4
:100770009C22002128461EF019F94FF42072002116
:10078000BF481EF013F94FF49072002140461EF04E
:100790000DF9BC4BBC4CC8F81031BC4BBC4AC8F876
:1007A0005C30BC4BBC4FC8F86430BC4B0021C8F86F
:1007B0007830BB4BC8F81421C8F87C30B94B4FF4E3
:1007C000F672C8F88030B84B2046C8E91477C8F8EC
:1007D000CC301EF0EBF80A234FF480622360B34B59
:1007E000B34EC4F878314FF08043C4F88021B14A49
:1007F000E361C4E914624FF6FF730122A4F8DE310D
:10080000134684F8E621AC4AAC492267AC4A21661B
:10081000C4F89C20AB4A85F88130C4F8D021AA4A9C
:10082000E664C4F8242111F0BDFC14F0DDF90BF0EE
:1008300049F80FF097FF17F01BF9A44F00263B78FB
:1008400060F300033B7014F015FA0BF045F894F8D0
:10085000D421397802F06003A3F16003B3FA83F383
:1008600042F060025B0984F8D421DB00C2F340024D
:1008700043EA021321F0180103F018030B43FF2B86
:100880003B700CBF01233346C5E92466C5F88C6074
:1008900085F8846085F882300FD18D4BD4F808211B
:1008A000C4F808318B4B8C481A60A36B98473B788F
:1008B00085F8826060F341033B70874E0DF10601BD
:1008C00096F89C0013F064FB8146002800F08D81AF
:1008D00096F89D000DF1070113F05AFB18B996F830
:1008E0009C3086F89D309DF9060013F099FB3B780B
:1008F000814660F382033B70002800F06E81002087
:1009000013F066FBC36A2BB1006BB0F1000918BF8E
:100910004FF001093B7869F382033B7094F8D531BD
:1009200013F0020305D196F8902163F3410286F893
:1009300090213B78FF2B06D010230021674885F8D3
:100940008030FFF7C1FE0121D4F88C3096F8FC000E
:10095000984713F0CDFD636F4FF000009847D4F82F
:10096000CC310BB15E48984795F88030626E103BF1
:1009700018BF012385F88330002A00F0E78096F83D
:100980008331DF0700F1E280B28A002A40F0E8807C
:1009900094F8D53113F0060F40F0EC8094F8B6309F
:1009A00003F00C03042B06D14E4BD4F800211A603F
:1009B0004D4BC4F80031D8F8AC30002B00F0238147
:1009C0004FF000094FF0640A4FF0640B0FF0CAFEBD
:1009D000EB7823B196F98231002B80F2B18044226A
:1009E000002126481DF0E2FF6FF001030020C5E959
:1009F00004AB6B6413F0E0FA002840F0E480B38AA3
:100A0000697A003B18BF012396F8202163F3410166
:100A10006972D10705D56B7FC2F3400262F3C3034D
:100A20006B7711F03FFCD4F8D430984796F8120158
:100A3000C0F3400000F0F0FA96F81A01A36D4FF0F1
:100A4000000100F00100984705F088FF06F06EFDF8
:100A500011F074FB0BF08AFD06F0A8FA2049234838
:100A60000CF04AF8D4F8903013B1002108469847AA
:100A700094F8D6319B0740F1A3803BE0202500206D
:100A8000044E002009830010C822002041020010FB
:100A9000ED3501101DC80010B50200100D6E0110DB
:100AA000056E011081AD001095040010B503001013
:100AB000790F011045020010A1C500106D1801103A
:100AC000C57200104D350110A5020010A0130020C2
:100AD0007D0200109C310020D44700200D0400103E
:100AE000AC250020083800201D060010243100200D
:100AF000A8210020D8F80030D4F8C400984796F90F
:100B00001131002B53DA94F9D531002B07DA95F81F
:100B10008430002B0CBF8020872008F08BFA07F070
:100B200087FF074698B385F881900FF01BFEEB789E
:100B3000002B3FF454AF96F98231002BFFF64FAFF4
:100B40008022002138481DF031FF4DE794F8E13153
:100B5000002B48D1354BB28A6366002A3FF418AFA8
:100B600000213348FFF7A8FC94F8D53113F0060FA5
:100B70003FF414AFC3F38002C3F3400343EA4201DE
:100B800040F28A2001F003010AF09AFC06E7D4F84B
:100B9000AC31FBB1984785F88170074600287FF497
:100BA00015AF14F053F8384603B0BDE8F08F11F0DC
:100BB000D5FDB0F5807FA6D1012011F0D5FDA2E7CB
:100BC00015F0EAFF96E7002013F002FA642243686A
:100BD000DA6014E785F88130F8E613F007FA13F0CD
:100BE0001FFA814696E6134BB5E713F05BF94946C9
:100BF00013F030F9A8B190F9002043788DF8062061
:100C000086F89C3064E694F8D731D8077FF5D8AEE3
:100C1000D4F81431002B3FF4D3AE074BC8F8AC30F6
:100C2000CEE602460B23E9E720250020490200100A
:100C300051050010C903001071040010F8B50E4FE3
:100C40003C689CB100250D4E02E090473C606CB1C1
:100C5000D4E9012023463168E4685D60DD60002945
:100C6000F3D1336090473C60002CF1D1044B93F8F2
:100C7000833003B9FEE7F8BDF83700203436002092
:100C800020250020F8B504692DED028B08EE101A1E
:100C9000E16B002942D000266425027D214B22F021
:100CA0002002646802755A7F1F4F42F0800287ED70
:100CB000198A02765A7F80ED008A42F0040286602B
:100CC0005A77027E42F0040202765A7F42F0010215
:100CD0005A77037E43F0010303760120E5608847DD
:100CE000D0ED007A28EE278AB5EE408AF1EE10FAB0
:100CF00010D00E4B9FED0E7AD3ED1D7A67EE877AFA
:100D0000F4EEC87ABDEC028BF1EE10FA4CBF2B204A
:100D10003046F8BD2920BDEC028BF8BD1420BDEC97
:100D2000028BF8BD20250020BC300020D4470020D5
:100D30006666663F0A4A92F8833002F1840C0133FA
:100D400003F0030303EB43010CEB810C02F1B80148
:100D500082F8833007C98CE807000BF0ADBE00BFF6
:100D6000BC3000200A4B9A690AB1DB69184730B4DD
:100D7000084D0446AC46084BD3F8D0301868596883
:100D80009A68DB68ACE80F0028462C6130BC7047DD
:100D9000A8210020DC500020BC3000202049002287
:100DA0000B46B7EE007A30B4A1F10C0073ED017A76
:100DB000F4EE477AF1EE10FA4FEA4202D2B218BFCF
:100DC00042F001029842F1D1F7EE007A154C4FF053
:100DD000000C0023C4ED057AC4ED047AC4ED037A57
:100DE000114DC4F808C085F82E30C4F804C0C4F80A
:100DF00000C031ED017AB4EE677AF1EE10FA4FEAF5
:100E00004303DBB218BF43F001038142F1D19342A7
:100E100001D130BC7047022030BC0BF015BF00BFC1
:100E2000BC130020A4130020BC300020472370B561
:100E300000F13604E4B23B2C104D204628BF3B2085
:100E40002B800FF0A5FC064628461EF099FB314684
:100E500028441EF095F93B2C01D8084870BD034684
:100E6000074AA4F13B0012881A800FF091FC01465A
:100E700028461DF0E9FD014870BD00BF782E002016
:100E80006454021000487047B01300200020B7EEF1
:100E9000007A094BA3F10C0273ED017AF4EE477A64
:100EA000F1EE10FA4FEA4000C0B218BF40F0010066
:100EB0009A42F1D1704700BFBC13002010B5044620
:100EC000F9B140F20113174AB2F80C21934318D03C
:100ED00007F094F9002814DB134B00EB400020448A
:100EE00003EB800003EB8402D0ED217AD2ED026A9D
:100EF00092ED317A77EEA67A77EE877A17EE900A3E
:100F000010BD094B03EB8401D1ED027AD1ED2E6ABD
:100F100091ED317A77EEA67A77EE877A17EE900A1E
:100F200010BD00BFD4470020BC30002030B583B0D6
:100F3000019298B3022803D0274BD87103B030BD7B
:100F4000DDED017A254BF8EEE77A03EB4113D3EDA3
:100F50000C6A87EEA67A224A1F4C926904EB810341
:100F600093ED316A83ED317A2AB9D4F8D03003EBAE
:100F7000810383ED007AB4EE476AF1EE10FA14BFF4
:100F800001210021E0710029D8D04FF480600BF0DE
:100F90005BFE03B0BDE830400BF08EBD114A014648
:100FA00014464FF0000C0E4B9D6954F8D039A3F154
:100FB0000C0E72ED017AF5EE407AF1EE10FAC2F8FD
:100FC00000C018BF41F001010DB9C3F808C0043BCF
:100FD0007345EED1D6E700BFBC300020D4470020D7
:100FE000A82100208C31002071B1012905D10222F5
:100FF0000023027043708170704701220223002198
:1010000002704370817070470A460123022102700A
:1010100043708170704700BF2DE9F043654F87B082
:1010200097F88140002C50D0634D644C0021D422AD
:1010300028461DF0BBFC94F81231614ED9066DD5DF
:10104000F369D4F894019847C5F8D000002865D01A
:10105000B369002B6AD05B4B1C682CB12046A46896
:101060001AF084FB002CF9D17B7F574C002085F8C7
:101070002C30EC6512F0ACFFA862FFF78FFE287DE4
:10108000A4F1140109F0F4FE10B90720B3689847E1
:1010900097F88130002B36D0484B93F811319B07DD
:1010A00055D5736C43B100224849CDE90022086848
:1010B000029200285BD0984714F084FE336B53B340
:1010C0003D4807B0BDE8F04318473B4DB8220646FF
:1010D0002146284695F8149095F807801DF066FC87
:1010E0003B4BD5F8D000D3F81C310269AA670BB18D
:1010F000214698472EB1324E85F8149085F8078026
:10110000A9E72F4EA7E7736C002BD4D114F05AFE39
:10111000336B002BD4D107B0BDE8F083F369002016
:101120009847B369C5F8D000002B94D1D5F8D020EA
:10113000136053609360D360136194F81231DA0640
:1011400089D5D4F89421D5F8D0301A6183E70B20E3
:10115000204909F08DFE08BB0720B3689847736CDF
:10116000002BA9D097F88120002A9CD1A3E74C68D6
:101170009442A0D18C6894429DD10A46CDE90300E7
:10118000059052F8B00F002895D15068049A90420B
:1011900091D1D1F8B81091428DD18DE70C2395F9FA
:1011A000832002FB03530B4A843307CA83E80700FA
:1011B000D5E700BF20250020BC300020D447002008
:1011C000A821002018380020D8300020C43000208A
:1011D000C82200207431002000487047D830002019
:1011E000002208B5054BC3E900229A6013F080F98C
:1011F000BDE8084010200BF027BD00BFD83000200C
:1012000008B5054A054B50765B6F9847BDE8084026
:1012100020200BF019BD00BFBC300020C8220020E8
:1012200040B110B504462046A4681AF09FFA002C7D
:10123000F9D110BD704700BFB0B10C4B10B5D3F859
:10124000C030044603B19847237823B92046BDE84F
:1012500010401AF08BBA204600210CF011FF2046F6
:10126000BDE810401AF082BA704700BFA8210020E4
:10127000014B1868704700BFD82F002070B5044696
:1012800060B31C4B187848BB5B7833BB1A4D607E4B
:1012900084F838306B7E2A889842228004D0174B1D
:1012A000B3F8981012F0D0FB0C22154904F11C0081
:1012B0001DF04EFBA0B1104E04F1400EB446206864
:1012C0006168A268E36810347445ACE80F0006F169
:1012D0001006F3D10120EB6B2B6670BD002070BDB2
:1012E000064B626AB3F8A030217FA86A13F0A4F815
:1012F000E1E700BF20250020BC300020D4470020BB
:10130000D83000202DE9F04F037817465A1E1F2AC7
:101310000446884683B004D814F8013F581E1F289D
:10132000FAD93B2B50D02F2B4AD02378002B66D0F4
:10133000A2460026651C202B08D9292B05F1FF3970
:101340001AD03B2B13D0282B0BD066B315F8013BDA
:10135000002BF0D1002320468AF8003003B0BDE80E
:10136000F08F2E4615F8013B002BE4D1F2E7002E5A
:10137000ECD189F80060EDE77EB13E4B93F8813007
:101380005BB905F8013C3C4B93F8D6315B0723D49D
:10139000002F4AD03B68002B33D015F8013B0026C4
:1013A000002BC8D1D6E7A3F16102192A98BF03F038
:1013B0005F030AF8013B15F8013B002BBBD1C9E7DD
:1013C0002E4B1B7ADA0605D500232046237003B086
:1013D000BDE8F08F0134A8E73378002BDDD017B1DA
:1013E0003B68002BD9D1DFF89CB0DBF8C430002B70
:1013F000D3D030469847002688F80000A6E7A246DA
:10140000A8E7DFF880B0DBF8BC3023B1304698475E
:1014100038600028C1D10422304619491DF0B0FBC4
:1014200038B13378002BE0D1B7E73378002BB4D054
:10143000D9E7A9EB0602A2F10309484601921AF086
:1014400059F9019A38600028EBD03379202B0FD15D
:10145000731D194613F801CBBCF1200FF9D006F12A
:1014600001099144A9EB01094A461EF013F894E7DB
:10147000311DF9E7BC300020C822002020250020C3
:101480009CF90110A821002000212DE9F04FDFF880
:10149000B4922DED088BD9F80431A64E5B1A18BF13
:1014A000012396F87D20ABB093EA020515918DF8E3
:1014B000531015AA0DF1530118BF86F87D30FFF7C0
:1014C00021FF9DF8537004464FB90378252B0CD0AB
:1014D0007BB9159808B1FFF7AFFE9DF853703846F9
:1014E0002BB0BDEC088BBDE8F08F4378002B00F0EB
:1014F000BE80914D8F4EE022002128461DF056FA05
:101500000023B64605F1080C07938DF82030ADF89E
:1015100018309A46BEE80F00ACE80F00BEE80F0096
:10152000ACE80F00BEE80F00ACE80F009EE80F002B
:101530008CE80F00F36D09932378242B00F0498386
:101540002246012316930023189392F800B01A93B1
:10155000BBF1000F01F0E084BBF1400F67D9BBF194
:101560005A0F00F2D487BBF14F0F64D1734B204662
:10157000179316AB194618AA04930FF0D5F90590E6
:101580008DF85300002841F0D987DDED177AF4EE8D
:10159000677AF1EE10FAB0EE677A81F13A84059B32
:1015A00098460A93FCEEE76AF8EE665A9FED646A85
:1015B00077EEE57A67EE867AF8FE677ACDED186AFF
:1015C000BCEEE78ABBF1470F63D0BBF14D0F40F093
:1015D000D5802B78412B00F049811898632840F280
:1015E0000A820023DFF860B11A93DBF8F430002B95
:1015F00000F09D8018EE102A80B2002A00F0468389
:1016000000EB80001FFA82FB00EB80000BEB8000F8
:1016100080B298478046002800F08980189B03EB31
:10162000830303EB83030BEB83039BB235E3BBF133
:10163000240F40F06C8716AB1946204617AA049376
:101640000FF0CAF9002801F0DB834FF0000808EE24
:10165000108ACDF81480CDF82880DDED177AF4EEED
:10166000677AF1EE10FAB0EE677A9BD7AAE70370BB
:1016700096F87D30002B00F0DF82002D40F0A8832B
:1016800096F87C30002B41F0778339238DF8533066
:101690001FE700231A93189B412B59D8412B46D89A
:1016A000DFE813F056035603560356031E04560391
:1016B00045000C040C044500BE03450045004500F0
:1016C000450045004500B503B503B503500450047B
:1016D000450045004500450045004500BE03450066
:1016E000BE0345004500C4044500450045004500D3
:1016F000E0044500D9044500450036044500450096
:1017000045004500450036042604260445001E0415
:101710000403040304030403040304034500A004B6
:10172000450045004500AE044C2B00F07F84142793
:10173000D5E600BFBC300020DC2F00200000C07FB9
:101740000000C842C8220020A82100200000C07F5D
:10175000592B40F24782A3F15A02092AE7D8A3F194
:101760005C02072A03F2F885DFE812F07E03280303
:1017700028037503170317030D030D030023ABF1B3
:10178000240B1993BBF1360FD1D801A353F82BF0DA
:10179000C71800102F1700102F1700102F17001058
:1017A0002F1700102F1700102F1700102F170010E1
:1017B0002F1700102F1700102F1700102F170010D1
:1017C0002F1700102F1700102F1700102F170010C1
:1017D0002F1700102F1700102F1700102F170010B1
:1017E0002F1700102F1700102F1700102F170010A1
:1017F0002F1700102F1700102F1700102F17001091
:101800002F17001055240010352400101524001047
:10181000F1230010CF230010A92300102F17001070
:10182000632300103B23001013230010EB22001051
:10183000A92200102F1700107F2200105519001048
:101840003B2200105D22001019220010F32100102D
:101850008B21001069210010472100102521001064
:10186000FB200010D12000109920001095F8C930FD
:101870009A0601F1C88285ED1A7A43F0200385F8B3
:10188000C930169B5A1C169214F803B0BBF1000F16
:1018900000F04086BBF1400F31D8BBF1240F40F07F
:1018A00036862046049917AA0FF096F8002874D1BE
:1018B000B8F1020F41F0A4825FED5C7AB0EE677A76
:1018C000CDED177A199018EE103A002B40F01C86D7
:1018D000BDEEC77A9DF8643085ED2C7A43F00103A4
:1018E0008DF86430D5F8C83013F0010208EE102AE4
:1018F00041F0898201221343C5F8C830C1E7BBF12A
:101900005A0F00F20486BBF14F0F61D1D44B204631
:10191000049918AA17930FF007F88DF853000028C0
:1019200041F07D82DDED177AF4EE677AF1EE10FA80
:1019300019900FD6BCEEE77AB8EE476ADFEDC96AB8
:1019400077EEC67A67EEA67AF8FE677A8DED187A9A
:10195000BCEEE78A18EE103A002B40F0D5859DF8D2
:10196000653043F080038DF86530189B199AC5F8EF
:10197000B830D5F8C83013EA020108EE101A41F069
:101980004282B9490A42B6D0DDED177AF5EEC07A47
:10199000F1EE10FAAFD50427A1E59DED177AB4EE6C
:1019A000477AF1EE10FA82F1AD86FCEEC77AB8EE16
:1019B000678ADFEDAC6A37EE488A28EE268A002374
:1019C000B8FE488ACDED187ABCEEC88A19937AE73A
:1019D0002046049917AA0EF0FFFF00287FF43DAEC1
:1019E000B8F1020F41F00C82DFEDA07AB0EE677A19
:1019F000CDED177AE6E518EE103A002B40F084851D
:101A00008DED1A8A632800F2398101A353F820F082
:101A1000971E0010971E0010971E0010AD1F00109B
:101A2000AD1F0010AD1F0010B52400106D1F001079
:101A30006D1F00106D1F00107D1C00107D1C00101C
:101A40007D1C00107D1C00107D1C00107D1C0010F2
:101A50007D1C00107D1C00107D1C00107D1C0010E2
:101A60007D1C00107D1C00107D1C00107D1C0010D2
:101A70007D1C00107D1C00107D1C00107D1C0010C2
:101A80007D1C00107D1C0010971E00107D1C001096
:101A90007D1C00107D1C00107D1C00107D1C0010A2
:101AA0007D1C00107D1C00107D1C00107D1C001092
:101AB0007D1C00107D1C00107D1C00107D1C001082
:101AC0007D1C00107D1C00107D1C00107D1C001072
:101AD000AD1B0010AD1B0010AD1B0010AD1B0010A6
:101AE0007D1C0010AD1B00107D1C00107D1C001023
:101AF000A11B00107D1C00107D1C00107D1C00101F
:101B0000971E0010752400102F1700102F170010BB
:101B10002F1700102F1700102F1700102F1700106D
:101B20002F1700107D1C00105F1F00105F1F00109A
:101B30005F1F00105F1F00107D1C00107D1C001037
:101B40007D1C00107D1C00107D1C00107D1C0010F1
:101B50007D1C00107D1C00107D1C00107D1C0010E1
:101B60007D1C00107D1C00107D1C00107D1C0010D1
:101B70007D1C00107D1C00107D1C00107D1C0010C1
:101B80007D1C00107D1C00107D1C00107D1C0010B1
:101B90007D1C00107D1C00107D1C00109124001085
:101BA000334B93F8203159077FF5C1AD68709DF82C
:101BB0006A304FF0000843F010038DF86A304FF49C
:101BC00080131AEA030F41F09D814AEA03039A4603
:101BD00057E60121042385F80AA0E21C2981ADF80B
:101BE0001810AFE4482B7FF6A2AD0120214AA3F1E3
:101BF000490100FA01F10A40002A40F0EF80502B21
:101C00007FF492AD9DF8682042F002028DF86820C2
:101C10002B81002385F8373018EE103A002B40F066
:101C200073841A9B1AEA030208EE102A41F06A81B3
:101C300090464AEA030A24E696F87C30DFF838B08A
:101C400083F0010386F87C30DBF8E83013B196F8B6
:101C50007C0098472378002B3FF43BAC49E400BF5D
:101C60000000C07F0000C84280CA18000000C07F8A
:101C7000D447002001370100A8210020DFF84CB430
:101C8000DBF8F430002B3FF452AD80B29847804629
:101C900000283FF44CADBDF860306B809DF86A3091
:101CA00043F020038DF86A301A9B8AE79DF869207B
:101CB0003B2B42F008028DF86920A3F136022A7707
:101CC000AAD118EE102A1E2A3FF631AD01A353F80F
:101CD00022F000BF012500102F1700102F17001051
:101CE0002F1700102F1700102F1700102F1700109C
:101CF0002F1700102F1700102F170010ED240010C1
:101D00002F1700102F1700102F1700102F1700107B
:101D10002F1700102F1700102F1700102F1700106B
:101D20002F170010ED2400102F1700102F17001090
:101D30002F1700102F1700102F1700102F1700104B
:101D40002F1700102F1700102F170010ED24001070
:101D5000059A002A42F0D3849DF86820052B42F0B2
:101D600002028DF8682041F0B38018EE102A1AB1F3
:101D70000A2A7FF4DCAC33232B81002385F837302B
:101D8000022305934EE7623B85F835309DF86930B4
:101D900043F002038DF869303EE7C94A127E022AF9
:101DA0007FF4C5AC603B83F0010385F849309DF8B2
:101DB000693043F020038DF869302DE7C3F15E03ED
:101DC000AB729DF8683043F020038DF8683023E74C
:101DD0000123DFF8F8B286F87C3035E7059A002A4F
:101DE00042F08D849AB233882A819B1A18BF01234E
:101DF000069A85F8370063F341029DF86830069231
:101E000043F002038DF868300223059304E7113B89
:101E1000AB739DF8683043F004038DF86830FBE63F
:101E200018EE102A002A41F08580059A002A42F017
:101E300066849DF868201C2B42F001022B708DF8FF
:101E4000682041F0B8830122059218EE102A13444D
:101E50002B700123E6E60223AB729DF8683043F055
:101E600020038DF86830D7E618EE103A002B41F0C9
:101E70003380059B002B42F042849DF8683043F08C
:101E800001038DF868300123059318EE103A5C3396
:101E90002B700123C6E69DF8693043F080038DF86E
:101EA0006930002800F0A787012800F0908785F8A6
:101EB00020004FF000084FF4004382E6804A127E73
:101EC000022A7FF434ACA3F10703B3FA83F35B096E
:101ED0006B739DF8693043F040038DF869309BE6E1
:101EE0002B709DF8683043F001038DF8683093E65D
:101EF000A3F13303B3FA83F35B0985F83630042387
:101F000005939DF8693043F004038DF8693083E64A
:101F10009DF86920312B42F001028DF8692000F014
:101F2000BA8718EE103A002B40F0BB87DFF89CB15F
:101F3000DBF81830002B3FF4FAAB0123EB734FF4BE
:101F400080736FE6A3F11403B3FA83F35B09EB72BA
:101F50009DF8683043F040038DF868305CE685F802
:101F6000DC0053464FF000089A468AE4069B082896
:101F700043F4807306939DF86A3043F008038DF8AC
:101F80006A3000F01D87092800F0118799F8E631C2
:101F900098077FF5CCAB95F821304FF0000843F05F
:101FA000020385F821304FF400230AE6A0F1040271
:101FB000431FB2FA82F218BF0123520943EA4203D7
:101FC00095F848204FF0000822F00302134385F8EB
:101FD00048309DF86A3043F004038DF86A304FF4BE
:101FE0008023EEE59DF8693043F010038DF86930E9
:101FF00018EE103A002B7FF49AAB4FF4805311E6A1
:1020000041232B709DF8683043F001038DF8683050
:1020100018EE103A002B7FF48AABDFF8B0B0DBF893
:102020001831002B3FF483AB0123FBE518EE102A97
:10203000002A7FF47CAB059A002A42F060839BB2B1
:102040002B81002385F837309DF8683043F0020378
:102050008DF8683094E69DF8683043F080038DF881
:102060006830D9E5D9F81031002B3FF460AB18EE99
:10207000103AA3F114021E2A3FF659AB114BD3407C
:10208000D8077FF554AB18EE102A0F4BA3FB0223A1
:10209000DB088A331893CEE7089B85ED277A43F057
:1020A000040308939DF8673043F004038DF867300C
:1020B000D5F8C830580100F1A6864FF080621AE4C6
:1020C000D447002001041040CDCCCCCCA821002066
:1020D000089B85ED267A43F0020308939DF867304C
:1020E00043F002038DF86730D5F8C8309A0100F14B
:1020F0008A864FF00072FFF7FEBB089B85ED257ABC
:1021000043F0010308939DF8673043F001038DF815
:102110006730D5F8C830D90100F175864FF080726C
:10212000FFF7E9BB9DF8663085ED247A43F0800324
:102130008DF86630D5F8C830180200F164864FF487
:102140000002FFF7D8BB9DF8663085ED237A43F097
:1021500040038DF86630D5F8C8305A0200F1538636
:102160004FF48002FFF7C7BB9DF8663085ED227AF9
:1021700043F020038DF86630D5F8C830990200F19D
:1021800042864FF40012FFF7B6BB18EE103A002B50
:1021900040F0BA81DFF89CB41898DBF81830002BB7
:1021A00000F03486DBF81C309847B0FA80F0400924
:1021B000002841F03582DDED177AF4EE677AF1EE12
:1021C00010FA9DF8663043F010038DF866306CBF4E
:1021D0004FF0FF33189BC5F8C030D5F8C83013F462
:1021E000801208EE102A40F00E864FF48012FFF79E
:1021F000CDBB9DF8663085ED1E7A43F008038DF85F
:102200006630D5F8C830180300F1FD85DDED177A8A
:102210004FF40022FFF7BABB9DF8663085ED1D7ABA
:1022200043F004038DF86630D5F8C8305A0300F146
:10223000EA854FF48022FFF75EBB9DF8663085ED9E
:102240001B7A43F001038DF86630D5F8C830D80307
:1022500000F1D9854FF48032FFF74DBB9DF8663011
:1022600085ED1C7A43F002038DF86630D5F8C8304E
:10227000990300F1C8854FF40032FFF73CBBBDEE77
:10228000C77A9DF8653085ED2D7A43F040038DF8CF
:102290006530D5F8C8305A0400F1B585DDED177A00
:1022A0004FF48042FFF772BB18EE103A002B40F05B
:1022B0002B81B4EE477AF1EE10FA9DF8653043F0C9
:1022C00010038DF865306CBFFF239DF8603085F8F2
:1022D000C430D5F8C83013F4805208EE102A40F00C
:1022E00092854FF48052FFF706BB079B85ED187A65
:1022F00043F0040307939DF8643043F040038DF8E6
:102300006430D5F8C830590600F17D854022FFF7CA
:10231000F2BA079B85ED177A43F0020307939DF805
:10232000643043F020038DF86430D5F8C830980647
:1023300000F169852022FFF7DEBA079B85ED167A4A
:1023400043F0010307939DF8643043F010038DF8C8
:102350006430D5F8C830DA0600F155851022FFF751
:10236000CABA18EE103A002B40F0CE80B4EE477A8D
:10237000F1EE10FA9DF8653043F008038DF86530F2
:102380006CBF4FF0FF33189BC5F8BC30D5F8C83090
:1023900013F4006208EE102A40F03585DDED177A5F
:1023A0004FF40062FFF7F2BA9DF8653085ED157ABB
:1023B00043F002038DF86530D5F8C830990500F177
:1023C0002285DDED177A4FF40072FFF7DFBA9DF832
:1023D000653085ED147A43F001038DF86530D5F84A
:1023E000C830D80500F10F854FF48072FFF783BA2B
:1023F0009DF8643085ED137A43F080038DF86430E6
:10240000D5F8C8301A0600F1FE84DDED177A802277
:10241000FFF7BCBA9DF8643085ED217A43F00803DC
:102420008DF86430D5F8C830190700F1EC84082223
:10243000FFF761BA9DF8643085ED207A43F004031C
:102440008DF86430D5F8C830580700F1DC840422D8
:10245000FFF751BA9DF8643085ED1F7A43F002030F
:102460008DF86430D5F8C8309A0700F1CC84022288
:10247000FFF741BA01229DF86A304FF0000843F09F
:1024800002038DF86A300A924FF40033FFF799BBCC
:102490006323DFF8A0B185F820309DF86930DBF8C0
:1024A0001C2143F080038DF86930002A7FF401ADD0
:1024B000FFF73DB9D9F824319847002840F025842A
:1024C000574B1B7F042B3FF44CADD9F8E030002B69
:1024D0003FF42DA99DF86A304FF0000843F0020345
:1024E0008DF86A304FF40033FFF76BBB4D4BA3FB05
:1024F0000223DB0805332B774FF40063FFF792BB11
:102500004FF40063FFF78EBB1727FEF7E8BF0127E4
:10251000FEF7E5BF9DF86830D90703D52B78412B2E
:1025200000F001859DF82040002C00F00085059BFF
:10253000002B00F0778496F880301BB1059B022BAE
:1025400000F0738495F8C9305B0605D5364BD5F895
:10255000B410994200F32A85CAF3074313F020010F
:1025600000F0CB836988002900F0C783DFF8C4B08E
:102570002E48DBF8F810D5F8C880049388470B90F4
:102580001890002840F09286D5F8C810049B88EA7D
:10259000010818F0E06118BF24EA1162079918BF1A
:1025A0008DF8202018F4007FC8F3021221EA0202FD
:1025B00018BF00210792C8F3072216BF95ED159AA0
:1025C0009FED1B9A6965140605D50022D5F8B81051
:1025D000C5F8B8200B9118F4002F18BF0021C8F3DC
:1025E000074216BF95ED1E8A9FED118AA96712F06A
:1025F000100200F05E860022D5F8C010C5F8C02099
:102600000D916A888AB30C3A062A2ED8DFE812F0B8
:102610008201B601A5015D011A01FF00160000BF8D
:10262000D4470020CDCCCCCC80969800DC2F002065
:1026300000000000A82100203333CB4195F8CA20C8
:102640000C93D10740F16584D5ED1B7AFCEEE77A57
:10265000CDED047A9DF8100015F02AFD95F8CA20FA
:1026600022F0010285F8CA200C9BBDF8181001F079
:10267000010411F0010100F0658395F8C92092076B
:1026800040F13F85E97A95F8C82039B1D5ED157A42
:102690001FED177A67EE877AC5ED157AD0073CD51E
:1026A00095F8CA20110700F121831AF0020F5FFA92
:1026B0008AF20BD02989212900F0188340F24B10AF
:1026C000814200F013834C2900F01083920603D559
:1026D000AA7A022A00F00A83CAF307221AF4005FDA
:1026E000049203F0040140F00183D8060A4603D5A2
:1026F0006878332800F0FA82002A00F09E83D5F82B
:10270000B020511CC1F2D884002A01F3D58495F879
:10271000C82022F0010285F8C820AA7A022A00F017
:102720009083CAF307221AF4005F049240F09A8360
:10273000099A002A00F0A085099A95F8CA105278E3
:10274000090785F8492040F19D83012A00F0B485EE
:10275000012211920A9995F8CA20002900F0B2834B
:1027600090070C9340F1D583286F0EF0AFF9002845
:102770003FF4CAAEDFF86CB2D5ED1C7ADBF8182056
:102780000C9B002A00F0B286FDEEE77ADBF81C20F5
:1027900017EE900A9047B0FA80F00C9B4009002891
:1027A00040F03E87D5ED1C7AFCEEE77AC5ED307A35
:1027B00095F8CA1060F3410185F8CA105A0740F134
:1027C000CC8395F84820900706D5099AD268927A6A
:1027D00012F00A0F3EF4ABAFD90640F10D8195F827
:1027E000CA30DA0700F154854FF07E53EB666B7800
:1027F000303B082B00F20081DFE813F0F8006F0295
:102800005F024F02FE003F02FE00FE00290295F823
:10281000CA200C9302F00302032A40F07A83D5ED1C
:102820001B7AFCEEE77ACDED047A296F9DF8100053
:1028300015F0CEFB95F8CA2022F0030285F8CA20D5
:102840000C9B12E7D9F8C020504804939047D9F860
:10285000C04015F069FC4E4A4E4B002818BF134685
:102860001846A047D9F8C0204B489047D9F8C04037
:1028700015F05CFC494A4A4B002818BF134618461D
:10288000A047D9F8C02044489047D9F8C04015F077
:102890004FFC444A444B002818BF13461846A04733
:1028A000D9F8C0203C489047D9F8C04015F042FC08
:1028B0003E4A3F4B002818BF13461846A0473D48E4
:1028C000D9F8C0209047049BCFE6D9F8C0203A48F9
:1028D000049390470020D9F8C04015F005FC374A12
:1028E000374B002818BF13461846A0470120D9F8D7
:1028F000C04015F0F9FB334A334B002818BF13468C
:102900001846A0470220D9F8C04015F0EDFB2F4A29
:102910002F4BCFE795F8CA20D00740F1FA8295ED0A
:102920001B7ADFED2C7AB4EEE77AF1EE10FA07D4D9
:10293000DFED297AB4EEE77AF1EE10FA77FE877AC6
:1029400017EE900A049315F005FB95F8CA2022F0C3
:10295000010285F8CA20049B87E62048049390F87A
:102960008221042122F06A0242F04A0280F8822188
:10297000D9F840201A489047049B76E604934021FA
:10298000D9F8402016489047049B6EE6F8F90110EC
:10299000A8F90110B0F9011084360210B8F901103D
:1029A000C0F90110C8F90110D0F90110D8F90110CF
:1029B000E0F90110F4F90110E8F90110A83E021045
:1029C000B0260210B43E0210D027021018220210C6
:1029D000A4F901100000B4C20000B442D4470020A2
:1029E0005C250020A82100203333CB4195F83430FA
:1029F00023F0050385F834302B78042B10D195F89B
:102A0000CA30D80740F18582D5ED1B7AF5EEC07A41
:102A1000F1EE10FA3EF5BFAF23F0010385F8CA309E
:102A2000AB7B0C93002B00F01C84012B00F0118475
:102A30000023109302230E9301230C93EB7A9BB196
:102A40001FED177A0323B64A9DF82000013B20FAB8
:102A500003F1C90705D5D2ED277A67EE877AC2ED73
:102A6000277A043A002BF1D1049A7379500607D5DE
:102A70006A7B9A4204D0082072710AF0E5F87379F3
:102A800053B1089BD90707D5D5ED257AB6EE007A64
:102A900067EE877AC5ED257A059B042B00F03D8310
:102AA00096F82E00E8B195F80CE09D4D03232A46D8
:102AB0009C499DF820C0013B2CFA03F010F0010F57
:102AC0000BD0D2ED277AD1ED056ABEF1000F00F0F0
:102AD0001B8367EEA67AC2ED277A043A0439002BED
:102AE000E9D1049BDB072CD5EB7B022B00F0B885EA
:102AF000032B00F08485012B23D1DFF844B2DBF8EF
:102B00001830002B3EF413AE95F8C9301B0741F185
:102B10002C82D5F8BC0040B9834B93F8903159070B
:102B20005CBFD5F8C000C5F8BC00DBF81C30984786
:102B3000002800F0758595F8C93023F0080385F862
:102B4000C930049B1B0709D5287F337D834205D0FC
:102B5000764908F08DF9002801F0C7852A789DF89C
:102B600020300A2A9B4600F0C1835C2A00F02182B3
:102B7000002B40F0F5842989023989B2012940F2FD
:102B8000EF84352A01F01E8241F22781412A40F06C
:102B9000318295F8CA30D90740F1BB81DFED647A04
:102BA00095ED1B7AB4EEE77AF1EE10FA01F3848228
:102BB00013F0F8F8D42303FB006013F05BF800284F
:102BC00001F0A785002395F8CA2063F3000285F879
:102BD000CA20D5F8C8108DF820304908C5F8C810AB
:102BE000002901F03881534A04944FF0010B144638
:102BF000514B19E00122042802FA0BFC09D10968A3
:102C0000186840EA0C0018601FFA8BF012F0C4FA42
:102C1000494BD5F8C8100BF1010B4908C5F8C8108D
:102C20000834002901F0C783CA07F2D5A16800293A
:102C3000EFD0207B0228DDD10968012207EE901A2F
:102C4000F8EE677A02FA0BFC17EE901AD8E7364BCB
:102C500093F820315B077FF5CFAED5ED1B7AF5EE0B
:102C6000407AF1EE10FA0CBF0122002295F83430C0
:102C700062F3C30385F83430BEE6D5ED1B7AF5EE7A
:102C8000407AF1EE10FA0CBF0122002295F83430A0
:102C900062F3410385F83430AEE6D5ED1B7AF5EEEC
:102CA000407AF1EE10FA0CBF0122002295F8343080
:102CB00062F3820385F834309EE6D5ED1B7AF5EE9B
:102CC000407AF1EE10FA0CBF0122002295F8343060
:102CD00062F3000385F834308EE695F8343023F043
:102CE000050343F0050385F8343085E6D5F8B020B8
:102CF000002ABFF609ADFEF74EBE9FED108A88464A
:102D0000B0EE489A0D910B91AFE402287EF40FAD1E
:102D1000D9F82031002B7FF4DDABFEF708BD00BFF2
:102D2000DC2F0020A4130020D4470020EC2F00202B
:102D300000FF7F47505C0210D82F002000000000E9
:102D4000A82100202A89212A00F01E81A97A0129C0
:102D500000F0C88111F0FD0F40F00F8195F8C90017
:102D600095F8C820800700F1E383B07888427FF4AB
:102D700095AC316E696591E4DFF870B486F87C70CB
:102D800006F032F90820DBF80C309847DBF84C509D
:102D9000002D3EF459AF0FF0E1FC0146A1F1020114
:102DA000B1FA81F1FF204909A847FEF74DBF002382
:102DB00085F821304FF000084FF40023FEF701BFE3
:102DC00095F8213043F0010385F82130F2E799F8B6
:102DD000DC319B0640F1C980D9F86C30984780F00F
:102DE0002003C3F34013002B3FF463A8012385F8AD
:102DF0002030FFF75EB8032385F82030FFF759B87D
:102E00000227FEF76CBB1927FEF769BBC00FFFF75F
:102E1000CFB9059B984619930A93FEF7A0BD0746C4
:102E2000FEF75DBB96F880301BB1069BDA0740F1D8
:102E3000148402230593FFF785BBAA7A022A7FF444
:102E400077AC099A002A3EF472AC099AD268D26B28
:102E5000002A3EF46CACCAF307221AF4005F049215
:102E60003FF46AAC95F84920012A00F0C581099821
:102E70004178012900F04583427095F8CA1009078E
:102E80003FF566AC002A40F0F281099A9268AA6781
:102E9000002211925EE40023EB734FF48073FEF77F
:102EA000C1BE142B79D00A2B7EF441AC059B002BBC
:102EB00041F0258402230322EB7305924FF48073C3
:102EC000FEF7B0BED1065CBFB26FC5F8C02075E496
:102ED00002220592FEF79CBE5C232B709DF86830A1
:102EE00043F001038DF8683018EE103A1E2B3EF6C1
:102EF0001EAC18EE102AB54BD340DB077EF517AC9D
:102F0000FEF7C3BF1527FEF7EABABEF1000F01F0C6
:102F10008E841C27FEF7E3BA5C46CDF814B0CDF8DA
:102F200028B0FFF70FBBCDF81CB08DF820B00024FF
:102F3000FFF701BB9DF868201C2B42F001022B70AB
:102F40008DF8682002D01E2B7FF4DEAA18EE102A1E
:102F50000A2A3EF47AAFFEF7EABB099A002A3FF448
:102F60003BAC127885F8482036E4994B1B7AC3F3C2
:102F7000801383F00103DBB235E795F8C820D00752
:102F80003FF58EABFFF7CDBB95F8C820500600F19A
:102F90009681716E6966FFF781BBDFF850B2DBF88E
:102FA0001830002B3EF4C3AB032375E71B27FEF755
:102FB00096BA002B01F06D83032286498648013AB8
:102FC00023FA02FC1CF0010F00F08D81D0ED1C7A79
:102FD00091ED066AD1ED276A77EEC67A90ED337AE5
:102FE00077EEE67A77EEC77AC1ED277A04380439AE
:102FF000002AE4D1B5F808B0BBF1500F00F01383FC
:10300000059B022B00F0428304F0FF0B2CB995F8CE
:10301000CA3023F0180385F8CA3095F8C93023F078
:10302000420385F8C930059B002B40F092820023B3
:10303000D5F8C8100593002941F0688320AB2822F9
:10304000184604931BF0B2FC614B9DF89520079342
:1030500093F89930B3FA83F35B0963F3410263F3A6
:1030600082028DF8952096F883308DF89930BBF167
:10307000000F00F04A833AF0490340F004872B78B0
:10308000352B02D0002B40F0FE86727E534B96F813
:103090007F6021AC8DF896200FCB84E80F00002EC6
:1030A00040F0CE8795F8243013F0020303D02B6B49
:1030B0009B7AC3F3C0039DF89450494C63F3C71542
:1030C0002246049843498DF8945003F051F807467E
:1030D00000287EF404AA434B93E8070084E8070025
:1030E000FEF7FDB9059902297FF447AF502A3FF456
:1030F00044AF002A3FF441AF95F8C92092073FF54D
:103100003CAF1627FEF7EBB991ED027A77EEC77A5E
:10311000A7EEA67A82ED277ADFE495F83630002B09
:1031200000F0828600239DF820C085F83630BCF17F
:10313000000F01F0AE824FF0030B19462A4A0BF143
:10314000FF3B244B2CFA0BF0CDE912642E461546BA
:10315000C2070F97F7EE008A0F461C461CD496F85C
:103160003600043C40B9D5ED027AF4EE687AF1EE0F
:1031700010FA14BF0120002086F83600BBF1000FC2
:1031800000F020829DF820C00BF1FF3B2CFA0BF0E1
:10319000C207A5F10405E2D5D4ED277A95ED057AAD
:1031A000B4EE677A4FF0010EF1EE10FA0EFA0BFE54
:1031B0002CEA0E034FF00200C5ED057A18BF47F068
:1031C0000107089309F040FDC9E700BF0104104062
:1031D00020250020DC2F0020BC3000200030002003
:1031E0002431002070300020A4130020A8210020EA
:1031F000666698433333CB41099AD268917AC807FF
:103200007EF595AA95F8CA1009077FF582AE95F963
:10321000C81092ED067A00295068C0F2098680ED48
:10322000077A01210998417095F8CA10080720D53E
:10323000E97AD5ED1E7A002900F0DE811FED147ABF
:1032400067EE877A5268C5ED1E7AC2ED047AFFF701
:103250007FBA0C9B109300230E9302230C93FFF76D
:10326000EDBB0223109301230E93FFF7E7BB099AEE
:10327000D2685268D2690AE695F8CA20C2F3C00142
:10328000120711917FF566AA099A5278FFF75DBA85
:10329000D5ED1B7AF5EEC07AF1EE10FA3EF57BAB78
:1032A00023F0010385F8CA30FFF7A1BA0746FEF7FD
:1032B00016B90D92FFF7A5B9099AD268B8E761F37C
:1032C000861285F8C820EA7AD5ED187A2AB11FED62
:1032D000377A67EE877AC5ED187AC5ED197A95F8D1
:1032E000C820FFF7DBB9D0ED307A7DE64BB995F811
:1032F000C420142A01F0CD8195F8CA20500741F16D
:10330000C881D5F8C82012F4883F3FF402AED5ED4D
:103310001B7AF5EEC07AF1EE10FA3EF53CABF6EE14
:10332000E77AFCEEE77ACDED047A95F8C4109DF8C3
:103330001020013913293EF6FAA901A050F821F016
:1033400091330010733400102F1700102F17001046
:103350002F1700102F1700102F1700102F17001015
:103360002F17001091330010913300102F17001009
:103370002F1700102F1700102F1700102F170010F5
:103380002F1700102F1700102F1700107D3400107A
:10339000DFF8F4B21293DBF8181000293EF4C7A945
:1033A0001046DBF81C10049288470F90002800F0AC
:1033B000378195F8CA10049A11F0040F129B07D0B8
:1033C000696FC16095F8CA1021F0040185F8CA1030
:1033D00095F8C4100B2901F07B8120A9049195F880
:1033E000C410012906D11046DBF81C201293904727
:1033F000129B0F90032295F8C4009D4D1394AC4688
:103400001C46DDF810E00492A0F10A02D2B212923A
:103410000F99984A049B013B049324FA03F3DB07BA
:1034200040F10586012800F093860A2801F0C48542
:103430000B2807D1DEED027A9CED277A77EEC77A6A
:10344000C1ED027A049B043AACF1040C0439AEF1EC
:10345000040E002BDED10128139C03D10F98DBF85A
:1034600024309847D5F8C83023F48833C5F8C830DD
:10347000C0E595F8CA1049073EF559A9092A00F296
:103480005086002A40F05086287F7B49049385F8B7
:10349000AC0007F0EDFC002801F02781774A049B7F
:1034A00092F818214AB195F8AC100639C8B2022832
:1034B00003D8CA40D20701F10D8495F8C4C06C4D01
:1034C000032029466B4A013823FA00FE1EF0010F43
:1034D00007D0BCF1140F91ED277A00F0298681ED19
:1034E0002A7A043A04390028EDD1BBE79FED647ACB
:1034F000F4EEC77AF1EE10FACCBF01200020FFF7FE
:103500004EB909994A682AB100224A600C9305F025
:103510006BFD0C9B0999CA68526812688A6095F81D
:1035200049204A7095F8CA1008073FF50EA9A9E48A
:10353000E97A00293FF4B2A8FFF7A8B8059FFDF784
:10354000CEBFD5F8C83023F4C21323F40073C5F8F6
:10355000C830D5F8C81021F0E061C5F8C8106AE598
:103560000599032900F082844FF0030C414840493B
:103570000CF1FF3C23FA0CFE1EF0010F0AD1D0F82B
:1035800070E0C1F89CE004380439BCF1000FEFD1C1
:10359000FFF7F7BA352AF6D095F80CE091ED277AC7
:1035A000BEF1000F00F0D184D0ED1C7A77EE877A5F
:1035B000C1ED277AE7E71E2B3EF445AC01230593C6
:1035C000FEF72FBB35463946D5F8C830129E23F09A
:1035D000E063C5F8C83096F82E300F9F43400B4388
:1035E000139C86F82E003FF45DAA022009F02CFB04
:1035F00096F82E00FFF756BA9FED227A20E6DFF804
:1036000088B0DBF81830002B3EF491A895F8C9304B
:103610001A077FF57EACD5F8BC0000287FF485AA98
:103620002627FDF75CBF9DF82030002B00F01984A1
:10363000059B012B40F03D85002304F0FF0B85F82E
:103640003530002C3FF47DAF95F8C930CDF814B07B
:1036500023F0420385F8C9307BE72827FDF73FBFF9
:103660009DF82030002B7FF46CAA2527FDF737BF8B
:10367000DC2F0020BC3000207C300020D44700200C
:103680000000004F00007A44A8210020B6F800C0D6
:10369000069ABCEB0B0318BF012363F34922ADF874
:1036A0001820BBF1000F40F096849DF8203002F006
:1036B0000102002B40F07283002A40F05786D5F8B3
:1036C000C84024F4C21424F40074C5F8C840002C87
:1036D00041F01C8020AB28221846214604931BF0A1
:1036E00065F9A74B9DF89520079393F899300594B9
:1036F000B3FA83F35B0963F3410263F382028DF84B
:10370000952096F883308DF89930099B3BB3DB68A0
:103710009B7A1B0723D52B895A1E022A07D9052B12
:1037200005D0332B03D0069B43F0400306939DF84E
:1037300020301BB1059B022B00F0A387099B1B784F
:1037400003F00302012A00F0398613F0020304D0CB
:10375000069B83F04003C3F3801386F87F30D5F8CF
:10376000B430736727930EF0F9FF159C0F9064B186
:1037700002280AD020461BF003FF013017F0BAFFE1
:10378000289010B121461BF023FEAB7A012BB370B9
:1037900005D19DF8943043F020038DF894306B6D83
:1037A000099A336620935378012B00F0E483D2ED1D
:1037B000027A95ED1E7AF4EE477AF1EE10FA9DF852
:1037C0001830139301D19C060AD5099C2378D80799
:1037D00003D5139B190640F17E85AB6F099A936060
:1037E000139B5B0640F1AF830023D5F8C000239301
:1037F000B36F834200F0D9830F9BB067022B6FD069
:10380000FDF7B0FA0A9B1290002B40F0878599F8DB
:10381000D6319C0700F17D855A4B1B7F042B00F0AD
:103820007D85D9F8E030002B00F07385D9F81C3184
:10383000CAF3074404F00204002B00F041870A9AFF
:10384000129882F001019847002C49D00A9B002B66
:1038500046D1B06FFDF786FA044605F0C5FB2898FF
:1038600018B1FDF7E9FC00232893D6F8D03022697F
:103870001B699A4234D0DFF814B1DBF8C8306BB161
:10388000099A204612780A929847099A13780A9A58
:1038900093421CBF85F848304AF4802AD9F8203179
:1038A000002B00F0FF8638489847189000287FF4D6
:1038B000B6AA802009F0C8F9DBF81830002B00F018
:1038C000EB86C6F8D040DBF8CC304BB10EF046FFAB
:1038D000B0F5007F04D0DBF8CC30D6F8D0009847A4
:1038E000CAF307431AF4802F0A9300F073820998F1
:1038F00095F8481003788B4200F05F82DFF88CB0B7
:10390000DBF840401CB14378239AC068A047099B6C
:10391000239A95F84810D86810F074FD002800F03C
:103920005082099895F84810C2685368197201705E
:10393000099C2492F4656168206821AB03C396F862
:103940007F309DF89420217863F3C7128DF894207E
:103950008DF884100BB196F87E309DF8952063F3B6
:1039600000028DF8952095F8DC10A1F14603032B99
:103970001AD8DFE813F00D00ED00EA000D0000BFDB
:1039800020250020D4470020BC300020A8210020A2
:10399000A1F149004142336E41419748F36312F06F
:1039A000F9F8002801F05980069BD9050AD5737EE5
:1039B00095F82100834205D010F0A0F810B195F8D9
:1039C000213073760023079A82F82030737E8DF8B9
:1039D0009630CAF30743DA0627D596F82C2095F8D7
:1039E00034309A4221D0099C86F82C30E3689BB190
:1039F000596896F82C200B7AC2F38002C3F30010AA
:103A0000904209D062F304130B72237862F304131B
:103A10002370002A41F0248096F82C30DB0701F156
:103A2000268096F82C0002F053FD6B88E3B10F9BC3
:103A3000022B19D02B79002B40F060840B9B85ED75
:103A4000159AC5F8B8300D9B85ED1E8AC5F8C030B3
:103A50006A4BC5F8C880D3F8FC400EF07FFE684979
:103A6000A0470023C5F8C8302B78042B00F0BD8494
:103A7000AB7B1AF4807FB371EB7AF37074D0EB7B7D
:103A8000F37103F0FD03012B00F088820023F0792D
:103A9000594E032231465A4C013A032801F27C84E4
:103AA000DFE800F042321902002093ED027AD1EDF6
:103AB000337AB5EE407A77EE877AF1EE10FAA1F11B
:103AC000040118BF40F00100043BC1ED347A002A24
:103AD00043D0013AE9E700209DF8203023FA02FCA8
:103AE0001CF0010F37D0D4ED277A91ED337AB4EE84
:103AF000677AF1EE10FA2ED0C1ED337A72B301205D
:103B00000439043C013AE9E70020D3ED027A91ED53
:103B1000337AB4EE677AF1EE10FA40F0F383E2B153
:103B20000439043B013AF0E700200023D1ED337A59
:103B3000F5EE407AF1EE10FAC1F8CC3018BF40F043
:103B4000010004394AB1013AF0E712F07DF82BE7A1
:103B500012F05CF828E7002AD2D128B14FF4806037
:103B600009F072F808F0A8FF327D2B7F9A420AD044
:103B7000244C254B0FCB84E80F004FF4007009F064
:103B800063F808F099FF2B7B337195F8353086F890
:103B90002D302B78412B00F285811B2B40F22A849B
:103BA0001C3B252B3BD8DFE813F0DB043A00DB0499
:103BB0003A003A003A003A003A003A003A00D50496
:103BC0003A00F3043A003A003A003A003A003A0068
:103BD0003A003A003A003A003A003A003A003A0015
:103BE0003A003A003A003A003A003A003A003A0005
:103BF0003A003A00B60400BFBC300020A8210020E3
:103C0000DC2F0020C4300020EC2F002001230B20EB
:103C10009E4986F8B43007F02BF9FDF78BF8288918
:103C200095F837305028308086F82F3003D0059B28
:103C3000022B00F0FE83289808B1FDF7FDFA95F8F5
:103C4000203033762BB9079B93F90830002BBDF653
:103C500046AC05F0C9F9337E632B00F05B82032B81
:103C600000F04B8295F82030012B00F038823C2B7D
:103C700001F03683079A92F90820002AC0F22F82B9
:103C80000F9A022A02D01E2B01F01C800122002371
:103C90003280327D85F8373086F87C30B3713371ED
:103CA000B370002A41F015830024B26AB4835268CD
:103CB00096F82C30107A764923F0050364F304104B
:103CC00086F82C30747691F820313462107291F8B5
:103CD000102103F00105920741F108836421099A3C
:103CE000D2685268D16055B103F00603991F96F867
:103CF0002C204B424B4163F3C30286F82C206423F3
:103D0000079996F82C20C1E904334A770F9B022BC0
:103D100021D06049307D07F0ABF8002800F0E58441
:103D20000B201DA907F0A4F838B10C2257491DA893
:103D30001AF00EFE002841F0E98208F0BDFE10F0F6
:103D4000D7FBD9F87430707E9847102008F07CFFBC
:103D5000202008F079FFDFF848B1DBF84C302BB1B8
:103D60000F9A307E941E6142614198474A4B186811
:103D7000002800F0BD84846817F0F8FC2046F7E7BF
:103D800037EE677A02F00103BBF1550F1A4686ED54
:103D9000137A40F05285002386F85830002A40F00C
:103DA0007E81D5F8C8304FF0000B23F4C21323F402
:103DB0000073C5F8C830FFF7CCBB119B53B1DFF8D7
:103DC000E0B0DBF840402CB10998239A43780178A1
:103DD000C068A047099BDA68AAE502F0FD011C292A
:103DE0007FF408A91C2A14BF0A2009202B49049338
:103DF00007F03EF8002800F07884049B002B40F088
:103E000022812989E4B2502908BF85F83530002C79
:103E100040F0AC82D5F8C83023F4C21323F4007309
:103E2000C5F8C830FFF703B9FCF7B8FFFEF738BE96
:103E3000D5ED137AF4EEC77AF1EE10FA58BFF0EE32
:103E4000477A95F8C810C0ED077A21F0800185F80F
:103E5000C810FFF7E6B9B5F808B0BBF1500F7FF412
:103E6000CFA8002385F83530FFF7CEB8352A00F00B
:103E70002681B2D9412A3EF48CAE2A89502A7FF499
:103E8000C3A8FFF7D2BB1027FDF729BB7431002070
:103E9000D4470020C4300020183800207C30002097
:103EA000A82100205C3BDAB21E2A3FF6B8AE1E2BDA
:103EB0003FF6B5AE01A252F823F000BFC545001091
:103EC0001F3C00101F3C00101F3C00101F3C001046
:103ED0001F3C00101F3C00101F3C00101F3C001036
:103EE0001F3C00109D4500101F3C00101F3C00109F
:103EF0001F3C00101F3C00101F3C00101F3C001016
:103F00001F3C00101F3C00101F3C0010E345001038
:103F10001F3C00101F3C00101F3C00101F3C0010F5
:103F20001F3C00101F3C00101F3C00101F3C0010E5
:103F30001F3C00100D3C0010099CAA6F217810F066
:103F400085F9AB6FA360AB6F4FE4D0ED307A91EDA4
:103F5000066AD0ED336A77EE867A77EEA67A77EE48
:103F6000877AC1ED277AFFF70EBBD5F8C030C5F8C8
:103F7000BC30FEF7E6BD2B89099A502B02D0002BEE
:103F800040F0CA8353681BB10023536005F02CF83E
:103F9000099BD3ED027AC5ED1E7A0AE4C14BD5F830
:103FA000BC00DB699847034671E51AF4003F3FF413
:103FB00097AC0A9B002B7FF493AC0F9B022B3FF432
:103FC0008FAC46E4B5F808B0BBF1010F7FF618A836
:103FD0001E27FDF784BA95F837200AB985F83520F1
:103FE00095F84930012B00F06781BBF1210F3FD0DC
:103FF000BBF14C0F00F0FA87D5ED157AF5EE407A5B
:10400000F1EE10FA3FF47DA8002A40F0A780BBF142
:10401000050F00F2B4830BF1FF3BBBF1040F3AD85C
:10402000DFE81BF0C007E706EB0639006C06129BC1
:10403000012B9CBFD2ED337AC1ED027AFFF702BAB1
:104040000123FFF738B8032297489849013A23FA29
:1040500002FC1CF0010F08BFD0F870C0A1F10401F0
:1040600008BFC1F8ACC00438002AEFD1FEF7C2BFC8
:10407000099BDB68DB6B002B3DF459ABD5ED197A5E
:10408000F5EE407AF1EE10FA16D0069B43F02003CD
:104090000693002A62D1069BDC077FF582AE95F875
:1040A000C9304FF0010B23F0420385F8C930FFF708
:1040B00050BA1F27FDF713BA2727FDF710BA2B892F
:1040C000012B85D804F0FF0B002C3FF43AAA95F899
:1040D000C93023F0420385F8C930FFF73ABA0F9B85
:1040E000022B06D00821D9F840307148984704F0D7
:1040F0002DFC00233376FDF7F2B90F9B022BF8D08D
:1041000095F820303C2BEDD1D9F8B831002BE9D00F
:104110009847E7E7634BD3F81C31002BE9D0984769
:10412000E7E71D27FDF7DBB9013AD0B2FFF7ADB9DC
:10413000D2ED1C7A92ED306A77EEC77AD2ED336A0F
:1041400077EEC67A77EEE67AC1ED2A7AFFF7C9B93B
:10415000DCED277AC1ED027AFFF774B9BDF81830AB
:1041600013F0020EDAB21CD0B378012B00F0A78551
:1041700095F8CA305C077EF5CCAE9DF820301099DA
:10418000CB40D8077EF5C5AE01230021A6F85830F4
:104190000C9B316506EB830319640E9B06EB8303CE
:1041A000196495F8C930D90601F16080012385F8BA
:1041B000C43095F8CA305B0718D5B7EE007ADFED4A
:1041C0003D6AD5ED1D7AEB7A002B2B7B07FE267A14
:1041D00027EE877A002B01F05F80109B06EB8303AC
:1041E000D3ED1A7A77EE277AC6ED157A03202E4999
:1041F000DFF8B8C09DF82030013823FA00F4E40756
:1042000096ED157A0DD5DCED277A109CC1ED127A6A
:10421000844201F03380D1ED1C6A77EEE67AC1ED7D
:10422000127A0439ACF1040C0028E5D1109B06EB9E
:104230008303D3ED107AF4EEC77AF1EE10FA00F3AF
:10424000BC83D5F8C83023F48223C5F8C830ABF15D
:104250004903102B00F2AC8301A151F823F000BFF9
:1042600043490010B1490010B1490010B149001094
:10427000B1490010B1490010B1490010B149001016
:10428000813D00100948001043490010B149001059
:10429000813D0010ED470010B1490010B1490010F8
:1042A000ED470010A8210020BC300020DC2F0020AA
:1042B0005C2500203333CB4195F84830DB0707D528
:1042C000D5ED1E7AF5EE407AF1EE10FA7FF48DAE60
:1042D0002927FDF704B9E3685B6883ED007A04F0F1
:1042E00083FE139AE06852067FF526AE00222178FD
:1042F0000FF0ACFFAB6FA360FFF776BA04F074FE6B
:10430000FFF79CBBC1ED337A002A3FF427AC0120B4
:1043100006E4D9F82031002B7FF488AADFF830B307
:10432000DBF81830E3B1129BC6F8D030DBF8C830A8
:104330005BB1099A129814789847099A1378A342A6
:104340001CBF85F848304AF4802ADBF8CC3013B122
:10435000D6F8D0009847802008F076FCFFF766BAC0
:10436000129B1A69D6F8D0301A61DFE795F8C93088
:1043700023F0420385F8C930D5F8C810002940F071
:10438000C58120AB2822184604931AF00FFBA84BD6
:1043900096F8832093F899308DF89920B3FA83F337
:1043A0009DF895205B0963F3410263F382028DF867
:1043B0009520FEF760BE049CFEF71CBE328806996D
:1043C000501E022801F0400140F22E81052A00F023
:1043D0002B81332A00F0288100297FF4B6A9069AA0
:1043E00042F020020692FFF7B0B9E86E01F00CFF30
:1043F000FFF73EBB0A2B7FF412AC95F8C430022BBA
:1044000002D0142B7FF40BAC8A4C95F8AC002146FB
:1044100006F010FD327D95F8AC309A427FF4FFAB88
:1044200094E80700844B83E8070008F045FBFFF79A
:10443000F6BB824C53282368299300F2DE80532870
:1044400055D8DFE810F01E041604E703E703540014
:10445000BE0354005400540054005400540054004F
:1044600054005400540054005400540054005400AC
:10447000540054005400540054005400540054009C
:1044800054005400540054009E035400540054003F
:10449000540054005400540054005400540054007C
:1044A0005400540054005400540054005F0354005E
:1044B000540054005400540054005400540054005C
:1044C000540054005400540054005400540054004C
:1044D00054005400540054003C03540054001A0388
:1044E00054005400540054003C033C033C0300209F
:1044F000299A079B22605A78002A7FF49CAB0028F7
:1045000000F0B38001287FF496AB4D494D4808F088
:10451000F3FAFFF790BB00214B4811F027F9002177
:104520004A4811F023F9D5ED1B7AFCEEE77A17EE35
:10453000902A474B90B2D3F818319847FE2804468A
:104540003CF4CDAF11F0B4FBFF2C3FF4B5AD2746E2
:10455000FCF7C5BF09203B4906F06CFCFFF75FBBC9
:104560009DF8943043F001038DF89430059B002BA7
:1045700040F082802F4C0499204600F027FF94E8F9
:104580000700304B83E80700FCF708FCFFF747BB48
:104590000A202C4906F04EFCFFF741BB00232D4AB0
:1045A000C6F8B83092F811112B4A8807C2E90133D6
:1045B00086F8B4303FF531AB0B20274906F03AFCC2
:1045C000FFF72BBB012386F8B430224B234A93F824
:1045D0001141214BA40707CA83E807003FF51DAB33
:1045E000EAE700231C4AC6F8B83086F8B430C2E9BE
:1045F0000133FCF79FFBFFF712BB8C3803282FD841
:10460000144B9DF8940093F81431BDF81820C3F3AF
:10461000001383F0010363F304108DF894000499F0
:104620000E4801F001FE63E700293FF48EA8D6E6AC
:10463000202500207C300020C430002018380020C5
:10464000AC2500202431002004FA01100CFA0110DE
:10465000A8210020D44700207431002070300020B1
:10466000079B5B78002B7FF4E6AAC84BC84A07CAB1
:1046700083E80700FFF7DFBA0499C54800F0A6FEFB
:1046800078E7069B43F080030693099B1B78FFF7AE
:104690005CB81A27FCF723BF2269D6F8D0301A611C
:1046A000FFF711B9189301234FF4806186F8803029
:1046B000B848D9F84030984704F048F9FFF7FCB8FB
:1046C000802008F0C1FA002C3FF40AA9FFF7BEB819
:1046D000CDE9122320AB19460820049306F0C8FB4D
:1046E000DDE9122300287EF47AAE0727FCF7F7BE37
:1046F00011F08CFADBF80C3008209847F9E4182701
:10470000FCF7EDBE00231993FDF7DDB82427FCF775
:10471000E6BE5227FCF7E3BED36800215C6804F1D3
:10472000100353600E9B184663629B46FCF7C6FB62
:10473000099A2062536806EB8B02D2ED1A7AD3ED08
:10474000046A77EEE67AF5EEC07AF1EE10FA93EDB0
:10475000037A0DD9DFED906A93ED006A67EEA67AD1
:10476000C6EE276AF4EEC76AF1EE10FA37FE267A33
:10477000099B85ED1E7AD3ED027AFFF71AB8BBF1DB
:10478000330F00F02281ABF18C03032B3FF683AC97
:10479000ABF18D03022B07D8DFE803F0020602001D
:1047A000069B43F010030693ABF18E0BBBF1010F98
:1047B00094BF0123069B069A88BFC3F3C00363F32B
:1047C000C3029DF820301446ADF81820002B3FF4AA
:1047D00060AF0C226E496D481AF0BAF8002800F05C
:1047E000AD80E1073FF55BACFFF7DBBA4FF00003AC
:1047F000ABF15604D4F1000B4BEB040B6BF3070346
:104800006BF30F23A6F8583095F8CA30D8077EF519
:104810007CABD5ED1B6AF5EEC06AF1EE10FA3DF502
:10482000BAA823F00103C6ED146A85F8CA3037EE42
:10483000677A86ED137A02F00103002B7FF42FAC28
:10484000FFF7AFBA01230C9A0E9903FA02F28B40DC
:104850001343079A134200F08A8395F8C83023F077
:10486000700385F8C830EB7A8BB19FED507A032244
:104870004A4B0799013AD140CC0705D5D3ED187AB8
:1048800067EE877AC3ED187A043B002AF1D196F8D7
:104890002E309BB10322414B41490798013AD04049
:1048A000C00707D5D3ED187A91ED057A67EE877AC0
:1048B000C3ED187A043B0439002AEED10E9B05EBB8
:1048C0008303D3ED169A0C9B78EEE98A05EB8303FC
:1048D00093ED16AA68EEA88A7AEECAAAEAEEAA8A28
:1048E00018EE900A1BF01CF869EEA99AEAEE0A9AF3
:1048F00008EE900A19EE900A1BF012F807EE100A63
:1049000078EEC77ADFED276AF0EEE77AF4EEE67A22
:10491000F1EE10FA68677FF7BEABF6EE006AF4EED0
:10492000E67AF1EE10FA09DCDFED1F6A27EE267A4F
:10493000B4EEE77AF1EE10FA7FF5ADAB2127FCF784
:10494000CEBD95F8CA3099073AD5D5ED1C7AF5EE6B
:10495000C07AF1EE10FA7DF61EA8B7EE007ADFED10
:10496000136AE97A23F00203002907FE267A67EE2C
:10497000877A85F8CA30C6ED137A4FF07A533365DB
:10498000D3073FF58CABFFF70CBA00BF24310020F2
:10499000703000205C250020DB0FC940DC2F002098
:1049A000A41300200AD7A33B6F12833A3333CB41C1
:1049B000D2073FF574ABFFF7F4B93627FCF78FBD8C
:1049C000BEF1000FD9D0FEF7A4BAAB7B002B41D1CA
:1049D0009DF82030032B3FF692AED5F8C83003F097
:1049E0003003302B7EF495AAD5ED167AF5EE407A99
:1049F000F1EE10FA3FF460ABEB7A5BB15FED156A54
:104A000095ED177A67EEA67A27EE267AC5ED167A27
:104A100085ED177A96F82E3083B1B04B95ED167A66
:104A2000D5ED177A93ED036AD3ED046A27EE067A83
:104A300067EEA67A85ED167AC5ED177A95F8C83037
:104A400023F0300385F8C830069BD8073FF527AB25
:104A5000FFF7A7B92A27FCF742BD5327FCF73FBD54
:104A6000F36D6421D8680FF06FFBFEF7D5BF00210E
:104A7000084602F0DBFAFEF7D4BFDFF878B204F0A4
:104A8000B3FA079BDBF80010049893F81D80FCF73D
:104A9000F9F8C8F3400A0346002830D10498534679
:104AA0005A468F4901F0F2F9404601F011FD299B69
:104AB0002360079B5B78002B7FF4BDA8D5E50C9B9A
:104AC000049A8DF86C300E9B8DF86D30109B8DF82C
:104AD0006E30AB6F23931B9BADF800301B0C8DF831
:104AE0000230804B029395F8C4102833019196F858
:104AF0002D1086F85A107C4901F0B6F8D7E71F460A
:104B0000FCF7EDBCD5ED167A96ED1A3AD6ED1B3AC8
:104B1000D5ED176A95ED254AD5ED264A33EE277A6D
:104B200037EEA76A73EEA67A37EE447A77EEE47A28
:104B3000F0EE085A76EEA66A37EE077A77EEA77A95
:104B400086EE255A86EEA56AC7EE256A87EEA57A17
:104B500035EE035A36EE236A76EE846A77EE247ACF
:104B60001DAB009304995E4A5F481BAB8DED1B5A49
:104B70008DED1C6ACDED1D6ACDED1E7A00F022FF91
:104B800095E704F031FA079B0498696E93F81D804D
:104B9000FCF778F803460028B1D19DF884300499D9
:104BA00043F080038DF884309DF898304E4843F0F0
:104BB00002038DF8983000F009FC404601F088FCB3
:104BC00075E796ED1A6A95ED164AD6ED1B6AD5ED96
:104BD000174A95ED257A96ED0C5AD5ED267AD6ED45
:104BE0000D5A36EE046A76EEA46A37EE057A77EE51
:104BF000A57A1DAB00930499394A3B481BAB8DED58
:104C00001B6ACDED1C6A8DED1D7ACDED1E7A00F08C
:104C1000D9FE4CE7B378022B0BD19DF8843043F0DA
:104C200080038DF884309DF8943043F040038DF874
:104C300094301399D5F8D83049070C9948BF5B4296
:104C40008DF86C100E996A6F8DF86D1010990293A3
:104C50008DF86E101B9B0092ADF804301B0C8DF884
:104C60000630224B04991E4A03F13C0000F0F0FB91
:104C70001DE7B378022B0FD004991B4800F0A6FB68
:104C800015E79DF89430049943F0010316488DF818
:104C9000943000F09BFB0AE7154B1A7E9DF8943088
:104CA000022A43F040038DF8943000F0068301227D
:104CB0009DF8843062F3C7138DF88430DCE7032756
:104CC000FCF70DBCD9F8B831002B3EF4DFAF9847A4
:104CD000FEF7DCBF3827FCF702BC00BFA41300209E
:104CE00024310020FC3000207030002034300020BF
:104CF000D4470020845000203333CB41AB7B002BC2
:104D00007FF4A8AE9DF82030032B3FF6F8ACD5F821
:104D1000C83003F44032B2F5403F7EF4FAA8069A58
:104D2000920504D503F03003302B7EF4F2A895F8F9
:104D3000C820D5ED1B6A12F0300F95ED1C6AEB7A96
:104D400034D1B1EE667AF1EE467A85ED167AC5ED8C
:104D5000177A4BB15FED187A66EEA76A26EE276ADE
:104D6000C5ED1B6A85ED1C6A96F82E3083B19B4B0E
:104D700095ED1B7AD5ED1C7A93ED036AD3ED046AA9
:104D800027EE067A67EEA67A85ED1B7AC5ED1C7ACA
:104D9000EB6E33632B6F7363D5F8C83023F4403365
:104DA00023F03003C5F8C830FFF775B9002B00F0C9
:104DB000B98295ED167ADFED8A5AD5ED177A27EE8E
:104DC000257A67EEA57A96F82E3085ED167AC5ED30
:104DD000177A002BBED0814BD3ED035A93ED045AC2
:104DE00025EE877A67EE857A85ED167AC5ED177A16
:104DF000B0E7069B43F00403069395F8CA00440706
:104E00000ED59DF82030002B3FF443AC01220C99C5
:104E10000E9C02FA01F1A2401143194200F099825E
:104E2000C10700F1A7800123C5F8D8300C9A05EB23
:104E30008203D3ED25AA06EB82030E9A93ED1A7A2C
:104E400005EB8203D3ED258A06EB8203D3ED1A7AB4
:104E500095F8CA307AEEC7AA5A0778EEE78A7FF546
:104E6000F1AC23F004030C225E495F4885F8CA3098
:104E700019F06EFD00283FF461ADEB7A3BB1D5ED42
:104E80001D7A9FED577A67EE877AC5ED1D7A96F801
:104E90002E30B3B1514B0C9AD5ED1D6A03EB820253
:104EA000D2ED037A0E9A03EB820393ED037AF4EECC
:104EB000C77AF1EE10FA77FE877A67EEA67AC5ED2B
:104EC0001D7AD5ED1D9AB1EE007A6AEEAABA29EEE6
:104ED000877AF0EE6B7A28EEA8BAD9EE877A77EE69
:104EE000CB7AF5EEC07AF1EE10FA3DD417EE900AC7
:104EF0001AF016FD7BEE8B7A0AEE100A17EE900A76
:104F00001AF00EFDB1EE4AAA07EE100AF5EEC09AAD
:104F1000CAEE077A2B89032B08BFF1EE677AF1EE10
:104F200010FA05D5F1EE699AF1EE677AC5ED1D9A92
:104F3000B0EE6A7AF6EE006AA7EEE87AE7EEAA8AA1
:104F400027EE267A68EEA67A0C9B05EB83020E9B71
:104F500082ED167A05EB8303C3ED167A069BDB0719
:104F60003FF59DA8FEF71DBF2227FCF7B8BA2327FF
:104F7000FCF7B5BAE86E0BF0A9FD00283DF4C4AA11
:104F8000D5ED1B7AFCEEE77A17EE903AC5ED367A4E
:104F9000002B3FF491A895F8CA3023F0010385F85F
:104FA000CA3043E7069A9DF8203002F00102002B38
:104FB0003EF482ABFEF7F2BED2ED1C7A92ED046AAB
:104FC000D2ED306A77EEC67A9CED277A77EEE67AF4
:104FD00077EEC77AC1ED027AFEF734BAA413002047
:104FE0003333CB417030002024310020099BD86836
:104FF000C36B002B3CF49BABAB7B012B7FF42AAD46
:105000009DF8201011F0FA0FCBB27FF47FAB95F82A
:10501000CA10049111F00401079109D095ED1D7A91
:10502000F7EE007AB4EEE77AF1EE10FA3FF544A815
:105030005C077DF56EAFD5F8C810D04C0C40002C45
:105040003DF467AF95ED1BAAB5EEC0AAF1EE10FADC
:105050003CF5A1ACD5ED176AF5EEC06AF1EE10FA99
:105060003CF599AC95ED186AB5EEC06AF1EE10FA10
:105070003CF591AC95ED167AB5EE407AF1EE10FA6A
:105080003FF41AA8F5EE406AF1EE10FA3FF414A8C6
:10509000F4EEC66AF1EE10FABFF60EA895F8C91044
:1050A00011F010040F9404D095F8C440032C3FF67F
:1050B00003A8099CD0ED055AD4ED027AF4EEE57A06
:1050C000F1EE10FA00F1CF80D0ED065AF4EEE57A59
:1050D000F1EE10FA00F3C780BCF14C0F40F0B38042
:1050E000A74CB5EEC07AF1EE10FA58BF4FF07E50E3
:1050F000D5ED279AB0EEC77A48BFA24884ED00AA42
:105100006062E87AC4ED019AC4ED036A84ED046A32
:1051100084ED027A68B1DFED9C7A27EE277A66EE9D
:10512000A76A26EE276A84ED027AC4ED036A84ED4D
:10513000046A687B98B1B6EE006AD4ED026A94ED19
:10514000037AD4ED047A66EE866A27EE067A67EE75
:10515000867AC4ED026A84ED037AC4ED047A042BE6
:105160002BD095ED046AD6ED2E5AD6ED317A96ED18
:105170001C7A36EE256A39EEC77A36EE276AD5ED07
:10518000256A67EE077A76EEC66AE6EEA67AF0EE54
:10519000C78A17EE900ACDE91221C5ED1B8AC4ED2E
:1051A000066A1AF0BDFBDDE9122107EE900A2AEE2D
:1051B000277AC7EE287AC4ED007A080744BFD5F8ED
:1051C000BC30A3620F9B1BB195F8C43084F82C301F
:1051D000C90744BF2B6DE36194ED077AB5EEC07A41
:1051E000F1EE10FA29D994F82C3033B3D6ED1C7AAD
:1051F00079EEE77AF6EE006AF0EEE77A67EEA67AE5
:10520000B4EEE77AF1EE10FA3EF756AF079B0BB11A
:105210006B6F6361049B9B0744BF2B6F2362069BEC
:1052200043F020030693D5F8C83023F4E32323F496
:10523000B873C5F8C830FEF72CBF0023E361002324
:1052400084F82C30E2E74FF0000C4FF07E544F48CA
:1052500040F8044CC0E900CCC0E902CCC0E904CC61
:10526000A0F118043DE72C27FCF739B995F8C430B4
:10527000002B7EF49EAF1327FCF731B92C7B002C5A
:105280003EF4CFAFD1ED1C6A77EEE67A77EE877AFF
:10529000C1ED127AFEF7C5BF109905EB8103D3ED7E
:1052A000047A06EB810393ED2E6AD3ED316A77EE33
:1052B000867A77EEA67AFEF795BF95ED277AD6ED3A
:1052C0001C7AB4EE677AF1EE10FA14BF01220022C4
:1052D000EEE44FF40070337507F0B6FCFEF7E4BC63
:1052E0000F9B022B7EF410AFFEF703BFA5B103F0B6
:1052F00006039A1F5342534196F82C2063F3C302CE
:10530000079B86F82C205A77FEF700BD0B2020491A
:1053100005F090FDFEF711BD96F82C30079A5377F3
:10532000FEF7F4BC96F82E30002B3FF431AD194B4C
:1053300095ED167AD5ED177A93ED036AD3ED046AED
:1053400027EE067A67EEA67A85ED167AC5ED177A0E
:105350000EE52027FCF7C3B818EE102A22BBA3F1F4
:105360005B014B424B412B739DF8683043F00803BF
:105370008DF868300823FCF755BC00BF70000100B1
:1053800084500020000080BF3333CB419C5000206C
:1053900074310020A41300200439043B043C002A8B
:1053A0007EF47AABFEF7E0BB9DF8682042F0100275
:1053B0008DF8682018EE102A0A2A7CF4B8A95A2B16
:1053C0003CF4B5A91023FCF72DBC00BF38B54B7DCC
:1053D0000C4603F00603062B054602D049690CF083
:1053E0006FFE0DF0BBF9022808D1174B1A781AB9D5
:1053F000587880F0010038BD002038BD03F0A6FACF
:105400000028F2D004E001F071FB30B102F0AEFFF1
:1054100003F09CFA0028F6D1EDE72146284601F07A
:10542000C1FB0028E1D123699B7A1B07DDD52379D5
:1054300003F00303012BD8D103F0D6FD2069E26805
:10544000436A21799847D0E720250020000000001A
:105450002DE9F04F2DED068B9DB09DF8B4B09DF871
:10546000B540914603EB8B02CDE908104FEA8B055E
:1054700010681294049513931D4616921AF030FA90
:10548000064605EB8402106801F100431792A20062
:105490000F460E92069607931AF022FA04464FEA38
:1054A0008B0309EB03021068109201F100420D46D4
:1054B000049405921AF014FA32463B4614F054FE56
:1054C000CDE90A010E99DDF8B88009EB01063068D4
:1054D00011961AF005FA22462B4614F045FE099C57
:1054E0004FEA8B03E318CDE90C0118681AF0F8F9BC
:1054F000DDE90A2314F04CFE0F460E9906466318A8
:1055000018681AF0EDF9DDE90C2314F041FE32467B
:1055100004460D46DDE906013B4614F04DFE9DEDC7
:105520002C9A22462B46CDE914019DF8B6A0DDE960
:10553000040114F041FE02460B46DDE9140114F0AB
:1055400013FE22462B4604460D46DDE9060114F003
:1055500033FE32463B4606460F46DDE9040114F0B1
:105560002BFE02460B463046394614F011FE224609
:105570002B4615F0DBFB14F093FEB8F1000F08EE9C
:10558000900A40F3EE81DFED9C7AF4EEE78AF1EECB
:1055900010FA40F2DA81089D6B7D5C0723D4974AAC
:1055A000D2F80841FCB143F004036B75DDE90A0150
:1055B00014F076FE1990DDE90C0114F071FE8DED0A
:1055C000009A2D9B1A90ADF804301B0C8DF8063014
:1055D000CDF8088019AB0CCB49460998A0476B7DE4
:1055E00060F341036B7588EAE874A4EBE874012C5E
:1055F00040F39480601E07EE900AF8EEE77A17EE0B
:10560000900A1AF06DF978A3D3E9002314F0D4FDC1
:10561000B8F1000FD8BFF1EE687A06460F4609EBE5
:105620008A0393ED008A099BD4BF17EE900A18EE07
:10563000900A03EB8A03D3ED009A1AF051F932462F
:105640003B4614F091FD14F02BFE79EEC89A07EE5C
:10565000100AC9EE877A77EEA77A17EE900A1AF049
:105660003FF963A3D3E9002314F0A6FD14F018FE5C
:105670004FEA8B010DEB01070E99099A0DEB01061C
:1056800010994FEA8A05D1F800E0119905F17003ED
:10569000D1F800C009EE900A5168106892680DEBCD
:1056A000030519AB07C3B8F1000FC7F864E0C6F8EB
:1056B00064C00DF10606CCBF4FF001084FF0FF3873
:1056C000334646469846023C01AF39EE888A129B23
:1056D0008DF8B4B08DF8B5308DF8B6A0DDF8B4C053
:1056E000139B4FEA1C4E05ED038A089902964A4621
:1056F000A7F800C019A888F800E08DED009AFFF720
:10570000A7FE19AB07CBC9F80000C9F80410C9F807
:1057100008201CB115ED038A013CD6E7384B79EE21
:10572000097A93ED027AF4EEC77AF1EE10FA40F3BB
:10573000038177EEC77AB6EE008A67EE877A28EEA5
:10574000888AF5EE407A28EE098AF1EE10FAB0EE7A
:10575000C88A00F12981B1EEE77AC8EE077AFBFE2C
:10576000677AFCEEE77A17EE902A002A00F0E480D0
:105770000899F8EE675A0B7D980600F1068188EECD
:10578000A5AAF0EE007ADFED1F6AEAEE4A7AB1EEE2
:10579000007AB6EE005A099B09EB8A0803EB8A01EE
:1057A00037EE877A91ED006A67EE857AD8ED004A88
:1057B0006AEE266A36EE646ACDED147A66EE877A72
:1057C000012A86EE259ACDED137A00F0B580DDE949
:1057D0000645CDF848904FF0000B4FF0010A914676
:1057E00076E000BFAFF30080182D4454FB21194030
:1057F000182D4454FB210940BD370635A82100204F
:10580000D4470020ABAA2A3E13981AF069F806463E
:1058100014980F461AF064F822462B46CDE90E0183
:1058200030463946CDE9066714F0C6FCDDE90423AD
:1058300006460F46DDE90E0114F0BEFC02460B469B
:105840003046394614F090FC14F02AFD22462B46CF
:105850000646DDE90E0114F0AFFCDDE90423044641
:105860000D46DDE9060114F0A7FC02460B46204672
:10587000294614F08DFC044630460D461AF030F8E7
:10588000CDE904010BF1010B2246DDE90A012B46AB
:1058900014F06AFC14F004FD109B1860DDE9042389
:1058A000DDE90C0114F060FC14F0FAFC119B08997E
:1058B0001860D8ED007A77EE897A1298C8ED007AF0
:1058C000FFF784FD00286AD00AF1010AD14533D0E0
:1058D000BBF10C0F98D107EE90AAF8EE677A67EE4D
:1058E0008A7A17EE904A204615F0B9FD08EE100AA4
:1058F000204615F0B1FD179B08EE900AD3ED009AF3
:10590000169B29EEA87AD3ED007AA7EEC87AF1EEBD
:1059100067AA28EE698A17EE100A19F0E1FFAAEECD
:10592000A88A044618EE100A0D4619F0D9FF4FF068
:10593000000BCDE90401A7E7DDE908101DB0BDECBF
:10594000068BBDE8F04FFFF741BD19F0C9FF1AA360
:10595000D3E9002314F008FC14F0A2FC08EE900A2E
:1059600019E6DFED177AF4EEE78AF1EE10FAFFF6AA
:1059700012AE19F0B5FF10A3D3E9002314F008FC10
:1059800014F08EFC08EE900A05E6D1ED007A67EE81
:10599000A57A23F02003C1ED007A0B75EFE61DB068
:1059A000BDEC068BBDE8F08F17EE900A19F0B8FF3A
:1059B00007EE100AD1E600BF182D4454FB21194010
:1059C000BD3706B52DE9F0412DED108B9FEDA39A63
:1059D000DFEDA38AF7EE009ADFEDA2DA1D46B0EE06
:1059E00049AA84B0144606468846106851689268F1
:1059F0000DF1040CACE807001A9F39EE289AB4EEBA
:105A0000E99AF1EE10FA97ED001A97ED010A96ED7A
:105A100000BA96ED01CA39FE898A79EEC87AD5EDC9
:105A2000001AD5ED010A6BEE082A2CEE083A61EE59
:105A3000086A20EE087AE1EEA76AA0EEA77AE1EE06
:105A4000272AA0EE273AD4ED00AAD4ED01BA61EEE0
:105A5000884A20EE885A68EE222A28EE033A68EE39
:105A6000265A28EE076AE7EEA62AA7EE273AEAEEBC
:105A7000A74AABEEA75AF0EE656AB0EE467AE7EEBB
:105A8000A46AA5EE277A68EE222A28EE033A0022BD
:105A9000B6EE002ADDED01CA9DED02DAE7EEA62A98
:105AA000A7EE273A53E078EE287A67EE827A39EE4D
:105AB000E77A6BEE276A2CEE276AE1EE076AA0EE22
:105AC000076A21EE275A60EE275AA1EE875AE0EEC8
:105AD000875A61EEA7FA20EEA7FA67EEA66A27EECC
