:020000041000EA
:10000000002008205D0100101B0100101D010010E0
:100010001101001011010010110100101101001058
:100020001901001019010010190100101F01001022
:1000300011010010190100102101001025030020FA
:100040001101001011010010110100101101001028
:100050001101001011010010110100101101001018
:100060001101001011010010110100101101001008
:1000700011010010110100101101001011010010F8
:1000800011010010110100101101001011010010E8
:1000900011010010110100101101001011010010D8
:1000A00011010010110100101101001011010010C8
:1000B00011010010110100101101001011010010B8
:1000C00011010010110100101101001011010010A8
:1000D0001101001011010010110100101101001098
:1000E0001101001011010010110100101101001088
:1000F0001101001011010010110100101101001078
:100100001101001011010010110100101101001067
:10011000EFF30580103800BE00BE00BE00BE00BE7A
:1001200000BE00BEF2EB88715CB0021078B0021025
:10013000A001001090A31AE7D3DEFFFF42012110B7
:10014000FF01000078D20200793512AB4FF00000B9
:100150001E49086006C881F3088810474FF05040D8
:10016000006810B14FF00000F2E70DA40ECC00299A
:1001700002D000F012F8F9E71549164A002000E015
:1001800001C19142FCD11449884714498847144958
:10019000884700BEFDE701C901C29A42FBD3704700
:1001A00078B002101001002048240020B0D30210C3
:1001B0000000082000000820B0D302100010082022
:1001C00000100820000000007047000008ED00E06B
:1001D00048240020985B0020BDD701103502001094
:1001E000B5D70110F8B500BF064B0749C91A8910E9
:1001F00048BF0131491003D0044B0BB101481847E7
:10020000704700BF48240020482400200000000060
:1002100008B5054B1BB105490548AFF30080BDE8A3
:100220000840FFF7E1BF00BF00000000483D00208C
:10023000A01A021008B500F095FA002008BD00BF12
:10024000704700BF0020704700B5064B83B0DB6DE0
:100250009847C0F30743C0B240EA032003B05DF8FB
:1002600004FB00BF20270020024A034BD2F8C00045
:100270001B6818472027002000260020074B70B578
:100280001B6804460D469847054BDB6E23B1294693
:100290002046BDE87040184770BD00BFF43600200E
:1002A00000260020024B93F8D60100F002007047B0
:1002B000202700202DE9F843374F3B68002B67D0FB
:1002C000364B374E93F8AB30CBB1336D98473C6823
:1002D000F36C002C5ED000253D609847314F01E063
:1002E000904764B1D4E9012023463968E4685D6031
:1002F000DD600029F4D13B609047002CF2D1D6F8A4
:10030000B0319847284B80461A6882423ED0274D2C
:10031000274A2C681768BC4238D0186037B1D7E933
:1003200001309847FF68002FF9D12C68002C2DD0A0
:100330000027DFF870900BE0F36C9847D4E90130A8
:10034000D9F800206760E760D2B198472C68ECB11B
:100350002368A3EB0803002B18DC336D98472B6848
:10036000A3420AD0002BE7D01A46DB68002BE3D06B
:10037000A342F9D1E368D360DEE7E3682B60DBE7F3
:10038000C9F8004098472C68002CE1D1BDE8F883FB
:10039000034EB4E79847B2E7143B0020D029002071
:1003A00020270020943B0020983B00203C3D00206B
:1003B0000C54002008B510F035FA0022014BC3F8A8
:1003C0001C2108BD0026002000B585B013F00AF9F5
:1003D0000D4B0290DB6D98479DF80A309DF80B108D
:1003E0009DF808C09DF8092001EA106102EA102278
:1003F00003EA104300EA0C000B43104340EA0320D9
:1004000005B05DF804FB00BF2027002030B5154B78
:100410008BB093F800E0EC466FEA0E0E124C5FFAD8
:100420008EFE83F800E00FCCACE80F0094E80F00DC
:10043000ACE8070070468CF8003010F009FA04466A
:10044000684621F02BF92146684420F027FF034637
:10045000064A0021128868461A800DF07FFE0BB014
:1004600030BD00BF40170020A01A0210C01A0210B1
:100470004AB1064A92F85521920704D5044A184613
:10048000D2F8143118470020704700BF544D0020A7
:1004900020270020074B93F85221D20604D5826909
:1004A000D3F8D4118A4200D17047C3F8D4210AF09E
:1004B000AFB900BF544D00202DE9F0410446204E55
:1004C0000F46336D904698470CB31E4B1D681DB305
:1004D00000221A60D6F8B0319847002100EB0802DC
:1004E00019486C6003682A60AF60E96023B319683B
:1004F000511A002904DC1EE01968511A002903DB97
:100500001846DB68002BF7D1EB60C5600124F36C63
:1005100098472046BDE8F0810C4D2823AC4602E008
:10052000ACF1100C53B1DCF87402013B0028F7D198
:1005300005EB0315CEE7EB600560E7E71C46E6E751
:1005400020270020943B00203C3D00202454002024
:100550000D4808B5417A11F002010CD00B4B012176
:100560001B6C443098470A4B00219A8A0948BDE821
:100570000840FFF7A1BF064B9A8A02B908BD06489A
:10058000BDE80840FFF798BFD029002020270020B1
:10059000544D0020510500109D050010054B002111
:1005A0005B7A9B07044B4CBF044805489A8AFFF7C7
:1005B00083BF00BFD0290020544D002051050010FA
:1005C0009D05001070B5124E0D46336D04469847D8
:1005D00010490B68A3B1002003E0DA6818467AB12D
:1005E00013465A68A242F8D19A68AA42F5D1DA684D
:1005F00060B1C260002208495A600868DA6018B128
:10060000F36CBDE8704018470B60F9E70A60F1E74A
:10061000202700203C3D0020943B002010B50446DC
:10062000E30706D40A4B1B6883B12046BDE810409F
:10063000184700210748FFF7C5FFC82200210548D9
:10064000FFF73AFF024B1B68002BEED110BD00BF35
:10065000703D002069020010F8B50446164F0E46A2
:100660003B6D98478CB1154B1D6895B10021196001
:1006700000201349C5E901460B68E860BBB1194683
:10068000DB68002BFBD1CD600124FB6C9847204632
:10069000F8BD0C4D28232A4601E0103A4BB1D2F8A0
:1006A0007402013B0028F8D105EB0315E0E70D606B
:1006B000EAE71C46E9E700BF20270020943B002022
:1006C000143B002024540020214B2DE9F04193F8E5
:1006D000A96016B304461F4F88463B6D9847B4B1D6
:1006E0001D4B1D68EDB10021196000201B496C6095
:1006F0000B68C5F80880E8600BB31946DB68002B6F
:10070000FBD1CD60FB6C98473046BDE8F0812646B2
:10071000FB6C98473046BDE8F081BDE8F041FFF73B
:100720009BBF0F4D28232A4601E0103A6BB1D2F847
:100730007402013B0028F8D105EB0315D5E7FB6CEB
:100740000D6098473046BDE8F0811E46DAE700BFED
:10075000D029002020270020943B0020603D00206D
:10076000245400202DE9F04FC54D83B0DFF8848379
:10077000CC220021284620F0A7F94FF42072002156
:10078000C04820F0A1F94FF490720021404620F0BB
:100790009BF9BD4BBD4CC8F81031BD4BBD4AC8F8E4
:1007A0005C30BD4BBD4FC8F86430BD4B0021C8F86C
:1007B0007830BC4BC8F81421C8F87C30BA4B4FF4E1
:1007C000F672C8F88030B94B2046C8E91477C8F8EB
:1007D000CC3020F079F90A234FF480622360B44BC7
:1007E000B44EC4F878314FF08043C4F88021B24A47
:1007F000E361C4E914624FF6FF730122A4F8DE310D
:10080000134684F8E621AD4AAD492267AD4A216618
:10081000C4F89C20AC4A85F8A930C4F8D021AB4A72
:10082000E664C4F8242111F0CFFD14F04DFB0BF069
:1008300091F80FF0F7FF17F0BFFAA54F00263B78AD
:1008400060F300033B7014F085FB0BF08DF894F817
:10085000D421397802F06003A3F16003B3FA83F383
:1008600042F060025B0984F8D421DB00C2F340024D
:1008700043EA021321F0180103F018030B43FF2B86
:100880003B700CBF01233346C5E92E66C5E93066CF
:10089000C5F8B46085F8AC6085F8AA300FD18D4BEF
:1008A000D4F80821C4F808318B4B8C481A60A36B2C
:1008B00098473B7885F8AA6060F341033B70874E08
:1008C0000DF1060196F8DC0013F0D2FC81460028F9
:1008D00000F08D8196F8DD000DF1070113F0C8FCE2
:1008E00018B996F8DC3086F8DD309DF9060013F073
:1008F00007FD3B78814660F382033B70002800F0DF
:100900006E81002013F0D4FCC36A2BB1006BB0F1F0
:10091000000918BF4FF001093B7869F382033B706F
:1009200094F8D53113F0020305D196F8D02163F382
:10093000410286F8D0213B78FF2B06D010230021FE
:10094000674885F8A830FFF7BFFE0121D4F88C3046
:1009500096F83C01984713F03BFF636F4FF000009F
:100960009847D4F8CC310BB15E48984795F8A83039
:10097000626E103B18BF012385F8AB30002A00F0EF
:10098000E78096F8C331DF0700F1E280B28A002ADF
:1009900040F0E88094F8D53113F0060F40F0EC8079
:1009A00094F8B63003F00C03042B06D14E4BD4F868
:1009B00000211A604D4BC4F80031D8F8AC30002B40
:1009C00000F023814FF000094FF0640A4FF0640BF0
:1009D0000FF028FFEB7823B196F9C231002B80F29B
:1009E000B1804C220021264820F06EF86FF0010300
:1009F0000020C5E904ABEB6413F04EFC002840F086
:100A0000E480B38A697A003B18BF012396F860211D
:100A100063F341016972D10705D56B7FC2F34002D0
:100A200062F3C3036B7711F04FFDD4F8D4309847CD
:100A300096F85201C0F3400000F0FEFA96F85A0111
:100A4000A36D4FF0000100F00100984705F0FCFE97
:100A500006F02EFD11F07CFC0BF0EEFD06F02AFAFC
:100A6000204923480CF0AEF8D4F8903013B100219F
:100A70000846984794F8D6319B0740F1A3803BE0A5
:100A8000D029002024540020758200102027002047
:100A900041020010CD380110E9C80010B502001065
:100AA000F9700110F1700110D9AD0010950400101B
:100AB000B503001029100110450200106DC600108A
:100AC000351A0110D57100102D380110A502001043
:100AD000401700207D020010F4360020544D002005
:100AE0000D040010842A0020703D00201D06001017
:100AF0004436002000260020D8F80030D4F8C40086
:100B0000984796F95131002B53DA94F9D531002BDF
:100B100007DA95F8AC30002B0CBF8020872008F056
:100B200041FA07F03DFF074698B385F8A9900FF00A
:100B300079FEEB78002B3FF454AF96F9C231002BCD
:100B4000FFF64FAFA822002138481FF0BDFF4DE748
:100B500094F8E131002B48D1354BB28A6366002A04
:100B60003FF418AF00213348FFF7A6FC94F8D531C5
:100B700013F0060F3FF414AFC3F38002C3F3400336
:100B800043EA420140F28A2001F003010AF0E0FC4E
:100B900006E7D4F8AC31FBB1984785F8A970074651
:100BA00000287FF415AF14F0C1F9384603B0BDE852
:100BB000F08F11F0FBFEB0F5807FA6D1012011F07F
:100BC000FBFEA2E716F05EF996E7002013F070FB3B
:100BD00064224368DA6014E785F8A930F8E613F078
:100BE00075FB13F08DFB814696E6134BB5E713F0CA
:100BF000C9FA494613F09EFAA8B190F9002043784B
:100C00008DF8062086F8DC3064E694F8D731D807F2
:100C10007FF5D8AED4F81431002B3FF4D3AE074B98
:100C2000C8F8AC30CEE602460B23E9E7D029002015
:100C30004902001051050010C90300107104001092
:100C4000F8B50E4F3C689CB100250D4E02E0904770
:100C50003C606CB1D4E9012023463168E4685D60F2
:100C6000DD600029F3D1336090473C60002CF1D166
:100C7000044B93F8AB3003B9FEE7F8BD603D0020AC
:100C8000943B0020D0290020F8B504692DED028B9B
:100C900008EE101AE16B002942D000266425027D7F
:100CA000214B22F02002646802755A7F1F4F42F0E8
:100CB000800287ED1B8A02765A7F80ED008A42F01F
:100CC000040286605A77027E42F0040202765A7F5E
:100CD00042F001025A77037E43F0010303760120BC
:100CE000E5608847D0ED007A28EE278AB5EE408A85
:100CF000F1EE10FA10D00E4B9FED0E7AD3ED1D7A67
:100D000067EE877AF4EEC87ABDEC028BF1EE10FA4A
:100D10004CBF2B203046F8BD2920BDEC028BF8BD1E
:100D20001420BDEC028BF8BDD0290020D435002062
:100D3000544D00206666663F00B50E4A92F8933027
:100D400002F1940C013303F0030303EB83010CEB7A
:100D5000810C02F1E80E82F89330BEE80F00ACE897
:100D60000F00DEF80030CCF800305DF804EB0BF03B
:100D700009BF00BFD43500200C4B9A690AB1DB696A
:100D8000184770B40A4E0446B4460A4BD3F81051C3
:100D900028686968AA68EB68ACE80F002869696987
:100DA000ACE803003046B46170BC704700260020F8
:100DB00004570020D4350020214900220B46B7EE0D
:100DC000007A10B4A1F1140C73ED017AF4EE477AB5
:100DD000F1EE10FA4FEA4202D2B218BF42F001021D
:100DE0006345F1D1F7EE007A00231648164CC0EDAA
:100DF000097AC0ED087AC0ED077AC0ED067AC0ED39
:100E0000057AC0E90033C0E9023384F83630036163
:100E100031ED017AB4EE677AF1EE10FA4FEA43034E
:100E2000DBB218BF43F001036145F1D1934202D117
:100E30005DF8044B704702205DF8044B0BF06ABF6D
:100E40006C17002044170020D4350020472370B5CC
:100E500000F13604E4B23B2C104D204628BF3B2065
:100E60002B800FF0F5FC0646284620F017FC314693
:100E7000284420F013FA3B2C01D8084870BD0346E3
:100E8000074AA4F13B0012881A800FF0E1FC0146EA
:100E900028461FF067FE014870BD00BF7833002070
:100EA0009477021000487047581700200020B7EED2
:100EB000007A094BA3F1140273ED017AF4EE477A3C
:100EC000F1EE10FA4FEA4000C0B218BF40F0010046
:100ED0009A42F1D1704700BF6C17002010B504464C
:100EE000F9B140F20113174AB2F84C21934318D0DC
:100EF00007F03AF9002814DB134B00EB8000204484
:100F000003EB800003EB8402D0ED257AD2ED026A78
:100F100092ED3F7A77EEA67A77EE877A17EE900A0F
:100F200010BD094B03EB8401D1ED027AD1ED3A6A91
:100F300091ED3F7A77EEA67A77EE877A17EE900AF0
:100F400010BD00BF544D0020D435002030B583B013
:100F5000019298B3022803D0274BD87103B030BD5B
:100F6000DDED017A254BF8EEE77A03EB4113D3ED83
:100F70000C6A87EEA67A224A1F4D926905EB81031F
:100F800093ED3F6A83ED3F7A2AB9D5F8103103EB30
:100F9000810383ED007AB4EE476AF1EE10FA14BFD4
:100FA00001210021E8710029D8D04FF480600BF0B6
:100FB000B1FE03B0BDE830400BF0E4BD10494FF086
:100FC000000C8C6901460F4A1368A2F58875A3F1DD
:100FD000140E72ED017AF5EE407AF1EE10FAC2F8D5
:100FE00000C018BF41F001010CB9C3F810C0043BA8
:100FF0007345EED1D6E700BFD4350020544D002014
:1010000000260020E436002071B1012905D102221A
:101010000023027043708170704701220223002177
:1010200002704370817070470A46012302210270EA
:1010300043708170704700BF2DE9F043664F8BB05D
:1010400097F8A940002C56D0644D654C00214FF410
:101050008A7228461FF038FD94F85231614ED90645
:1010600073D5F369D4F8D4019847C5F81001002866
:101070006BD0B369002B70D05B4B1C682CB1204641
:10108000A4681BF06BF9002CF9D17B7F574C002032
:1010900085F834306C6613F00BF92863FFF78CFE8B
:1010A000287FA4F11C0109F00FFF10B90720B368D5
:1010B000984797F8A930002B3CD0494B93F8513111
:1010C0009B076AD5746C6CB10023142269464848AA
:1010D000CDE90033CDE9023304931FF0C7FC0028AB
:1010E0004ED0A04714F0D0FF336B5BB33B480BB03E
:1010F000BDE8F0431847394DE82206462146284608
:1011000095F81C9095F807801FF0DEFC394BD5F858
:101110001001D3F81C318269C5F888200BB1214633
:1011200098472EB12F4E85F81C9085F80780A3E7CD
:101130002C4EA1E7746C002CD3D114F0A5FF336BB7
:10114000002BD3D10BB0BDE8F083F36900209847A2
:10115000B369C5F81001002B8ED1D5F810211360AA
:1011600053609360D36013615361936194F852317B
:10117000DA0681D5D4F8D421D5F810319A617BE70D
:1011800005A9C1E90100C1E90300059014221A482C
:101190001FF06CFC0028A5D0A3E70B20164909F02E
:1011A00093FE50B90720B3689847746C002C99D00F
:1011B00097F8A930002B87D193E7142395F9932052
:1011C000DFF834C002FB0354BCE80F0094340FC4B2
:1011D000DCF800302360E8E7D0290020D435002077
:1011E000544D002000260020883D0020F8350020C6
:1011F000DC35002020270020BC3600200048704746
:10120000F8350020002208B5054BC3E900229A609A
:1012100013F0DEFABDE8084010200BF07BBD00BFE4
:10122000F835002008B5054A054B82F821005B6FB0
:101230009847BDE8084020200BF06CBDD435002055
:101240002027002040B110B504462046A4681BF0BA
:1012500085F8002CF9D110BD704700BFB0B10C4B20
:1012600010B5D3F8C030044603B19847237823B9AA
:101270002046BDE810401BF071B8204600210CF05C
:101280006DFF2046BDE810401BF068B8704700BFF6
:1012900000260020014B1868704700BFE034002092
:1012A00038B5044620B3184B187808BB5B78F3B9FF
:1012B000164D94F8210084F8403095F821302A88A2
:1012C0009842228004D0124BB3F8D81012F02CFDB3
:1012D0000C22104904F124001FF0C8FB50B1482231
:1012E00021460A4820F064F901206B6CAB6638BDDA
:1012F000002038BD064BE26AB3F8E03094F82410C1
:10130000286B13F009FAEAE7D0290020D435002031
:10131000544D0020F83500202DE9F04F0378174692
:101320005A1E1F2A0446884683B004D814F8013F89
:10133000581E1F28FAD93B2B50D02F2B4AD0237888
:10134000002B66D0A2460026651C202B08D9292B2D
:1013500005F1FF391AD03B2B13D0282B0BD066B3E5
:1013600015F8013B002BF0D1002320468AF800300D
:1013700003B0BDE8F08F2E4615F8013B002BE4D1F9
:10138000F2E7002EECD189F80060EDE77EB13E4B2C
:1013900093F891305BB905F8013C3C4B93F8D6319A
:1013A0005B0723D4002F4AD03B68002B33D015F8BD
:1013B000013B0026002BC8D1D6E7A3F16102192A10
:1013C00098BF03F05F030AF8013B15F8013B002BBF
:1013D000BBD1C9E72E4B1B7ADA0605D50023204680
:1013E000237003B0BDE8F08F0134A8E73378002BF9
:1013F000DDD017B13B68002BD9D1DFF89CB0DBF80A
:10140000C430002BD3D030469847002688F800001F
:10141000A6E7A246A8E7DFF880B0DBF8BC3023B12E
:101420003046984738600028C1D104223046194917
:101430001FF034FC38B13378002BE0D1B7E73378B4
:10144000002BB4D0D9E7A9EB0602A2F10309484664
:1014500001921AF047FF019A38600028EBD03379E7
:10146000202B0FD1731D194613F801CBBCF1200FAF
:10147000F9D006F101099144A9EB01094A4620F08F
:1014800097F894E7311DF9E7D43500202027002094
:10149000D0290020C41A02100026002000212DE9C6
:1014A000F04FDFF8C4922DED088BD9F80431DFF846
:1014B000AC825B1A18BF012398F88D20AFB093EA75
:1014C000020416918DF8571016AA0DF1570118BF96
:1014D00088F88D30FFF720FF9DF8576082464EB99F
:1014E0000278252A0CD07AB9169808B1FFF7B6FE13
:1014F0009DF8576030462FB0BDEC088BBDE8F08FEB
:101500004278002A00F0AF80934CF0220021204660
:101510001FF0DAFA4822914904F1080020F048F857
:1015200000229AF80010D8F8643024291746079250
:101530008DF818200993ADF8142000F0318351463E
:10154000012217920022199291F800B01B92BBF170
:10155000000F01F00D83BBF1400F66D9BBF15A0FAC
:1015600000F2F986BBF14F0F63D17D4A17AB189299
:101570001946504619AA04930FF036FA05468DF81D
:101580005700002841F0F785DDED187AF4EE677A10
:10159000F1EE10FAB0EE677A81F1588208900A9065
:1015A000FCEEE76AF8EE665A9FED6E6A77EEE57A32
:1015B00067EE867AF8FE677ACDED196ABCEEE78AA7
:1015C000BBF1470F61D0BBF14D0F40F0D3802278C3
:1015D000412A00F04781199D632D40F2FC810022D1
:1015E000DFF888B11B92DBF8F420002A00F09B8022
:1015F00018EE103AA8B2002B00F0228300EB800511
:1016000005EB85001FFA83FB0BEB800080B290474F
:101610000546002800F08780199A02EB820202EB4F
:1016200082020BEB820292B211E3BBF1240F40F075
:10163000928617AB1946504618AA04930FF02CFA5D
:10164000002801F0E38100231D4608EE103A0893BC
:101650000A93DDED187AF4EE677AF1EE10FAB0EE47
:10166000677A9DD7ACE7027098F88D20002A00F0C9
:10167000CB82002C40F0948398F88C20002A41F013
:101680009B8139238DF857302EE700221B92199A3F
:10169000412A4AD8412A46D8DFE812F042034203E1
:1016A00042034203110442034500FF03FF034500C8
:1016B000AB03450045004500450045004500A20339
:1016C000A203A203F203F2034500450045004500D2
:1016D00045004500AB034500AB0345004500BC0495
:1016E0004500450045004500950445008E04450031
:1016F00045002804450045004500450045002804F4
:101700001904190445001104F002F002F002F0027D
:10171000F002F002450070044500450045007804E1
:101720004C2A00F077841426E4E6592A40F24382DA
:10173000A2F15A010929F6D8A2F15C01072903F2A6
:101740005385DFE811F07A032303230371031203A7
:1017500012030803080300BFE4340020D43500203E
:101760000000C07F0000C842202700200026002083
:101770000000C07F0022ABF1240B1A92BBF1360FA0
:10178000D1D801A252F82BF0BB1800102717001077
:101790002717001027170010271700102717001011
:1017A0002717001027170010271700102717001001
:1017B00027170010271700102717001027170010F1
:1017C00027170010271700102717001027170010E1
:1017D00027170010271700102717001027170010D1
:1017E00027170010271700102717001027170010C1
:1017F000271700102717001027170010CF220010FE
:10180000B32200109F2200108722001071220010C6
:1018100057220010271700101D220010012200106F
:10182000E5210010C9210010932100102717001096
:10183000752100103D190010492100105F21001092
:10184000332100101B210010C1200010AD2000101A
:101850008920001075200010592000103D20001034
:101860002120001094F8D920910600F1A28184ED86
:101870001C7A42F0200284F8D920179A511C179143
:101880001AF802B0BBF1000F00F06E85BBF1400FFB
:1018900029D8BBF1240F40F05E855046049918AA60
:1018A0000FF0FAF800286CD1022D41F0AF805FED07
:1018B000507AB0EE677ACDED187A18EE103A002B18
:1018C00040F04685BDEEC77AD4F8D82084ED307A52
:1018D00012F0010308EE103A40F06B8101210A4337
:1018E000C4F8D820C9E7BBF15A0F00F23485BBF128
:1018F0004F0F5ED1DA4A50461892049919AA0FF098
:1019000073F88DF85700002841F0A580DDED187AB6
:10191000F4EE677AF1EE10FA1A900FD6BCEEE77A81
:10192000B8EE476ADFEDCF6A77EEC67A67EEA67A41
:10193000F8FE677A8DED197ABCEEE78A18EE103A58
:10194000002B40F005859DF8692042F080028DF85B
:101950006920199A1A99C4F8C820D4F8D82012EA34
:10196000010308EE103A40F02481BF480142B6D08E
:10197000DDED187AF5EEC07AF1EE10FAAFD5042657
:10198000B8E59DED187AB4EE477AF1EE10FA94D6E8
:10199000FCEEC77AB8EE678ADFEDB26A37EE488AA6
:1019A00028EE268AB8FE488ACDED197ABCEEC88AA0
:1019B00083E75046049918AA0FF06EF800287FF4C8
:1019C00048AE022D41F02280DFEDA87AB0EE677AB2
:1019D000CDED187AF4E518EE103A002B40F0B884FB
:1019E0008DED1B8A632D00F2238101A252F825F0B0
:1019F000691E0010691E0010691E0010531F0010A0
:101A0000531F0010531F001003230010211F00104C
:101A1000211F0010211F0010311C0010311C00106C
:101A2000311C0010311C0010311C0010311C001042
:101A3000311C0010311C0010311C0010311C001032
:101A4000311C0010311C0010311C0010311C001022
:101A5000311C0010311C0010311C0010311C001012
:101A6000311C0010311C0010691E0010311C0010C8
:101A7000311C0010311C0010311C0010311C0010F2
:101A8000311C0010311C0010311C0010311C0010E2
:101A9000311C0010311C0010311C0010311C0010D2
:101AA000311C0010311C0010311C0010311C0010C2
:101AB0008D1B00108D1B00108D1B00108D1B001046
:101AC000311C00108D1B0010311C0010311C001047
:101AD000811B0010311C0010311C0010311C001043
:101AE000691E00102B230010271700102717001065
:101AF00027170010271700102717001027170010AE
:101B000027170010311C0010151F0010151F0010A2
:101B1000151F0010151F0010311C0010311C001083
:101B2000311C0010311C0010311C0010311C001041
:101B3000311C0010311C0010311C0010311C001031
:101B4000311C0010311C0010311C0010311C001021
:101B5000311C0010311C0010311C0010311C001011
:101B6000311C0010311C0010311C0010311C001001
:101B7000311C0010311C0010311C0010EB22001031
:101B80003B4A92F8602150077FF5CDAD65704FF468
:101B900080120025174240F0CD873A4317466CE685
:101BA0000120A2720AF1030104222081ADF8140081
:101BB000C7E419269EE4482A7FF6B5AD01252D49D4
:101BC000A2F1490005FA00F00140002940F0EE8042
:101BD000502A7FF4A5AD9DF86C1041F002018DF8FC
:101BE0006C102281002284F83F2018EE103A002B5E
:101BF00040F0AE831B9A17EA020308EE103A40F059
:101C000099871D46174338E698F88C20DFF868B0AE
:101C100082F0010288F88C20DBF8E82012B198F8F5
:101C20008C0090479AF80020002A3FF45DAC6BE4EA
:101C3000DFF844B0DBF8F420002A3FF474ADA8B21A
:101C40009047054600283FF46EADBDF864206280E1
:101C50009DF86E2042F020028DF86E201B9A99E7C5
:101C60000000C07F0000C84280CA18000000C07F8A
:101C7000544D002001370100002600209DF86D1012
:101C80003B2A41F008018DF86D10A2F1360184F86D
:101C90002410AAD118EE103A1E2B3FF644AD01A233
:101CA00052F823F04B2300102717001027170010BD
:101CB00027170010271700102717001027170010EC
:101CC00027170010271700102717001037230010C0
:101CD00027170010271700102717001027170010CC
:101CE00027170010271700102717001027170010BC
:101CF0002717001037230010271700102717001090
:101D0000271700102717001027170010271700109B
:101D1000271700102717001027170010372300106F
:101D2000089B002B41F0E0809DF86C10052A41F0E3
:101D300002018DF86C1040F0E78618EE103A1BB1E6
:101D40000A2B7FF4F0AC33222281002284F83F205A
:101D5000022208924FE7623A84F83D209DF86D20F8
:101D600042F002028DF86D203FE7CC49097E02293E
:101D70007FF4D9AC603A82F0010284F851209DF8DA
:101D80006D2042F020028DF86D202EE7C2F15E0238
:101D9000A2729DF86C2042F020028DF86C2024E79E
:101DA0000122DFF804B388F88C2035E7089B002B6C
:101DB00041F09A8091B2B8F80020059B521A18BFE2
:101DC000012262F34103059302239DF86C2084F8FD
:101DD0003F5042F0020221818DF86C20089304E705
:101DE000113AA2739DF86C2042F004028DF86C2029
:101DF000FBE618EE103A002B40F09F86089B002B64
:101E000041F072809DF86C101C2A41F00101227093
:101E10008DF86C1041F0EC810123089318EE103A14
:101E20001A4422700122E6E60222A2729DF86C207A
:101E300042F020028DF86C20D7E618EE103A002B05
:101E400040F06686089B002B41F04E8001239DF8F0
:101E50006C20089342F001028DF86C2018EE102AD5
:101E60005C3222700122C6E6002D00F0E585012DCE
:101E700000F0CF8584F8285000254FF4004289E611
:101E8000A2F11402B2FA82F25209E2729DF86C20B9
:101E900042F040028DF86C20A7E68049097E0229B5
:101EA0007FF441ACA2F10702B2FA82F252096273E6
:101EB0009DF86D2042F040028DF86D2095E622706D
:101EC0009DF86C2042F001028DF86C208DE6A2F1A5
:101ED0003302B2FA82F20423520984F83E209DF8BC
:101EE0006D2008931A438DF86D207EE6312A00F0AC
:101EF000ED8518EE103A002B40F0F585DFF8A8B11B
:101F0000DBF81820002A3FF40EAC0122E2734FF4F4
:101F1000807270E684F8EC503A4600251746ACE42F
:101F2000059B082D43F48073059300F06885092D07
:101F300000F05D8599F8E62195077FF5F4AB94F8FC
:101F40002920002542F0020284F829204FF40022C3
:101F500020E6A5F10402B2FA82F2053D18BF012580
:101F600094F85010520945EA420221F003010A4355
:101F700084F8502000254FF480220BE618EE103A2A
:101F8000002B7FF4D0AB4FF4805234E6412218EEA0
:101F9000103A22709DF86C2042F001028DF86C20FE
:101FA000002B7FF4C0ABDFF800B1DBF81821002A6A
:101FB0003FF4B9AB01221EE69DF86C2042F080028E
:101FC0008DF86C2011E6D9F81021002A3FF4ABAB54
:101FD00018EE103AA3F114011E293FF6A4AB304AC3
:101FE000CA40D5077FF59FAB2E4AA2FB0312D20849
:101FF0008A321992089B002B40F0768792B2228198
:10200000002284F83F209DF86C2042F002028DF8F7
:102010006C209DE618EE103A002BEBD0FFF783BB47
:10202000069BD4F8D82043F004030693530184EDB3
:10203000277A3FF5BEAD4FF0806150E4069BD4F89F
:10204000D82043F00203910184ED267A06933FF5F0
:10205000B0AD4FF0007142E4069BD4F8D82043F0B5
:102060000103D00184ED257A06933FF5A2AD4FF030
:10207000807134E4D4F8D82084ED247A13023FF53B
:1020800098AD4FF400012AE4D4F8D82084ED237AE7
:1020900051023FF58EAD4FF4800120E4544D0020F5
:1020A00001041040CDCCCCCC00260020D4F8D820A0
:1020B00084ED227A90023FF57CAD4FF400110EE4DE
:1020C00018EE103A002B40F04381DFF898B21998CF
:1020D000DBF81820002A00F0B684DBF81C209047BB
:1020E000B0FA80F04009002841F0D780DDED187A81
:1020F000F4EE677AF1EE10FA6CBF4FF0FF32199AE6
:10210000C4F8D020D4F8D82012F4801308EE103A86
:102110007FF44FAD4FF480112CE4D4F8D82084ED37
:10212000207A13033FF545ADDDED187A4FF4002119
:1021300020E4D4F8D82084ED1F7A51033FF539AD5F
:102140004FF48021FFF7CBBBD4F8D82084ED1D7A63
:10215000D3033FF52EAD4FF48031FFF7C0BBD4F869
:10216000D82084ED1E7A90033FF523AD4FF4003163
:10217000FFF7B5BBBDEEC77AD4F8D82084ED317A2D
:1021800051043FF516ADDDED187A4FF48041FFF7AD
:10219000F1BB18EE103A002B40F0DA80B4EE477A2B
:1021A000F1EE10FA6CBFFF229DF8642084F8D42071
:1021B000D4F8D82012F4805308EE103A7FF4F9AC2A
:1021C0004FF48051FFF78BBB079BD4F8D82043F026
:1021D0000403500684ED1A7A07933FF5EAAC4021D8
:1021E000FFF77DBB079BD4F8D82043F00203079389
:1021F000930684ED197A3FF5DCAC2021FFF76FBB25
:10220000079BD4F8D82043F00103D10684ED187A57
:1022100007933FF5CEAC1021FFF761BB18EE103AE3
:10222000002B40F09580B4EE477AF1EE10FA6CBFC7
:102230004FF0FF32199AC4F8CC20D4F8D82012F409
:10224000006308EE103A7FF4B4ACDDED187A4FF479
:102250000061FFF78FBBD4F8D82084ED177A900582
:102260003FF5A7ACDDED187A4FF40071FFF782BBA4
:10227000D4F8D82084ED167AD3053FF59AAC4FF404
:102280008071FFF72CBBD4F8D82084ED157A1106A5
:102290003FF58FACDDED187A8021FFF76BBBD4F8EA
:1022A000D82084ED217A10073FF583AC0821FFF791
:1022B00016BB069BD4F8D82043F0100306935307AF
:1022C00084ED297A3FF575AC0421FFF708BB069B26
:1022D000D4F8D82043F00803910784ED287A0693B8
:1022E0003FF567AC0221FFF7FABA6322DFF874B05A
:1022F00084F82820DBF81C21002A7FF4BDADFFF70D
:1023000012BAD9F8242190470546002840F01A83D4
:10231000124A127F042A3FF4FFADD9F8E020002AC8
:102320003FF401AA4FF4003234E4012300254FF4B6
:1023300000320A932EE40A4AA2FB0312D2080532A5
:1023400084F824204FF4006255E44FF4006252E414
:102350001726FFF7CFB80126FFF7CCB8544D002061
:10236000CDCCCCCC002600209DF86C30DD0703D509
:102370002378412B00F002849DF81820002A00F0F9
:102380000184089B002B00F0978398F890301BB1D4
:10239000089B022B00F0938394F8D930590605D599
:1023A000944BD4F8C410994200F32384C7F3074533
:1023B00015F02001049200F0BD826188002900F030
:1023C000B982DFF840B28C48DBF8F810D4F8D8A016
:1023D00088470C901990002840F07D85D4F8D810DB
:1023E0008AEA010A85491AEA010107D0080E049A0F
:1023F00040EA8101C9B222EA010306931AF4007F80
:1024000018BF0021079BCAF3021223EA0203CAF392
:10241000072216BF94ED179A9FED799AE16512068F
:10242000079305D50022D4F8C830C4F8C8200C930F
:102430001AF4002F18BF0021CAF3074216BF94ED0B
:10244000208A9FED6F8AC4F8801012F0100200F00D
:1024500048850022D4F8D030C4F8D0200E93BDF8BF
:10246000142002F0010312F001010B9300F08882A6
:1024700094F8D920930740F16884E17A94F8D82041
:1024800039B1D4ED177A9FED607A67EE877AC4EDA3
:10249000177AD20739D594F8DA20130700F143826E
:1024A000B807FAB20BD52189212900F03C8240F20D
:1024B0004B10814200F037824C2900F034829106A3
:1024C00003D5A27A022A00F02E82C7F30723BA04AA
:1024D000049305F0040100F12682EB060A4603D5B9
:1024E0006078332800F01F82002A00F0B782D4F809
:1024F000C020501CC0F2D284002A00F3CF8494F88C
:10250000D82022F0010284F8D820A27A022A00F012
:10251000A982C7F30723BA04049300F1B382099B8D
:10252000002B00F0CC84099B94F8DA105A78090744
:1025300084F8512040F1B682012A00F0CF840123B3
:1025400011930A9B94F8DA20002B00F0C5829007C3
:1025500040F11E83A06F0EF019FB00283FF4F8AE87
:10256000DFF8A0B0D4ED1E7ADBF81820002A00F0C6
:10257000CC85FDEEE77ADBF81C2017EE900A904739
:10258000B0FA80F04009002840F08786D4ED1E7A2A
:10259000FCEEE77AC4ED347A94F8DA1060F3410186
:1025A00084F8DA106A0740F1DB8294F85020930730
:1025B00006D5099BDA68927A12F00A0F3FF4B3A8A5
:1025C000ED0629D594F8DA30D80700F16A844FF087
:1025D0007E5363676378303B082B1DD8DFE813F028
:1025E00016009A018A017A011C006A011C001C0075
:1025F000540100BF80969800E434002006000007D4
:1026000000000000002600203333CB4194F83C301A
:1026100023F0050384F83C302378042B10D194F880
:10262000DA30DA0740F1B482D4ED1D7AF5EEC07AE3
:10263000F1EE10FA3FF5A3A923F0010384F8DA3094
:10264000A37B0D93002B00F0AF83012B00F01E84C1
:1026500002234FF0000BCDE90F3B01230D93E37AEA
:10266000D3B11FED177A0523BC4A9DF8185092F894
:102670003DC1BB4A013B25FA03F1C9072CFA03F01F
:1026800007D5C10705D4D2ED297A67EE877AC2ED66
:10269000297A043A002BEDD1049A98F805305006B7
:1026A00009D5627B9A4206D0082088F805200AF0F6
:1026B00031FB98F8053053B1069BDA0707D5D4ED06
:1026C000257AB6EE007A67EE877AC4ED257A089B04
:1026D000042B00F0858398F83600E8B194F80CC01C
:1026E0009F4C052322469F499DF81850013B25FA2F
:1026F00003F010F0010F0BD0D2ED297AD1ED096A69
:10270000BCF1000F00F0548267EEA67AC2ED297A80
:10271000043A0439002BE9D1049BDB072CD5E37B79
:10272000022B00F0BD85032B00F0A685012B23D1E1
:10273000DFF844B2DBF81830002B3EF4F4AF94F825
:10274000D930190741F16682D4F8CC0040B9834BE7
:1027500093F8D0315A075CBFD4F8D000C4F8CC004D
:10276000DBF81C309847002800F0978594F8D930A2
:1027700023F0080384F8D930049B1D070BD594F887
:10278000240098F81C30834205D0774908F09CFB60
:10279000002802F0068023789DF818500A2BAB46DB
:1027A00000F0BC835C2B00F02782002D40F0E68413
:1027B0002289023A92B2012A40F2E084352B01F0DC
:1027C000598240F27585412B40F0368294F8DA3018
:1027D000DA0740F1DD81DFED657A94ED1D7AB4EE24
:1027E000E77AF1EE10FA00F3598313F03DFC4FF451
:1027F0008A7303FB008013F09FFB002802F008801F
:10280000002394F8DA2063F3000284F8DA20D4F885
:10281000D8208DF818305208C4F8D820002A01F0CA
:102820006C81534B049601252646DFF850B11C46B7
:1028300017E00123042903FA05F008D11168DBF839
:1028400000200243A8B2CBF8002012F015FED6F803
:10285000D82001355208C6F8D8200834002A01F0E3
:10286000BF84D307F3D5A268002AF0D0217B0229C8
:10287000DFD11168012307EE901AF8EE677A03FAA8
:1028800005F017EE901ADAE7344B93F860315907E8
:102890007FF5C2AED4ED1D7AF5EE407AF1EE10FA76
:1028A0000CBF0122002294F83C3062F3C30384F889
:1028B0003C30B1E6D4ED1D7AF5EE407AF1EE10FA37
:1028C0000CBF0122002294F83C3062F3410384F8EB
:1028D0003C30A1E6D4ED1D7AF5EE407AF1EE10FA27
:1028E0000CBF0122002294F83C3062F3820384F88A
:1028F0003C3091E6D4ED1D7AF5EE407AF1EE10FA17
:102900000CBF0122002294F83C3062F3000384F8EB
:102910003C3081E694F83C3023F0050343F0050396
:1029200084F83C3078E6D4F8C020002ABFF6E4AD45
:10293000FFF725B89FED0F8A8A46B0EE489A0E91B0
:102940000C918CE502287EF4EEAED9F8202100250A
:10295000002A7FF4E7ACFEF7E6BE00BF544D00202E
:10296000E434002044170020F434002000FF7F47A7
:102970000C8002100000000000260020E03400203F
:102980002289212A00F02381A17A012900F0CE8139
:1029900011F0FD0F40F0158194F8D90094F8D8207B
:1029A000800700F1E28398F8020088427FF471AD5D
:1029B000D8F86810E1656CE5DFF820B488F88C6021
:1029C00006F0CAFA0820DBF80C209047DBF84C40F0
:1029D000002C3FF421A90FF0E9FF0146A1F102010B
:1029E000B1FA81F1FF204909A047FFF715B900228C
:1029F00084F8292000254FF40022FFF7CBB894F883
:102A0000292042F0010284F82920F3E70226FEF78C
:102A100071BD99F8DC21930640F1BD80D9F86C2096
:102A2000904780F02005C5F34015002D40F0BB8095
:102A30004FF40042FFF7AEB8032284F828204FF489
:102A40000042FFF7A7B8C00FFFF74DBB1A900890E0
:102A50000A90FEF778BF0646FEF74CBDA27A022A1E
:102A60007FF45DAD099B002B3EF45DAE099BDA68F7
:102A7000D26B002A3EF457AEC7F30723B904049380
:102A80007FF551AD94F85120099B012A00F0608137
:102A90005978012900F054835A7094F8DA100B0722
:102AA0003FF54DAD099B002A40F084819A680023D0
:102AB000C4F88020119344E598F890301BB1059B31
:102AC000D80740F1BC830223089365E40022E27337
:102AD0004FF48072FFF78FB8D1065CBFD8F888201A
:102AE000C4F8D0205EE5142B7AD00A2B7EF41BAEFE
:102AF000089B002B40F0F88102220323E273089325
:102B00004FF48072FFF777B802230893FFF769B894
:102B10005C2222709DF86C201E2B42F001028DF881
:102B20006C203EF600AEA54ADA40D3077EF5FBAD39
:102B3000FFF794B91526FEF7DDBC9DF86C101C2A32
:102B400041F0010122708DF86C1002D01E2A7FF432
:102B5000FFAB18EE103A0A2B3FF460A9FEF7E3BD75
:102B6000099B002B3FF42CAD1A7884F8502027E500
:102B70005A46CDF820B0CDF828B00DE4CDF81CB001
:102B80008DF818B0002200E4BCF1000F00F092872D
:102B90001C26FEF7AFBC8A4A157AC5F3801585F06E
:102BA0000105EDB241E7012284F82820FFF764B95E
:102BB00091ED047A77EEC77AA7EEA67A82ED297AAC
:102BC000A6E594F8D820D0077FF5A3AC63E494F889
:102BD000D820500600F18B81D8F86C10E16658E4DB
:102BE000DFF8F8B1DBF81820002A3EF49CAD032290
:102BF0006DE71B26FEF77EBC002D02F0A4800523A6
:102C0000704A7149013B25FA03F0C00740F1838106
:102C1000D1ED207A92ED086AD2ED296A77EEC67A74
:102C200091ED437A77EEE67A77EEC77AC2ED297AAC
:102C30000439043A002BE5D1B4F808B0BBF1500FC9
:102C400000F00083089B022B00F062830B9B03F0D3
:102C5000FF0B2BB994F8DA3023F0180384F8DA303C
:102C600094F8D93023F0420384F8D930089B002B24
:102C700040F0B5820023D4F8D8100893002942F020
:102C8000418124AB2822184604931DF01DFF4C4BB4
:102C90009DF8A520079393F8C930B3FA83F35B0935
:102CA00063F3410263F382028DF8A52098F8933014
:102CB0008DF8A930BBF1000F00F0698337F04903AC
:102CC00040F07E872378352B02D0002B40F07887A8
:102CD00098F821203D4B98F88F6025AD8DF8A620FF
:102CE0000FCB85E80F00002E40F09A8794F82C3027
:102CF00013F0020303D0A36B9B7AC3F3C0039DF8C8
:102D0000A440049863F3C714314A2E498DF8A440B7
:102D100003F0A2F9064600287EF4ECAB2C4C2D4DB6
:102D20000FCD0FC42B682360FEF7E4BB089B022B7A
:102D30007FF447AF502A3FF444AF002A3FF441AF3D
:102D400094F8D92093073FF53CAF1626FEF7D2BB87
:102D5000DA68917ACB077EF5E6AC94F8DA100807CA
:102D60007FF516AF94F9D81092ED067A00295068D5
:102D7000C0F2DC8680ED077A0121099B597094F836
:102D8000DA10090717D5E17AD4ED207A002900F08E
:102D900053829FED117A67EE877A5268C4ED207AEC
:102DA000C2ED047AFFF7CBBB01234FF0020CCDE953
:102DB0000F3C54E4DA685268D26978E601041040A6
:102DC000D0290020E4340020D43500201035002024
:102DD000443600207835002066669843002600209F
:102DE00094F83E30002B00F0308600239DF8180048
:102DF00084F83E30002801F0A68705251A46013DDB
:102E0000C74B20FA05FC1CF0010FCDE91268F7EE64
:102E1000008AB84626464FF0010117461C46DFF8E7
:102E200018B31BD196F83E00043C40B9DBED047AA0
:102E3000F4EE687AF1EE10FA14BF0120002086F853
:102E40003E00ABF1040B002D00F0D9819DF8180075
:102E5000013D20FA05FC1CF0010FE3D0D4ED297AE6
:102E60009BED097AB4EE677AF1EE10FA01FA05FCEF
:102E700020EA0C03CBED097A4FF0020018BF47F0AF
:102E80000107069309F046FF0121CBE70D9B109344
:102E900000230F9302230D93FFF7E1BB2726FEF7D4
:102EA00029BBD4ED1D7AF5EEC07AF1EE10FA3EF5AD
:102EB00066AD23F0010384F8DA30FFF78BBB94F89A
:102EC000DA20C2F3C003119313077FF53AAB099BD5
:102ED0005A78FFF731BB0646FEF70CBB099BDA6850
:102EE00051E70E92FFF7BBBA1826FEF703BB61F35A
:102EF000861284F8D820E27AD4ED1A7A2AB19FEDAE
:102F0000897A67EE877AC4ED1A7AC4ED1B7A94F851
:102F1000D820FFF7BEBAD1ED3E7A87E64DB994F8D6
:102F2000D430142B01F00F8794F8DA30590741F1AF
:102F30000A87D4F8D83013F4883F3FF429AED4ED93
:102F40001D7AF5EEC07AF1EE10FA3EF518ADF6EE08
:102F5000E77AFCEEE77ACDED047A94F8D4209DF878
:102F60001030013A132A3EF6DEAB01A151F822F0EF
:102F7000C12F0010953000102717001027170010E0
:102F80002717001027170010271700102717001009
:102F900027170010C12F0010C12F00102717001095
:102FA00027170010271700102717001027170010E9
:102FB0002717001027170010271700109F30001048
:102FC000DFF878B1DBF81820002A3EF4ACAB1846E5
:102FD000DBF81C20049390471290002800F05D81DC
:102FE00094F8DA20049B12F0040F07D0E26F4261DC
:102FF00094F8DA2022F0040284F8DA2094F8D4203D
:103000000B2A01F0C38324AA049294F8D420012A45
:1030100004D11846DBF81C309847129094F8D4106D
:103020003F4C4FF0050C2046A1F10A03DBB2DDF85E
:1030300010E0129A04933C4B13940CF1FF3C25FAD8
:103040000CF4E40740F18585012901F0CD800A29BF
:1030500001F0D7800B2907D1DEED047A90ED297AB3
:1030600077EEC77AC2ED047A043B0438043AAEF135
:10307000040EBCF1000FE0D10129139C03D112987A
:10308000DBF824309847D4F8D83023F48833C4F8D8
:10309000D830D1E594F8DA2052073EF544AB092B3D
:1030A00001F2AC80002B41F0A58094F824001F4968
:1030B00084F8BC0007F008FF002801F072831C4B65
:1030C00093F858314BB194F8BC20063AD1B202299A
:1030D00003D8D340DB0701F10C8794F8D400104CDF
:1030E00005212246104B013925FA01FC1CF0010F85
:1030F00006D0142892ED297A00F07C8582ED2E7A94
:10310000043B043A0029EED1BDE79FED0A7AF4EEC4
:10311000C77AF1EE10FACCBF01200020FFF733BAD6
:10312000E43400203333CB41D43500208C350020EB
:10313000544D00200000004F4417002000260020BE
:10314000099B5A681AB100225A6005F005FF099BD5
:10315000DA68526812689A6094F851205A7094F8AC
:10316000DA1008073FF5E8A99CE4E17A00293FF46A
:1031700090A9FFF786B90646FEF7BCB9089A032A5C
:1031800000F0C68494F80CE05C4C052221465C48B3
:10319000013A25FA02FC1CF0010F09D1D0F880C0D9
:1031A000C1F8A4C004380439002AF1D1FFF706BBE6
:1031B000352BF7D091ED297ABEF1000F00F049844C
:1031C000D0ED207A77EE877AC1ED297AEAE7D4F854
:1031D000D83023F4C21323F40073C4F8D830D4F8E1
:1031E000D81021F0E06121F00601C4F8D81045E5BF
:1031F0001E2A3EF411AE01230893FEF7FBBC3446B1
:103200003A46D4F8D830474623F0E063DDF84C80E6
:1032100023F00603C4F8D83098F83630129E4340A5
:10322000134388F836003FF458AA022009F072FDD3
:1032300098F83600FFF751BA9FED327AABE52826B1
:10324000FEF758B99DF81850002D00F05C84089BDB
:10325000012B40F05586002384F83D300B9B03F092
:10326000FF0B002BB3D094F8D930CDF820B023F069
:10327000420384F8D930B2E7DFF890B0DBF81830B9
:10328000002B3EF450AA94F8D9301B077FF580AC90
:10329000D4F8CC0000287FF463AA2626FEF72AB9CA
:1032A0009DF81830002B7FF467AA2526FEF722B977
:1032B00003F0FD021C2A7FF4BFAC1C2B14BF0A20B4
:1032C0000920114907F000FE002801F06A82002D54
:1032D00040F0CE8722899DF82C30502A08BF84F810
:1032E0003D50002B40F09F87D4F8D83023F4C21310
:1032F00023F40073C4F8D830BCE400BFE4340020E9
:10330000D435002000007A448C35002000260020AF
:10331000B8F80000059AB0EB0B0318BF012363F364
:103320004922ADF81420BBF1000F40F01B849DF83A
:10333000183002F00102002B40F0C283002A40F056
:103340007287D4F8D85025F4C21525F40075C4F856
:10335000D850002D41F0D68524AB282218462946A6
:1033600004931DF0B1FBA94B9DF8A520079393F89A
:10337000C9300895B3FA83F35B0963F3410263F341
:1033800082028DF8A52098F893308DF8A930099B1A
:103390003BB3DB689B7A1B0723D523895A1E022A7D
:1033A00007D9052B05D0332B03D0059B43F04003F1
:1033B00005939DF818301BB1089B022B01F057852F
:1033C000099B1B7803F00302012A00F0688513F0C3
:1033D000020304D0059B83F04003C3F3801388F8F5
:1033E0008F30D4F8C430C8F884302B930FF0DEFA55
:1033F000169D0B9065B102280AD028461EF04EF9A2
:10340000013018F06FFF2C9010B129461EF06EF8B5
:10341000A37A012B88F8023005D19DF8A43043F03F
:1034200020038DF8A430E36D099AC8F8683024931E
:103430005378012B00F0F783D2ED027A94ED207AD5
:10344000F4EE477AF1EE10FA9DF81430139301D19F
:103450009D060BD5099D2B78D80703D5139B19061C
:1034600040F13A85D4F88030099A9360139B58064E
:1034700040F1BD830023D4F8D0002793D8F88830DA
:10348000834200F0E4830B9BC8F88800022B70D0C5
:10349000FDF772FC0A9B1290002B40F05E8599F8B4
:1034A000D631990700F15485594B1B7F042B00F04E
:1034B0005485D9F8E030002B00F04A85D9F81C314A
:1034C000C7F3074505F00205002B01F07A820A9A3E
:1034D000129882F001019847002D4AD00A9B002BD8
:1034E00047D1D8F88800FDF747FC054605F034FDC4
:1034F0002C9818B1FDF7B2FE00232C93D8F81031A8
:10350000AA699B699A4234D0DFF80CB1DBF8C83065
:103510006BB1099A284612780A929847099A13784B
:103520000A9A93421CBF84F8503047F48027D9F898
:103530002031002B01F03E81364898471990002831
:103540007FF489AA802009F0E5FBDBF81830002B16
:1035500001F02A81C8F81051DBF8CC304BB10FF0E4
:1035600025FAB0F5007F04D0DBF8CC30D8F8100194
:103570009847C7F307430A937B0340F1BB8209983E
:1035800094F8501003788B4200F0A782DFF888B0DF
:10359000DBF840501DB14378279AC068A847099BC3
:1035A000279A94F85010D86811F09CF8002800F081
:1035B0009882099894F85010C26853681972017083
:1035C000099D2892C8F864506968286825AB03C330
:1035D00098F88F309DF8A420297863F3C7128DF8EE
:1035E000A4208DF894100BB198F88E309DF8A5208A
:1035F00063F300028DF8A52094F8EC10A1F14603C6
:10360000032B19D8DFE803F00ABBB80AD029002041
:10361000544D0020D435002000260020A1F149059A
:103620006942D8F8683069419E48C8F8443012F0C1
:1036300025FC002801F06F83059BD8050CD598F870
:10364000213094F82900834206D010F0C7FB18B14E
:1036500094F8293088F821300023079A82F8203026
:1036600098F821308DF8A630C7F30743D90627D53F
:1036700098F8342094F83C309A4221D0099D88F87B
:103680003430EB689BB1596898F834200B7AC2F358
:103690008002C3F30010904209D062F304130B724E
:1036A0002B7862F304132B70002A41F0378398F8CB
:1036B0003430DA0701F1178498F8340002F07EFE06
:1036C0006388E3B10B9B022B19D02379002B40F0C8
:1036D00083850C9B84ED179AC4F8C8300E9B84ED4B
:1036E000208AC4F8D030704BC4F8D8A0D3F8FC506E
:1036F0000FF05CF96D49A8470023C4F8D83023784F
:10370000042B00F06485A37B88F80630E37A88F800
:103710000330FB0578D5E37B88F8073003F0FD0321
:10372000012B00F0A082002198F80750DFF8748187
:10373000052342465D489DF818C0013B032D01F268
:103740004B85DFE805F02F1F024000252CFA03F11E
:10375000CF074ED5D0ED297A92ED437AB4EE677A51
:10376000F1EE10FA45D0C2ED437A002B46D0012588
:10377000043A0438013BE9E712F0C8FB5CE712F0B9
:10378000A7FB59E70025D1ED047A92ED437AB4EE18
:10379000677AF1EE10FA40F00884043A043963B312
:1037A000013BF0E700250021D2ED437AF5EE407AA7
:1037B000F1EE10FAC2F80C1118BF45F00105043AF9
:1037C000DBB1013BF0E7002591ED047AD2ED437ABD
:1037D000B5EE407A77EE877AF1EE10FAA2F10402A4
:1037E00018BF45F001050439C2ED447A2BB1013B05
:1037F000EAE7043A0438002BBCD12DB14FF48060C5
:1038000009F088FA09F0BEF998F81C2094F82430E1
:103810009A420DD0264D274F0FCF0FC597E80300D2
:1038200085E803004FF4007009F074FA09F0AAF972
:1038300094F83D30227B88F83530237888F80420CE
:10384000412B00F220821B2B40F266821C3B252B71
:103850003BD8DFE813F031053A005D053A003A0045
:103860003A003A003A003A003A00C6053A003C03F2
:103870003A003A003A003A003A003A003A003A0078
:103880003A003A003A003A003A003A003A003A0068
:103890003A003A003A003A003A003A003A003A0058
:1038A000D70300BFD435002000260020E4340020D8
:1038B000DC350020F434002001230B20C24988F8B5
:1038C000E43007F001FBFDF737FA208994F83F3028
:1038D0005028A8F8000088F8373003D0089B022B46
:1038E00000F06C822C9808B1FDF7B8FC94F82830F1
:1038F00088F820302BB9079B93F90830002BBDF6D0
:10390000F9AD05F029FB98F82030632B00F05884BE
:10391000032B00F0488494F82830012B00F0348405
:103920003C2B00F02687079A92F90820002AC0F263
:103930002B840B9A022A02D01E2B00F061870122F1
:103940000023A8F8002098F81C2084F83F3088F85D
:103950008C3088F8063088F8043088F80230002A65
:1039600041F0B3820024D8F83020A8F824405268EF
:1039700098F83430107A954923F0050364F3041065
:1039800088F8343088F8214091F86031C8F8284030
:10399000107291F8502103F00105970741F18582DB
:1039A0006421099AD2685268D16055B103F00603C8
:1039B000991F98F834204B424B4163F3C30288F8B7
:1039C00034206423079998F83420C1E904334A77F6
:1039D0000B9B022B23D07E4998F81C0007F074FA49
:1039E000002800F0DE860B201EA907F06DFA38B122
:1039F000142275491EA81DF039F8002841F07C8278
:103A000009F0C0F810F0E4FED9F8743098F82100FD
:103A10009847102009F07EF9202009F07BF9DFF8A3
:103A2000B8B1DBF84C3033B10B9A98F82000941EF3
:103A3000614261419847674B1868002801F0868110
:103A4000846818F08BFC2046F7E7FDF7B5F9FEF720
:103A500042BED1ED087A90ED3E6AD0ED436A77EE32
:103A6000867A77EEA67A77EE877AC1ED297AFFF724
:103A700099BB4FF00002ABF15605D5F1000B4BEBB3
:103A8000050B6BF307026BF30F22A8F8602094F884
:103A9000DA20D0077FF578A8D4ED1D6AF5EEC06A6C
:103AA000F1EE10FA3DF56BAF22F00102C8ED166A97
:103AB00084F8DA2037EE677A88ED157A03F0010290
:103AC000002A00F0938294F8D9304FF0010B23F0D4
:103AD000420384F8D930FFF782BB119B53B1DFF862
:103AE000F8B0DBF840502DB10998279A4378017857
:103AF000C068A847099BDA6862E5B4F808B0BBF172
:103B0000500F7FF49FA8002384F83D30FFF79EB844
:103B1000352B00F00B827FF6CBAB412B3EF456AE3B
:103B20002389502B7FF492A8FFF78EBBD4ED157A32
:103B3000F4EEC77AF1EE10FA58BFF0EE477A94F837
:103B4000D810C0ED077A21F0800184F8D810FFF773
:103B500013B9049C012C9CBFD3ED437AC2ED047AC7
:103B6000FFF782BA94F83F300BB984F83D3094F8EF
:103B70005120012A00F07185BBF1210F00F01F8256
:103B8000BBF14C0F00F03E84D4ED177AF5EE407A8D
:103B9000F1EE10FA3FF4D9A8002B40F05282BBF1AD
:103BA000050F00F2D3850BF1FF3BBBF1040F00F2D0
:103BB0001982DFE81BF0BB0859075D071702D3081D
:103BC0001026FDF797BC00BFBC360020544D0020E6
:103BD000DC350020883D002000260020099DD4F817
:103BE0008020297810F0A2FCD4F88030AB60D4F8A3
:103BF000803040E4D3ED207A93ED3E6A77EEC77AC9
:103C0000D3ED436A77EEC67A77EEE67AC2ED2E7A86
:103C1000FFF776BAD4F8D030C4F8CC30FEF7ACBD9C
:103C20000123FFF76CB82389099A502B02D0002B8F
:103C300040F0CF8653681BB10023536005F08CF928
:103C4000099BD3ED027AC4ED207AFFF7F7BBBA03E4
:103C50007FF58FAC0A9B002B7FF48BAC0B9B022B68
:103C60003FF487AC3DE4A84BD4F8CC00DB6998471F
:103C7000014659E5B4F808B0BBF1010F7EF6E2AF9A
:103C80001E26FDF737BC5C3BDAB21E2A3FF61DAE9E
:103C90001E2B3FF61AAE01A252F823F09B3D0010F6
:103CA000CB380010CB380010CB380010CB380010C8
:103CB000CB380010CB380010CB380010CB380010B8
:103CC000CB380010713D0010CB380010CB380010FD
:103CD000CB380010CB380010CB380010CB38001098
:103CE000CB380010CB380010CB380010573D0010F7
:103CF000CB380010CB380010CB380010CB38001078
:103D0000CB380010CB380010CB380010CB38001067
:103D1000CB380010B93800100A2B7FF4D6AD94F8D8
:103D2000D430022B02D0142B7FF4CFAD774994F816
:103D3000BC0007F0ABF898F81C2094F8BC309A420D
:103D40007FF4C3AD724F714D0FCD0FC72B683B6031
:103D500008F018FFB9E500236E4AC8F8E83088F883
:103D6000E430C2E90133C2E90333FCF7E5FFACE517
:103D70000023694AC8F8E83092F85111654A88076B
:103D8000C2E90133C2E9033388F8E4303FF59BAD63
:103D90000B20604907F07AF895E501235D4D5F4FF0
:103DA00088F8E4305C4B93F851C10FCF0FC53B68E6
:103DB0001CF0020F2B607FF486ADE9E7584D5328C5
:103DC0002B682D9300F20485532855D8DFE810F0B6
:103DD0006B09620932093209540009095400540080
:103DE0005400540054005400540054005400540033
:103DF0005400540054005400540054005400540023
:103E00005400540054005400540054005400540012
:103E10005400D80954005400540054005400540075
:103E200054005400540054005400540054005400F2
:103E300054005400540088095400540054005400A5
:103E400054005400540054005400540054005400D2
:103E500054005400540054005400540054005400C2
:103E60005400D80554005400B605540054005400C2
:103E70005400D805D805D80500202D9A079B2A6044
:103E80005A78002A7FF42EAD002800F0C98401285A
:103E90007FF428AD2349244808F094FE22E5B8F8C1
:103EA00000200599501E022801F0400140F2E483F1
:103EB000052A00F0E183332A00F0DE8300297FF435
:103EC00086AA059A42F020020592FFF780BA0A20DE
:103ED000154906F0DBFFF8E4EB685B6883ED007AD8
:103EE00005F03AF8139AE86852067FF577AE00229B
:103EF000297810F01BFBD4F88030AB60FFF7BABA1A
:103F00001F26FDF7F7BA00BF002600208C350020E1
:103F1000DC350020BC360020544D002078350020D0
:103F2000883D0020842A0020443600202389012B6C
:103F30003FF6A6AE0B9B03F0FF0B002B3FF447A907
:103F400094F8D93023F0420384F8D930FFF747B909
:103F5000D9F82031002B7FF4B1AADFF844B3DBF8A5
:103F60001830E3B1129BC8F81031DBF8C8305BB1F0
:103F7000099A129815789847099A1378AB421CBF92
:103F800084F8503047F48027DBF8CC3013B1D8F8F0
:103F900010019847802008F0BDFEFFF78FBA129BF2
:103FA0009A69D8F810319A61DFE7C2ED437A043993
:103FB000043A002B3FF422AC0125FFF7F1BB099A2C
:103FC000D268D26B002A3DF4AEABD4ED1B7AF5EE8D
:103FD000407AF1EE10FA3EF461AF059A42F0200209
:103FE000059273BB059BD8073FF56DADD4F8D8306B
:103FF0004FF0000B23F4C21323F40073C4F8D8303D
:10400000FFF7EDB80021A44811F024FD0021A348DA
:1040100011F020FDD4ED1D7AFCEEE77A17EE902A20
:104020009F4B90B2D3F818319847FE2804463DF4D0
:1040300061AA11F09FFFFF2C3EF430AF2646FDF73A
:1040400059BABDF8142012F0020CD3B21ED098F861
:104050000220012A00F0148394F8DA2055077EF537
:1040600097AD9DF818201099CA40D0077EF590AD05
:1040700001220021A8F860200D9AC8F8581008EB1A
:10408000820291640F9A08EB8202916494F8D9201D
:10409000D10600F13683012284F8D42094F8DA2086
:1040A000520718D5B7EE007ADFED7E6AD4ED1F7A9D
:1040B000E27A002A227B07FE267A27EE877A002AF8
:1040C00000F02783109A08EB8202D2ED1C7A77EE7B
:1040D000277AC8ED177A0521734A74489DF818E0CD
:1040E00001392EFA01F5ED0798ED177A0DD5D0EDCF
:1040F000297A109DC2ED167A8D4200F01A83D2ED16
:10410000206A77EEE67AC2ED167A043A043800297E
:10411000E6D1109A08EB8202D2ED127AF4EEC77A59
:10412000F1EE10FA00F3E582D4F8D82022F48222CE
:10413000C4F8D820ABF14902102A3FF654AF01A1D0
:1041400051F822F0AB460010E73F0010E73F0010A7
:10415000E73F0010E73F0010E73F0010E73F001087
:10416000E73F0010874600108F3A0010AB46001062
:10417000E73F001087460010733A0010E73F001039
:10418000E73F0010733A00100B9B022B06D008216A
:10419000D9F840304648984704F090FB002388F84F
:1041A0002030FDF7A7B90B9B022BF7D094F82830ED
:1041B0003C2BECD1D9F8B831002BE8D09847E6E792
:1041C000374BD3F81C31002BE8D09847E6E7606FF7
:1041D00001F08EFFFFF797BA04F0BEFEFFF779BA41
:1041E0003446049EFEF728BDD0ED297AC2ED047A4C
:1041F000FEF73ABF013BD8B2FEF759BF1D26FDF7C7
:1042000079B9D3ED207A93ED066AD3ED3E6A77EE65
:10421000C67A90ED297A77EEE67A77EEC77AC2ED24
:10422000047AFEF721BF94F8D93023F0420384F8D2
:10423000D930D4F8D810002940F0648624AB282265
:10424000184604931CF040FC1A4B98F8932093F8FE
:10425000C9308DF8A920B3FA83F39DF8A5205B0936
:1042600063F3410263F382028DF8A520FEF726BDB9
:1042700005230D490D4A013B25FA03F0C00758BF3D
:10428000D1F88000A2F1040258BFC2F8BC00043982
:10429000002BF0D1FEF7D0BCCC1A0210D41A0210B9
:1042A000002600203333CB41D4350020E4340020F5
:1042B000142A0020D029002052B34D4A069992F8C2
:1042C0003D3192F83E210B40134021D019070ED505
:1042D00098ED1F7AD4ED287AB4EE677AF1EE10FAF1
:1042E00005D194F8ED2042F0080284F8ED20DA06BA
:1042F0000ED594ED297AD8ED207AB4EE677AF1EEF6
:1043000010FA05D194F8ED3043F0100384F8ED3045
:104310009DF8A43043F001038DF8A430089B002BD6
:1043200040F0FB8294F8ED30002B53D004F014FEE3
:10433000304B0DF1780C9E460A932F4BDFF8B0B04E
:104340000693BEE80F00ACE80F009EE8030023468A
:1043500037464FF0030A5C461E468CE8030021AD49
:1043600096F8ED3023FA0AF3DB0700F18A82069A09
:104370000AF101030432052B4FF0040A04F1200472
:1043800005F104050692EBD1344602F093FD1B497A
:104390001B4808F017FC04991EA800F047FF04F022
:1043A000DBFD94F8ED503E462F0700F15C82ED06F0
:1043B00000F1A58202F07EFD1049114808F002FCD0
:1043C0000A9D0F4F0FCD0FC72B683B60FCF7F4FC25
:1043D000FFF77BBA074B049918460A9300F026FFB3
:1043E000EEE70920064906F051FDFFF76EBA00BF5F
:1043F000544D00208C350020D4350020842A002024
:1044000044360020099AD168CA6B002A3DF48BA972
:10441000A27B012A40F024829DF8182012F0FA0FA6
:104420005FFA82FC40F06E8594F8DA20049212F074
:104430000402079209D094ED1F7AF7EE007AB4EEE9
:10444000E77AF1EE10FA3EF529AD1CF0040F3EF4C8
:104450009FABD4F8D820C94D1540002D3EF498AB41
:10446000D4ED1D9AF5EEC09AF1EE10FA3DF587AA4B
:1044700094ED197AB5EEC07AF1EE10FA3DF57FAA07
:10448000D4ED1A6AF5EEC06AF1EE10FA3DF577AA9E
:10449000D4ED187AF5EE407AF1EE10FA3EF4FEAC67
:1044A000B5EE407AF1EE10FA3EF4F8ACB4EEE67AEE
:1044B000F1EE10FABEF6F2AC94F8D92012F0100525
:1044C0000B9504D094F8D450032D3EF6E7AC099D2B
:1044D000D1ED055A95ED026AB4EEE56AF1EE10FAF7
:1044E00000F1BB81D1ED065AB4EEE56AF1EE10FAA7
:1044F00000F3B3814C2840F0A181A14DF5EEC07AC4
:10450000F1EE10FA58BF4FF07E51D4ED278AF0EE4D
:10451000E77A48BF9B49C5ED009A6962E17AC5ED2B
:10452000018A85ED037AC5ED046AC5ED027A69B1A9
:104530009FED956A67EE867A27EE067A66EE866AC2
:10454000C5ED027A85ED037AC5ED046A617B99B108
:10455000B6EE006AD5ED026A95ED037AD5ED047AE0
:1045600066EE866A27EE067A67EE867AC5ED026AFF
:1045700085ED037AC5ED047ABCF1040F2BD0D4EDA0
:10458000046AD8ED3A5A98ED3F6AD8ED1E7A76EE75
:10459000A56A78EEE77A76EE866A94ED257A27EEBC
:1045A000A76A37EE667AA7EE076AB0EEE7AA16EEBC
:1045B000100A85ED067ACDE9123284ED1DAA1DF0B0
:1045C00043FADDE9123207EE100A69EE879A89EEA6
:1045D0008A7A85ED007A100744BFD4F8CC10A9621E
:1045E0000B9919B194F8D41085F82C10D10744BF59
:1045F000A26DEA6195ED077AB5EEC07AF1EE10FA98
:1046000040F2168195F82C20002A00F01181D8ED97
:104610001E7A78EEE77AF6EE006AF0EEE77A67EE59
:10462000A67AB4EEE77AF1EE10FA3EF737AC079AC5
:104630000AB1E26F6A61049A920744BFA26F2A62CC
:10464000059A42F020020592D4F8D82022F4E32201
:1046500022F4B872C4F8D820C3E494F85020D507E7
:1046600007D5D4ED207AF5EE407AF1EE10FA7FF41A
:1046700083AA2926FCF73EBF00293EF4A8AE20E419
:104680000326FCF737BF37EE677A03F00102BBF170
:10469000550F134688ED157A7FF412AA002288F888
:1046A0006020002B7FF40FAAA0E494F8DA20910791
:1046B00022D5D4ED1E7AF5EEC07AF1EE10FA7DF631
:1046C0005EA9B7EE007ADFED306AE17A22F00202ED
:1046D000002907FE267A67EE877A84F8DA20C8ED8B
:1046E000157A4FF07A52DD07C8F858203FF5EBA94C
:1046F0007CE43626FCF7FEBEBCF1000FF1D0FEF7DD
:1047000047BA94F8D420002A7FF4C8AC1326FCF7EB
:10471000F1BE109904EB8102D2ED047A08EB81021C
:1047200092ED3A6AD2ED3F6A77EE867A77EEA67A14
:10473000CDE4257B002D3FF4E8ACD2ED206A77EE86
:10474000E67A77EE877AC2ED167ADEE4BBF1330FB4
:1047500000F00184ABF18C03032B3FF643ACABF1CB
:104760008D03022B00F2D583DFE813F0CF03D303D0
:10477000CF030B9B022B7FF41DAD0FE570000100F2
:10478000A4560020000080BF3333CB41139324ABE9
:1047900019460820049306F097FB139B00287EF42B
:1047A00034AC0726FCF7A6BEAA69D8F810319A6186
:1047B000FEF7D2BE199301234FF4806188F8903040
:1047C0009D48D9F84030984704F078F8FEF7BDBE10
:1047D0008C3803281FD8994B9DF8A40093F85431C6
:1047E000BDF81420C3F3001383F0010363F3041036
:1047F0008DF8A4000499924801F08AFCFFF73DBBB4
:10480000D9F8B831002B3FF49AA89847FFF797B82A
:104810005226FCF76FBE079B5B78002B7FF462A8E3
:10482000884D874F0FCF0FC53B682B60FFF75AB8F5
:104830000022EA61002285F82C20F8E64FF07E5035
:10484000814941F8040C0020A1F11805C1E90000DC
:10485000C1E90200C1E9040050E62C26FCF74ABE7B
:104860002A26FCF747BE94ED2D7ADBED247A67EE1D
:10487000277A17EE900A1DF0AFF8079BC3F8C00027
:1048800095E59FED728A286818EE101A17F0FAF96C
:1048900007EE900AF5EEC07AF1EE10FA48BF77EE17
:1048A000887A9FED6A8A069BC5ED007A18EE101A89
:1048B000D86F17F0E7F907EE900AF5EEC07AF1EE3F
:1048C00010FA95ED007A48BF77EE887ADFED606ADE
:1048D00037EEC77AB4EEE67AF1EE10FA22D59FED04
:1048E0005B7A77EE877A94ED247A67EE877A17EE13
:1048F000900A1DF071F8574B43F82A0037E5DBEDBD
:104900002C7A94ED2E7A67EE277A17EE900A1DF036
:1049100063F8079BC3F8C4004CE50499484800F0CD
:1049200085FCFFE4DFED4C6AB4EEE67AF1EE10FAB6
:10493000C4BF9FED467A77EEC77AD4E7DFF824B19B
:1049400004F00AFB079BDBF8001004985F7FFCF77C
:104950009BF9C7F3400A0346002840F000840498FE
:1049600053465A46374901F0FFF9384601F026FD13
:104970002D9B2B60079B5B78002B7EF4B3AF4FE73A
:104980000D9B049A8DF870300F9B8DF87130109B41
:104990008DF87230D4F8803027931C9BADF800302E
:1049A0001B0C8DF802302D4B029394F8D410283351
:1049B000019198F8351088F86210214901F0BCF88F
:1049C000D6E7802008F0A6F9002D3EF4D2ADFEF720
:1049D00085BDD36800215D6805F1100353600F9B0E
:1049E00018466B629B46FCF779FA099A286253686D
:1049F00008EB8B02D2ED1C7AD3ED046A77EEE67AEF
:104A0000F5EEC07AF1EE10FA93ED037A0DD9DFEDF1
:104A1000146A93ED006A67EEA67AC6EE276AF4EE92
:104A2000C76AF1EE10FA37FE267A099B84ED207AE8
:104A3000D3ED027AFEF702BD142A0020544D002067
:104A40007835002044360020BC5600200000B443D6
:104A5000000034C3842A0020000034431C360020A8
:104A6000DB0FC940A4560020059B43F004030593C7
:104A700094F8DA1048070ED59DF81800002800F0C9
:104A8000628101230D9A0F9D03FA02F2AB401A4393
:104A9000024200F05581C90700F125810123C4F8C5
:104AA000E8300D9A04EB8203D3ED25AA08EB8203CC
:104AB0000F9A93ED1C7A04EB8203D3ED258A08EB61
:104AC0008203D3ED1C7A94F8DA307AEEC7AA5A073B
:104AD00078EEE78A40F1868023F004031422CC4963
:104AE000CC4884F8DA301BF0C1FF002800F0F580D4
:104AF000E37A3BB1D4ED1F7A9FEDCB7A67EE877AEC
:104B0000C4ED1F7A98F83630B3B1C34B0D9AD4ED8B
:104B10001F6A03EB8202D2ED057A0F9A03EB820340
:104B200093ED057AF4EEC77AF1EE10FA77FE877A04
:104B300067EEA67AC4ED1F7AD4ED1F9AB1EE007A23
:104B40006AEEAABA29EE877AF0EE6B7A28EEA8BA56
:104B5000D9EE877A77EECB7AF5EEC07AF1EE10FADD
:104B60003DD417EE900A1CF06FFF7BEE8B7A0AEEB5
:104B7000100A17EE900A1CF067FFB1EE4AAA07EE82
:104B8000100AF5EEC09ACAEE077A2389032B08BFF4
:104B9000F1EE677AF1EE10FA05D5F1EE699AF1EED1
:104BA000677AC4ED1F9AB0EE6A7AF6EE006AA7EE55
:104BB000E87AE7EEAA8A27EE267A68EEA67A0D9BB7
:104BC00004EB83020F9B82ED187A04EB8303C3EDA1
:104BD000187A059BDB073EF576AFFFF707BA22266A
:104BE000FCF788BC01230D9A0F9903FA02F28B405F
:104BF0001343079A134273D094F8D83023F070030C
:104C000084F8D830E37A8BB19FED877A0322834B07
:104C10000799013AD140CD0705D5D3ED1A7A67EE51
:104C2000877AC3ED1A7A043B002AF1D198F836301E
:104C30009BB10322794B78490798013AD040C007CD
:104C400007D5D3ED1A7A91ED077A67EE877AC3ED2F
:104C50001A7A043B0439002AEED10F9B04EB83033C
:104C6000D3ED189A0D9B78EEE98A04EB830393ED5C
:104C700018AA68EEA88A7AEECAAAEAEEAA8A18EEFC
:104C8000900A1CF0E1FE69EEA99AEAEE0A9A08EE93
:104C9000900A19EE900A1CF0D7FE07EE100A78EE83
:104CA000C77ADFED5F6AF0EEE77AF4EEE67AF1EECE
:104CB00010FAE0677FF796A9F6EE006AF4EEE67A5E
:104CC000F1EE10FA09DCDFED576A27EE267AB4EE32
:104CD000E77AF1EE10FA7FF585A92126FCF70ABCE8
:104CE0002326FCF707BC606F0BF050FF00283DF453
:104CF0002FABD4ED1D7AFCEEE77A17EE903AC4EDB7
:104D00003A7A002B3EF4CAA894F8DA3023F0010373
:104D100084F8DA30C5E65326FCF7ECBBD8F86430EB
:104D20006421D8680FF080FBFEF7C1BC059A9DF89E
:104D3000183002F00102002B3EF400ABFEF7C0BEBB
:104D40002026FCF7D7BB1A26FCF7D4BB11F0C0F81D
:104D5000DBF80C3008209847FFF720BAA37B002B24
:104D60007FF47EAD9DF81830032B3EF6BDA8D4F835
:104D7000D83003F44032B2F5403F7DF409AF059AD4
:104D8000950504D503F03003302B7DF401AF94F882
:104D9000D820D4ED1D6A12F0300F94ED1E6AE37A2C
:104DA00044D1B1EE667AF1EE467A84ED187AC4ED1C
:104DB000197A4BB1DFED1C7A66EEA76A26EE276AF8
:104DC000C4ED1D6A84ED1E6A98F8363083B1124B2B
:104DD00094ED1D7AD4ED1E7A93ED056AD3ED066A43
:104DE00027EE067A67EEA67A84ED1D7AC4ED1E7A68
:104DF000636FC8F83830A36FC8F83C30D4F8D830A7
:104E000023F4403323F03003C4F8D830FFF7EAB876
:104E1000783500204436002044170020E434002078
:104E20000AD7A33B6F12833A3333CB413BB394EDA4
:104E3000187A5FED035AD4ED197A27EE257A67EEDA
:104E4000A57A98F8363084ED187AC4ED197A002BDB
:104E5000B0D0C44B93ED055AD3ED065A27EE057A30
:104E600067EEA57A84ED187AC4ED197AA2E7059B5E
:104E700043F080030593099B1B78FEF7A8BA98F8C6
:104E80003630002BB4D0B74B94ED187AD4ED197AA4
:104E900093ED056AD3ED066A27EE067A67EEA67AE9
:104EA00084ED187AC4ED197A92E7B5B103F00603E0
:104EB0009A1F5342534198F8342063F3C302079B6F
:104EC00088F834205A77FEF783BD4FF4007088F8D5
:104ED0001C3007F01FFFFEF745BD98F83430079AE5
:104EE0005377FEF775BD0021084602F027F8FEF75C
:104EF000E3BB3826FCF7FEBA0B209B4905F0C6FF42
:104F0000FEF77EBD2426FCF7F5BA059B43F010039F
:104F10000593ABF18E0BBBF1010F94BF0123059BF1
:104F2000059A88BFC3F3C00363F3C3029DF818302A
:104F30001546ADF81420002B3FF405AF14228B4921
:104F40008B481BF093FD00283FF4C7AEEA073EF5FF
:104F5000BAADFFF74BB8A37B002B7FF481AC9DF873
:104F60001830032B3DF6C0AFD4F8D83003F030032F
:104F7000302B7DF40DAED4ED187AF5EE407AF1EEDB
:104F800010FA3DF48BAFE37A5BB1DFED7A6A94ED12
:104F9000197A67EEA67A27EE267AC4ED187A84EDA0
:104FA000197A98F8363083B16E4B94ED187AD4EDB7
:104FB000197A93ED056AD3ED066A27EE067A67EE55
:104FC000A67A84ED187AC4ED197A94F8D83023F0D3
:104FD000300384F8D830059BD9073EF574ADFFF750
:104FE00005B898ED1C6A94ED184AD8ED1D6AD4ED09
:104FF000194A94ED257A98ED0E5AD4ED267AD8ED1B
:105000000F5A36EE046A76EEA46A37EE057A77EE2A
:10501000A57A1EAB00930499554A54481CAB8DEDFC
:105020001C6ACDED1D6A8DED1E7ACDED1F7A00F064
:105030002DFC9DE498F80230022B0BD19DF89430A2
:1050400043F080038DF894309DF8A43043F0400382
:105050008DF8A4301399D4F8E83049070D9948BF6A
:105060005B428DF870100F99E26F8DF871101099F6
:1050700002938DF872101C9B0092ADF804301B0C4B
:105080008DF806303C4B0499394A03F1340000F0A6
:105090000FF96DE498F80230022B0FD004993348D1
:1050A00000F0C4F864E49DF8A430049943F00103CF
:1050B0002E488DF8A43000F0B9F859E42F4B1A7E31
:1050C0009DF8A430022A43F040038DF8A43077D035
:1050D00001229DF8943062F3C7138DF89430DDE718
:1050E000D4ED187A98ED1C3AD8ED1D3AD4ED196A32
:1050F00094ED254AD4ED264A33EE277A37EEA76A97
:1051000073EEA67A37EE447A77EEE47AF0EE085A38
:1051100076EEA66A37EE077A77EEA77A86EE255AFC
:1051200086EEA56AC7EE256A87EEA57A35EE035AA4
:1051300036EE236A76EE846A77EE247A1EAB00930D
:1051400004990B4A09481CAB8DED1C5A8DED1D6A64
:10515000CDED1E6ACDED1F7A00F098FB08E41E46E7
:10516000FCF7C8B944170020BC3600207835002071
:10517000443600203333CB4144350020544D0020C9
:1051800003F0EAFE079B0498E16E5F7FFBF77CFD6E
:1051900003460028E3D19DF89430049943F080033E
:1051A0008DF894309DF8A8301F4843F002038DF825
:1051B000A83000F03BF8384601F000F9FFF7D8BB03
:1051C00094ED277AD8ED1E7AB4EE677AF1EE10FAF4
:1051D00014BF012200227CE7043A04390438002B72
:1051E0007EF4ABAAFEF710BB18EE103A6BB9A2F131
:1051F0005B004242424122739DF86C2042F008025B
:105200008DF86C200822FCF7F6BC9DF86C100A2B78
:1052100041F010018DF86C107CF485AA5A2A3CF4F8
:1052200082AA1022FCF7E7BC7835002038B54B7D08
:105230000C4603F00603062B054602D049690DF023
:1052400049F80DF0B3FB022808D1174B1A781AB9A8
:10525000587880F0010038BD002038BD03F02EFBE7
:105260000028F2D004E001F0B5FB30B103F036F8CD
:1052700003F024FB0028F6D1EDE72146284601F093
:1052800005FC0028E1D123699B7A1B07DDD5237932
:1052900003F00303012BD8D103F05EFE2069E2681E
:1052A000436A21799847D0E7D02900200000000008
:1052B0002DE9F04F2DED068BA7B09DF8DCA0389CB2
:1052C00093469DF8DE5003EB8A0280460E941090C0
:1052D0004FEA8A041068129315951B941D46189284
:1052E00007911CF085FB06469DF8DD900F4605EB07
:1052F00089021068199201F100414FEA89021A925D
:10530000089609911CF074FB0D4604464FEA8A0387
:105310000BEB03010868119105F10041049405911C
:105320001CF066FB32463B4615F016FB4FEA890639
:10533000CDE90A010BEB06010868474614911CF001
:1053400057FB22462B4615F007FB4FEA8A03FB1852
:10535000CDE90C0118681CF04BFBDDE90A2315F0C0
:105360000FFBBB19044618680D461CF041FBDDE934
:105370000C2315F005FB224606460F46DDE9080121
:105380002B4615F011FB32463B46CDE91601DDE90F
:10539000040115F009FB02460B46DDE9160115F084
:1053A000DBFADDED368A32463B4606460F46DDE93E
:1053B000080115F0F9FA22462B4604460D46DDE9B0
:1053C000040115F0F1FA02460B462046294615F075
:1053D000D7FA32463B4616F04BF915F059FB0E9CB6
:1053E00008EE100A002C40F31D82DFED7B7AB4EE4C
:1053F000E78AF1EE10FA40F2D981079D6B7D5807DC
:1054000023D4764AD2F80841FCB143F004036B750B
:10541000DDE90A0115F03CFB2190DDE90C0115F0F6
:1054200037FBCDED008A0E9B22900293379B5946A5
:10543000ADF804301B0C8DF8063021AB0CCB109866
:10544000A0476B7D60F341036B750E9F87EAE7769B
:10545000A6EBE776012E40F3C380701E07EE900A9C
:10546000F8EEE77A17EE900A1CF0C2FA56A3D3E9D9
:10547000002315F099FA002FD8BFF1EE487A0446C0
:105480000D46D4BF17EE900A18EE100A1CF0B0FAC1
:1054900022462B4615F060FA15F0FAFA5F4609EE3F
:1054A000100A0524DDF8408021AD013CA24517D04B
:1054B000A14515D097ED047AD8ED047A77EEC77A36
:1054C00087EE897A77EE077A17EE900A1CF090FA49
:1054D0003FA3D3E9002315F067FA15F0D9FA286144
:1054E000A8F10408043F043D002CDED10E9B159A60
:1054F000002B1B9B1CAF0DEB03051A9BA6F10206AC
:105500000DEB03040BEB8203D3F800C0119BD3F81F
:105510000080149BD3F800E0109B18689A685968C3
:10552000DB680FC7109B159A18690DEB8203386072
:10553000C5F87080CCBF01274FF0FF379046C4F804
:1055400070E001ADC3F870C00DF1060405231CAA7C
:1055500021A9013B9A4509D0994507D0D2ED047A9B
:1055600091ED047A77EE877AC2ED047A043A043931
:10557000002BEED18DF8DCA08DF8DD908DF8DE806B
:10558000379B02972B801B0C23705A46129B07995E
:105590001CA8CDED008AFFF78BFE0DF1700CBCE866
:1055A0000F00CBF80000DCF8000006F1FF3ECBF85E
:1055B0000410CBF80820CBF80C30CBF810007EB1EB
:1055C0007646C3E7AFF30080182D4454FB21194001
:1055D000182D4454FB210940BD3706350026002014
:1055E000A74B78EEA87AD3ED026AF4EEE67AF1EEF4
:1055F00010FA40F3D28077EEE67AB6EE007A67EEE4
:10560000A67A28EE077AF5EE407A67EE288AF1EE60
:1056100010FAF0EEE88A00F12881B1EEE77AC8EEE0
:10562000877AFBFE677AFCEEE77A17EE905A002D38
:1056300000F0B380079AF8EE676A137D990600F1CF
:105640000581C8EE269A5A460524109821A9013CE6
:10565000A2450BD0A14509D092ED047AD0ED047A91
:1056600077EEC77A87EEA67A81ED047A0438043A99
:105670000439002CEBD1F0EE007ADFED826AE9EE1E
:10568000E97AB1EE007AB6EE006A37EE877A69EE13
:10569000A66A67EE867ACDED1A7A66EE877A012DD4
:1056A000CDED167A79D0DDE90867012315954D46D1
:1056B000D9469B460C2C00F0858016981CF098F972
:1056C000CDE908011A981CF093F932463B46CDE922
:1056D0000E01DDE9080115F067F9DDE90423CDE9E4
:1056E0001201DDE90E0115F05FF902460B46DDE916
:1056F000120115F031F915F0CBF932463B468046E0
:10570000DDE90E0115F050F9DDE9042306460F46E8
:10571000DDE9080115F048F902460B4630463946E6
:1057200015F02EF9064640460F461CF061F9CDE90A
:10573000040101343246DDE90A013B4615F00CF95B
:1057400015F0A6F9119B1860DDE90423DDE90C01D1
:1057500015F002F915F09CF9149B4A4618600523D0
:1057600021A9013B9A4509D09D4207D0D2ED047A88
:1057700091ED047A77EE877AC2ED047A043A04391F
:10578000002BEED148460799FFF750FD002867D05F
:10579000159B0BF1010B5B458CD10799109827B035
:1057A000BDEC068BBDE8F04FFFF740BD1CF020F9C3
:1057B00031A3D3E9002315F0CFF815F069F908EE0D
:1057C000100A1AE607EE90BAF8EE677A67EEA97A41
:1057D00017EE904A204616F03AFC08EE100A2046D2
:1057E00016F032FC199B08EE900A93ED009A189B74
:1057F00029EE287AD3ED007AA7EEC87AB1EE67AA2F
:1058000028EE498A17EE100A1CF0F2F8AAEE288A50
:10581000064618EE100A0F461CF0EAF80024CDE9FF
:10582000040187E7DFED187AB4EEE78AF1EE10FAAB
:10583000FFF6E3AD1CF0DCF80FA3D3E9002315F06D
:105840009FF815F025F908EE100AD6E5D2ED007A9A
:1058500067EEA67A23F02003C2ED007A1375F0E616
:1058600027B0BDEC068BBDE8F08F17EE900A1CF058
:10587000EBF807EE100AD2E6182D4454FB2119402C
:10588000544D0020ABAA2A3EBD3706B52DE9F041A4
:105890002DED108B9FEDA59A1446DFEDA58AF7EE4E
:1058A000009ADFEDA4DAB0EE49AA86B00646884633
:1058B000106851681D469268E3680DF1040CACE86D
:1058C0000F0020691C9FCCF8000039EE289AB4EE36
:1058D000E99AF1EE10FA97ED001A97ED010A96EDAC
:1058E00000BA96ED01CA39FE898A79EEC87AD5EDFB
:1058F000001AD5ED010A6BEE082A2CEE083A61EE8B
:10590000086A20EE087AE1EEA76AA0EEA77AE1EE37
:10591000272AA0EE273AD4ED00AAD4ED01BA61EE11
:10592000884A20EE885A68EE222A28EE033A68EE6A
:10593000265A28EE076AE7EEA62AA7EE273AEAEEED
:10594000A74AABEEA75AF0EE656AB0EE467AE7EEEC
:10595000A46AA5EE277A68EE222A28EE033A0023ED
:10596000B6EE002ADDED01CA9DED02DAE7EEA62AC9
:10597000A7EE273A53E078EE287A67EE827A39EE7E
:10598000E77A6BEE276A2CEE276AE1EE076AA0EE53
:10599000076A21EE275A60EE275AA1EE875AE0EEF9
:1059A000875A61EEA7FA20EEA7FA67EEA66A27EEFD
:1059B000866AEAEE87FAA5EE876AABEE87FA27EEEB
:1059C000A5EAE7EE056A67EE85EAAFEE07EAE7EEDD
:1059D0002FEA67EEA66A27EE866AE7EE2E6AAEEE3B
:1059E000076A7DEE034A3CEEA24AF0EE665AB0EE3C
:1059F000467AE4EE425AA4EEC27AF0EEE55AB0EEF0
:105A0000C77A37EE257AB4EECA7AF1EE10FA0FD9DA
:105A1000B0EE463AF0EE662AB0EE678A012378EEE1
:105A2000683AF4EEED3AF1EE10FAB0EE639AA2DACB
:105A3000ABB1414601A8F0EE488ACDED012A8DEDCB
:105A4000023AFFF7F3FB28B1B4EEE98AF1EE10FA5F
:105A50003FF53BAF06B0BDEC108BBDE8F081B0EE7A
:105A6000005AF6EE005A59E0F0EE687AE3EE857AD5
:105A7000F4EEE97AF1EE10FADBDA39EEE77A2BEEA2
:105A8000276A6CEE276AA1EE076A61EE27EAE0EE6C
:105A9000076AE1EE87EA60EE273A21EEA7EA27EEF1
:105AA000866AE0EE873AAAEE87EAA7EE2E6A20EE33
:105AB000A72A67EEA66A27EEAE4AABEE872AA7EEC4
:105AC0000E4AE3EE876A67EEA34A27EE866AE2EEA5
:105AD000074AA7EE046A67EEA66AE4EE876A7CEEE0
