:020000041000EA
:10000000002008205D0100101B0100101D010010E0
:100010001101001011010010110100101101001058
:100020001901001019010010190100101F01001022
:100030001101001019010010210100100903002016
:100040001101001011010010110100101101001028
:100050001101001011010010110100101101001018
:100060001101001011010010110100101101001008
:1000700011010010110100101101001011010010F8
:1000800011010010110100101101001011010010E8
:1000900011010010110100101101001011010010D8
:1000A00011010010110100101101001011010010C8
:1000B00011010010110100101101001011010010B8
:1000C00011010010110100101101001011010010A8
:1000D0001101001011010010110100101101001098
:1000E0001101001011010010110100101101001088
:1000F0001101001011010010110100101101001078
:100100001101001011010010110100101101001067
:10011000EFF30580103800BE00BE00BE00BE00BE7A
:1001200000BE00BEF2EB8871E4A0021000A1021034
:10013000A001001090A31AE7D3DEFFFF42012110B7
:10014000FF01000028C20200793512AB4FF0000019
:100150001E49086006C881F3088810474FF05040D8
:10016000006810B14FF00000F2E70DA40ECC00299A
:1001700002D000F012F8F9E71549164A002000E015
:1001800001C19142FCD11449884714498847144958
:10019000884700BEFDE701C901C29A42FBD3704700
:1001A00000A10210100100207023002060C3021083
:1001B000000008200000082060C302100010082082
:1001C00000100820000000007047000008ED00E06B
:1001D0007023002024590020FDCD011035020010AD
:1001E000F5CD0110F8B500BF064B0749C91A8910B3
:1001F00048BF0131491003D0044B0BB101481847E7
:10020000704700BF70230020702300200000000012
:1002100008B5054B1BB105490548AFF30080BDE8A3
:100220000840FFF7E1BF00BF00000000B43B002022
:10023000800F021008B500F095FA002008BD00BF3D
:10024000704700BF0020704700B5064B83B0DB6DE0
:100250009847C0F30743C0B240EA032003B05DF8FB
:1002600004FB00BF48260020024A034BD2F8C0001E
:100270001B6818474826002028250020074B70B52A
:100280001B6804460D469847054BDB6E23B1294693
:100290002046BDE87040184770BD00BF7035002093
:1002A00028250020024B93F8D60100F00200704789
:1002B000482600202DE9F843374F3B68002B67D0D4
:1002C000364B374E93F88330CBB1336D98473C684B
:1002D000F36C002C5ED000253D609847314F01E063
:1002E000904764B1D4E9012023463968E4685D6031
:1002F000DD600029F4D13B609047002CF2D1D6F8A4
:10030000B0319847284B80461A6882423ED0274D2C
:10031000274A2C681768BC4238D0186037B1D7E933
:1003200001309847FF68002FF9D12C68002C2DD0A0
:100330000027DFF870900BE0F36C9847D4E90130A8
:10034000D9F800206760E760D2B198472C68ECB11B
:100350002368A3EB0803002B18DC336D98472B6848
:10036000A3420AD0002BE7D01A46DB68002BE3D06B
:10037000A342F9D1E368D360DEE7E3682B60DBE7F3
:10038000C9F8004098472C68002CE1D1BDE8F883FB
:10039000034EB4E79847B2E788390020E8280020E8
:1003A00048260020083A00200C3A0020A83B0020F4
:1003B000B051002008B510F035F80022014BC3F809
:1003C0001C2108BD2825002000B585B012F0FAFDDB
:1003D0000D4B0290DB6D98479DF80A309DF80B108D
:1003E0009DF808C09DF8092001EA106102EA102278
:1003F00003EA104300EA0C000B43104340EA0320D9
:1004000005B05DF804FB00BF4826002030B5154B51
:100410008BB093F800E0EC466FEA0E0E124C5FFAD8
:100420008EFE83F800E00FCCACE80F0094E80F00DC
:10043000ACE8070070468CF8003010F009F804466C
:10044000684620F09DFB2146684420F099F9034658
:10045000064A0021128868461A800DF071FC0BB024
:1004600030BD00BF20170020800F0210A00F021027
:100470004AB1064A92F81521920704D5044A184653
:10048000D2F8143118470020704700BF904B00206D
:1004900048260020074B93F81221D20604D50269A2
:1004A000D3F894118A4200D17047C3F8942109F01F
:1004B000F1BF00BF904B00202DE9F0410446204ED3
:1004C0000F46336D904698470CB31E4B1D681DB305
:1004D00000221A60D6F8B0319847002100EB0802DC
:1004E00019486C6003682A60AF60E96023B319683B
:1004F000511A002904DC1EE01968511A002903DB97
:100500001846DB68002BF7D1EB60C5600124F36C63
:1005100098472046BDE8F0810C4D2823AC4602E008
:10052000ACF1100C53B1DCF87402013B0028F7D198
:1005300005EB0315CEE7EB600560E7E71C46E6E751
:1005400048260020083A0020A83B0020C051002087
:100550000D4808B5417A11F002010CD00B4B012176
:100560001B6C3C3098470A4B00219A8A0948BDE829
:100570000840FFF7A1BF064B9A8A02B908BD06489A
:10058000BDE80840FFF798BFE82800204826002073
:10059000904B0020510500109D050010054B0021D7
:1005A0005B7A9B07044B4CBF044805489A8AFFF7C7
:1005B00083BF00BFE8280020904B002051050010A9
:1005C0009D05001070B5124E0D46336D04469847D8
:1005D00010490B68A3B1002003E0DA6818467AB12D
:1005E00013465A68A242F8D19A68AA42F5D1DA684D
:1005F00060B1C260002208495A600868DA6018B128
:10060000F36CBDE8704018470B60F9E70A60F1E74A
:1006100048260020A83B0020083A002010B50446D8
:10062000E30706D40A4B1B6883B12046BDE810409F
:10063000184700210748FFF7C5FFC82200210548D9
:10064000FFF73AFF024B1B68002BEED110BD00BF35
:10065000DC3B002069020010F8B50446164F0E4638
:100660003B6D98478CB1154B1D6895B10021196001
:1006700000201349C5E901460B68E860BBB1194683
:10068000DB68002BFBD1CD600124FB6C9847204632
:10069000F8BD0C4D28232A4601E0103A4BB1D2F8A0
:1006A0007402013B0028F8D105EB0315E0E70D606B
:1006B000EAE71C46E9E700BF48260020083A002088
:1006C00088390020C0510020214B2DE9F04193F8DA
:1006D000816016B304461F4F88463B6D9847B4B1FE
:1006E0001D4B1D68EDB10021196000201B496C6095
:1006F0000B68C5F80880E8600BB31946DB68002B6F
:10070000FBD1CD60FB6C98473046BDE8F0812646B2
:10071000FB6C98473046BDE8F081BDE8F041FFF73B
:100720009BBF0F4D28232A4601E0103A6BB1D2F847
:100730007402013B0028F8D105EB0315D5E7FB6CEB
:100740000D6098473046BDE8F0811E46DAE700BFED
:10075000E828002048260020083A0020CC3B002052
:10076000C05100202DE9F04FC44D83B0DFF88083E5
:100770009C22002128461FF019FC4FF42072002112
:10078000BF481FF013FC4FF49072002140461FF049
:100790000DFCBC4BBC4CC8F81031BC4BBC4AC8F873
:1007A0005C30BC4BBC4FC8F86430BC4B0021C8F86F
:1007B0007830BB4BC8F81421C8F87C30B94B4FF4E3
:1007C000F672C8F88030B84B2046C8E91477C8F8EC
:1007D000CC301FF0EBFB0A234FF480622360B34B55
:1007E000B34EC4F878314FF08043C4F88021B14A49
:1007F000E361C4E914624FF6FF730122A4F8DE310D
:10080000134684F8E621AC4AAC492267AC4A21661B
:10081000C4F89C20AB4A85F88130C4F8D021AA4A9C
:10082000E664C4F8242111F01DFB14F03DF80AF031
:10083000A9FE0FF0F7FD16F073FFA44F00263B78DA
:1008400060F300033B7014F075F80AF0A5FE94F80D
:10085000D421397802F06003A3F16003B3FA83F383
:1008600042F060025B0984F8D421DB00C2F340024D
:1008700043EA021321F0180103F018030B43FF2B86
:100880003B700CBF01233346C5E92466C5F88C6074
:1008900085F8846085F882300FD18D4BD4F808211B
:1008A000C4F808318B4B8C481A60A36B98473B788F
:1008B00085F8826060F341033B70874E0DF10601BD
:1008C00096F89C0013F0C4F98146002800F08D8151
:1008D00096F89D000DF1070113F0BAF918B996F8D2
:1008E0009C3086F89D309DF9060013F0F9F93B78AD
:1008F000814660F382033B70002800F06E81002087
:1009000013F0C6F9C36A2BB1006BB0F1000918BF30
:100910004FF001093B7869F382033B7094F8D531BD
:1009200013F0020305D196F8902163F3410286F893
:1009300090213B78FF2B06D010230021674885F8D3
:100940008030FFF7C1FE0121D4F88C3096F8FC000E
:10095000984713F02DFC636F4FF000009847D4F8D0
:10096000CC310BB15E48984795F88030626E103BF1
:1009700018BF012385F88330002A00F0E78096F83D
:100980008331DF0700F1E280B28A002A40F0E8807C
:1009900094F8D53113F0060F40F0EC8094F8B6309F
:1009A00003F00C03042B06D14E4BD4F800211A603F
:1009B0004D4BC4F80031D8F8AC30002B00F0238147
:1009C0004FF000094FF0640A4FF0640B0FF02AFD5E
:1009D000EB7823B196F98231002B80F2B18044226A
:1009E000002126481FF0E2FA6FF001030020C5E95C
:1009F00004AB6B6413F040F9002840F0E480B38A44
:100A0000697A003B18BF012396F8202163F3410166
:100A10006972D10705D56B7FC2F3400262F3C3034D
:100A20006B7711F09FFAD4F8D430984796F81201FA
:100A3000C0F3400000F0F0FA96F81A01A36D4FF0F1
:100A4000000100F00100984705F0E8FD06F0CEFB3C
:100A500011F0D4F90BF0EAFB06F008F9204923481D
:100A60000BF0AAFED4F8903013B100210846984745
:100A700094F8D6319B0740F1A3803BE0E8280020A2
:100A8000C0510020C97F00104826002041020010FC
:100A9000AD320110DDC40010B5020010CD6A0110A6
:100AA000C56A011041AA001095040010B50300109A
:100AB000390C01104502001061C200102D15011003
:100AC000856F00100D320110A502001020170020C4
:100AD0007D02001070350020904B00200D040010A6
:100AE00074290020DC3B00201D060010F834002093
:100AF00028250020D8F80030D4F8C400984796F98B
:100B00001131002B53DA94F9D531002B07DA95F81F
:100B10008430002B0CBF8020872008F0EBF807F012
:100B2000E7FD074698B385F881900FF07BFCEB78E2
:100B3000002B3FF454AF96F98231002BFFF64FAFF4
:100B40008022002138481FF031FA4DE794F8E13156
:100B5000002B48D1354BB28A6366002A3FF418AFA8
:100B600000213348FFF7A8FC94F8D53113F0060FA5
:100B70003FF414AFC3F38002C3F3400343EA4201DE
:100B800040F28A2001F003010AF0FAFA06E7D4F8ED
:100B9000AC31FBB1984785F88170074600287FF497
:100BA00015AF13F0B3FE384603B0BDE8F08F11F077
:100BB00035FCB0F5807FA6D1012011F035FCA2E70D
:100BC00015F04AFE96E7002013F062F864224368AD
:100BD000DA6014E785F88130F8E613F067F813F06F
:100BE0007FF8814696E6134BB5E712F0BBFF494606
:100BF00012F090FFA8B190F9002043788DF80620FC
:100C000086F89C3064E694F8D731D8077FF5D8AEE3
:100C1000D4F81431002B3FF4D3AE074BC8F8AC30F6
:100C2000CEE602460B23E9E7E8280020490200103F
:100C300051050010C903001071040010F8B50E4FE3
:100C40003C689CB100250D4E02E090473C606CB1C1
:100C5000D4E9012023463168E4685D60DD60002945
:100C6000F3D1336090473C60002CF1D1044B93F8F2
:100C7000833003B9FEE7F8BDCC3B0020083A0020E2
:100C8000E8280020F8B504692DED028B08EE101A53
:100C9000E16B002942D000266425027D214B22F021
:100CA0002002646802755A7F1F4F42F0800287ED70
:100CB000198A02765A7F80ED008A42F0040286602B
:100CC0005A77027E42F0040202765A7F42F0010215
:100CD0005A77037E43F0010303760120E5608847DD
:100CE000D0ED007A28EE278AB5EE408AF1EE10FAB0
:100CF00010D00E4B9FED0E7AD3ED1D7A67EE877AFA
:100D0000F4EEC87ABDEC028BF1EE10FA4CBF2B204A
:100D10003046F8BD2920BDEC028BF8BD1420BDEC97
:100D2000028BF8BDE828002090340020904B002072
:100D30006666663F0A4A92F8833002F1840C0133FA
:100D400003F0030303EB43010CEB810C02F1B80148
:100D500082F8833007C98CE807000BF00DBD00BF97
:100D6000903400200A4B9A690AB1DB69184730B405
:100D7000084D0446AC46084BD3F8D0301868596883
:100D80009A68DB68ACE80F0028462C6130BC7047DD
:100D9000282500209854002090340020204900226B
:100DA0000B46B7EE007A30B4A1F10C0073ED017A76
:100DB000F4EE477AF1EE10FA4FEA4202D2B218BFCF
:100DC00042F001029842F1D1F7EE007A154C4FF053
:100DD000000C0023C4ED057AC4ED047AC4ED037A57
:100DE000114DC4F808C085F82E30C4F804C0C4F80A
:100DF00000C031ED017AB4EE677AF1EE10FA4FEAF5
:100E00004303DBB218BF43F001038142F1D19342A7
:100E100001D130BC7047022030BC0BF075BD00BF63
:100E20003C1700202417002090340020472370B581
:100E300000F13604E4B23B2C104D204628BF3B2085
:100E40002B800FF005FB064628461FF099FE314621
:100E500028441FF095FC3B2C01D8084870BD034680
:100E6000074AA4F13B0012881A800FF0F1FA0146FC
:100E700028461FF0E9F8014870BD00BF4C32002041
:100E80001C6A021000487047301700200020B7EE9F
:100E9000007A094BA3F10C0273ED017AF4EE477A64
:100EA000F1EE10FA4FEA4000C0B218BF40F0010066
:100EB0009A42F1D1704700BF3C17002010B504469C
:100EC000F9B140F20113174AB2F80C21934318D03C
:100ED00006F0F4FF002814DB134B00EB4000204425
:100EE00003EB800003EB8402D0ED217AD2ED026A9D
:100EF00092ED317A77EEA67A77EE877A17EE900A3E
:100F000010BD094B03EB8401D1ED027AD1ED2E6ABD
:100F100091ED317A77EEA67A77EE877A17EE900A1E
:100F200010BD00BF904B00209034002030B583B03E
:100F3000019298B3022803D0274BD87103B030BD7B
:100F4000DDED017A254BF8EEE77A03EB4113D3EDA3
:100F50000C6A87EEA67A224A1F4C926904EB810341
:100F600093ED316A83ED317A2AB9D4F8D03003EBAE
:100F7000810383ED007AB4EE476AF1EE10FA14BFF4
:100F800001210021E0710029D8D04FF480600BF0DE
:100F9000BBFC03B0BDE830400BF0EEBB114A01468C
:100FA00014464FF0000C0E4B9D6954F8D039A3F154
:100FB0000C0E72ED017AF5EE407AF1EE10FAC2F8FD
:100FC00000C018BF41F001010DB9C3F808C0043BCF
:100FD0007345EED1D6E700BF90340020904B00203F
:100FE000282500206035002071B1012905D1022299
:100FF0000023027043708170704701220223002198
:1010000002704370817070470A460123022102700A
:1010100043708170704700BF2DE9F043654F87B082
:1010200097F88140002C50D0634D644C0021D422AD
:1010300028461EF0BBFF94F81231614ED9066DD5DB
:10104000F369D4F894019847C5F8D000002865D01A
:10105000B369002B6AD05B4B1C682CB12046A46896
:101060001AF09CFC002CF9D17B7F574C002085F8AE
:101070002C30EC6512F00CFEA862FFF78FFE287D85
:10108000A4F1140109F054FD10B90720B368984782
:1010900097F88130002B36D0484B93F811319B07DD
:1010A00055D5736C43B100224849CDE90022086848
:1010B000029200285BD0984714F0E4FC336B53B3E2
:1010C0003D4807B0BDE8F04318473B4DB8220646FF
:1010D0002146284695F8149095F807801EF066FF83
:1010E0003B4BD5F8D000D3F81C310269AA670BB18D
:1010F000214698472EB1324E85F8149085F8078026
:10110000A9E72F4EA7E7736C002BD4D114F0BAFCDB
:10111000336B002BD4D107B0BDE8F083F369002016
:101120009847B369C5F8D000002B94D1D5F8D020EA
:10113000136053609360D360136194F81231DA0640
:1011400089D5D4F89421D5F8D0301A6183E70B20E3
:10115000204909F0EDFC08BB0720B3689847736C81
:10116000002BA9D097F88120002A9CD1A3E74C68D6
:101170009442A0D18C6894429DD10A46CDE90300E7
:10118000059052F8B00F002895D15068049A90420B
:1011900091D1D1F8B81091428DD18DE70C2395F9FA
:1011A000832002FB03530B4A843307CA83E80700FA
:1011B000D5E700BFE828002090340020904B0020A5
:1011C00028250020F43B0020AC3400209834002077
:1011D000482600204835002000487047AC340020E5
:1011E000002208B5054BC3E900229A6012F0E0FF27
:1011F000BDE8084010200BF087BB00BFAC340020D6
:1012000008B5054A054B50765B6F9847BDE8084026
:1012100020200BF079BB00BF90340020482600202E
:1012200040B110B504462046A4681AF0B7FB002C64
:10123000F9D110BD704700BFB0B10C4B10B5D3F859
:10124000C030044603B19847237823B92046BDE84F
:1012500010401AF0A3BB204600210CF071FD20467F
:10126000BDE810401AF09ABB704700BF2825002047
:10127000014B1868704700BFAC33002070B50446BE
:1012800060B31C4B187848BB5B7833BB1A4D607E4B
:1012900084F838306B7E2A889842228004D0174B1D
:1012A000B3F8981012F030FA0C22154904F11C0022
:1012B0001EF04EFEA0B1104E04F1400EB446206860
:1012C0006168A268E36810347445ACE80F0006F169
:1012D0001006F3D10120EB6B2B6670BD002070BDB2
:1012E000064B626AB3F8A030217FA86A12F004FFAF
:1012F000E1E700BFE828002090340020904B002058
:10130000AC3400202DE9F04F037817465A1E1F2AEF
:101310000446884683B004D814F8013F581E1F289D
:10132000FAD93B2B50D02F2B4AD02378002B66D0F4
:10133000A2460026651C202B08D9292B05F1FF3970
:101340001AD03B2B13D0282B0BD066B315F8013BDA
:10135000002BF0D1002320468AF8003003B0BDE80E
:10136000F08F2E4615F8013B002BE4D1F2E7002E5A
:10137000ECD189F80060EDE77EB13E4B93F8813007
:101380005BB905F8013C3C4B93F8D6315B0723D49D
:10139000002F4AD03B68002B33D015F8013B0026C4
:1013A000002BC8D1D6E7A3F16102192A98BF03F038
:1013B0005F030AF8013B15F8013B002BBBD1C9E7DD
:1013C0002E4B1B7ADA0605D500232046237003B086
:1013D000BDE8F08F0134A8E73378002BDDD017B1DA
:1013E0003B68002BD9D1DFF89CB0DBF8C430002B70
:1013F000D3D030469847002688F80000A6E7A246DA
:10140000A8E7DFF880B0DBF8BC3023B1304698475E
:1014100038600028C1D10422304619491EF0B0FEC0
:1014200038B13378002BE0D1B7E73378002BB4D054
:10143000D9E7A9EB0602A2F10309484601921AF086
:1014400071FA019A38600028EBD03379202B0FD144
:10145000731D194613F801CBBCF1200FF9D006F12A
:1014600001099144A9EB01094A461FF013FB94E7D7
:10147000311DF9E79034002048260020E82800209C
:10148000A40F02102825002000212DE9F04FDFF8DD
:10149000AC922DED088BD9F80431A44F5B1A18BF1C
:1014A000012397F87D20ADB093EA020517918DF8DE
:1014B0005B1017AA0DF15B0118BF87F87D30FFF7AD
:1014C00021FF9DF85B800446B8F1000F09D1037835
:1014D000252B0CD07BB9179808B1FFF7ADFE9DF80E
:1014E0005B8040462DB0BDEC088BBDE8F08F4378A3
:1014F000002B00F0B8808E4D8C4FE0220021284652
:101500001EF054FD0023BC4605F1080607938DF834
:101510002430ADF818309A46BCE80F000FC6BCE87E
:101520000F000FC6BCE80F000FC69CE80F0086E84E
:101530000F00FB6D0A932378242B00F0358322469D
:101540000123189300231A9392F800B01C93BBF167
:10155000000F01F0F482BBF1400F66D9BBF15A0FC6
:1015600000F2F986BBF14F0F63D1724B20461993FD
:1015700018AB19461AAA05930FF036F806468DF8EF
:101580005B00002841F01086DDED197AF4EE677AF1
:10159000F1EE10FAB0EE677A81F14D8208900B906F
:1015A000FCEEE76AF8EE665A9FED636A77EEE57A3D
:1015B00067EE867AF8FE677ACDED1A6ABCEEE78AA6
:1015C000BBF1470F61D0BBF14D0F40F0D3802B78BA
:1015D000412B00F047811A9E632E40F2FD810023CB
:1015E000DFF85CB11C93DBF8F430002B00F09B803B
:1015F00018EE102AB0B2002A00F0278300EB800614
:1016000006EB86001FFA82FB0BEB800080B2984746
:101610000646002800F087801A9B03EB830303EB48
:1016200083030BEB83039BB216E3BBF1240F40F063
:10163000928618AB1946204619AA05930FF02CF88C
:10164000002801F0D78100231E4608EE103A0893C7
:101650000B93DDED197AF4EE677AF1EE10FAB0EE45
:10166000677A9DD7ACE7037097F87D30002B00F0C8
:10167000D182002D40F09A8397F87C30002B41F006
:101680008F8139238DF85B3025E700231C931A9B4B
:10169000412B59D8412B46D8DFE813F048034803C3
:1016A00048034803160448034500040404044500A5
:1016B000B003450045004500450045004500A7032F
:1016C000A703A703F703F7034500450045004500BE
:1016D00045004500B0034500B00345004500C40483
:1016E00045004500450045009B0445009404450025
:1016F00045002E04450045004500450045002E04E8
:101700001E041E0445001604F602F602F602F60256
:10171000F602F602450076044500450045007E04C9
:101720004C2B00F07F844FF01408DAE69034002050
:10173000B03300200000C07F0000C84248260020CF
:10174000282500200000C07F592B40F23982A3F1E8
:101750005A02092AE7D8A3F15C02072A03F271842E
:10176000DFE812F070031A031A0367030903090381
:10177000FF02FF020023ABF1240B1B93BBF1360FDA
:10178000D1D801A353F82BF0BB1800102717001075
:101790002717001027170010271700102717001011
:1017A0002717001027170010271700102717001001
:1017B00027170010271700102717001027170010F1
:1017C00027170010271700102717001027170010E1
:1017D00027170010271700102717001027170010D1
:1017E00027170010271700102717001027170010C1
:1017F000271700102717001027170010D7220010F6
:10180000C3220010AF220010972200108122001086
:1018100067220010271700102D220010112200103F
:10182000F5210010D9210010A32100102717001066
:10183000852100103D190010592100106F21001062
:10184000432100102B210010D1200010BD200010DA
:101850009920001085200010692000104D200010F4
:101860003120001095F8C930980600F1A68185ED69
:101870001A7A43F0200385F8C930189B5A1C189235
:1018800014F803B0BBF1000F00F07085BBF1400FFE
:1018900029D8BBF1240F40F05E852046059919AA8E
:1018A0000EF0FAFE00286DD1022E41F0A3805FED0C
:1018B0005B7AB0EE677ACDED197A18EE103A002B0C
:1018C00040F04585BDEEC77AD5F8C82085ED2C7A65
:1018D00012F0010308EE103A40F06F810123134328
:1018E000C5F8C830C9E7BBF15A0F00F23485BBF127
:1018F0004F0F5FD1DD4B204605991AAA19930EF0C0
:1019000073FE8DF85B00002841F09A80DDED197AB6
:10191000F4EE677AF1EE10FA1B900FD6BCEEE77A80
:10192000B8EE476ADFEDD26A77EEC67A67EEA67A3E
:10193000F8FE677A8DED1A7ABCEEE78A18EE103A57
:10194000002B40F004859DF86D30D5F8C82043F099
:1019500080038DF86D301A9BC5F8B8301B9B12EAD6
:10196000030108EE101A40F02881C2490B42B6D09C
:10197000DDED197AF5EEC07AF1EE10FAAFD54FF041
:101980000408AEE59DED197AB4EE477AF1EE10FA4F
:1019900093D6FCEEC77AB8EE678ADFEDB56A37EE0C
:1019A000488A28EE268AB8FE488ACDED1A7ABCEE1F
:1019B000C88A82E72046059919AA0EF06DFE002814
:1019C0007FF447AE022E41F01580DFEDAB7AB0EE2A
:1019D000677ACDED197AF3E518EE103A002B40F056
:1019E000B6848DED1C8A632E00F2278101A353F883
:1019F00026F000BF731E0010731E0010731E00102F
:101A00005F1F00105F1F00105F1F001003230010F6
:101A10002D1F00102D1F00102D1F00103B1C00104B
:101A20003B1C00103B1C00103B1C00103B1C00101A
:101A30003B1C00103B1C00103B1C00103B1C00100A
:101A40003B1C00103B1C00103B1C00103B1C0010FA
:101A50003B1C00103B1C00103B1C00103B1C0010EA
:101A60003B1C00103B1C00103B1C0010731E0010A0
:101A70003B1C00103B1C00103B1C00103B1C0010CA
:101A80003B1C00103B1C00103B1C00103B1C0010BA
:101A90003B1C00103B1C00103B1C00103B1C0010AA
:101AA0003B1C00103B1C00103B1C00103B1C00109A
:101AB0003B1C0010911B0010911B0010911B00108B
:101AC000911B00103B1C0010911B00103B1C0010D0
:101AD0003B1C0010851B00103B1C00103B1C001021
:101AE0003B1C0010731E00102B2300102717001042
:101AF00027170010271700102717001027170010AE
:101B000027170010271700103B1C0010211F001082
:101B1000211F0010211F0010211F00103B1C00106E
:101B20003B1C00103B1C00103B1C00103B1C001019
:101B30003B1C00103B1C00103B1C00103B1C001009
:101B40003B1C00103B1C00103B1C00103B1C0010F9
:101B50003B1C00103B1C00103B1C00103B1C0010E9
:101B60003B1C00103B1C00103B1C00103B1C0010D9
:101B70003B1C00103B1C00103B1C00103B1C0010C9
:101B8000EB2200103D4B93F820315B077FF5CBAD86
:101B90006E704FF4801300261AEA030F40F0CB87D3
:101BA0004AEA03039A4668E60121042385F80AA05D
:101BB000E21C2981ADF81810C3E44FF0190890E435
:101BC000482B7FF6B0AD01202D4AA3F1490100FA60
:101BD00001F10A40002A40F0EF80502B7FF4A0ADC5
:101BE0009DF8702042F002028DF870202B810023B6
:101BF00085F8373018EE103A002B40F0A8831C9B74
:101C00001AEA030208EE102A40F0958716464AEABF
:101C1000030A32E697F87C30DFF868B083F00103FE
:101C200087F87C30DBF8E83013B197F87C009847F0
:101C30002378002B3FF44FAC5DE4DFF848B0DBF8CD
:101C4000F430002B3FF46FADB0B298470646002841
:101C50003FF469ADBDF868306B809DF8723043F099
:101C600020038DF872301C9B96E700BF0000C07FF8
:101C70000000C84280CA18000000C07F904B0020BE
:101C800001370100282500209DF871203B2B42F0F0
:101C900008028DF87120A3F136022A77AAD118EE36
:101CA000102A1E2A3FF63FAD01A353F822F000BFD1
:101CB00049230010271700102717001027170010BE
:101CC00027170010271700102717001027170010DC
:101CD00027170010271700103723001027170010B0
:101CE00027170010271700102717001027170010BC
:101CF00027170010271700102717001027170010AC
:101D0000372300102717001027170010271700107F
:101D1000271700102717001027170010271700108B
:101D2000271700102717001037230010089A002AE1
:101D300041F0EC809DF87020052B42F002028DF8F6
:101D4000702040F0D78618EE102A1AB10A2A7FF4C4
:101D5000EAAC33232B81002385F837300223089324
:101D60004EE7623B85F835309DF8713043F0020351
:101D70008DF871303EE7CD4A127E022A7FF4D3AC53
:101D8000603B83F0010385F849309DF8713043F0E2
:101D900020038DF871302DE7C3F15E03AB729DF81F
:101DA000703043F020038DF8703023E70123DFF813
:101DB00008B387F87C3035E7089A002A41F0A680FE
:101DC0009AB23B882A819B1A18BF0123069A85F88C
:101DD000370063F341029DF87030069243F002032E
:101DE0008DF870300223089304E7113BAB739DF824
:101DF000703043F004038DF87030FBE618EE102AC3
:101E0000002A40F0AA86089A002A41F07F809DF8B7
:101E100070201C2B42F001022B708DF8702041F0D5
:101E200006820122089218EE102A13442B70012317
:101E3000E6E60223AB729DF8703043F020038DF884
:101E40007030D7E618EE103A002B40F05E86089B03
:101E5000002B41F05B809DF8703043F001038DF85A
:101E600070300123089318EE103A5C332B70012375
:101E7000C6E6002E00F0D585012E00F0BF8585F85E
:101E8000206000264FF4004386E6A3F11403B3FA62
:101E900083F35B09EB729DF8703043F040038DF8DB
:101EA0007030A7E6814A127E022A7FF43CACA3F18F
:101EB0000703B3FA83F35B096B739DF8713043F04A
:101EC00040038DF8713095E62B709DF8703043F02B
:101ED00001038DF870308DE6A3F13303B3FA83F379
:101EE0005B0985F83630042308939DF8713043F080
:101EF00004038DF871307DE6312B00F0E48518EE97
:101F0000103A002B40F0E585DFF8ACB1DBF8183073
:101F1000002B3FF408AC0123EB734FF480736FE6A2
:101F200085F8DC60534600269A46A6E4069B082EF8
:101F300043F48073069300F05685092E00F04B851C
:101F400099F8E6319A077FF5EEAB95F82130002637
:101F500043F0020385F821304FF400231CE6A6F17C
:101F60000403B3FA83F3053E18BF012695F8482011
:101F70005B0946EA430322F00302134385F8483025
:101F800000264FF4802307E618EE103A002B7FF46A
:101F9000CAAB4FF4805333E641232B709DF8703069
:101FA00043F001038DF8703018EE103A002B7FF4E7
:101FB000BAABDFF804B1DBF81831002B3FF4B3AB58
:101FC00001231DE69DF8703043F080038DF87030DA
:101FD00010E6D9F81031002B3FF4A5AB18EE103AFB
:101FE000A3F114021E2A3FF69EAB314BD340DB0710
:101FF0007FF599AB18EE102A2E4BA3FB0223DB08CA
:102000008A331A93089A002A40F080879BB22B816A
:10201000002385F837309DF8703043F002038DF8C7
:1020200070309BE618EE102A002AEBD0FFF77BBB3E
:10203000099BD5F8C82043F00403510185ED277AA8
:1020400009933FF5BAAD4FF0806348E4099BD5F89A
:10205000C82043F00203900185ED267A09933FF5ED
:10206000ACAD4FF000733AE4099BD5F8C82043F0BB
:1020700001030993D30185ED257A3FF59EAD4FF01D
:1020800080732CE4D5F8C82085ED247A11023FF541
:1020900094AD4FF4000322E4D5F8C82085ED237AEF
:1020A00050023FF58AAD4FF4800318E4904B0020B6
:1020B00001041040CDCCCCCC28250020D5F8C82078
:1020C00085ED227A93023FF578AD4FF4001306E4D4
:1020D00018EE103A002B40F03A81DFF88CB21A98D3
:1020E000DBF81830002B00F0A384DBF81C30984795
:1020F000B0FA80F04009002841F0F980DDED197A4E
:10210000F4EE677AF1EE10FA6CBF4FF0FF331A9BD2
:10211000D5F8C820C5F8C03012F4801308EE103A84
:102120007FF44BAD4FF4801324E4D5F8C82085ED3F
:102130001E7A11033FF541ADDDED197A4FF400230E
:1021400018E4D5F8C82085ED1D7A50033FF535AD6C
:102150004FF48023FFF7C3BBD5F8C82085ED1B7A69
:10216000D1033FF52AAD4FF48033FFF7B8BBD5F864
:10217000C82085ED1C7A93033FF51FAD4FF4003363
:10218000FFF7ADBBBDEEC77AD5F8C82085ED2D7A37
:1021900050043FF512ADDDED197A4FF48043FFF79F
:1021A000E9BB18EE103A002B40F0D180B4EE477A2C
:1021B000F1EE10FA6CBFFF239DF86830D5F8C82007
:1021C00085F8C43012F4805308EE103A7FF4F5AC71
:1021D0004FF48053FFF783BB079BD5F8C82043F02B
:1021E00004030793530685ED187A3FF5E6AC4023C8
:1021F000FFF775BB079BD5F8C82043F00203910693
:1022000085ED177A07933FF5D8AC2023FFF767BB1E
:10221000079BD5F8C82043F00103D00685ED167A58
:1022200007933FF5CAAC1023FFF759BB18EE103ADD
:10223000002B40F08C80B4EE477AF1EE10FA6CBFC0
:102240004FF0FF331A9BD5F8C820C5F8BC3012F404
:10225000006308EE103A7FF4B0ACDDED197A4FF46C
:102260000063FFF787BBD5F8C82085ED157A930585
:102270003FF5A3ACDDED197A4FF40073FFF77ABB9D
:10228000D5F8C82085ED147AD1053FF596AC4FF40A
:102290008073FFF724BBD5F8C82085ED137A1006AC
:1022A0003FF58BACDDED197A8023FFF763BBD5F8E2
:1022B000C82085ED217A13073FF57FAC0823FFF78F
:1022C0000EBBD5F8C82085ED207A51073FF575ACD7
:1022D0000423FFF704BBD5F8C82085ED1F7A9007CB
:1022E0003FF56BAC0223FFF7FABA6323DFF878B04F
:1022F00085F82030DBF81C31002B7FF4C2ADFFF7EE
:1023000012BAD9F8243198470646002840F00883CD
:10231000134B1B7F042B3FF405AED9F8E030002BA4
:102320003FF401AA4FF4003336E4012200264FF4B3
:1023300000330B9230E40B4BA3FB0223DB08053385
:102340002B774FF400635BE44FF4006358E44FF0E5
:102350001708FFF7C6B84FF00108FFF7C2B800BF73
:10236000904B0020CDCCCCCC282500209DF870309F
:10237000DA0703D52B78412B00F002849DF8244026
:10238000002C00F00184089B002B00F08C8397F850
:1023900080301BB1089B022B00F0888395F8C93070
:1023A0005E0605D5954BD5F8B4209A4200F31A8401
:1023B000CAF3074212F0200300F0BD826E88002E9F
:1023C00000F09C83DFF840B28D48DBF8F830D5F898
:1023D000C8600592984703460C901A90002840F078
:1023E0008E85D5F8C830059A5E4016F0E0631CBFB4
:1023F00024EA13618DF824100799B405C6F302137B
:1024000021EA030348BF00210793C6F307234ABF0D
:1024100095ED159A9FED7B9A6965180605D5002301
:10242000D5F8B810C5F8B8300C91310348BF002179
:10243000C6F307434ABF95ED1E8A9FED728AA967CE
:1024400013F0100300F066850023D5F8C010C5F81E
:10245000C0300E91BDF8181001F0010411F0010117
:1024600000F0848295F8C9309B0740F16784E97ACF
:1024700095F8C83039B1D5ED157A9FED647A67EEDD
:10248000877AC5ED157AD9073DD595F8CA301B076F
:1024900000F13F821AF0020F5FFA8AF30BD029890C
:1024A000212900F0368240F24B10814200F0318247
:1024B0004C2900F02E82980603D5AB7A022B00F04F
:1024C00028821AF4005FCAF3072302F0040140F0E7
:1024D00020820846D10605D595F801C0BCF1330F1E
:1024E00000F01782002800F0AE82D5F8B030581CFA
:1024F000C0F2E784002B00F3E48495F8C83023F0A1
:10250000010385F8C830AB7A022B00F0A0821AF4E0
:10251000005FCAF3072340F0AC820A99002900F05B
:10252000E2840A9995F8CA004978000785F84910AD
:1025300040F1B082012900F0E584012112910B984D
:1025400095F8CA10002800F0B88288070D9305920C
:1025500040F12083286F0EF019F900283FF4F7AE00
:10256000DFF8A4B0D5ED1C7ADBF81810059A0D9BA6
:10257000002900F0F485FDEEE77ADBF81C1017EE79
:10258000900A8847B0FA80F1059A0D9B4909002905
:1025900040F0AD86D5ED1C7AFCEEE77AC5ED307AD9
:1025A00095F8CA0061F3410085F8CA00500740F170
:1025B000CC8295F84810890706D50A99C968897AA6
:1025C00011F00A0F3FF4AFA8D00627D595F8CA201E
:1025D000D10700F17A844FF07E52EA666A78303A89
:1025E000082A1BD8DFE812F014006C015C01850199
:1025F0001A0075011A001A00460100BF8096980063
:10260000B033002000000000282500203333CB41E8
:1026100095F8342022F0050285F834202A78042A1F
:1026200010D195F8CA20D00740F1B482D5ED1B7ABD
:10263000F5EEC07AF1EE10FA3FF5A1A922F0010201
:1026400085F8CA20AA7B0D92002A00F0BD83012ADA
:1026500000F0B3830022119202220F9201220D9208
:10266000EA7A9AB11FED177A0322B7499DF824C080
:10267000013A2CFA02F0C00705D5D1ED277A67EEB2
:10268000877AC1ED277A0439002AF1D159067A797F
:1026900009D5697B914206D00820059379710AF02B
:1026A00033F97A79059B52B1099AD20707D5D5ED4E
:1026B000257AB6EE007A67EE877AC5ED257A089A14
:1026C000042A00F09B8397F82E00E8B195F80CB02F
:1026D0009D4D032229469D489DF824E0013A2EFA9B
:1026E00002FC1CF0010F0BD0D1ED277AD0ED056A6A
:1026F000BBF1000F00F0588367EEA67AC1ED277A90
:1027000004390438002AE9D1D9072ED5EA7B022AF8
:1027100001F09E81032A00F0D885012A25D1DFF837
:1027200048B2DBF81820002A3EF4FDAF95F8C92026
:10273000120741F1A582D5F8BC0040B9844A92F84D
:10274000902151075CBFD5F8C000C5F8BC000593C7
:10275000DBF81C209047059B002800F0C88595F801
:10276000C92022F0080285F8C9201B0709D5287F57
:102770003B7D834205D0774908F0DAF9002802F062
:102780002F822A789DF824300A2A9B4600F0DC83A9
:102790005C2A00F02B82002B40F00F85298902393A
:1027A00089B2012940F20985352A01F0538240F2AD
:1027B000A285412A40F03B8295F8CA30D90740F102
:1027C000E981DFED657A95ED1B7AB4EEE77AF1EEFB
:1027D00010FA00F3768313F045F9D42303FB00705D
:1027E00013F0A8F8002802F0EF83002395F8CA2020
:1027F00063F3000285F8CA20D5F8C8108DF824309C
:102800004908C5F8C810002901F07A81534A059497
:102810004FF0010B1446524B19E00122042802FA32
:102820000BFC09D10968186840EA0C0018601FFA0F
:102830008BF012F011FB4A4BD5F8C8100BF1010BCD
:102840004908C5F8C8100834002901F0E683CA0712
:10285000F2D5A1680029EFD0207B0228DDD10968DC
:10286000012207EE901AF8EE677A02FA0BFC17EED7
:10287000901AD8E7364A92F8202152077FF5CEAE5B
:10288000D5ED1B7AF5EE407AF1EE10FA0CBF01217E
:10289000002195F8342061F3C30285F83420BDE6A9
:1028A000D5ED1B7AF5EE407AF1EE10FA0CBF01215E
:1028B000002195F8342061F3000285F83420ADE65C
:1028C00095F8342022F0050242F0050285F8342004
:1028D000A4E6D5ED1B7AF5EE407AF1EE10FA0CBFC6
:1028E0000121002195F8342061F3410285F834205C
:1028F00094E6D5ED1B7AF5EE407AF1EE10FA0CBFB6
:102900000121002195F8342061F3820285F83420FA
:1029100084E6D5F8B030002BBFF6ECADFFF72FB84A
:1029200002287EF400AFD9F820310026002B7FF476
:10293000F9ACFEF7F8BE9FED0B8A1E46B0EE489A42
:102940000E930C9386E500BFB033002024170020BF
:10295000904B0020C033002000FF7F479072021090
:10296000AC33002000000000282500202B89212BFB
:1029700000F02781A97A012900F0D18111F0FD0F23
:1029800040F0198195F8C90095F8C830800700F12A
:102990000E84B87888427FF476AD396E696572E549
:1029A000DFF854B487F87C8006F07EF90820DBF865
:1029B0000C309847DBF84C50002D3FF433A90FF052
:1029C0002DFD0146A1F10201B1FA81F1FF20490973
:1029D000A847FFF727B9002385F8213000264FF4D8
:1029E0000023FFF7D9B895F8213043F0010385F8AB
:1029F0002130F3E74FF00208FEF773BD99F8DC31A0
:102A0000990640F1CB80D9F86C30984780F02006C9
:102A1000C6F34016002E40F0C9804FF40043FFF784
:102A2000BBB8032385F820304FF40043FFF7B4B858
:102A3000C00FFFF760BB1B9008900B90FEF783BFA1
:102A40008046FEF74EBDA97A02297FF466AD0A9B47
:102A5000002B3EF468AE0A9BD3F80CE0DEF83C3065
:102A6000002B3EF460AE1AF4005FCAF307233FF474
:102A700058AD95F84910012900F064810A98407812
:102A800001280A9800F07683417095F8CA00000783
:102A90003FF553AD002940F00D820A998968A96776
:102AA000002112914BE597F880301BB1069BDB07A4
:102AB00040F1FF830223089370E4C9065CBFB96F3D
:102AC000C5F8C01072E50023EB734FF48073FFF775
:102AD00097B8142B7DD00A2B7EF425AE089B002BD3
:102AE00040F0148202230322EB7308924FF48073A8
:102AF000FFF786B802220892FFF778B89FEDB58AF3
:102B00000E96B0EE489A0C96A4E45C232B709DF8C8
:102B1000703043F001038DF8703018EE103A1E2B20
:102B20003EF601AE18EE102AAB4BD340DA077EF525
:102B3000FAADFFF798B94FF01508FEF7D2BC5C4626
:102B4000CDF820B0CDF82CB028E40A9900293FF444
:102B50003BAD097885F8481036E59DF870201C2BB0
:102B600042F001022B708DF8702002D01E2B7FF4F2
:102B7000EEAB18EE102A0A2A3FF455A9FEF7D3BD92
:102B8000CDF81CB08DF824B0002400E4BEF1000F95
:102B900002F017814FF01C08FEF7A3BC8F4B1E7A82
:102BA000C6F3801686F00106F6B233E7012385F8F6
:102BB0002030FFF766B995F8C830D8077FF5A7AC85
:102BC00063E495F8C830580600F1A781796E69660C
:102BD00059E4DFF824B2DBF81830002B3EF4A3AD43
:102BE000032371E74FF01B08FEF77BBC002B01F0BD
:102BF000728603227A497B48013A23FA02FC1CF0D0
:102C0000010F00F09E81D0ED1C7A91ED066AD1EDA6
:102C1000276A77EEC67A90ED337A77EEE67A77EE2A
:102C2000C77AC1ED277A04380439002AE4D1B5F80F
:102C300008B0BBF1500F00F02383089B022B00F07B
:102C40008F8304F0FF0B2CB995F8CA3023F01803DA
:102C500085F8CA3095F8C93023F0420385F8C930A9
:102C6000089B002B40F0CB820023D5F8C8100893B6
:102C7000002942F0D38122AB2822184605931DF08B
:102C800095F9564B9DF89D20079393F89930B3FA28
:102C900083F35B0963F3410263F382028DF89D20A5
:102CA00097F883308DF8A130BBF1000F00F09783C7
:102CB0003AF0490340F0CA872B78352B02D0002B1D
:102CC00040F0C4877A7E484B97F87F6023AC8DF83C
:102CD0009E200FCB84E80F00002E40F0C58795F8AA
:102CE000243013F0020303D02B6B9B7AC3F3C00391
:102CF0009DF89C503D4C63F3C71522460598384912
:102D00008DF89C5003F094F8804600287EF4E9ABDF
:102D1000374B93E8070084E80700FEF7E2BB089909
:102D200002297FF448AF502B3FF445AF002B3FF40E
:102D300042AF95F8C9309B073FF53DAF4FF01608FD
:102D4000FEF7CFBB0A99D1F80CE09EF80A00C10744
:102D50007EF5E9AC95F8CA0000077FF51BAF95F941
:102D6000C8009EED067A0028DEF804C0C0F2A786EF
:102D70008CED077A01200A99487095F8CA0001077E
:102D800040F19B80E87AD5ED1E7A002800F075822C
:102D90009FED187A67EE877ADEF80410C5ED1E7A8B
:102DA000C1ED047AFFF7C9BB90ED027A77EEC77ADE
:102DB000A7EEA67A81ED277AA2E40D9A119200225D
:102DC0000F9202220D924BE40222119201220F92E5
:102DD00046E400BF0000000001041040E828002085
:102DE000B033002090340020D4330020F834002089
:102DF00044340020666698432825002095F8362044
:102E0000002A00F05A8200229DF824C085F836205E
:102E1000BCF1000F01F05F854FF0030B0BF1FF3B9E
:102E2000AB4905922CFA0BF0AA4AC007CDF84080B6
:102E3000139714943746F7EE008A2E4698460D46AF
:102E400014461CD496F83600043C40B9D5ED027AFD
:102E5000F4EE687AF1EE10FA14BF0120002086F833
:102E60003600BBF1000F00F0E9819DF824C00BF1A2
:102E7000FF3B2CFA0BF0C007A5F10405E2D5D4ED19
:102E8000277A95ED057AB4EE677A4FF0010EF1EEF0
:102E900010FA0EFA0BFE2CEA0E030993059B4FF075
:102EA000020018BF43F00103C5ED057A059309F050
:102EB0002BFDC7E70A99D1F80CE0DEF80410C969C8
:102EC000EDE54FF02708FEF70CBBD5ED1B7AF5EECC
:102ED000C07AF1EE10FA3EF552AD22F0010285F80B
:102EE000CA20FFF77BBB95F8CA10C1F3C0000907E1
:102EF00012907FF524AB0A994978FFF71BBB9846DF
:102F0000FEF7EFBA0A99D1F80CE03BE74FF018084A
:102F1000FEF7E7BA0E93FFF79DBA61F3861385F8C3
:102F2000C830EB7AD5ED187A2BB19FED6B7A67EE4E
:102F3000877AC5ED187AC5ED197A95F8C830FFF78C
:102F4000A2BAD0ED307A6CE64BB995F8C420142AB9
:102F500001F0C18495F8CA20500741F1BC84D5F82E
:102F6000C82012F4883F3FF415AED5ED1B7AF5EE7C
:102F7000C07AF1EE10FA3EF502ADF6EEE77AFCEE1D
:102F8000E77ACDED057A95F8C4109DF81420013943
:102F900013293EF6C8AB01A050F821F0ED2F001028
:102FA000E530001027170010271700102717001012
:102FB00027170010271700102717001027170010D9
:102FC000ED2F0010ED2F001027170010271700100D
:102FD00027170010271700102717001027170010B9
:102FE0002717001027170010EF300010DFF8F0B09F
:102FF0001393DBF8181000293EF495AB1046DBF86C
:103000001C10059288471090002800F0708195F8F8
:10301000CA10059A11F0040F139B07D0696FC160A5
:1030200095F8CA1021F0040185F8CA1095F8C4106B
:103030000B2901F0C88522A9059195F8C410012932
:1030400006D11046DBF81C2013939047139B109079
:10305000032295F8C4001F4DDDF814E0AC4605923C
:10306000A0F10A02D2B2CDE91434139210991B4A8E
:10307000059B149C013B059324FA03F3DC0740F104
:10308000F685012800F029870A2801F063860B28BD
:1030900007D1DEED027A9CED277A77EEC77AC1ED93
:1030A000027A059B043AACF1040C0439AEF1040E2B
:1030B000002BDDD10128159C03D11098DBF82430BA
:1030C0009847D5F8C83023F48833C5F8C830AEE542
:1030D00024170020B03300203333CB41903400203C
:1030E0002825002095F8CA1049073EF51CAB092A8F
:1030F00001F20582002A41F0FE81287F9149059363
:1031000085F8AC0007F014FD002801F069858E4AAF
:10311000059B92F818214AB195F8AC100639C8B24F
:10312000022803D8CA40D20701F1268695F8C4C008
:10313000864D03202946864A013823FA00FE1EF0F8
:10314000010F07D0BCF1140F91ED277A00F018871A
:1031500081ED2A7A043A04390028EDD1B1E79FEDD8
:103160007D7AF4EEC77AF1EE10FACCBF012100218E
:10317000FFF70DBA416839B1002141600D93059206
:1031800005F092FD0D9B059A0A98D0F80CE0DEF848
:1031900004100968816095F84910417095F8CA00DB
:1031A00000073FF5C7A975E48046FEF79AB9E97AAA
:1031B00000293FF468A9FFF75EB90899032900F0D8
:1031C00091844FF0030C624860490CF1FF3C23FAF4
:1031D0000CFE1EF0010F19D1D0F870E0C1F89CE090
:1031E00004380439BCF1000FEFD1FFF7DDBAD5F890
:1031F000C83023F4C21323F40073C5F8C830D5F8DF
:10320000C81021F0E061C5F8C81031E5352AE7D0D3
:1032100095F80CE091ED277ABEF1000F00F00685DD
:10322000D0ED1C7A77EE877AC1ED277AD8E71E2B8E
:103230003EF4F7AD01230893FEF7E1BC3546D5F81F
:10324000C8203E46DDE9137422F0E062C5F8C820CC
:1032500097F82E20059942400A43434687F82E00EE
:10326000DDF840803FF431AA0220059309F04CFBC1
:1032700097F82E00059BFFF728BA9FED377A89E56E
:103280009DF82430002B00F04184089B012B40F076
:10329000C786002304F0FF0B85F83530002CA6D03C
:1032A00095F8C930CDF820B023F0420385F8C93035
:1032B000A5E74FF02808FEF714B90593FDF76EFD5A
:1032C00097F82E00059BFFF700BADFF890B0059342
:1032D000DBF81820002A3EF426AA95F8C920120728
:1032E0007FF558ACD5F8BC0000287FF431AA4FF028
:1032F0002608FEF7F6B802F0FD011C297FF497AC12
:103300001C2A14BF0A2009200E49059307F010FC5F
:10331000002801F06584059B002B40F00485298975
:10332000E4B2502908BF85F83530002C40F0D6842F
:10333000D5F8C83023F4C21323F40073C5F8C8309D
:1033400092E400BF50340020904B0020B0330020A6
:10335000903400200000004F00007A44282500200F
:10336000B7F800C0069ABCEB0B0318BF012363F348
:103370004922ADF81820BBF1000F40F029849DF8D8
:10338000243002F00102002B40F08A83002A40F032
:10339000A584D5F8C84024F4C21424F40074C5F8F8
:1033A000C840002C41F03A8622AB2822184621461C
:1033B00005931CF0FBFDA74B9DF89D20079393F808
:1033C00099300894B3FA83F35B0963F3410263F322
:1033D00082028DF89D2097F883308DF8A1300A9BEA
:1033E0003BB3DB689B7A1B0723D52B895A1E022A25
:1033F00007D9052B05D0332B03D0069B43F04003A0
:1034000006939DF824301BB1089B022B01F0188411
:103410000A9B1B7803F00302012A00F0E78513F0F2
:10342000020304D0069B83F04003C3F3801387F8A4
:103430007F30D5F8B4307B6729930EF0EFFF179CEF
:10344000109064B102280AD020461DF099FB01308B
:1034500018F068FA2A9010B121461DF0B9FAAB7A3B
:10346000012BBB7005D19DF89C3043F020038DF8F3
:103470009C306B6D0A9A3B6622935378012B00F0C7
:103480001284D2ED027A95ED1E7AF4EE477AF1EECF
:1034900010FA9DF81830149301D19C060AD50A9CA5
:1034A0002378D80703D5149B190640F11C85AB6F10
:1034B0000A9A9360149B5B0640F134830023D5F88D
:1034C000C0002593BB6F834200F0E083109BB86778
:1034D000022B6FD0FDF746FC0B9B1390002B40F0A6
:1034E000D48499F8D6319C0700F1CA845A4B1B7FCB
:1034F000042B00F0CA84D9F8E030002B00F0C0841F
:10350000D9F81C31CAF3074404F00204002B00F080
:10351000FA870B9A139882F001019847002C49D042
:103520000B9B002B46D1B86FFDF71CFC044605F041
:10353000BBFB2A9818B1FDF77FFE00232A93D7F82A
:10354000D03022691B699A4234D0DFF814B1DBF81D
:10355000C8306BB10A9A204612780B9298470A9AA3
:1035600013780B9A93421CBF85F848304AF4802A9E
:10357000D9F82031002B00F0ED87384898471A9091
:1035800000287FF45DAA802009F0BEF9DBF818302E
:10359000002B00F0C087C7F8D040DBF8CC304BB12F
:1035A0000EF03CFFB0F5007F04D0DBF8CC30D7F84C
:1035B000D0009847CAF307431AF4802F0B9300F00A
:1035C0005D820A9895F8481003788B4200F0498292
:1035D000DFF88CB0DBF840401CB14378259AC06816
:1035E000A0470A9B259A95F84810D86810F06AFD04
:1035F000002800F03A820A9895F84820D0F80CE0AC
:10360000DEF804301A7202700A9CCDF898E0FC656E
:103610006168206823AB03C397F87F309DF89C2036
:10362000217863F3C7128DF89C208DF88C100BB1B4
:1036300097F87E309DF89D2063F300028DF89D2061
:1036400095F8DC10A1F14603032B17D8DFE803F04F
:103650000A99960AE8280020904B00209034002018
:1036600028250020A1F1490041423B6E4141964886
:10367000FB6312F0EFF8002801F00484069BD905E3
:103680000AD57B7E95F82100834205D010F096F88C
:1036900010B195F821307B760023079A82F820300C
:1036A0007B7E8DF89E30CAF30743DA0627D597F85C
:1036B0002C2095F834309A4221D00A9C87F82C307F
:1036C000E3689BB1596897F82C200B7AC2F380020B
:1036D000C3F30010904209D062F304130B722378F5
:1036E00062F304132370002A41F0D08397F82C3042
:1036F000DB0701F1D28397F82C0002F049FD6B88BB
:10370000E3B1109B022B19D02B79002B40F0FE83E4
:103710000C9B85ED159AC5F8B8300E9B85ED1E8A79
:10372000C5F8C030694BC5F8C860D3F8FC400EF04E
:1037300075FE6749A0470023C5F8C8302B78042BD5
:1037400000F04884AB7B1AF4807FBB71EB7AFB708E
:1037500072D0EB7BFB7103F0FD03012B00F0B7820D
:103760000023F879584F03223946594C013A03286F
:1037700001F25F84DFE800F046361E0812F0C4F85C
:103780007CE712F0A3F879E7002093ED027AD1EDFF
:10379000337AB5EE407A77EE877AF1EE10FAA1F13E
:1037A000040118BF40F00100043BC1ED347AE2B3DC
:1037B000013AEAE700209DF8243023FA02F6F607E2
:1037C00031D5D4ED277A91ED337AB4EE677AF1EE04
:1037D00010FA28D0C1ED337A42B301200439043CF9
:1037E000013AEAE70020D3ED027A91ED337AB4EEA4
:1037F000677AF1EE10FA40F0F283B2B10439043B7B
:10380000013AF0E700200023D1ED337AF5EE407A5B
:10381000F1EE10FAC1F8CC3018BF40F001000439C5
:103820001AB1013AF0E7002AD8D128B14FF48060EC
:1038300009F06AF808F0A0FF3A7D2B7F9A420AD07F
:10384000244C254B0FCB84E80F004FF4007009F097
:103850005BF808F091FF2B7B3B7195F8353087F8CA
:103860002D302B78412B00F25F811B2B40F27982A7
:103870001C3B252B3BD8DFE813F0E7053A00E705B2
:103880003A003A003A003A003A003A003A00E105BC
:103890003A00DB053A003A003A003A003A003A00B2
:1038A0003A003A003A003A003A003A003A003A0048
:1038B0003A003A003A003A003A003A003A003A0038
:1038C0003A003A00BC0500BF9034002028250020B3
:1038D000B033002098340020C033002001230B2097
:1038E000B64987F8B43007F023F9FDF723FA2889A1
:1038F00095F837305028388087F82F3003D0089B50
:10390000022B00F04C822A9808B1FDF795FC95F83F
:1039100020303B762BB9079B93F90830002BBDF67E
:10392000E0AD05F0C1F93B7E632B00F01182032B63
:1039300000F0428395F82030012B00F031833C2BBE
:1039400001F00483079A92F90820002AC0F2288324
:10395000109A022A02D01E2B01F08C820122002331
:103960003A803A7D85F8373087F87C30BB713B71FF
:10397000BB70002A41F0E3820024BA6ABC8352681B
:1039800097F82C30107A8E4923F0050364F3041065
:1039900087F82C307C7691F820313C62107291F8D7
:1039A000102103F00105960741F1488264210A9A2B
:1039B000D2685268D16055B103F00603991F97F899
:1039C0002C204B424B4163F3C30287F82C20642325
:1039D000079997F82C20C1E904334A77109B022BF2
:1039E00021D07849387D07F0A3F8002801F0F8804D
:1039F0000B201FA907F09CF838B10C226F491FA8B3
:103A00001CF0A6FA002841F0298208F0B5FE10F05B
:103A1000CFFBD9F87430787E9847102008F074FFF7
:103A2000202008F071FFDFF8A4B1DBF84C302BB197
:103A3000109A387E941E614261419847624B186823
:103A4000002801F0D180846817F0A8FF2046F7E72E
:103A50009DF82420002A7EF488AE4FF02508FDF75B
:103A600040BD129B53B1DFF864B1DBF840402CB18C
:103A70000A98259A43780178C068A0470A9BD3F832
:103A80000CE0C1E537EE677A02F00103BBF1550F98
:103A90001A4687ED137A41F09A81002387F858304F
:103AA000002A40F05082D5F8C8304FF0000B23F4C4
:103AB000C21323F40073C5F8C830FFF7A0BBD5EDDF
:103AC000137AF4EEC77AF1EE10FA58BFF0EE477AA7
:103AD00095F8C800CCED077A20F0800085F8C80082
:103AE000FFF748B9352A00F09F827FF604AC412ADF
:103AF0003EF462AE2A89502A7FF4A3A8FFF7C2BB26
:103B0000B5F808B0BBF1500F7FF497A8002385F8F3
:103B10003530FFF796B80A9CAA6F217810F0F6F9B5
:103B2000AB6FA360AB6FCAE45C3BDAB21E2A3FF610
:103B3000DEAE1E2B3FF6DBAE01A252F823F000BF33
:103B4000A1440010EF380010EF380010EF380010DB
:103B5000EF380010EF380010EF380010EF38001089
:103B6000EF380010EF38001079440010EF380010E3
:103B7000EF380010EF380010EF380010EF38001069
:103B8000EF380010EF380010EF380010EF38001059
:103B9000BF440010EF380010EF380010EF3800106D
:103BA000EF380010EF380010EF380010EF38001039
:103BB000EF380010EF380010DD38001048350020D5
:103BC000904B002098340020F43B00202825002052
:103BD00095F837200AB985F8352095F84930012B3A
:103BE00000F07984BBF1210F00F09481BBF14C0F00
:103BF00000F0D682D5ED157AF5EE407AF1EE10FAA6
:103C00003FF49CA8002A40F02082BBF1050F01F28E
:103C10001F800BF1FF3BBBF1040F00F29081DFE846
:103C20001BF005085E0662068E01CC05D0ED307AE9
:103C300091ED066AD0ED336A77EE867A77EEA67A52
:103C400077EE877AC1ED277AFFF7CABA4FF01008EE
:103C5000FDF747BCB5F808B0BBF1010F7EF6EDAF3C
:103C60004FF01E08FDF73DBC0123FFF741B8139B41
:103C7000012B9CBFD2ED337AC1ED027AFFF711BA66
:103C8000D5F8C020C5F8BC20FEF76FBD1AF4003F80
:103C90003FF490AC0B9B002B7FF48CAC109B022B61
:103CA0003FF488AC3FE42B890A9A502B02D0002BBA
:103CB00041F0578153681BB10023536004F0F4FFB7
:103CC0000A9BD3ED027AC5ED1E7AFFF7DCBBA34B4E
:103CD000D5F8BC00DB699847034642E595F8C93042
:103CE00023F0420385F8C930D5F8C810002941F007
:103CF000958122AB2822184605931CF057F9984B62
:103D000097F8832093F899308DF8A120B3FA83F3C4
:103D10009DF89D205B0963F3410263F382028DF8F5
:103D20009D20FEF7C5BF03228E488F49013A23FA32
:103D300002FC1CF0010F08BFD0F870C0A1F1040113
:103D400008BFC1F8ACC00438002AEFD1FEF76FBF3E
:103D5000824BD3F81C3103B1984700233B76FDF723
:103D6000C0BB0A2B7FF4C3AD95F8C430022B02D040
:103D7000142B7FF4BCAD7D4C95F8AC00214606F0C9
:103D8000B9FE3A7D95F8AC309A427FF4B0AD94E834
:103D90000700774B83E8070008F0EEFCA7E5754CB9
:103DA000532823682B9301F22181532855D8DFE84B
:103DB00010F0E604DE04AF04AF045400860454009F
:103DC0005400540054005400540054005400540053
:103DD0005400540054005400540054005400540043
:103DE0005400540054005400540054005400540033
:103DF000540054006604540054005400540054000D
:103E00005400540054005400540054005400540012
:103E1000540054005400540027045400540054002B
:103E200054005400540054005400540054005400F2
:103E300054005400540054005400540054005400E2
:103E400054005400070454005400DF03540054008D
:103E50005400540007040704070400202B9A079B12
:103E600022605A78002A7FF44EAD002800F0A1832A
:103E700001287FF448AD4049404808F09DFC42E5E8
:103E8000D9F82031002B7FF43BABDFF8D0B0DBF862
:103E90001830E3B1139BC7F8D030DBF8C8305BB102
:103EA0000A9A1398147898470A9A1378A3421CBF69
:103EB00085F848304AF4802ADBF8CC3013B1D7F8C3
:103EC000D0009847802008F01FFDFFF719BB139B17
:103ED0001A69D7F8D0301A61DFE7DCED277AC1ED37
:103EE000027AFFF7DEB8E3685B6883ED007A04F0DE
:103EF000DBFE149AE06852067FF50DAE00222178B1
:103F000010F004F8AB6FA360FFF7D8BA04F0CCFE52
:103F1000FFF7FEBB0A9BDB68DB6B002B3DF403ACB9
:103F2000D5ED197AF5EE407AF1EE10FA3EF4C9AF0C
:103F3000069B43F020030693002A40F08680069BF0
:103F4000DC077FF5B0AD95F8C9304FF0010B23F0D9
:103F5000420385F8C930FFF752B900BF2825002079
:103F6000E828002090340020B03300205034002096
:103F700098340020F43B002074290020F8340020FD
:103F8000D2ED1C7A92ED306A77EEC77AD2ED336AC1
:103F900077EEC67A77EEE67AC1ED2A7AFFF7DAB8DD
:103FA000109B022B3FF4D9AE0821D9F84030784855
:103FB000984704F02BFBD0E6109B022B3FF4CDAECC
:103FC00095F820303C2BEFD1D9F8B831002BEBD04D
:103FD0009847E9E7E86E01F077FFFFF7B3BBC1ED63
:103FE000337A002A3FF422AC012007E43A8806998C
:103FF000501E022801F0400140F2AE87052A00F071
:10400000AB87332A00F0A88700297FF408AA069A14
:1040100042F020020692FFF702BA059CFEF707BEA7
:104020004FF01F08FDF75DBA2B89012B3FF618AE44
:1040300004F0FF0B002C3FF4DAA895F8C93023F008
:10404000420385F8C930FFF7DAB8BDF8183013F02D
:10405000020EDAB21CD0BB78012B00F0448795F831
:10406000CA305C077EF596AD9DF824301199CB409F
:10407000D8077EF58FAD01230021A7F858300D9B9E
:10408000396507EB830319640F9B07EB83031964FE
:1040900095F8C930D90600F13B87012385F8C43073
:1040A00095F8CA305B0718D5B7EE007ADFED396AAC
:1040B000D5ED1D7AEB7A002B2B7B07FE267A27EEB7
:1040C000877A002B00F01387119B07EB8303D3ED56
:1040D0001A7A77EE277AC7ED157A03202E49DFF892
:1040E000BCC09DF82430013823FA00F4E40797EDB2
:1040F000157A0DD5DCED277A119CC1ED127A844238
:1041000000F00F87D1ED1C6A77EEE67AC1ED127AE6
:104110000439ACF1040C0028E5D1119B07EB8303B3
:10412000D3ED107AF4EEC77AF1EE10FA00F37D8643
:10413000D5F8C83023F48223C5F8C830ABF1490361
:10414000102B00F26D8601A151F823F0D94D00101B
:10415000214E0010214E0010214E0010214E001063
:10416000214E0010214E0010214E0010853A001003
:104170009D4D0010D94D0010214E0010853A0010C1
:10418000814D0010214E0010214E0010814D001075
:10419000242900203333CB4190340020B033002059
:1041A0000A9BD868C36B002B3DF4BDAAAB7B012BE7
:1041B00040F095869DF8241011F0FA0FCBB240F034
:1041C0002D8795F8CA10059111F00401079109D0C7
:1041D00095ED1D7AF7EE007AB4EEE77AF1EE10FA7B
:1041E0003EF56FAE5C077EF5D5ACD5F8C810CD4C6A
:1041F0000C40002C3EF4CEAC95ED1BAAB5EEC0AA47
:10420000F1EE10FA3DF5BBABD5ED176AF5EEC06ADD
:10421000F1EE10FA3DF5B3AB95ED186AB5EEC06A54
:10422000F1EE10FA3DF5ABAB95ED167AB5EE407AAE
:10423000F1EE10FA3EF445AEF5EE406AF1EE10FAFA
:104240003EF43FAEF4EEC66AF1EE10FABEF639AEB9
:1042500095F8C91011F01004109404D095F8C440DA
:10426000032C3EF62EAE0A9CD0ED055AD4ED027A10
:10427000F4EEE57AF1EE10FA00F12D86D0ED065A53
:10428000F4EEE57AF1EE10FA00F32586BCF14C0F5E
:1042900040F01086A44CB5EEC07AF1EE10FA58BF8B
:1042A0004FF07E50D5ED279AB0EEC77A48BF9F48B1
:1042B00084ED00AA6062E87AC4ED019AC4ED036A55
:1042C00084ED046A84ED027A68B1DFED997A27EE15
:1042D000277A66EEA76A26EE276A84ED027AC4ED95
:1042E000036A84ED046A687B98B1B6EE006AD4ED87
:1042F000026A94ED037AD4ED047A66EE866A27EEBC
:10430000067A67EE867AC4ED026A84ED037AC4ED1C
:10431000047A042B2BD095ED046AD7ED2E5AD7EDF5
:10432000317A97ED1C7A36EE256A39EEC77A36EE89
:10433000276AD5ED256A67EE077A76EEC66AE6EE5D
:10434000A67AF0EEC78A17EE900ACDE91321C5EDE3
:104350001B8AC4ED066A1CF0E3FDDDE9132107EEBC
:10436000900A2AEE277AC7EE287AC4ED007A080769
:1043700044BFD5F8BC30A362109B1BB195F8C43084
:1043800084F82C30C90744BF2B6DE36194ED077AA4
:10439000B5EEC07AF1EE10FA40F2858594F82C3033
:1043A000002B00F08085D7ED1C7A79EEE77AF6EEE7
:1043B000006AF0EEE77A67EEA67AB4EEE77AF1EEFD
:1043C00010FA3EF77EAD079B0BB16B6F6361059BE7
:1043D0009B0744BF2B6F2362069B43F02003069389
:1043E000D5F8C83023F4E32323F4B873C5F8C830F4
:1043F000A2E500214F4811F019F800214E4811F0B4
:1044000015F8D5ED1B7AFCEEE77A17EE902A4B4BA8
:1044100090B2D3F818319847FE2804463DF461A8BD
:1044200011F0A6FAFF2C3EF44CADA046FDF759B8AA
:104430000A20434906F05EFBFFF759BA09204049BC
:1044400006F058FBFFF753BA9DF89C3043F0010388
:104450008DF89C30089B002B40F00A84394C05995C
:10446000204600F015FE94E80700354B83E807006E
:10447000FCF794FCFFF73BBA0023334AC7F8B83087
:1044800092F81111314A8807C2E9013387F8B43034
:104490003FF52BAA0B202D4906F02CFBFFF725BA80
:1044A000012387F8B430284B294A93F81141274B50
:1044B000A40707CA83E807003FF517AAEAE7002325
:1044C000224AC7F8B83087F8B430C2E90133FCF7A4
:1044D00031FCFFF70CBA95F84830DB0707D5D5ED6E
:1044E0001E7AF5EE407AF1EE10FA7FF47BAB4FF0D6
:1044F0002908FCF7F6BF013AD0B2FEF7FFBD4FF036
:104500001D08FCF7EEBF802008F0FEF9002C3FF4F8
:1045100051A8FFF705B82269D7F8D0301A61FFF724
:104520003CB800BF7000010040540020000080BF74
:104530003333CB41AC0F0210B40F021028250020FA
:10454000F834002050340020904B002048350020E3
:10455000443400201A9301234FF4806187F880309F
:10456000C248D9F84030984704F050F8FFF70EB829
:10457000DFF814B304F098FB079BDBF800100598F4
:104580005E7FFCF77FFBC6F3400A034600287EF4FB
:10459000B6AC059853465A46B54901F0D7FA3046AD
:1045A00001F0F6FD2B9B2360079B5B78002B7FF4CB
:1045B000AAA9AF4BAF4A07CA83E80700FFF7A3B920
:1045C0000D9B059A8DF874300F9B8DF87530119BFB
:1045D0008DF87630AB6F25931D9BADF800301B0C2A
:1045E0008DF80230A44B029395F8C4102833019142
:1045F00097F82D1087F85A109E4901F095F9D1E7E8
:10460000D5ED167A97ED1A3AD7ED1B3AD5ED176A24
:1046100095ED254AD5ED264A33EE277A37EEA76A7F
:1046200073EEA67A37EE447A77EEE47AF0EE085A23
:1046300076EEA66A37EE077A77EEA77A86EE255AE7
:1046400086EEA56AC7EE256A87EEA57A35EE035A8F
:1046500036EE236A76EE846A77EE247A1FAB0093F7
:104660000599834A83481DAB8DED1D5A8DED1E6A59
:10467000CDED1F6ACDED207A01F004F892E704F049
:1046800013FB079B0598696E5E7FFCF7FBFA0346F8
:1046900000287EF434AC9DF88C30059943F08003FB
:1046A0008DF88C309DF8A030724843F002038DF8ED
:1046B000A03000F0EDFC304601F06AFD72E797EDA6
:1046C0001A6A95ED164AD7ED1B6AD5ED174A95ED96
:1046D000257A97ED0C5AD5ED267AD7ED0D5A36EEA0
:1046E000046A76EEA46A37EE057A77EEA57A1FABF8
:1046F000009305995E4A5F481DAB8DED1D6ACDEDB7
:104700001E6A8DED1F7ACDED207A00F0BBFF49E7E0
:10471000BB78022B0BD19DF88C3043F080038DF8D1
:104720008C309DF89C3043F040038DF89C301499F8
:10473000D5F8D83049070D9948BF5B428DF8741001
:104740000F996A6F8DF87510119902938DF8761094
:104750001D9B0092ADF804301B0C8DF80630474BC2
:104760000599434A03F13C0000F0D2FC1AE7BB78FC
:10477000022B0FD005993F4800F08AFC12E79DF804
:104780009C30059943F001033A488DF89C3000F0C5
:104790007FFC07E73A4B1A7E9DF89C30022A43F0D3
:1047A00040038DF89C3000F0358201229DF88C305A
:1047B00062F3C7138DF88C30DCE7AB7B002B40F045
:1047C0008E839DF82430032B3EF6A0ABD5F8C8307D
:1047D00003F44032B2F5403F7EF4DCA9069A92051C
:1047E00004D503F03003302B7EF4D4A995F8C8200B
:1047F000D5ED1B6A12F0300F95ED1C6AEB7A47D1AC
:10480000B1EE667AF1EE467A85ED167AC5ED177A45
:104810004BB1DFED1E7A66EEA76A26EE276AC5ED7C
:104820001B6A85ED1C6A97F82E3083B1154B95ED08
:104830001B7AD5ED1C7A93ED036AD3ED046A27EE5B
:10484000067A67EEA67A85ED1B7AC5ED1C7AEB6ECB
:104850003B632B6F7B63D5F8C83023F4403323F0E0
:104860003003C5F8C830FFF76ABB00BF2429002019
:10487000F834002044340020D034002008340020D4
:10488000904B002024170020405400203333CB41AC
:10489000002B00F07D8195ED167A5FED045AD5ED81
:1048A000177A27EE257A67EEA57A97F82E3085EDF0
:1048B000167AC5ED177A002BABD0CF4B93ED035A88
:1048C000D3ED045A25EE077A65EEA77A85ED167AC0
:1048D000C5ED177A9DE74FF01A08FCF702BE069B5C
:1048E00043F00403069395F8CA0044070DD59DF8DC
:1048F0002430002BEFD001220D990F9C02FA01F118
:10490000A2401143194200F05A81C10700F12881E9
:104910000123C5F8D8300D9A05EB8203D3ED25AA03
:1049200007EB82030F9A93ED1A7A05EB8203D3ED1E
:10493000258A07EB8203D3ED1A7A95F8CA307AEE0E
:10494000C7AA5A0778EEE78A40F1878023F004036C
:104950000C22AA49AA4885F8CA301BF0F9FA0028A7
:1049600000F0F680EB7A3BB1D5ED1D7A9FEDA57A8C
:1049700067EE877AC5ED1D7A97F82E30B3B19E4B5E
:104980000D9AD5ED1D6A03EB8202D2ED037A0F9AE0
:1049900003EB820393ED037AF4EEC77AF1EE10FA9B
:1049A00077FE877A67EEA67AC5ED1D7AD5ED1D9A5A
:1049B000B1EE007A6AEEAABA29EE877AF0EE6B7A47
:1049C00028EEA8BAD9EE877A77EECB7AF5EEC07AE0
:1049D000F1EE10FA3DD417EE900A1CF0A1FA7BEE2E
:1049E0008B7A0AEE100A17EE900A1CF099FAB1EED3
:1049F0004AAA07EE100AF5EEC09ACAEE077A2B898A
:104A0000032B08BFF1EE677AF1EE10FA05D5F1EE4F
:104A1000699AF1EE677AC5ED1D9AB0EE6A7AF6EE04
:104A2000006AA7EEE87AE7EEAA8A27EE267A68EE11
:104A3000A67A0D9B05EB83020F9B82ED167A05EBA0
:104A40008303C3ED167A069BDB073FF57CAAFFF7CD
:104A50002AB84FF02208FCF744BD01230D9A0F99A4
:104A600003FA02F28B401343079A134274D095F86D
:104A7000C83023F0700385F8C830EB7A8BB19FED16
:104A8000617A0322604B0799013AD140CC0705D5E2
:104A9000D3ED187A67EE877AC3ED187A043B002AC3
:104AA000F1D197F82E309BB10322574B524907980A
:104AB000013AD040C00707D5D3ED187A91ED057AB9
:104AC00067EE877AC3ED187A043B0439002AEED1E9
:104AD0000F9B05EB8303D3ED169A0D9B78EEE98AC5
:104AE00005EB830393ED16AA68EEA88A7AEECAAAAC
:104AF000EAEEAA8A18EE900A1CF012FA69EEA99A58
:104B0000EAEE0A9A08EE900A19EE900A1CF008FAEA
:104B100007EE100A78EEC77ADFED3C6AF0EEE77A2E
:104B2000F4EEE67AF1EE10FA68677FF708AAF6EE7F
:104B3000006AF4EEE67AF1EE10FA09DCDFED346A91
:104B400027EE267AB4EEE77AF1EE10FA7FF5F7A9B0
:104B50004FF02108FCF7C5BC4FF02308FCF7C1BC9F
:104B6000E86E0BF013FE00283DF4F1ABD5ED1B7A97
:104B7000FCEEE77A17EE903AC5ED367A002B3EF45C
:104B8000A0A995F8CA3023F0010385F8CA30C2E61F
:104B900097F82E30002B3FF45AAE174B95ED167A4E
:104BA000D5ED177A93ED036AD3ED046A27EE067A02
:104BB00067EEA67A85ED167AC5ED177A37E64FF0DF
:104BC0002008FCF78EBCCDE9132322AB1946082040
:104BD000059305F0ADFFDDE9132300287EF42DAA2F
:104BE0004FF00708FCF77DBC10F070FEDBF80C30CE
:104BF00008209847FFF7B1B824170020443400205C
:104C0000F83400203333CB41B03300200AD7A33B24
:104C10006F12833A95ED277AD7ED1C7AB4EE677A56
:104C2000F1EE10FA14BF01220022BFE5069A9DF8AA
:104C3000243002F00102002B3EF4A8ABFEF730BF97
:104C4000069B43F0800306930A9B1B78FEF7E7BBA5
:104C5000BBF1330F38D0ABF18C03032B3FF66FA9B8
:104C6000ABF18D03022B0DD8DFE803F0080C080030
:104C70000599D74800F00CFAFFF7F0BB069B43F00C
:104C800010030693ABF18E0BBBF1010F94BF012310
:104C9000069B069A88BFC3F3C00363F3C3029DF863
:104CA00024301446ADF81820002B3FF414AE0C222B
:104CB000C749C8481BF04CF900283FF449AFE10749
:104CC0003FF541A9FEF7EFBEAB7B002B40F007811B
:104CD0009DF82430032B3EF619A9D5F8C83003F00F
:104CE0003003302B7DF456AFD5ED167AF5EE407AD1
:104CF000F1EE10FA3EF4E5A8EB7A5BB1DFEDB66AAF
:104D000095ED177A67EEA67A27EE267AC5ED167A24
:104D100085ED177A97F82E3083B1B04B95ED167A62
:104D2000D5ED177A93ED036AD3ED046A27EE067A80
:104D300067EEA67A85ED167AC5ED177A95F8C83034
:104D400023F0300385F8C830069BD8073FF5FBA851
:104D5000FEF7A9BED2ED1C7A92ED046AD2ED306A5C
:104D600077EEC67A9CED277A77EEE67A77EEC77A09
:104D7000C1ED027AFEF795B94FF03808FCF7B1BBE8
:104D80004FF00003ABF15604D4F1000B4BEB040BD6
:104D90006BF307036BF30F23A7F8583095F8CA306D
:104DA000D8077DF5F3AED5ED1B6AF5EEC06AF1EEDE
:104DB00010FA3CF5E4AD23F00103C7ED146A85F861
:104DC000CA3037EE677A87ED137A02F00103002BC1
:104DD0007FF4B9A8FEF767BE95F8CA30990728D5C1
:104DE000D5ED1C7AF5EEC07AF1EE10FA7CF6C7AD7F
:104DF000B7EE007ADFED786AE97A23F00203002942
:104E000007FE267A67EE877A85F8CA30C7ED137AEF
:104E10004FF07A533B65D3073FF595A8FEF743BEA5
:104E2000D2073FF590A8FEF73EBE4FF03608FCF7DC
:104E300058BBBEF1000FEBD0FDF7ACBEA5B103F03F
:104E400006039A1F5342534197F82C2063F3C30281
:104E5000079B87F82C205A77FEF7C0BD0B206049CE
:104E600005F048FEFEF7D1BD97F82C30079A53772E
:104E7000FEF7B4BDD9F8B831002B3EF46FAD9847BA
:104E8000FEF76CBD4FF05308FCF72BBBFB6D6421A4
:104E9000D8680EF0B9FFFEF729BC0021084601F0E2
:104EA00025FFFEF728BC0023E361002384F82C30A3
:104EB000FFF789BA4FF0000C4FF07E54494840F894
:104EC000044CC0E900CCC0E902CCC0E904CCA0F19C
:104ED0001804FFF7E0B94FF02C08FCF702BB4FF0C5
:104EE0002A08FCF7FEBA4FF00308FCF7FABA11994A
:104EF00005EB8103D3ED047A07EB810393ED2E6A72
:104F0000D3ED316A77EE867A77EEA67AFFF7E1B8CD
:104F100095F8C430002B7FF4C3A84FF01308FCF7BA
:104F2000E0BA2C7B002C3FF4F3A8D1ED1C6A77EE9D
:104F3000E67A77EE877AC1ED127AFFF7E9B84FF497
:104F400000703B7507F0E0FCFEF716BD109B022BCE
:104F50007FF43AA8FEF701BF00293EF460AAFFF7EC
:104F600056B8D36800215C6804F1100353600F9BAE
:104F7000184663629B46FBF7A1FF0A9A20625368BA
:104F800007EB8B02D2ED1A7AD3ED046A77EEE67A5C
:104F9000F5EEC07AF1EE10FA93ED037A0DD9DFED5C
:104FA000126A93ED006A67EEA67AC6EE276AF4EEFF
:104FB000C76AF1EE10FA37FE267A0A9B85ED1E7A53
:104FC000D3ED027AFEF75FBA4FF05208FCF789BAC8
:104FD00044340020F83400203333CB412417002020
:104FE0004835002058540020DB0FC9408C38032876
:104FF00018D8254B9DF89C0093F81431BDF8182063
:10500000C3F3001383F0010363F304108DF89C00D5
:1050100005991E4800F068FFFEF720BF4FF02408F6
:10502000FCF75FBA079B5B78002B7EF46CACFFF754
:10503000C0BA0439043B043C002A7EF497ABFEF767
:10504000FBBB18EE102A6AB9A3F15B0673427341E9
:105050002B739DF8703043F008038DF870300823EF
:10506000FCF7CEBD9DF8702042F010028DF8702044
:1050700018EE102A0A2A7CF456AB5A2B3CF453AB98
:105080001023FCF7BDBD00BF904B0020443400202E
:1050900038B54B7D0C4603F00603062B054602D0BF
:1050A00049690CF06DFE0DF0B9F9022808D1174BD3
:1050B0001A781AB9587880F0010038BD002038BD40
:1050C00003F0A4FA0028F2D004E001F06FFB30B145
:1050D00002F0ACFF03F09AFA0028F6D1EDE7214682
:1050E000284601F0BFFB0028E1D123699B7A1B070A
:1050F000DDD5237903F00303012BD8D103F0D4FDD0
:105100002069E268436A21799847D0E7E8280020BF
:105110002DE9F04F2DED068B9DB09DF8B4B09DF8B4
:10512000B540914603EB8B02CDE908104FEA8B05A1
:1051300010681294049513931D4616921BF0D0FE2E
:10514000064605EB8402106801F100431792A200A5
:105150000F460E92069607931BF0C2FE04464FEAD6
:105160008B0309EB03021068109201F100420D4617
:10517000049405921BF0B4FE32463B4615F064F8E9
:10518000CDE90A010E99DDF8B88009EB0106306817
:1051900011961BF0A5FE22462B4615F055F8099CEA
:1051A0004FEA8B03E318CDE90C0118681BF098FE59
:1051B000DDE90A2315F05CF80F460E9906466318E0
:1051C00018681BF08DFEDDE90C2315F051F832460E
:1051D00004460D46DDE906013B4615F05DF89DED00
:1051E0002C9A22462B46CDE914019DF8B6A0DDE9A4
:1051F000040115F051F802460B46DDE9140115F0E3
:1052000023F822462B4604460D46DDE9060115F03B
:1052100043F832463B4606460F46DDE9040115F0E9
:105220003BF802460B463046394615F021F8224637
:105230002B4615F095FE15F0A3F8B8F1000F08EE17
:10524000900A40F3EE81DFED9C7AF4EEE78AF1EE0E
:1052500010FA40F2DA81089D6B7D5C0723D4974AEF
:10526000D2F80841FCB143F004036B75DDE90A0193
:1052700015F086F81990DDE90C0115F081F88DED37
:10528000009A2D9B1A90ADF804301B0C8DF8063057
:10529000CDF8088019AB0CCB49460998A0476B7D27
:1052A00060F341036B7588EAE874A4EBE874012CA1
:1052B00040F39480601E07EE900AF8EEE77A17EE4E
:1052C000900A1BF00DFE78A3D3E9002314F0E4FF4D
:1052D000B8F1000FD8BFF1EE687A06460F4609EB29
:1052E0008A0393ED008A099BD4BF17EE900A18EE4B
:1052F000900A03EB8A03D3ED009A1BF0F1FD3246CE
:105300003B4614F0A1FF15F03BF879EEC89A07EE82
:10531000100AC9EE877A77EEA77A17EE900A1BF08B
:10532000DFFD63A3D3E9002314F0B6FF15F028F8DE
:105330004FEA8B010DEB01070E99099A0DEB01065F
:1053400010994FEA8A05D1F800E0119905F1700330
:10535000D1F800C009EE900A5168106892680DEB10
:10536000030519AB07C3B8F1000FC7F864E0C6F82E
:1053700064C00DF10606CCBF4FF001084FF0FF38B6
:10538000334646469846023C01AF39EE888A129B66
:105390008DF8B4B08DF8B5308DF8B6A0DDF8B4C096
:1053A000139B4FEA1C4E05ED038A089902964A4664
:1053B000A7F800C019A888F800E08DED009AFFF763
:1053C000A7FE19AB07CBC9F80000C9F80410C9F84B
:1053D00008201CB115ED038A013CD6E7384B79EE65
:1053E000097A93ED027AF4EEC77AF1EE10FA40F3FF
:1053F000038177EEC77AB6EE008A67EE877A28EEE9
:10540000888AF5EE407A28EE098AF1EE10FAB0EEBD
:10541000C88A00F12981B1EEE77AC8EE077AFBFE6F
:10542000677AFCEEE77A17EE902A002A00F0E48013
:105430000899F8EE675A0B7D980600F1068188EE10
:10544000A5AAF0EE007ADFED1F6AEAEE4A7AB1EE25
:10545000007AB6EE005A099B09EB8A0803EB8A0131
:1054600037EE877A91ED006A67EE857AD8ED004ACB
:105470006AEE266A36EE646ACDED147A66EE877AB5
:10548000012A86EE259ACDED137A00F0B580DDE98C
:105490000645CDF848904FF0000B4FF0010A9146B9
:1054A00076E000BFAFF30080182D4454FB21194073
:1054B000182D4454FB210940BD370635282500200E
:1054C000904B0020ABAA2A3E13981BF009FD06461C
:1054D00014980F461BF004FD22462B46CDE90E0121
:1054E00030463946CDE9066714F0D6FEDDE90423DF
:1054F00006460F46DDE90E0114F0CEFE02460B46CD
:105500003046394614F0A0FE14F03AFF22462B46EE
:105510000646DDE90E0114F0BFFEDDE90423044672
:105520000D46DDE9060114F0B7FE02460B462046A3
:10553000294614F09DFE044630460D461BF0D0FC73
:10554000CDE904010BF1010B2246DDE90A012B46EE
:1055500014F07AFE14F014FF109B1860DDE90423A8
:10556000DDE90C0114F070FE14F00AFF119B08999C
:105570001860D8ED007A77EE897A1298C8ED007A33
:10558000FFF786FD00286AD00AF1010AD14533D021
:10559000BBF10C0F98D107EE90AAF8EE677A67EE90
:1055A0008A7A17EE904A204616F071F808EE100A33
:1055B000204616F069F8179B08EE900AD3ED009A82
:1055C000169B29EEA87AD3ED007AA7EEC87AF1EE01
:1055D00067AA28EE698A17EE100A1BF081FCAAEE72
:1055E000A88A044618EE100A0D461BF079FC4FF00D
:1055F000000BCDE90401A7E7DDE908101DB0BDEC03
:10560000068BBDE8F04FFFF743BD1BF069FC1AA302
:10561000D3E9002314F018FE14F0B2FE08EE900A4D
:1056200019E6DFED177AF4EEE78AF1EE10FAFFF6ED
:1056300012AE1BF055FC10A3D3E9002314F018FEA2
:1056400014F09EFE08EE900A05E6D1ED007A67EEB2
:10565000A57A23F02003C1ED007A0B75EFE61DB0AB
:10566000BDEC068BBDE8F08F17EE900A1BF058FCDE
:1056700007EE100AD1E600BF182D4454FB21194053
:10568000BD3706B52DE9F0412DED108B9FEDA39AA6
:10569000DFEDA38AF7EE009ADFEDA2DA1D46B0EE49
:1056A00049AA84B014460646884610685168926834
:1056B0000DF1040CACE807001A9F39EE289AB4EEFD
:1056C000E99AF1EE10FA97ED001A97ED010A96EDBE
:1056D00000BA96ED01CA39FE898A79EEC87AD5ED0D
:1056E000001AD5ED010A6BEE082A2CEE083A61EE9D
:1056F000086A20EE087AE1EEA76AA0EEA77AE1EE4A
:10570000272AA0EE273AD4ED00AAD4ED01BA61EE23
:10571000884A20EE885A68EE222A28EE033A68EE7C
:10572000265A28EE076AE7EEA62AA7EE273AEAEEFF
:10573000A74AABEEA75AF0EE656AB0EE467AE7EEFE
:10574000A46AA5EE277A68EE222A28EE033A002200
:10575000B6EE002ADDED01CA9DED02DAE7EEA62ADB
:10576000A7EE273A53E078EE287A67EE827A39EE90
:10577000E77A6BEE276A2CEE276AE1EE076AA0EE65
:10578000076A21EE275A60EE275AA1EE875AE0EE0B
:10579000875A61EEA7FA20EEA7FA67EEA66A27EE0F
:1057A000866AEAEE87FAA5EE876AABEE87FA27EEFD
:1057B000A5EAE7EE056A67EE85EAAFEE07EAE7EEEF
:1057C0002FEA67EEA66A27EE866AE7EE2E6AAEEE4D
:1057D000076A7DEE034A3CEEA24AF0EE665AB0EE4E
:1057E000467AE4EE425AA4EEC27AF0EEE55AB0EE02
:1057F000C77A37EE257AB4EECA7AF1EE10FA0FD9ED
:10580000B0EE463AF0EE662AB0EE678A012278EEF4
:10581000683AF4EEED3AF1EE10FAB0EE639AA2DADD
:10582000AAB1414601A8F0EE488ACDED012A8DEDDE
:10583000023AFFF72DFC28B1B4EEE98AF1EE10FA36
:105840003FF53BAF04B0BDEC108BBDE8F081B0EE8E
:10585000005AF6EE005A59E0F0EE687AE3EE857AE7
:10586000F4EEE97AF1EE10FADBDA39EEE77A2BEEB4
:10587000276A6CEE276AA1EE076A61EE27EAE0EE7E
:10588000076AE1EE87EA60EE273A21EEA7EA27EE03
:10589000866AE0EE873AAAEE87EAA7EE2E6A20EE45
:1058A000A72A67EEA66A27EEAE4AABEE872AA7EED6
:1058B0000E4AE3EE876A67EEA34A27EE866AE2EEB7
:1058C000074AA7EE046A67EEA66AE4EE876A7CEEF2
:1058D000864AB0EE627A3DEE264AA4EEE57AF0EE14
:1058E000434AE4EE654AB0EEC77AF0EEE44A37EE9A
:1058F000247AB4EECA7AF1EE10FA92DCB0EE678A3E
:10590000B0EE663AF0EE462A77EEE83AF4EECA3A9E
:10591000F1EE10FAB0EE639A9ED982E7CDCCCC3D81
:10592000000000006F12033B2DE9F04F2DED048BBA
:1059300085B09DF84A60149D4FEA860903EB860600
:1059400095ED057AD6ED007AF4EEC77AF1EE10FA0D
:105950009DF848409846137D03949DF8494043F0D4
:1059600001030294824614468B46139F137500F17F
:10597000AA80AB7EDBF80010DBF80420012BDBF8FB
:10598000083008BF95ED059A4046C8F80010C8F8E1
:105990000420C8F808302146C6ED007A18BFB0EEE2
:1059A000679AFFF775FB002800F088807B1E019343
:1059B000002F77D0002796ED008AD5ED057AB4EE5A
:1059C000E78AF1EE10FA00F3898005EB090393ED05
:1059D000007AB4EEC78AF1EE10FA5DDDD5ED037AF8
:1059E00038EE678AB4EEC78AF1EE10FA48BFB0EE1F
:1059F000478A237D214623F001032375404686ED27
:105A0000008AFFF745FB002858D0D5ED048AF5EE53
:105A1000C08AF1EE10FA22DC6B7E2BB120693A4687
:105A20004FF00001436A9847BAF1490F23D0F0EED6
:105A3000497A237D2A7EC6ED007A62F3000321466F
:105A400040462375FFF724FB002837D06B7E002BE0
:105A5000BBD0E268217920690EF034FBB5E70CF089
:105A6000DDFC0228D8D003F01FF9002118EE900ABF
:105A70000AF0A8FED0E705EB0903D6ED007A93ED16
:105A8000007AF4EE477AF1EE10FAD0D02D4B93ED78
:105A9000037A77EE877ACCE7237D43F00103237501
:105AA000019B33BBD8F80010D8F80420D8F8083090
:105AB000CBF80010CBF80420CBF8083005B0BDECD3
:105AC000048BBDE8F08F86ED007A11464046FFF763
:105AD000DFFA0028F2D0D6ED007A4AE7C6ED007A68
